:020000040800F2
:10000000C00600202D020008BB0A00080F0A0008E5
:10001000B90A000825070008951C00080000000028
:100020000000000000000000000000009B16000817
:100030002707000800000000331200085D170008C1
:10004000470200084702000847020008470200086C
:10005000470200084702000847020008470200085C
:100060002907000869070008A907000847020008D7
:10007000470200084702000847020008470200083C
:10008000470200084702000847020008470200082C
:10009000470200084702000847020008470200081C
:1000A000470200084702000847020008470200080C
:1000B00047020008B1170008E517000847020008CA
:1000C00047020008470200084702000847020008EC
:1000D00047020008F91A0008470200084702000812
:1000E00047020008470200084702000847020008CC
:1000F000C518000847020008470200084702000828
:1001000047020008470200082118000847020008BB
:100110004702000847020008A91800084702000823
:10012000470200084702000847020008470200088B
:1001300000F002F800F06BF80AA090E8000C82448E
:100140008344AAF10107DA4501D100F060F8AFF26B
:10015000090EBAE80F0013F0010F18BFFB1A43F0A5
:10016000010318478C3C0000AC3C00000A444FF0EF
:10017000000C10F8013B13F0070408BF10F8014B06
:100180001D1108BF10F8015B641E05D010F8016B4B
:10019000641E01F8016BF9D113F0080F1EBF10F8AF
:1001A000014BAD1C0C1B09D16D1E58BF01F801CBD2
:1001B000FAD505E014F8016B01F8016B6D1EF9D555
:1001C0009142D6D37047000000230024002500266A
:1001D000103A28BF78C1FBD8520728BF30C148BFAA
:1001E0000B607047642900F09D80752900F09A80AB
:1001F000782900F0D380632900F02782732900F06A
:100200002C82002070471FB51FBD10B510BD00F037
:1002100057FA1146FFF7F7FF01F0A4FD00F075FA59
:1002200003B4FFF7F2FF03BC01F03CFD094880472F
:1002300009480047FEE7FEE7FEE7FEE7FEE7FEE7C8
:10024000FEE7FEE7FEE7FEE704480549034A054BE3
:10025000704700006117000831010008C00200204B
:10026000C0060020C0020020704700000FB40449FF
:1002700010B503AA029800F0F5F910BC5DF814FB64
:100280003400002070B5044685690068C10601D5B8
:10029000302600E02026C00707D070BDD4E9012138
:1002A00030469047206A401C20626D1EF6D570BD16
:1002B00070B5044685690078C00707D170BDD4E9E0
:1002C000012120209047206A401C20626D1EF6D537
:1002D00070BD70B50C460546012A05D02878800609
:1002E00000D5EA69002302E0012305E05B1C93428C
:1002F00002D2E05C0028F9D1A869E618C01AA8610A
:10030000286A184428622846FFF7BCFF04E0D5E9B4
:10031000012114F8010B9047B442F8D32846FFF7A7
:10032000C7FF70BD2DE9F04106460024106875290D
:10033000314616A510D0AFF30080002802DA404203
:1003400013A507E031688A0701D512A502E0490725
:1003500004D511A5012401E0AFF3008000210A2299
:1003600006F1240709E0B0FBF2FCB0FBF2F302FB5C
:100370001C00303078541846491C0028F3D123461D
:100380002A463046BDE8F04100F0FCB8000000000D
:100390002D0000002B0000002000000070B5044676
:1003A0000D4621461068AFF300802188090502D56B
:1003B0000F4A7A4402E00E4A7A440E32002104F1D8
:1003C000240305E000F00F060009965D5E54491C09
:1003D0000028F7D120780023000704D5702D02D023
:1003E00009B1022311322046BDE8704000F0CAB8BE
:1003F000F83800002DE9F05F894604464FF0000A06
:10040000DFF874B1FB44C0F820A02046E1688847BB
:10041000002874D0252806D0D4E901219047206A0D
:10042000401C2062F1E700265F462046E1688847CD
:100430002028054607DB312D05D2781910F8200C4D
:1004400008B10643F1E7B00701D526F00406C4F869
:100450001CA00027C4F818A02A2D09D0284601F0B6
:100460001AFC38B304EB8708303DC8F8185019E07F
:1004700059F8041B204604EB87029161E168884724
:10048000012F054618D1E069002820DA26F0200661
:100490001DE0D8F8180000EB800005EB4000303874
:1004A000C8F818002046E1688847054601F0F3FBCC
:1004B0000028EED1012F0AD02E2D08D12046E16868
:1004C00088477F1C0546022F46F02006C4DBA06942
:1004D000002803DA404246F00106A061F00701D08F
:1004E00026F010066C2D0BD0682D09D04C2D39D07C
:1004F0006A2D35D0742D35D07A2D33D016E038E002
:10050000E1682F4620468847B842054609D16C2F3E
:1005100026D04FF48060E1680643204688470546B0
:1005200004E06C2F1AD04FF4807006430DB3A5F190
:100530004100192802D8203546F400664A4629466B
:10054000204626604E46FFF74DFE80B101280BD0B5
:10055000F61D26F0070000F1080956E74020E4E701
:100560008020D8E70020D6E706F104094DE72846A9
:1005700052E7206ABDE8F09FCE3800007047704710
:10058000704770472DE9F0470D469946924604465C
:1005900000F124080168880604D5E06921F0100103
:1005A000216000E00120A84201DD471B00E0002798
:1005B000A1697A1902EB0900081AA0612078C00627
:1005C00002D42046FFF75EFE002608E0D4E90121B0
:1005D0001AF806009047206A401C761C20624E459F
:1005E000F4DB2078C0060AD52046FFF74BFE06E074
:1005F000D4E9012130209047206A401C2062381E37
:10060000A7F10107F4DC07E0D4E9012118F805009F
:100610009047206A401C2062281EA5F10105F3DCEA
:100620002046FFF745FE2078000602D50220BDE8EF
:10063000F0870120FBE710B5436913B1AFF30080E9
:1006400001E0FFF746FE012010BD127800F1240101
:100650000A7000224A700122EDE711684FF0FF3264
:10066000E9E70000074B70B50D467B4400F011F838
:100670000446284600F020F810B14FF0FF3070BD5E
:10068000204670BDDF16000001694A1C026108782F
:10069000704700B58FB0CDE90131002105910549C2
:1006A0007944CDE9031011466846FFF7A3FE0FB069
:1006B00000BD0000E5FFFFFF007B00F080007047F9
:1006C000754600F02BF8AE4605006946534620F00B
:1006D0000700854618B020B5FFF7B6FDBDE82040FD
:1006E0004FF000064FF000074FF000084FF0000BEE
:1006F00021F00701AC46ACE8C009ACE8C009ACE8A1
:10070000C009ACE8C0098D46704710B50446AFF388
:1007100000802046BDE81040FFF782BD00487047CA
:100720005C020020FEE7704710B50A2001F0DAFAFB
:1007300004210A4800F060F948B90949D1F8940148
:1007400050B10020C1F89401064902200870BDE8AC
:100750001040042000F0B0B80120F3E70018014079
:10076000008021420000002010B50A2001F0BAFAF2
:1007700008210A4800F040F948B90949D1F8940124
:1007800050B10020C1F89401064901200870BDE86D
:100790001040082000F090B80120F3E70018014055
:1007A000008021420000002010B50A2001F09AFAD2
:1007B00010210A4800F020F948B90949D1F89401FC
:1007C00050B10020C1F89401064900200870BDE82E
:1007D0001040102000F070B80120F3E7001801402D
:1007E0000080214200000020FEB500F011F9012137
:1007F000084600F02BFD0221042000F09BF80420A5
:10080000002701908DF808700C208DF80900012454
:100810008DF80A4001A800F055F80321042000F0EB
:1008200089F8082601A8019600F04CF80421084632
:1008300000F080F81020019001A800F043F800219A
:10084000084600F077F801948DF8096001A800F0DF
:1008500039F806208DF8000002258DF8015003209C
:100860008DF802008DF80340684600F07FFA8DF89D
:1008700000608DF801508DF802508DF803406846F5
:1008800000F074FA09208DF800008DF801508DF801
:1008900002408DF80340684600F068FA0A208DF89F
:1008A00000008DF801508DF802708DF80340684605
:1008B00000F05CFAFEBD00000149086070470000CE
:1008C0001404014030B51A4A8379016853B31368A0
:1008D0008B431360111D0B680468A3430B600179FF
:1008E00011440B68046823430B60114B08331968EB
:1008F0000468A14319601C1D21680568A943216093
:100900004179102905D011440A68006802430A6041
:1009100030BD1968026811431960216800680143FD
:10092000216030BD0079104402688A43026030BD06
:100930000004014010B58A0721F003040649120F94
:1009400021440F238C6893409C438C608B689040BB
:1009500003438B6010BD000000000140F0B5CC786F
:10096000002204F00F03E40601D58C7823430C78B1
:100970004FF00F0C14F0FF0F4FF0010E1BD0056865
:100980000E880EFA02F42640A64210D196000CFA08
:1009900006F725EA070703FA06F5CE783D43282E29
:1009A00002D0482E02D002E0446100E00461521CF3
:1009B000082AE5D305600A88FF2A1CD9446800226A
:1009C00002F108060EFA06F50E882E40AE420ED150
:1009D00096000CFA06F7BC4303FA06F7CE783C43C0
:1009E000282E00D14561CE78482E00D10561521CD9
:1009F000082AE5D34460F0BD0246002092680A420E
:100A000000D0012070474161704701617047FEE7E7
:100A100008B50121402000F019FC1C20ADF80000B1
:100A200048208DF8030069460148FFF797FF08BD8D
:100A30000018014038B50121482000F007FC2024AF
:100A4000ADF8004010208DF803000320174D8DF8FD
:100A5000020069462846FFF781FF20212846FFF75C
:100A6000D4FFADF80040124C69462046FFF776FFF0
:100A700020212046FFF7C7FF40200E4DADF80000B3
:100A800069462846FFF76AFF40212846FFF7BBFF6B
:100A90004FF4D874ADF8004069462846FFF75EFF72
:100AA00021462846FFF7AFFF38BD0000000C01408B
:100AB0000018014000080140FEE770471CB510A077
:100AC000D0E90010CDE90010082000F0A7FD0522B4
:100AD0006946302000F016F905226946102000F022
:100AE0007DF8002069460A5CA52A03D1401CC0B2EB
:100AF0000528F8D3052801D001201CBD00201CBD0D
:100B0000A5A5A5A5A500000030B587B001214FF42B
:100B1000847000F09BFB4FF48054ADF8144010201B
:100B20008DF817000320294D8DF8160005A92846D9
:100B3000FFF714FF21462846FFF767FF4FF4C07008
:100B4000234CADF8140005A92046FFF707FF40210C
:100B5000ADF8141028218DF8171005A92046FFF7CD
:100B6000FDFE4FF4E0712046FFF74DFF00F0E4FC7E
:100B7000184D0021284600F05FFD0024ADF800402C
:100B80004FF48270ADF80200ADF808406815ADF87A
:100B90000A001820ADF80C000720ADF80440ADF8AD
:100BA0001000ADF80640ADF80E406946284600F04A
:100BB00058FD0121284600F03FFD0748C0F8A0413C
:100BC0000121C0F89C1107B030BD0000000C0140AD
:100BD0000020014000380040000024422DE9F0418F
:100BE0000C4F0E4600211546C7F89C1100F0EEFC94
:100BF0008046002405E0FF2000F0E8FC3055641C2E
:100C0000E4B2AC42F7D30120C7F89C014046BDE8EE
:100C1000F08100000000244210B5074C0021C4F808
:100C20009C1104F5CE7400F0D1FCFF2000F0CEFC46
:100C30000121216010BD00000000244210B5164CB7
:100C40000020C4F8A00105221449302004F5D07416
:100C500000F058F811490522491D2A2000F052F8E9
:100C60000121212000F06CF80121222000F068F819
:100C70001A21242000F064F83C21252000F060F8BF
:100C80000F21262000F05CF80E21202000F058F8FB
:100C90000120206010BD000000002442A43C000898
:100CA00070B505464FF4E13001F040FC102000F033
:100CB000B5FC134C0020C4F8A00120222946A02036
:100CC00000F020F80120C4F8A001D4F81801002891
:100CD000FBD10720FFF7A0FF04460146272000F0C4
:100CE0002FF8E00605D5FF21E12000F029F81020BB
:100CF00070BDA00601D5202070BDFF2070BD000092
:100D0000000024422DE9F0410C4F0D46002116460B
:100D1000C7F89C1100F05AFC8046002405E015F845
:100D2000010B00F053FC641CE4B2B442F7D3012081
:100D3000C7F89C014046BDE8F08100000000244255
:100D400070B50D46084C01460020C4F89C010846C9
:100D500004F5CE7400F03AFC0646284600F036FC56
:100D600001202060304670BD0000244230B50F23C2
:100D7000C27801780125F2B1144A126801F1E0212C
:100D800002F4E062C2F5E062120AC2F10404D34048
:100D90004278A24084781C401443220181F8002448
:100DA000007800F01F018D404009800000F1E02034
:100DB000C0F8005130BD01F01F0085404809800097
:100DC00000F1E020C0F8805130BD00000CED00E0E3
:100DD0000249084302490860704700000000FA0514
:100DE0000CED00E070B50646002505F1B000C0B27C
:100DF00000F051F9012000F04EF9102000F04BF9FD
:100E00000024304600F058F9641CE4B2802CF8D37A
:100E10006D1CEDB2082DE8D370BD000038B501217E
:100E2000082000F013FAC020ADF8000010208DF863
:100E300003000320054C8DF8020069462046FFF7A9
:100E40008DFDC0212046FFF7E0FD38BD000C0140BC
:100E500070B50A4C0125C4F89C51284604F5CC74A1
:100E600000F05AFF2560012000F056FF0025656064
:100E7000012000F051FF256070BD0000008021427C
:100E800070B50A4C0025C4F89C51012004F5CC74BF
:100E900000F042FF2560012000F03EFF0125656063
:100EA000284600F039FF256070BD00000080214217
:100EB00010B5FFF7B3FF642000F014FFAE2000F080
:100EC000EAF8002000F0E7F8102000F0E4F84020F5
:100ED00000F0E1F8812000F0DEF8C42000F0DBF83B
:100EE000A12000F0D8F8C82000F0D5F8A62000F026
:100EF000D2F8A82000F0CFF83F2000F0CCF8D320A3
:100F000000F0C9F8002000F0C6F8D52000F0C3F8C2
:100F1000802000F0C0F8D92000F0BDF8F12000F0EA
:100F2000BAF8DA2000F0B7F8122000F0B4F8DB20AD
:100F300000F0B1F8402000F0AEF8202000F0ABF84F
:100F4000022000F0A8F88D2000F0A5F8142000F091
:100F5000A2F8A42000F09FF8A62000F09CF8AF2093
:100F600000F099F80020FFF73DFF0021BDE8104098
:100F7000084600F07DB800002DE9F047924689460A
:100F8000054600260BB1FF2722E0002720E020388D
:100F900000F0FF087E2D04D909F10100002500F0C2
:100FA000FF094946284600F063F80C4908EB480061
:100FB000002401EB400818F80400784000F07CF8A9
:100FC000641CE4B2062CF6D3AD1D761CEDB2F6B26D
:100FD0001AF806000028DAD1BDE8F0878C34000842
:100FE0002DE9F05FDFF884A09346894605464FF06F
:100FF00000080BB1FF2633E0002631E02038C7B2ED
:10100000782D04D909F10100002500F0FF094946B7
:10101000284600F02DF8002404EB07111AF801000F
:10102000704000F049F8641CE4B2082CF4D309F1D4
:101030000100C1B2284600F01BF8002404EB0711A0
:1010400001EB0A00007A704000F036F8641CE4B24C
:10105000082CF3D3083508F10100EDB200F0FF08C9
:101060001BF808000028C9D1BDE8F09FB43600087D
:1010700010B50446B031C8B200F00DF8102040EAB7
:10108000141000F008F804F00F00BDE8104040F024
:101090000100AFF3008010B50446FFF7D9FE7820B9
:1010A00000F01CF8002000F019F8204600F016F8B7
:1010B000BDE81040FFF7E4BE10B50446FFF7C8FED8
:1010C000782000F00BF8402000F008F8204600F0EF
:1010D00005F8BDE81040FFF7D3BE00002DE9F04150
:1010E0000024134E0546A0460127280602D5C6F85F
:1010F0009C7101E0C6F89C81012000F00DFEC6F84D
:101100009871012000F008FEC6F89881012000F0D7
:1011100003FE6806641C050EE4B2082CE5D3C6F88D
:101120009871012000F0F8FDC6F89881BDE8F081C3
:10113000008021422DE9F041054600EB420086B2D5
:1011400001EB430084B20F46B4F5447F02D9A4F505
:101150004474A4B2032000F02BF906F003022946E0
:1011600000F0F00062F39F010143032000F0C4F996
:10117000C5F38701192000F0BFF9C6F387011A20D3
:1011800000F0BAF9322000F013F9C7F3C7011720B5
:1011900000F0B2F9C4F3C701BDE8F041182000F037
:1011A000ABB97CB500248DF805400A24B2FBF4F5F8
:1011B00004FB1525B2FBF4F230358DF80450B2FB78
:1011C000F4F504FB1525B2FBF4F230358DF803502D
:1011D000B2FBF4F504FB1525B2FBF4F230358DF8C3
:1011E0000250B2FBF4F504FB1525B2FBF4F23035E6
:1011F0008DF80150B2FBF4F504FB152230328DF866
:10120000002000226C462025A65C302E04D1A55477
:10121000521CD2B2042AF7D333B1012B03D10023DD
:101220002246FFF7DDFE7CBD00232246FFF7A4FE29
:101230007CBD7047044A0029D16901D0014300E018
:101240008143D1617047000000100240044A002928
:10125000916901D0014300E0814391617047000032
:101260000010024030B5204A5168204B11F00C01AB
:1012700003D0042901D0082901D0036012E051688D
:10128000536801F470114FF0020413F4803F04EB33
:10129000914102D053689B0301D5154B00E0134BDD
:1012A0005943016051680F2303EA1111114B5C5C33
:1012B0000168E14041605468072505EA14241C5D7B
:1012C00021FA04F48460546805EAD4241B5DD940F3
:1012D000C1605268032303EA9232064B1B1F9A5CDB
:1012E000B1FBF2F1016130BD0010024000127A0042
:1012F00000093D003C00002070B5322000F00CFDDC
:101300000C4D0120C5F8B4010B4EC6F88C013220FB
:1013100005F5DA7506F5C67600F0FEFC00243460AB
:10132000322000F0F9FC2C60BDE87040322000F063
:10133000F3BC000000002442008022422DE9F04767
:10134000184F0024786820F470007860786840F4C2
:1013500000007860DFF85090144E08254FF0010827
:10136000A246322000F0D8FCC6F88C816006040E3C
:10137000D9F8340108B1641CE4B2322000F0CCFC8E
:10138000C6F88CA16D1E15F0FF05EAD1786820F42F
:1013900070007860786840F4401078602046BDE8BE
:1013A000F08700000020014000002442008022421B
:1013B00010B5044600F022F8422000F055F86420F1
:1013C00000F0AAFC204600F04FF8642000F0A4FCD6
:1013D00000F02EF8642000F09FFC00F00FF843208E
:1013E00000F042F8642000F097FCFFF7A7FF0446E6
:1013F000FFF782FF00F01CF8204610BD70B50A4EC2
:101400000120C6F8B401094DC5F88C01322005F55C
:10141000C67506F5DA7600F07FFC002434603220D1
:1014200000F07AFC2C6070BD000024420080224253
:1014300070B50B4C0020C4F8B401322004F5DA7406
:1014400000F06AFC07480125C0F88C51322000F0FA
:1014500063FC2560BDE87040322000F05DBC0000F8
:1014600000002442008022422DE9F04700241F4E54
:101470001F4F0546A0464FF00109280601D54846F2
:1014800000E04046C6F8B4016806050E322000F0C0
:1014900043FCC7F88C91322000F03EFCC7F88C81E9
:1014A000641CE4B2082CE8D3124C606820F470008D
:1014B0006060606840F400006060322000F02CFC46
:1014C000C7F88C91322000F027FCD6F8340100B127
:1014D0000120C7F88C81616821F470016160616846
:1014E00041F440116160BDE8F08700000000244233
:1014F000008022420020014070B50D4606460024BF
:10150000FFF77CFF4220FFF7AFFF00B1012464200A
:1015100000F002FC3046FFF7A7FF00B10124642071
:1015200000F0FAFB2846FFF79FFF00B10124FFF708
:101530007FFF204670BD000030B587B00121082034
:10154000FFF784FE01218803FFF774FE4FF4604427
:10155000ADF8144018208DF817000320194D8DF8B0
:10156000160005A92846FFF7F9F921462846FFF796
:101570004CFA0020ADF800004FF48271ADF8021073
:10158000ADF804000221ADF806100121ADF80810F5
:101590004902ADF80A103821ADF80C10ADF80E0074
:1015A0000720094CADF810006946204600F059F8B4
:1015B0000121204600F040F8FF2000F007F807B0B6
:1015C00030BD0000000C01400038004070B50646F8
:1015D0000024114D03E0641CE4B2C82C0FD8022192
:1015E000284600F033F80028F5D03146284600F0B0
:1015F00036F8002405E0641CE4B2C82C01D90020B0
:1016000070BD0121284600F021F80028F3D02846BB
:1016100000F023F8C0B270BD003800400146054814
:10162000028822F03802028002880A4302800121E7
:1016300000F002B8003800400029018802D041F0D3
:10164000400101E021F04001018070470246002086
:1016500012890A4200D00120704780897047818139
:10166000704730B502884C8802F441530A88CD880F
:1016700022438C882C4322430C8922434C892243E9
:101680008C892243CC8922431A430280828B22F424
:1016900000628283098A018230BD70470CB5002246
:1016A000264800920192016841F4803101604FF4B4
:1016B000A063016801F4003101910099491C009177
:1016C000019911B900999942F3D10168890333D581
:1016D000012101911A490A6842F010020A600A6861
:1016E00022F003020A600A6842F002020A604168BE
:1016F000416041684160416841F4806141604168F6
:1017000021F47C114160416841F4E81141600168B5
:1017100041F08071016001688901FCD5416821F0C8
:1017200003014160416841F0020141604168C1F339
:1017300081010229FAD10CBD01920CBD00100240BA
:10174000002002404FF0E0210428086903D020F077
:1017500004000861704740F00400FAE77047000099
:101760000F4810B5016841F00101016041680D4A60
:101770001140416001680C4A11400160016821F488
:1017800080210160416821F4FE0141604FF41F0196
:101790008160FFF783FF05494FF00060086010BDCE
:1017A000001002400000FFF8FFFFF6FE08ED00E029
:1017B00010B50A4C0121204600F002F900280AD099
:1017C0000121204600F0D7F80549D1F8940118B15D
:1017D0000020C1F8940110BD0120FAE70004004088
:1017E0000000234210B50C4C0121204600F0E8F81F
:1017F00001280AD10948016988470021204600F0E4
:10180000FBF86421204600F0F5F82046BDE81040C2
:10181000012100F0B0B8000000080040A000002046
:1018200070B51F4C1F4D2078000633D40121284687
:1018300000F0C6F838B12178480604D5C8438006C0
:1018400012D0491C21700221284600F0B9F808B3D3
:10185000217848060FD541F080002070284600F01E
:10186000A4F86080002112E041F0800020704FF663
:10187000FF706080E7E70020207060800146284606
:1018800000F0BAF82078022140F04000207028468D
:1018900000F0AAF82846BDE87040032100F06BB8BC
:1018A00018000020000C004010B5054C0121204616
:1018B00000F086F82046BDE81040012100F05BB83A
:1018C0000010004070B5244E0121304600F078F839
:1018D00000282BD00121304600F04DF81F4C01228A
:1018E000207848BB1C4DE068303520B1FF212980AD
:1018F000401EE06006E0A178F1B1491E2980002079
:10190000A07022700121304600F04DF801213046D0
:1019100000F03EF80121304600F030F860780128F0
:1019200005D02888A168081A401EA06070BD2988CB
:10193000A068401C0844F8E722700021304600F0FF
:1019400027F80021304600F019F8A168BDE8704082
:1019500003A0FEF78BBC0000003401401C000020F7
:10196000B5B1C7B0CEBBD6C33D256C640D0A00002F
:10197000C94301827047C943018270470029018829
:1019800002D041F0010101E021F001010180704726
:10199000002930F8441F02D041F4004101E0C1F3B6
:1019A0000E010180704781827047808E7047808C65
:1019B000704702460020128A0A4200D00120704778
:1019C00002460020138A92890B4202EA010202D0E9
:1019D000002A00D001207047002A828901D00A43E2
:1019E00000E08A4382817047028C22F002020A439F
:1019F00002847047818570478184704730B50288C2
:101A00001B4C1C4DA0420DD0A8420BD0B0F1804F12
:101A100008D0194B984205D0184B984202D0184B69
:101A2000984203D122F070034A881A43154B98421A
:101A300006D0154B984203D022F44073CA881A434B
:101A400002808A8882850A880285A0420AD0A8423C
:101A500008D00E4A904205D00D4A904202D00D4A5D
:101A6000904201D1097A01860121818230BD0000B6
:101A7000002C0140003401400004004000080040F8
:101A8000000C0040001000400014004000400140E5
:101A900000440140004801407FB50D460446012145
:101AA0000420FFF7C7FBADF804400020ADF800505C
:101AB000104CADF80600ADF8020069462046FFF76D
:101AC0009DFF012241212046FFF786FF1E218DF850
:101AD0000C1003218DF80D108DF80E1001208DF8DB
:101AE0000F0003A8FFF742F901212046FFF746FF48
:101AF0007FBD00000008004070B5154C40F2255134
:101B0000204600F035F800280ED0204600F0BEF840
:101B1000104AC1B21088030406D444044FF00003F5
:101B200006D50A2901D0138070BD40F400400DE0B5
:101B30000D2909D0C0F30D04074D401C80B2295572
:101B40001080C728EFD870BD40F48040108070BD71
:101B500000380140300000209401002000298189D4
:101B600002D041F4005101E021F40051818170471D
:101B700070B501F01F0501260024C1F3421306FAD7
:101B800005F2012B0FD0022B0FD0838A4FEA1121CF
:101B90000088134206FA01F600EA060001D000B1FF
:101BA0000124204670BD8389F0E7038AEEE710B573
:101BB000C1F3421301F01F040121A140012B07D002
:101BC000022B07D01430002A026805D00A4304E033
:101BD0000C30F8E71030F6E78A43026010BD0000D1
:101BE00030B50446008A85B00D464CF6FF710840BA
:101BF000E98801432182A0894EF6F3110840A988A3
:101C00002A8911436A8902431143A181A08A4FF6B0
:101C1000FF410840A9890143A1826846FFF722FBE2
:101C20001948844201D1039800E00298A18909046F
:101C300000EBC00101EB0010296801D5490000E06C
:101C40008900B0FBF1F06422B0FBF2F109010B094D
:101C50006FF018056B4300EB8300A3891D044FF060
:101C6000320306D503EBC000B0FBF2F000F0070032
:101C700005E003EB0010B0FBF2F000F00F000843AA
:101C8000208105B030BD0000003801408088C0F3DD
:101C900008007047FEE730380A2801D2012070475B
:101CA000002070477047000010B56FF00400FFF788
:101CB00049FD094809490068B0FBF1F00849C0B284
:101CC00000EB40020870C2EBC0104FF6FF7202EA50
:101CD000C000488010BD00000400002000127A00FF
:101CE0002C0000200B49498848434FF0E02148610F
:101CF00000238B61086940F0010008610869C20790
:101D000001D0C003FAD5086920F0010008618B6199
:101D1000704700002C0000200B49097848434FF021
:101D2000E021486100238B61086940F001000861EF
:101D30000869C20701D0C003FAD5086920F0010084
:101D400008618B61704700002C00002004490A885C
:101D50005206FCD5024AC1B2121D11807047000024
:101D6000003801408AB0FFF79FFF4FF4A060FFF7F3
:101D70002FF84FF4E13000F0D9FBFEF749FEFEF7F3
:101D8000C3FEFFF795F8FEF755FEFEF72DFD08E0C0
:101D90000123FEA202210520FFF7EEF8C820FFF77D
:101DA000A1FFFEF78BFE0028F2D1FEF747FF0123CB
:101DB000FAA219460520FFF7DFF801254FF47A7AD9
:101DC0000027DFF8E0834FF4FA79F74C0FE3F74E82
:101DD000D6F8940158B10020C6F894010123F4A26A
:101DE00000210520FFF7C8F8608810B1B2E001209B
:101DF000F2E7D8F810114046012903D0D0F81011AD
:101E000051B1EEE2C0F898510123EAA20621052063
:101E1000FFF7B2F86580A3E0C0F898710123E6A24D
:101E200006210520FFF7A8F84FF06F0B8DF800B0E2
:101E300000235A4603210520FFF7B3F96846FEF751
:101E40002FFF4846FFF74EFF73208DF800006846CD
:101E5000FEF726FF9DF80020002303210520FFF751
:101E6000A0F94846FFF73EFF6E208DF80000684657
:101E7000FEF716FF9DF80020002303210520FFF741
:101E800090F94846FFF72EFF70208DF80000684655
:101E9000FEF706FF9DF80020002303210520FFF731
:101EA00080F94846FFF71EFF8DF800B06846FEF740
:101EB000F7FE9DF80020002303210520FFF771F9AC
:101EC0004846FFF70FFF78208DF800006846FEF7C0
:101ED000E7FE9DF80020002303210520FFF761F9AC
:101EE0004846FFF7FFFE6E208DF800006846FEF7BB
:101EF000D7FE9DF80020002303210520FFF751F9AC
:101F00004846FFF7EFFE71208DF800006846FEF7A7
:101F1000C7FE9DF80020002303210520FFF741F9AB
:101F2000D6F89401D0B10020C6F89401C8F89851B1
:101F30005046FFF7D7FE5046FFF7D4FE5046FFF756
:101F4000D1FE5046FFF7CEFE5046FFF7CBFE484687
:101F5000FFF7C8FE6088012802D0B3E00120E3E764
:101F6000D8F814114046012903D0D0F8141159B102
:101F700037E2C0F8985101238EA206210520FEF712
:101F8000FBFF02206080A3E0C0F8987101238AA2C1
:101F900006210520FEF7F0FF4FF0850B8DF800B00D
:101FA00000235A4603210520FFF7FBF86846FEF799
:101FB00077FE4846FFF796FE7D208DF800006846C4
:101FC000FEF76EFE9DF80020002303210520FFF799
:101FD000E8F84846FFF786FE86208DF80000684640
:101FE000FEF75EFE9DF80020002303210520FFF789
:101FF000D8F84846FFF776FE83208DF80000684643
:10200000FEF74EFE9DF80020002303210520FFF778
:10201000C8F84846FFF766FE8DF800B06846FEF740
:102020003FFE9DF80020002303210520FFF7B9F8AB
:102030004846FFF757FE82208DF800006846FEF7FD
:102040002FFE9DF80020002303210520FFF7A9F8AB
:102050004846FFF747FE86208DF800006846FEF7E9
:102060001FFE9DF80020002303210520FFF799F8AB
:102070004846FFF737FE84208DF800006846FEF7DB
:102080000FFE9DF80020002303210520FFF789F8AB
:10209000D6F89401D0B10020C6F89401C8F8985140
:1020A0005046FFF71FFE5046FFF71CFE5046FFF755
:1020B00019FE5046FFF716FE5046FFF713FE48463E
:1020C000FFF710FE6088022802D0CFE00120E3E78E
:1020D000D8F81C114046012903D0D0F81C1159B181
:1020E0007FE1C0F89851012332A206210520FEF7B6
:1020F00043FF03206080BFE0C0F8987101232EA247
:1021000006210520FEF738FF4FF0890B8DF800B04F
:1021100000235A4603210520FFF743F86846FEF7DF
:10212000BFFD4846FFF7DEFD79208DF800006846C8
:10213000FEF7B6FD9DF80020002303210520FFF7E0
:1021400030F84846FFF7CEFD8A208DF8000068463B
:10215000FEF7A6FD9DF80020002303210520FFF7D0
:1021600020F84846FFF7BEFD87208DF8000068463E
:10217000FEF796FD9DF80020002303210520FFF7C0
:1021800010F84846FFF7AEFD1AE000004E52463206
:10219000344C3031204572726F7200007265616498
:1021A00079000000000021420000002000002342CE
:1021B0003100000072756E0073746F7000000000D3
:1021C0008DF800B06846FEF76BFD9DF800200023F7
:1021D00003210520FEF7E5FF4846FFF783FD7A203F
:1021E0008DF800006846FEF75BFD9DF80020002397
:1021F00003210520FEF7D5FF4846FFF773FD8A202F
:102200008DF800006846FEF74BFD9DF80020002386
:1022100003210520FEF7C5FF4846FFF763FD882030
:102220008DF800006846FEF73BFD9DF80020002376
:1022300003210520FEF7B5FFD6F89401D0B10020A8
:10224000C6F89401C8F898515046FFF74BFD504628
:10225000FFF748FD5046FFF745FD5046FFF742FDAA
:102260005046FFF73FFD4846FFF73CFD60880328D6
:1022700002D0B6E00120E3E7D8F82011404601295A
:1022800003D0D0F8201159B1ABE0C0F89851012328
:10229000AFF2E00206210520FEF76EFE6780A0E0A7
:1022A000C0F898710123AFF2F00206210520FEF775
:1022B00063FE4FF08E0B8DF800B000235A460321C9
:1022C0000520FEF76EFF6846FEF7EAFC4846FFF77A
:1022D00009FD7B208DF800006846FEF7E1FC9DF8C3
:1022E0000020002303210520FEF75BFF4846FFF78F
:1022F000F9FC8F208DF800006846FEF7D1FC9DF8B0
:102300000020002303210520FEF74BFF4846FFF77E
:10231000E9FC8C208DF800006846FEF7C1FC9DF8B2
:102320000020002303210520FEF73BFF4846FFF76E
:10233000D9FC8DF800B06846FEF7B2FC9DF800208D
:10234000002303210520FEF72CFF4846FFF7CAFCB7
:102350007C208DF800006846FEF7A2FC9DF8002066
:10236000002303210520FEF71CFF4846FFF7BAFCB7
:102370008F208DF800006846FEF792FC9DF8002043
:10238000002303210520FEF70CFF4846FFF7AAFCB7
:102390008D208DF800006846FEF782FC9DF8002035
:1023A000002303210520FEF7FCFED6F89401002847
:1023B0007ED00020C6F89401C8F898515646504681
:1023C000FFF790FC3046FFF78DFC3046FFF78AFCA4
:1023D0003046FFF787FC3046FFF784FC4846FFF79E
:1023E00081FC0023628819464020FEF7DAFE20783F
:1023F00001283FF4ECAC0228F9D14649D1F8940108
:1024000000287DD00020C1F89401C8F898710123FC
:1024100041A200210520FEF7AFFD78208DF80000D5
:102420006846FEF73DFC4E464846FFF75BFC6E20D3
:102430008DF800006846FEF733FC3046FFF752FC8B
:1024400071208DF800006846FEF72AFC3046FFF741
:1024500049FC82208DF800006846FEF721FC3046DA
:10246000FFF740FC86208DF800006846FEF718FC58
:102470003046FFF737FC84208DF800006846FEF7F1
:102480000FFC3046FFF72EFC012324A20421052077
:10249000FEF772FD7A208DF800006846FEF700FC1A
:1024A0003046FFF71FFC89208DF80000684600E0E9
:1024B0002CE0FEF7F5FB3046FFF714FC88208DF882
:1024C00000006846FEF7ECFB3046FFF70BFC7C2073
:1024D0008DF800006846FEF7E3FB3046FFF702FC8C
:1024E0008E208DF800006846FEF7DAFB3046FFF7D5
:1024F000F9FB8D208DF800006846FEF7D1FB00E067
:1025000006E03046FFF7EEFB277070E7012051E749
:10251000012078E700002342320000006261636B13
:102520002066696E697368000068704770B505467B
:1025300086B0012144F20400FEF788FE4FF40070DB
:10254000ADF8100003248DF8124018201D4E8DF8B0
:10255000130004A93046FEF701FA3015ADF810005B
:1025600004208DF8130004A93046FEF7F7F9252062
:102570008DF814008DF815408DF8164001208DF867
:10258000170005A8FEF7F2FB0020ADF80400ADF837
:102590000600ADF80800ADF80C000C200A4CADF8B0
:1025A0000A00009569462046FFF71AFB012240F217
:1025B00025512046FFF7FBFA01212046FFF7CEFA0E
:1025C00006B070BD000801400038014070B594B0FD
:1025D000064613AB11AA694600F0D8F9002824D1A9
:1025E0008DF840001D4C042514E0206805EBC10166
:1025F00013AB405812AA08A900F0C8F9002814D15A
:10260000694608A800F0EAFB88B19DF84000401C2C
:102610008DF84000207D9DF840108842E5D8207D4F
:102620009DF8401088420ED1042014B070BD9DF872
:1026300048009DF84410884201D90220F5E79DF832
:102640004000A075EBE710A9304600F053FA0028CF
:10265000EBD19DF8400060750020E6E7A000002067
:102660002DE9F0417E4E9AB0B57D307DA8427CD9EF
:102670000421306801EBC50119AB405818AA10A914
:1026800000F084F910A977A0FDF7F0FD00240DF10A
:10269000180832E0308B0121A140084217D02221D6
:1026A00072A0FDF7E3FD204600F08CFA811970A0BE
:1026B0002431FDF7DBFD22216CA0FDF7D7FD20467C
:1026C00000F080FA3044243048F824000BE0204623
:1026D00000F078FA3044416A48F82410F07D00B3E5
:1026E00064A0FDF7C3FD9DF86000401E844202D047
:1026F00062A0FDF7BBFD641CE4B29DF8600084425B
:10270000C8D35FA0FDF7B2FD00F0A6FA707D0B28DC
:1027100014D2DFE800F0080D31384048525E6B7883
:10272000890058A0DDE7306850F83500804704E0A4
:10273000306850F8351006988847074600F054FA7C
:102740009DF8640001286ED04FA0FDF78FFD96F82C
:10275000EC0000280DD0D6F8F0000A21B0FBF1F211
:1027600001FB1202B0FBF1F100E002E047A0FDF72F
:102770007DFD1AB0BDE8F081306850F83520DDE904
:1027800006019047D9E7306806AC50F8353094E838
:1027900007009847D1E7306806AF50F8354097E812
:1027A0000F00A047C9E70A980090306806AF50F8BC
:1027B000354097E80F00A047BFE7DDE90A01CDE902
:1027C0000001306806AF50F8354097E80F00A04789
:1027D000B3E70AAB06AF93E807008DE8070030685F
:1027E00050F8354097E80F00A047A6E70AAC06AFBF
:1027F00094E80F008DE80F00306850F8354097E8F6
:102800000F00A04799E70BAC06AF94E80F0001ACAE
:1028100084E80F000A980090306850F8354097E837
:102820000F00A04789E711E00CAC06AF94E80F0059
:1028300002AC84E80F00DDE90A01CDE9000130684F
:1028400050F8354097E80F00A04776E7F07D39460D
:1028500018B116A0FDF70AFD79E717A0FAE7000006
:10286000A00000200D0A2573280000002563000049
:102870002573000030582558000000002C0000008F
:1028800029000000256C75003B0D0A0046756E633B
:1028900074696F6E2052756E2054696D653A2564B7
:1028A0002E2531646D730D0A000000003D3058255F
:1028B000583B0D0A000000003D256C753B0D0A00D9
:1028C000F0B500252E462F462C4603782C2B03D03E
:1028D000292B04D01BB103E014B9012600E05CB33E
:1028E00017B1222B26D026E0A3F1300CBCF1090F42
:1028F00015D9A3F1610CBCF1050F10D9A3F1410C5E
:10290000BCF1050F0BD9582B09D0782B07D0222BFF
:102910000CD0202B1ED02C2B1CD0FF270CE05EB936
:10292000612B00D3203B01F8013B13E026B90127BE
:102930003C460FE0002426B100200870177028469E
:10294000F0BD3CB15C2B02D16D1CEDB2401C037894
:1029500001F8013B6D1CEDB2401CB6E730B5002517
:1029600015700AE001F8014B1478401C641CE4B2B5
:1029700014709C4201D3012030BD0478202C01D07A
:10298000002CEFD10D70002030BD00002DE9FF4F6D
:10299000002482B089469846A2462746012526464D
:1029A0002246EB46029915E0202810D002F07F0362
:1029B000052B0CD202B9802202F07F03042B01D137
:1029C0002A280AD1521C0BF80300D2B201E0852A52
:1029D00004D0491C08780028E6D16AB102F07F02D1
:1029E00000200BF8020041A1584600F0F7F938B179
:1029F000012188F8001000224FF00008029B15E02A
:102A0000002088F80000F6E708F1010000F0FF0858
:102A100013F8010F202801D02A2807D1184600F00A
:102A200085F9282802D02A2800D0C24618782828FC
:102A300001D00028E8D10299BAF1000F01D0514429
:102A4000491C4FF000084346087888B1282804D074
:102A5000292806D0222810D011E083B9641CE4B2E2
:102A60000DE063B924B1641E14F0FF0402D00DE040
:102A70004FF00108012F27D02FE04BB100234CB1BC
:102A80002C280CD0202816D0282814D05AB110E0B9
:102A90000123F4E7202815D009F8010B12E00125E5
:102AA000521CD2B207E0052E03D20BF80600761CAA
:102AB000F6B26D1CEDB2012C04D1022D02D103251A
:102AC0007F1CFFB2491CBFE700200BF8060007A1DE
:102AD000684600F083F900B90027049807700020C9
:102AE00089F8000006B04046BDE8F08F766F696453
:102AF000000000002DE9F04300248946304DB5B0B8
:102B0000214622466B18491CC9B29A760A29F9D384
:102B100002E010F8011F99B101782829F9D1461C6B
:102B20004FF0010833AA69463046FFF7C9FE064454
:102B30009DF8CC0040B1012824D0FF2836D10BE00D
:102B4000012035B0BDE8F0839DF8000070B334A9D2
:102B5000684600F0F3F808B10220F2E7204600F0E2
:102B600031F8284434994162298B08FA04F08143F2
:102B70002983042029198876641CE4B20A2C15D90B
:102B80000320DEE7684600F03EF9471C204600F0CF
:102B900019F841196846243100F02CF9298B08FAFC
:102BA00004F00143281929838776E5E7307829283E
:102BB00001D00028B6D189F800400020C1E700000C
:102BC000A0000020024610B500200146054B05E09C
:102BD0005C18491CA47EC9B22044C0B29142F7D30C
:102BE00010BD0000A000002070B50B4D012128464B
:102BF000FEF7DFFE094C012806D1D4F8F0004FF6AD
:102C0000FF710844C4F8F0002846FEF7D0FE54F8DF
:102C1000F01F0844206070BD00080040A0000020A4
:102C200000EBC00101EB00104FF0FF3101EB800021
:102C300010B581B24FF47A70FEF72EFF01490120E2
:102C4000C87510BDA00000200346012000E05843D5
:102C5000491EC9B2FBD2704710B5094C012120466C
:102C6000FEF786FE4FF6FF712046FEF7C3FE0021F9
:102C70002046FEF7C1FE03490020C1F8F00010BD58
:102C800000080040A00000202DE9F041164E3088D9
:102C9000010426D51549C0B2154F00250D54B96859
:102CA0001248884704000FD0104800F0B5F80128FA
:102CB00001D0040014D0012C09D0022C09D0032C1F
:102CC00009D0042C0CD108E0F868804708E009A07E
:102CD00004E00BA002E00DA000E00FA0FDF7C6FA93
:102CE0003580BDE8F0810000300000209401002014
:102CF000A0000020BAAFCAFDB4EDCEF3210D0A004A
:102D0000B2CECAFDB4EDCEF3210D0A00B2CECAFD9B
:102D1000CCABB6E0210D0A00CEB4D5D2B5BDC6A568
:102D2000C5E4B5C4BAAFCAFD210D0A0010F8011FF1
:102D3000202901D10028F9D1C8B270472DE9F0410E
:102D40000024884605460A260C600178A1F130026D
:102D5000092A0DD9113A052A0AD9582905D011F0A6
:102D6000FF0F0CD00120BDE8F081012C02D0F9E763
:102D7000412900D31026641CE4B2401CE5E7102E64
:102D800001D084B112E0032C01D20220EBE72878B5
:102D9000302802D16878582801D00320E3E7A41E28
:102DA000E4B2AD1C01E00420DDE70CB1641EE4B226
:102DB0002F783846303F092F01D9A0F13707214637
:102DC0003046FFF741FFD8F8001007FB0011C8F8A4
:102DD000001015F8010F0028E7D1C4E702780B783E
:102DE0009A4201D00120704712B1401C491CF5E7FE
:102DF0000020704702780A700278002A02D0401C36
:102E0000491CF7E77047002102781AB1491CC9B282
:102E1000401CF9E708467047F0B58DB004461E2304
:102E200008AA6946FFF79AFD0990002872D19DF81B
:102E30002000271800253E4C8DF820509DF82000DA
:102E400054F820106846FFF7C9FF38B19DF82000FC
:102E5000401CC0B28DF820000728EFD39DF8200059
:102E60000426344C072855D2DFE800F00404395A10
:102E7000605F5E0030A0FDF7F9F930A0FDF7F6F9CC
:102E80003EA0FDF7F3F94DA0FDF7F0F95BA0FDF7CB
:102E9000EDF96AA0FDF7EAF978A0FDF7E7F985A05A
:102EA000FDF7E4F98AA0FDF7E1F98FA0FDF7DEF95F
:102EB00093A0FDF7DBF998A0FDF7D8F99DA0FDF7E9
:102EC000D5F9A3A0FDF7D2F9AFA0FDF7CFF9BCA0CB
:102ED000FDF7CCF9C7A0FDF7C9F9D3A01BE016A0F8
:102EE000FDF7C4F9E0A0FDF7C1F98DF820500BE023
:102EF000216806EBC0000958EBA0FDF7B7F99DF873
:102F00002000401C8DF82000217D9DF8200081428A
:102F1000EED84EE24FE2FDF7A9F900200DB0F0BD6A
:102F200005A0FDF7A3F9C3E124E204E2E3E1000018
:102F30004C000020A00000200D0A00002D2D2D2D9A
:102F40002D2D2D2D2D2D2D2D2D2D2D2D2D2D2D2DB1
:102F50002D2D2D2D55534D4152542056332E312DAC
:102F60002D2D2D2D2D2D2D2D2D2D2D2D2D2D2D2D91
:102F70002D2D2D2D2D2D2D200D0A0000202020205F
:102F800055534D415254CAC7D3C9414C49454E547B
:102F9000454BBFAAB7A2B5C4D2BBB8F6C1E9C7C9F1
:102FA000B5C4B4AEBFDAB5F7CAD4BBA5BDBBD7E9CB
:102FB000BCFE2CCDA8B9FD200D0A0000CBFC2CC412
:102FC000E3BFC9D2D4CDA8B9FDB4AEBFDAD6FACA30
:102FD000D6B5F7D3C3B3CCD0F2C0EFC3E6B5C4C8FF
:102FE000CEBACEBAAFCAFD2CB2A2D6B4D0D02ED2B1
:102FF000F2B4CB2CC4E3BFC90D0A0000D2D4CBE697
:10300000D2E2B8FCB8C4BAAFCAFDB5C4CAE4C8EBD2
:10301000B2CECAFD28D6A7B3D6CAFDD7D62831303E
:103020002F3136BDF8D6C629A1A2D7D6B7FBB4AE8C
:10303000A1A2BAAFCAFDC8EB0D0A0000BFDAB5D82D
:10304000D6B7B5C8D7F7CEAAB2CECAFD292CB5A53A
:10305000B8F6BAAFCAFDD7EEB6E0D6A7B3D63130D0
:10306000B8F6CAE4C8EBB2CECAFD2CB2A2D6A7B35A
:10307000D6BAAFCAFDB7B5200D0A0000BBD8D6B589
:10308000CFD4CABE2ED0C2D4F6B2CECAFDCFD4CAD7
:10309000BEBDF8D6C6C9E8D6C3B9A6C4DC2CD0C21A
:1030A000D4F6BDF8D6C6D7AABBBBB9A6C4DC2E0DD4
:1030B0000A000000BCBCCAF5D6A7B3D63A7777772A
:1030C0002E6F70656E6564762E636F6D0D0A00005D
:1030D00055534D415254D3D037B8F6CFB5CDB3C3C5
:1030E000FCC1EE3A0D0A00003F3A202020202020AB
:1030F000BBF1C8A1B0EFD6FAD0C5CFA20D0A00002F
:1031000068656C703A202020BBF1C8A1B0EFD6FAF8
:10311000D0C5CFA20D0A00006C6973743A2020203C
:10312000BFC9D3C3B5C4BAAFCAFDC1D0B1ED0D0A92
:103130000A00000069643A2020202020BFC9D3C3C0
:10314000BAAFCAFDB5C44944C1D0B1ED0D0A0A00F9
:103150006865783A20202020B2CECAFD3136BDF80D
:10316000D6C6CFD4CABE2CBAF3B8FABFD5B8F12BA5
:10317000CAFDD7D6BCB4D6B4D0D0BDF8D6C6D7AA6F
:10318000BBBB0D0A0A0000006465633A20202020C2
:10319000B2CECAFD3130BDF8D6C6CFD4CABE2CBA25
:1031A000F3B8FABFD5B8F12BCAFDD7D6BCB4D6B4A4
:1031B000D0D0BDF8D6C6D7AABBBB0D0A0A00000006
:1031C00072756E74696D653A312CBFAAC6F4BAAFD8
:1031D000CAFDD4CBD0D0BCC6CAB13B302CB9D8B113
:1031E000D5BAAFCAFDD4CBD0D0BCC6CAB13B0D0A4C
:1031F0000A000000C7EBB0B4D5D5B3CCD0F2B1E033
:10320000D0B4B8F1CABDCAE4C8EBBAAFCAFDC3FBBB
:10321000BCB0B2CECAFDB2A2D2D4BBD8B3B5BCFC4E
:10322000BDE1CAF82E0D0A002D2D2D2D2D2D2D2D91
:103230002D2D2D2D2D2D2D2D2D2D2D2D2D2D2D2DBE
:103240002D2D414C49454E54454B2D2D2D2D2D2DC9
:103250002D2D2D2D2D2D2D2D2D2D2D2D2D2D2D2D9E
:103260002D2D2D200D0A00002D2D2D2D2D2D2D2D38
:103270002D2D2D2D2D2D2D2D2D2D2D2D2D2D2D2D7E
:103280002DBAAFCAFDC7E5B5A52D2D2D2D2D2D2DA0
:103290002D2D2D2D2D2D2D2D2D2D2D2D2D2D2D2D5E
:1032A0002D2D2D2D200D0A0025730D0A0000000084
:1032B00042A0FCF7DBFF8DF8205016E0216806EBFA
:1032C000C0000BAB08580AAA6946FFF75FFB9DF8E0
:1032D0002010206850F83120694648A0FCF7C6FF4E
:1032E0009DF82000401C8DF82000217D9DF82000D5
:1032F0008142E3D85DE0AFF2C030FCF7B7FF08AA27
:1033000069463846FFF7DCFA9DF82000002843D1D3
:1033100009A96846FFF712FD8DF8200010B10428B6
:103320003AD102E03AA009991CE03CA0FCF79EFFCC
:103330000120E0753DE038A0FCF798FF08AA694637
:103340003846FFF7BDFA9DF8200028BB09A968465A
:10335000FFF7F4FC8DF8200010B104281CD104E024
:1033600033A00999FCF782FF23E034A0FCF77EFF2D
:10337000E5751EE028A0FCF779FF08AA69463846E3
:10338000FFF79EFA9DF8200030B909A96846FFF7BB
:10339000D5FC8DF8200008B10220BFE5099810F097
:1033A000FF0084F8EC0001D029A000E02FA0FCF77A
:1033B0005DFF19A0AFE50120B0E500002D2D2D2DFA
:1033C0002D2D2D2D2D2D2D2D2D2D2D2D2D2D2D2D2D
:1033D0002D2D2D2D2DBAAFCAFD204944202D2D2D88
:1033E0002D2D2D2D2D2D2D2D2D2D2D2D2D2D2D2D0D
:1033F0002D2D2D2D2D2D2D2D200D0A00257320690D
:10340000642069733A0D0A3058253038580D0A0087
:103410004845583A305825580D0A00003136BDF855
:10342000D6C6B2CECAFDCFD4CABE210D0A00000056
:103430004445433A256C750D0A0000003130BDF853
:10344000D6C6B2CECAFDCFD4CABE210D0A00000036
:1034500052756E2054696D652043616C63756C61B3
:1034600074696F6E204F4E0D0A00000052756E2079
:1034700054696D652043616C63756C6174696F6E2E
:10348000204F46460D0A0000016070470000000012
:1034900000000000002F00000000070007000014DB
:1034A0007F147F1400242A7F2A12006264081323E9
:1034B00000364955225000000503000000001C2280
:1034C0004100000041221C000014083E08140008BE
:1034D000083E0808000000A060000008080808086E
:1034E000000060600000002010080402003E514906
:1034F000453E0000427F40000042615149460021A4
:1035000041454B31001814127F10002745454539BD
:10351000003C4A4949300001710905030036494918
:10352000493600064949291E0000363600000000D1
:10353000563600000008142241000014141414141C
:1035400000004122140800020151090600324959C5
:10355000513E007C1211127C007F49494936003EE1
:1035600041414122007F4141221C007F494949419C
:10357000007F09090901003E4149497A007F080896
:10358000087F0000417F4100002040413F01007F53
:1035900008142241007F40404040007F020C027F1F
:1035A000007F0408107F003E4141413E007F090931
:1035B0000906003E4151215E007F09192946004657
:1035C000494949310001017F0101003F4040403F2E
:1035D000001F2040201F003F4038403F0063140878
:1035E0001463000708700807006151494543000053
:1035F0007F41410000552A552A55000041417F0076
:10360000000402010204004040404040000001026A
:103610000400002054545478007F48444438003853
:103620004444442000384444487F003854545418DB
:1036300000087E0901020018A4A4A47C007F0804ED
:1036400004780000447D4000004080847D00007FBD
:10365000102844000000417F4000007C04180478DA
:10366000007C0804047800384444443800FC2424D6
:1036700024180018242418FC007C080404080048BE
:103680005454542000043F444020003C4040207CDF
:10369000001C2040201C003C4030403C00442810CE
:1036A0002844001CA0A0A07C004464544C44141482
:1036B00014141414000000000000000000000000BA
:1036C00000000000000000F80000000000000033CF
:1036D0003000000000100C06100C06000000000076
:1036E0000000000040C07840C0784000043F04045F
:1036F0003F040400007088FC08300000001820FF20
:10370000211E0000F008F000E018000000211C035A
:103710001E211E0000F00888700000001E212324D6
:103720001927211010160E000000000000000000F4
:1037300000000000000000E0180402000000000784
:103740001820400000020418E0000000004020188B
:1037500007000000404080F0804040000202010F5E
:1037600001020200000000F0000000000101011F42
:1037700001010100000000000000000080B07000A6
:103780000000000000000000000000000001010136
:1037900001010101000000000000000000303000C5
:1037A000000000000000000080601804006018069F
:1037B0000100000000E010080810E000000F1020D9
:1037C00020100F00001010F8000000000020203F23
:1037D00020200000007008080888700000302824AD
:1037E000222130000030088888483000001820204E
:1037F00020110E000000C02010F800000007042473
:10380000243F240000F808888808080000192120B7
:1038100020110E0000E0108888180000000F112011
:1038200020110E0000380808C83808000000003FCA
:10383000000000000070880808887000001C222129
:1038400021221C0000E010080810E00000003122D6
:1038500022110F00000000C0C00000000000003076
:1038600030000000000000800000000000008060C8
:103870000000000000008040201008000001020449
:103880000810200040404040404040000404040430
:1038900004040400000810204080000000201008EC
:1038A00004020100007048080808F0000000003021
:1038B00036010000C030C828E810E00007182724AF
:1038C00023140B000000C038E0000000203C23025D
:1038D0000227382008F8888888700000203F2020C0
:1038E00020110E00C03008080808380007182020F2
:1038F0002010080008F808080810E000203F2020E9
:1039000020100F0008F88888E8081000203F2020C9
:103910002320180008F88888E8081000203F2000BD
:1039200003000000C03008080838000007182020F5
:10393000221E020008F808000008F808203F2101B4
:1039400001213F20000808F8080800000020203F5F
:103950002020000000000808F8080800C0808080CF
:103960007F00000008F888C028180800203F2001C8
:103970002638200008F8080000000000203F202022
:103980002020300008F8F800F8F80800203F003F39
:10399000003F200008F830C00008F808203F200051
:1039A00007183F00E01008080810E0000F10202062
:1039B00020100F0008F808080808F000203F210137
:1039C00001010000E01008080810E0000F1824248E
:1039D00038504F0008F8888888887000203F200001
:1039E000030C3020007088080808380000382021B7
:1039F00021221C00180808F8080818000000203FC1
:103A00002000000008F808000008F808001F202027
:103A100020201F000878880000C8380800000738F8
:103A20000E010000F80800F80008F800033C070049
:103A3000073C0300081868808068180820302C03B1
:103A4000032C30200838C800C83808000000203F88
:103A50002000000010080808C83808002038262177
:103A600020201800000000FE020202000000007F7B
:103A700040404000000C30C0000000000000000189
:103A80000638C00000020202FE0000000040404074
:103A90007F00000000000402020204000000000099
:103AA0000000000000000000000000008080808016
:103AB00080808080000202040000000000000000FE
:103AC0000000000000008080808000000019242297
:103AD00022223F2008F8008080000000003F1120D3
:103AE00020110E000000008080800000000E1120D8
:103AF00020201100000000808088F800000E1120B6
:103B000020103F200000808080800000001F2222C3
:103B100022221300008080F0888888180020203F2F
:103B2000202000000000808080808000006B949442
:103B30009493600008F8008080800000203F2100FE
:103B400000203F2000809898000000000020203FC7
:103B500020200000000000809898000000C08080B5
:103B6000807F000008F8000080808000203F240251
:103B70002D302000000808F8000000000020203F41
:103B8000202000008080808080808000203F2000F6
:103B90003F20003F8080008080800000203F210087
:103BA00000203F200000808080800000001F202037
:103BB00020201F00808000808000000080FFA12066
:103BC00020110E000000008080808000000E112077
:103BD00020A0FF80808080008080800020203F2106
:103BE00020000100000080808080800000332424B9
:103BF00024241900008080E0808000000000001F65
:103C0000202000008080000000808000001F202015
:103C100020103F20808080000080808000010E30D6
:103C20000806010080800080008080800F300C0337
:103C30000C300F0000808000808080000020312E3A
:103C40000E312000808080000080808080818E7016
:103C50001806010000808080808080000021302CC8
:103C60002221300000000000807C020200000000E1
:103C7000003F404000000000FF0000000000000086
:103C8000FF0000000002027C800000000040403F76
:103C90000000000000060101020204040000000010
:103CA0000000000034431010013443101001303183
:103CB0003233343536373839414243444546403053
:103CC0005800303132333435363738396162636405
:103CD0006566403078000400000800000000000025
:103CE00000020001000010003F0000006465630056
:103CF0006964000072756E74696D650068656C704A
:103D0000000000006C6973740000000068657800B2
:103D1000753820534343425F57525F526567287599
:103D200038207265672C7538206461746129000041
:103D3000753820534343425F52445F52656728758C
:103D40003820726567290000766F69642077726990
:103D500074655F61646472287533322061646472D3
:103D60002C7533322076616C2900000075333220C7
:103D7000726561645F6164647228753332206164C6
:103D800064722900766F69642064656C61795F6D87
:103D90007328753136206E6D73290000766F696463
:103DA0002064656C61795F757328753332206E7598
:103DB00073290000766F6964204F56373637305FBD
:103DC00057696E646F775F53657428753136207359
:103DD000782C7531362073792C75313620776964EB
:103DE00074682C753136206865696768742900002D
:103DF000103E000800000020940100006C01000843
:103E0000883E0008940100202C050000C80100082D
:103E10005184A24A04380901020304060708090C68
:103E2000021A016D0204060830693413E83C1B08CD
:103E3000FC0413043D1B08F0081A0C081AEC081ABD
:103E4000F4041329251B086C101389341B08480837
:103E500013E51C1B08840813191D1B089C0813F983
:103E6000141B08100813B1131B0830081335111B5D
:103E700008B40822681420212C1B08CD401B6126A1
:083E800040190C1A077701DC60
:0400000508000131BD
:00000001FF
