:020000040800F2
:10000000E80D00200D020008E50500088B0400083B
:10001000E105000859030008CB0D000800000000AE
:10002000000000000000000000000000310A00088D
:100030005D0300080000000039090008450B0008B6
:1000400027020008270200082702000827020008EC
:1000500027020008270200082702000827020008DC
:1000600027020008270200082702000827020008CC
:1000700027020008270200082702000827020008BC
:1000800027020008270200082702000827020008AC
:10009000270200082702000827020008270200089C
:1000A000270200082702000827020008270200088C
:1000B000270200082702000827020008270200087C
:1000C000270200082702000827020008270200086C
:1000D00027020008A90B00082702000827020008D1
:1000E000270200082702000827020008270200084C
:1000F000270200082702000827020008270200083C
:10010000270200082702000827020008270200082B
:10011000270200082702000827020008270200081B
:10012000270200082702000827020008270200080B
:1001300000F002F800F05AF80AA090E8000C82449F
:100140008344AAF10107DA4501D100F04FF8AFF27C
:10015000090EBAE80F0013F0010F18BFFB1A43F0A5
:100160000103184768150000881500000A444FF085
:10017000000C10F8013B13F0070408BF10F8014B06
:100180001D1108BF10F8015B641E05D010F8016B4B
:10019000641E01F8016BF9D113F0080F1EBF10F8AF
:1001A000014BAD1C0C1B09D16D1E58BF01F801CBD2
:1001B000FAD505E014F8016B01F8016B6D1EF9D555
:1001C0009142D6D37047000000230024002500266A
:1001D000103A28BF78C1FBD8520728BF30C148BFAA
:1001E0000B6070471FB51FBD10B510BD00F06EF855
:1001F0001146FFF7F7FF00F081FE00F0A0F803B40E
:10020000FFF7F2FF03BC00F0E2FD00000948804761
:1002100009480047FEE7FEE7FEE7FEE7FEE7FEE7E8
:10022000FEE7FEE7FEE7FEE704480549054A064B00
:1002300070470000490B000831010008E807002062
:10024000E80D0020E8090020E809002070470000C0
:100250000FB4044910B503AA029800F009F810BCC5
:100260005DF814FBA0060020704770477047704788
:10027000074B70B50D467B4400F011F80446284644
:1002800000F020F810B14FF0FF3070BD204670BD77
:10029000370C000001694A1C02610878704700B5FC
:1002A0008FB0CDE901310021059105497944CDE9AF
:1002B00003101146684600F02EF80FB000BD000094
:1002C000E5FFFFFF007B00F080007047754600F0FF
:1002D0003FF8AE4605006946534620F007008546C4
:1002E00018B020B5FFF7A0FFBDE820404FF0000692
:1002F0004FF000074FF000084FF0000B21F007010E
:10030000AC46ACE8C009ACE8C009ACE8C009ACE850
:10031000C0098D4670472DE9F04106460024D6E914
:100320000170F5688046304603E04146B847641CDA
:100330003046A8470028F8D12046BDE8F08110B526
:100340000446AFF300802046BDE81040FFF757BFDA
:10035000004870478407002000BFFEE770472DE982
:10036000F04102460025002600200023002400273B
:1003700091F803C00CF00F0591F803C00CF0100CBD
:10038000BCF1000F03D091F802C04CEA050591F8CA
:1003900000C0BCF1000F31D0146800202BE04FF0FA
:1003A000010C0CFA00F3B1F800C00CEA03069E42FF
:1003B00020D183004FF00F0C0CFA03F7BC4305FA71
:1003C00003FC4CEA040491F803C0BCF1280F06D1E9
:1003D0004FF0010C0CFA00FCC2F814C00AE091F8CE
:1003E00003C0BCF1480F05D14FF0010C0CFA00FC22
:1003F000C2F810C0401C0828D1D31460B1F800C066
:10040000BCF1FF0F34DD546800202EE000F1080C31
:100410004FF0010808FA0CF3B1F800C00CEA03062B
:100420009E4221D183004FF00F0C0CFA03F7BC431E
:1004300005FA03FC4CEA040491F803C0BCF1280F50
:1004400005D100F1080C08FA0CF8C2F8148091F8F4
:1004500003C0BCF1480F07D100F1080C4FF00108B0
:1004600008FA0CF8C2F81080401C0828CED354605B
:10047000BDE8F0810246002093680B400BB10120DB
:1004800000E0002070470161704700BFFEE70000F8
:1004900008B50121442000F051FA1C20ADF80000FD
:1004A00048208DF8030069460648FFF758FF0120F1
:1004B000ADF8000028208DF8030069460248FFF7D8
:1004C0004EFF08BD001801400008014010B5044669
:1004D00014B101202C4908702B480078002837D02F
:1004E00010212A48FFF7C6FF78B108212748FFF7F7
:1004F000C1FF50B104212548FFF7BCFF28B10121FD
:100500002348FFF7B7FF012822D10A2000F084FC1E
:1005100000201D49087010211C48FFF7ABFF08B9E7
:10052000012010BD08211948FFF7A4FF08B90220D7
:10053000F7E704211548FFF79DFF08B90320F0E70E
:1005400001211348FFF796FF01281BD10420E8E79B
:1005500010210E48FFF78EFF012813D108210B4808
:10056000FFF788FF01280DD104210848FFF782FF1B
:10057000012807D101210648FFF77CFF10B90120AF
:10058000014908700020CCE79A06002000180140BD
:100590000008014008B50121482000F0CFF92020D3
:1005A000ADF8000010208DF8030003208DF8020044
:1005B00069460948FFF7D3FE20210748FFF763FF8C
:1005C0002020ADF8000069460448FFF7C8FE20214E
:1005D0000248FFF758FF08BD000C01400018014019
:1005E00000BFFEE77047000070B5002100230F2216
:1005F000C47804B3154C246804F4E064C4F5E064E2
:10060000210AC1F10403CA40447804FA03F1847852
:100610001440214309010E4C0678A155047804F0DA
:100620001F050124AC4005786D11AD0005F1E025F2
:10063000C5F8004109E0047804F01F050124AC402E
:10064000044D0678761145F8264070BD0CED00E0AB
:1006500000E400E080E100E070B50646002415E00B
:1006600004F1B001C8B200F013F9012000F010F954
:10067000102000F00DF9002504E0304600F018F9D4
:10068000681CC5B2802DF8DB601CC4B2082CE7DB07
:1006900070BD000008B50121082000F04FF9C0200E
:1006A000ADF8000010208DF8030003208DF8020043
:1006B00069460448FFF753FEC0210248FFF7E3FEF6
:1006C00008BD0000000C014010B501200A49086077
:1006D00000F0C8FB01200949C1F8980100F0C2FBF5
:1006E000002005490860012000F0BCFB0020034900
:1006F000C1F8980110BD00009C8121420080214278
:1007000010B500200A490860012000F0ABFB002072
:100710000849C1F89801012000F0A4FB0120044918
:10072000086000F09FFB01200249C1F8980110BD4C
:100730009C8121420080214210B5FFF7ABFF64206D
:1007400000F06AFBAE2000F0A3F8002000F0A0F853
:10075000102000F09DF8402000F09AF8812000F071
:1007600097F8C42000F094F8A12000F091F8C82078
:1007700000F08EF8A62000F08BF8A82000F088F892
:100780003F2000F085F8D32000F082F8002000F030
:100790007FF8D52000F07CF8802000F079F8D9208F
:1007A00000F076F8F12000F073F8DA2000F070F82D
:1007B000122000F06DF8DB2000F06AF8402000F015
:1007C00067F8202000F064F8022000F061F88D2026
:1007D00000F05EF8142000F05BF8A42000F058F858
:1007E000A62000F055F8AF2000F052F80020FFF7E7
:1007F00033FF0021084600F001F810BD70B5044633
:100800000D4605F1B001C8B200F042F8102141EAEE
:10081000141000F03DF804F00F0141F0010000F069
:1008200037F870BD2DE9F04782460F46904699464D
:1008300000244FEA4815B9F1000F01D1002600E06D
:10084000FF2639465046FFF7D9FF002408E00F493C
:10085000495D81EA060000F02BF86D1C601CC4B2F3
:10086000102CF4DB781CC1B25046FFF7C7FF002400
:1008700008E00649495D81EA060000F019F86D1CA0
:10088000601CC4B2102CF4DBBDE8F0871A00002015
:1008900010B50446FFF718FF782000F019F8002083
:1008A00000F016F8204600F013F8FFF729FF10BDFE
:1008B00010B50446FFF708FF782000F009F8402043
:1008C00000F006F8204600F003F8FFF719FF10BD0E
:1008D00070B5044600251DE004F0800018B1012029
:1008E0001349086002E0002011490860012000F06F
:1008F000B9FA01200E49091F086000F0B3FA002080
:100900000C49C1F89801012000F0ACFA6006040E11
:10091000681CC5B2082DDFDB01200549091F0860EE
:1009200000F0A0FA00200349C1F8980170BD000052
:100930009C812142008021427047000029B1064A73
:1009400092690243044B9A6104E0034A926982432C
:10095000014B9A61704700000010024030B5002141
:100960000022002400232D4D6D6805F00C0121B1FB
:10097000042905D0082923D105E0294D056022E08E
:10098000274D05601FE0254D6D6805F47012234D5D
:100990006D6805F48034022505EB92421CB9214DA7
:1009A000554305600BE01D4D6D6805F400351DB124
:1009B0001C4D5543056002E0194D5543056002E0AA
:1009C000174D056000BF00BF144D6D6805F0F001C4
:1009D0000909154D6B5C0568DD4045600F4D6D687C
:1009E00005F4E061090A104D6B5C4568DD408560E7
:1009F0000A4D6D6805F46051C90A0B4D6B5C456882
:100A0000DD40C560054D6D6805F44041890B074D1B
:100A10006B5CC568B5FBF3F5056130BD00100240A5
:100A200000127A0000093D00A6060020B60600204C
:100A3000704710B500F002F810BD00000CB50020A2
:100A4000019000903348006840F4803031490860DC
:100A500000BF3048006800F4003000900198401C4E
:100A60000190009818B90198B0F5A06FF1D129480C
:100A7000006800F4003010B10120009001E0002077
:100A800000900098012843D12348006840F01000EE
:100A9000214908600846006820F003000860084605
:100AA000006840F0020008601A4840681949486030
:100AB0000846406848600846406840F480604860E6
:100AC0000846406820F47C1048600846406840F4BE
:100AD000E81048600846006840F08070086000BF79
:100AE0000C48006800F000700028F9D00948406800
:100AF00020F00300074948600846406840F00200C3
:100B0000486000BF0348406800F00C000828F9D195
:100B10000CBD00000010024000200240042808D153
:100B20004FF0E021096941F004014FF0E02211612A
:100B300007E04FF0E021096921F004014FF0E022C5
:100B4000116170477047000010B51348006840F00D
:100B500001001149086008464068104908400E49E4
:100B60004860084600680E4908400B49086008467E
:100B7000006820F4802008600846406820F4FE00E9
:100B800048604FF41F008860FFF753FF4FF000608C
:100B90000449086010BD0000001002400000FFF88A
:100BA000FFFFF6FE08ED00E010B540F225511D48AC
:100BB00000F04AF810B31B4800F002F9C4B21A481A
:100BC000008800F40040C8B91748008800F480404D
:100BD00060B10A2C03D000201349088020E012489D
:100BE000008840F400401049088019E00D2C06D11F
:100BF0000D48008840F480400B49088010E00A4806
:100C00000088C0F30D0009490C5407480088401CB7
:100C10000549088008460088C72801DD00200880B3
:100C200010BD000000380140A4060020BC060020D2
:100C300021B1828942F40052828104E082894DF61A
:100C4000FF731A408281704770B50246002400236A
:100C50000025002040F66A16B14200D100BFC1F362
:100C6000421501F01F03012606FA03F3012D02D1FC
:100C70009689334006E0022D02D1168A334001E006
:100C8000968A33400C12012606FA04F41688344082
:100C900013B10CB1012000E0002070BDF0B5034697
:100CA000002400260025002040F66A17B94200D132
:100CB00000BF1846C1F3421401F01F06012707FACE
:100CC00006F5012C01D10C3004E0022C01D11030CA
:100CD00000E014301AB107682F43076002E007688C
:100CE000AF430760F0BD00002DE9F04786B0054630
:100CF0000E460024A24600BFA1460027B08900B1DD
:100D000000BF2F462C8A4CF6FF700440F088044345
:100D10002C82AC894EF6F3100440B0883189084328
:100D2000718908430443AC81AC8A4FF6FF4004400C
:100D3000B0890443AC8201A8FFF710FE1F48874228
:100D400002D1DDF810A001E0DDF80CA0A88900F4C4
:100D5000004040B10AEBCA0000EB0A1031684900BC
:100D6000B0FBF1F807E00AEBCA0000EB0A103168AB
:100D70008900B0FBF1F86420B8FBF0F00401200911
:100D8000642101FB1089A88900F4004040B13220A1
:100D900000EBC900B0FBF1F000F00700044308E0ED
:100DA000322000EB09106421B0FBF1F000F00F00DD
:100DB00004432C8106B0BDE8F087000000380140F4
:100DC00001468888C0F30800704700BFFEE701466F
:100DD00000BF704710B56FF00400FFF79FFE0A4890
:100DE00000680A49B0FBF1F009490870084600782C
:100DF00000EB4001C1EBC0104FF6FF7101EAC000EB
:100E00000449088010BD00000000002000127A0094
:100E10009C0600209E0600200146114A12884A4383
:100E20004FF0E0235A6100229A611A46126942F09B
:100E300001021A6100BF4FF0E022106900F00102C8
:100E40001AB100F48032002AF5D04FF0E022126986
:100E500022F001024FF0E0231A6100229A617047EC
:100E60009E0600200146114A12784A434FF0E023C3
:100E70005A6100229A611A46126942F001021A610F
:100E800000BF4FF0E022106900F001021AB100F437
:100E90008032002AF5D04FF0E022126922F00102E0
:100EA0004FF0E0231A6100229A6170479C060020EF
:100EB00000BF054A128802F04002002AF9D0C2B2EF
:100EC000014B1B1D1A80704700380140002001496A
:100ED00008607047948121420120014908607047F1
:100EE0009481214203480068C0430349C1F894013A
:100EF0007047000094012342000023420024002593
:100F00000027FFF767FFFFF717FC4FF4E13000F011
:100F10008DFBFFF7BDFAFFF73DFB00F0FBF82CE07F
:100F20000020FFF7D3FA0646012E06D0022E0AD083
:100F3000032E0ED0042E19D112E0601E44B2601CA4
:100F400000B9002412E0681C45B2032D00D1002531
:100F50000CE0601C44B2012C00D10024012705E004
:100F6000681E45B2681C00B9002500BF00BF26B14D
:100F7000E9B2E0B23A4600F031FBD1E710B5002308
:100F80001A4619461846FFF74DFC00231A46194623
:100F90001020FFF747FC00231A4619462020FFF7D0
:100FA00041FC0023292219463020FFF73BFC002397
:100FB0002A2219464020FFF735FC00231A4619461D
:100FC0005020FFF72FFC00231A4619466020FFF738
:100FD00029FC00231A4619467020FFF723FC012341
:100FE000002202211046FFF71DFC01230E220221E0
:100FF0001020FFF717FC01232B2202212020FFF7EE
:1010000011FC01232C2202213020FFF70BFC0123CD
:10101000002202214020FFF705FC012300220221CB
:101020005020FFF7FFFB0123002202216020FFF781
:10103000F9FB0123002202217020FFF7F3FB0023BC
:101040001A4604211846FFF7EDFB00230F22042166
:101050001020FFF7E7FB00232D2204212020FFF7BB
:10106000E1FB00232E2204213020FFF7DBFB0023CD
:101070001A4604214020FFF7D5FB00231A4604211D
:101080005020FFF7CFFB00231A4604216020FFF712
:10109000C9FB00231A4604217020FFF7C3FB00237D
:1010A0001A4606211846FFF7BDFB00231022062131
:1010B0001046FFF7B7FB00232F2206212020FFF761
:1010C000B1FB0023302206211046FFF7ABFB0023C3
:1010D000312206214020FFF7A5FB00233222062102
:1010E0005020FFF79FFB0023332206216020FFF7EB
:1010F00099FB00231A4606217020FFF793FB02A0FC
:10110000FFF7A6F810BD0000B5DAD2BBCFEE0D0A8E
:101110000000000010B500231A4619461846FFF7D4
:1011200081FB00231A4619461020FFF77BFB0023A2
:101130001A4619462020FFF775FB0023292219467D
:101140003020FFF76FFB00232A2219464020FFF7CB
:1011500069FB00231A4619465020FFF763FB002362
:101160001A4619466020FFF75DFB00231A46194610
:101170007020FFF757FB0123002202211046FFF7E2
:1011800051FB01230E2202211020FFF74BFB01230C
:101190002B2202212020FFF745FB01232C220221D4
:1011A0003020FFF73FFB0123002202214020FFF700
:1011B00039FB0123002202215020FFF733FB0123DA
:1011C000002202216020FFF72DFB012300220221D3
:1011D0007020FFF727FB00231A4604211846FFF76B
:1011E00021FB00230F2204211020FFF71BFB00230B
:1011F0002D2204212020FFF715FB00232E2204219D
:101200003020FFF70FFB00231A4604214020FFF790
:1012100009FB00231A4604215020FFF703FB00239B
:101220001A4604216020FFF7FDFA00231A46042124
:101230007020FFF7F7FA00231A4606211846FFF739
:10124000F1FA0023102206211046FFF7EBFA0023E3
:101250002F2206212020FFF7E5FA00233022062165
:101260001046FFF7DFFA0023312206214020FFF766
:10127000D9FA0023322206215020FFF7D3FA0023A7
:10128000332206216020FFF7CDFA00231A460621FB
:101290007020FFF7C7FA02A0FEF7DAFF10BD0000CA
:1012A000D6F7B2CBB5A50D0A0000000010B500239B
:1012B0001A4619461846FFF7B5FA00231A4619468A
:1012C0001020FFF7AFFA00231A4619462020FFF737
:1012D000A9FA0023292219463020FFF7A3FA002398
:1012E0002A2219464020FFF79DFA00231A46194684
:1012F0005020FFF797FA00231A4619466020FFF79F
:1013000091FA00231A4619467020FFF78BFA002342
:101310001A4602211846FFF785FA00230E22022101
:101320001020FFF77FFA00232B2202212020FFF755
:1013300079FA00232C2202213020FFF773FA0023D0
:101340001A4602214020FFF76DFA00231A460221B7
:101350005020FFF767FA00231A4602216020FFF7AA
:1013600061FA00231A4602217020FFF75BFA01237D
:10137000002204211046FFF755FA01230F22042111
:101380001020FFF74FFA01232D2204212020FFF720
:1013900049FA01232E2204213020FFF743FA0123CA
:1013A000002204214020FFF73DFA012300220421FE
:1013B0005020FFF737FA0123002204216020FFF7B5
:1013C00031FA0123002204217020FFF72BFA0023B9
:1013D0001A4606211846FFF725FA00231022062197
:1013E0001046FFF71FFA00232F2206212020FFF7C7
:1013F00019FA0023302206211046FFF713FA0023C2
:10140000312206214020FFF70DFA00233222062167
:101410005020FFF707FA0023332206216020FFF750
:1014200001FA00231A4606217020FFF7FBF902A0FB
:10143000FEF70EFF10BD0000B5DAB6FECFEE0D0AC6
:101440000000000010B500231A4619461846FFF7A1
:10145000E9F900231A4619461020FFF7E3F90023A3
:101460001A4619462020FFF7DDF9002329221946E4
:101470003020FFF7D7F900232A2219464020FFF732
:10148000D1F900231A4619465020FFF7CBF9002363
:101490001A4619466020FFF7C5F900231A46194677
:1014A0007020FFF7BFF900231A4602211846FFF704
:1014B000B9F900230E2202211020FFF7B3F900230F
:1014C0002B2202212020FFF7ADF900232C2202213C
:1014D0003020FFF7A7F900231A4602214020FFF72A
:1014E000A1F900231A4602215020FFF79BF900239F
:1014F0001A4602216020FFF795F900231A460221BF
:101500007020FFF78FF900231A4604211846FFF7D1
:1015100089F900230F2204211020FFF783F900230B
:101520002D2204212020FFF77DF900232E22042103
:101530003020FFF777F900231A4604214020FFF7F7
:1015400071F900231A4604215020FFF76BF900239C
:101550001A4604216020FFF765F900231A4604218A
:101560007020FFF75FF90123002206211046FFF7E4
:1015700059F90123102206211046FFF753F90123E0
:101580002F2206212020FFF74DF9012330220621CA
:101590001046FFF747F90123312206214020FFF7CB
:1015A00041F90123322206215020FFF73BF90123A4
:1015B000332206216020FFF735F90123002206219E
:1015C0007020FFF72FF902A0FEF742FE10BD0000C9
:1015D000B5DAC8FDCFEE0D0A0000000070B5064672
:1015E0000D461446FEB925B1012D0AD0022D18D1A1
:1015F0000FE0FFF7C3FC012C02D1FFF767FC0024CA
:101600000FE0FFF753FE012C02D1FFF765FC002429
:1016100007E0FFF717FF012C02D1FFF763FC00245E
:1016200000BF00BF00BF00BF70BD000010B586B096
:101630000446012144F20400FFF780F94FF40070E2
:10164000ADF8140003208DF8160018208DF817004F
:1016500005A91C48FEF783FE4FF48060ADF8140026
:1016600004208DF8170005A91648FEF778FE2520FE
:101670008DF8000003208DF801008DF80200012094
:101680008DF803006846FEF7AFFF01940020ADF827
:101690000800ADF80A00ADF80C00ADF810000C2001
:1016A000ADF80E0001A90848FFF71EFB012240F229
:1016B00025510548FFF7F2FA01210348FFF7B8FA70
:1016C00006B010BD0008014000380140EC160008CB
:1016D00000000020BC0600006C010008EC1B0008A4
:1016E000BC0600202C070000C80100081184A24A93
:1016F0000400092C0102030406070809100BF07806
:101700001C06060202928A841008C0F0381807FFEF
:10171000E750130203C3A32101C1848A928202020B
:10172000060C78F0C0100821C10143E303021EEE4D
:10173000FF0E18381416071F7080E01009010F1FE4
:1017400070E0C304034203180D030D317060C0C084
:10175000E16746183C14100884C7E4781F0F01386D
:1017600011E080701F073C184667E1C0C06060311F
:101770000D2C150C12120C700AF0180C0404040C39
:101780001830400A0F183020202030180C280D8007
:10179000C0E0F0F8FCFCF8F0E0C080DF29011A7F1F
:1017A000013909191F29011AFC0139092921180BCE
:1017B00003070F1F3F3F1F0F07031F1119592BFF6F
:1017C00054011AFF0A21101011118985939191FD7E
:1017D00091919385891111170484E45C44C4200815
:1017E0007C4040FF40407C1702017F10103F2008E2
:1017F0007E40407F4040FE17101010FF10901009EF
:10180000F80808090E080808A0090444827F01802E
:10181000601F3FFE129292F292041A1E8F100F6008
:101820001F0404FC47240C1427344C444419341975
:101830003C2A08461C1010F050200E30101F08885B
:1018400048300E014080403F100908CC4A49484AC0
:10185000CC18277F88888482E027FF121252927F5B
:101860005A7E103983B410F0F81E2020203F3F0527
:10187000611C6070506119012BF0F012400E203095
:1018800030282824242221212030183C3030301FD9
:101890005490F0602E18382020210174121E0C7C08
:1018A00080402062400F04060505040424243F3FC5
:1018B000242404043BE0E08791A43838381A8001DE
:1018C0001EFF8080A090AE190B51300CFF402112FA
:1018D000040810202040402809FC242424FC25264C
:1018E00024081204380D40308F80844C552525255E
:1018F000554C30180C0202F2121212F2020202FED1
:101900000441160F0404040F4440807F15404042F8
:10191000CC480940A09E8282829EA0F3380B3F9063
:101920008840432C1028464170480880C0E0F0F8F9
:10193000FCC0012148090103070F1F3F7F07011168
:10194000280D2010E824272424E424342C20C71D4B
:1019500080601F09013E7F0909498961091EA011A4
:10196000051B0C12120C1BF808012C887F88072A13
:10197000F8FD111D08040201882B024CC2280E44F8
:1019800054547F545444202827E4342C8116FF15E6
:1019900055957F297E1C09091F28212AF0162A4007
:1019A0000139F05B407F043912195C2808C8380CF3
:1019B0000B0808E8611208195B1CFF4041012A7FEF
:1019C0000512401010424A52FE514982864A52A2E4
:1019D000524A8680180C100C03FF020410121212D7
:1019E000FF041A1040180EF94A48C84820D81710AA
:1019F00010F01010E0180D0F20403F804021160815
:101A0000162140E012E02808FF10200888780F62B5
:101A1000128819921AFF4510098344231807186287
:101A2000814E201008F7540124F40404180F80900C
:101A300090494D57252525554D458080701C101423
:101A4000D41C2FFC525252D31260180840505755E4
:101A500055557F043B5750D21E4244584040E03415
:101A60005048464A04015AFF0821180D1088C43313
:101A700080824222121A26229029E0111E40424200
:101A8000427E042A4240114BFE220142FE2D40407C
:101A9000407F1A19011A7F0C19102342CC2809FC27
:101AA00024A4242222A36221280D201F205847505D
:101AB00048454245485040380BFE0202F2121212CD
:101AC000F202024111380C7F2020272424242720F1
:101AD000207F90180C44C44F4444C424242FB424C1
:101AE00090280F40442424150C04FE040C152424D3
:101AF0004440300CF8494A4C48F8484C4A49F81CD4
:101B00001010134D2B12FF051A13F0212AC0931A3F
:101B1000480124C8080828088040370404146403D6
:101B20001C0710E01012702CFF2010EB3AFCF01F85
:101B3000806018070830A72A807E41280B101116F4
:101B40001010F0101014134E08101F818141412114
:101B5000110D030D112141418181401809080888A8
:101B6000680808090E081528488808181080814060
:101B7000402122140814224140808180B0180C10AA
:101B8000FF902010E82724E4342C90150242817F36
:101B9000080B20848447241C071C244784A0190DAB
:101BA0001BFF2001190514222C202010040402011F
:101BB000FF8040300E010618204080200E048484EF
:101BC0004424548F142444848404234139100C3C4D
:101BD0004040424C404070040931F2012D010203A3
:0C1BE00004042009060708090204060896
:040000050800020DE0
:00000001FF
