:020000040800F2
:10000000D008002049010008A9060008AD03000837
:10001000A5060008E7010008590C000800000000D0
:10002000000000000000000000000000E10A0008DD
:10003000EB01000800000000A9090008F50B00080A
:100040006301000863010008630100086301000800
:1000500063010008630100086301000863010008F0
:1000600063010008630100086301000863010008E0
:1000700063010008630100086301000863010008D0
:1000800063010008630100086301000863010008C0
:1000900063010008630100086301000863010008B0
:1000A00063010008630100086301000863010008A0
:1000B0006301000863010008630100086301000890
:1000C0006301000863010008630100086301000880
:1000D0006301000863010008630100086301000870
:1000E0006301000863010008630100086301000860
:1000F0006301000863010008630100086301000850
:10010000630100086301000863010008630100083F
:10011000630100086301000863010008630100082F
:10012000630100086301000863010008630100081F
:10013000DFF810D000F01AF800480047990C0008CA
:10014000AFF30080D00800200648804706480047EB
:10015000FEE7FEE7FEE7FEE7FEE7FEE7FEE7FEE777
:10016000FEE7FEE7F90B000831010008064C074DD9
:1001700006E0E06840F0010394E807009847103477
:10018000AC42F6D3FFF7D8FF6815000888150008C1
:1001900070B58C1810F8015B15F0070301D110F849
:1001A000013B2A1106D110F8012B03E010F8016B76
:1001B00001F8016B5B1EF9D12B0705D40023521EF9
:1001C0000DD401F8013BFAE710F8013BCB1A921C61
:1001D00003E013F8015B01F8015B521EF9D5A1425F
:1001E000D8D3002070BD00BFFEE7704710B56FF098
:1001F000040000F0EBFC0A4800680A49B0FBF1F08B
:10020000094908700846007800EB4001C1EBC010B6
:100210004FF6FF7101EAC0000449088010BD0000DC
:100220001400002000127A00280000202A0000207C
:100230000146114A12884A434FF0E0235A610022D6
:100240009A611A46126942F001021A6100BF4FF02A
:10025000E022106900F001021AB100F48032002A95
:10026000F5D04FF0E022126922F001024FF0E023B6
:100270001A6100229A6170472A00002030B50446B6
:10028000002505E04FF47A70FFF7D2FF681CC5B275
:10029000A542F7D330BD2DE9F041024600250026E6
:1002A000002000230024002791F803C00CF00F0564
:1002B00091F803C00CF0100CBCF1000F03D091F8C2
:1002C00002C04CEA050591F800C0BCF1000F31D026
:1002D000146800202BE04FF0010C0CFA00F3B1F889
:1002E00000C00CEA03069E4220D183004FF00F0CA1
:1002F0000CFA03F7BC4305FA03FC4CEA040491F83A
:1003000003C0BCF1280F06D14FF0010C0CFA00FC21
:10031000C2F814C00AE091F803C0BCF1480F05D13F
:100320004FF0010C0CFA00FCC2F810C0401C082869
:10033000D1D31460B1F800C0BCF1FF0F34DD5468B4
:1003400000202EE000F1080C4FF0010808FA0CF331
:10035000B1F800C00CEA03069E4221D183004FF0A1
:100360000F0C0CFA03F7BC4305FA03FC4CEA040437
:1003700091F803C0BCF1280F05D100F1080C08FA70
:100380000CF8C2F8148091F803C0BCF1480F07D1F3
:1003900000F1080C4FF0010808FA0CF8C2F81080C0
:1003A000401C0828CED35460BDE8F08100BFFEE7B2
:1003B00070B502460024002500230020958A138B87
:1003C0001B0445EA030626F07F4404EA01068E4238
:1003D00001D1012000E0002070BD21B1028842F06F
:1003E0000102028004E002884FF6FE731A40028088
:1003F0007047000000B585B00121480500F0D6FA2D
:100400000121082000F0F2FAC020ADF8000003201E
:100410008DF802001C208DF8030069461148FFF793
:100420003AFF114800F024F80020ADF808004BF620
:10043000FF70ADF80A003020ADF80C004FF480607A
:10044000ADF80E000001ADF8100008480190012140
:100450000548FFF7C2FF01A9034800F05BF805B0AB
:1004600000BD0000000C014000540040801A06004E
:1004700010B504460B48844209D10121480500F01B
:10048000A5FA00214FF4001000F0A0FA08E00121C5
:10049000880500F09BFA00214FF4800000F096FAE6
:1004A00010BD00000054004021B1028842F4807267
:1004B000028004E002884FF6FF631A400280704712
:1004C00021B1028842F40072028004E002884FF6F3
:1004D000FF531A40028070470CB5024600200023EB
:1004E0000193009300920B0F019321F07F41019B38
:1004F0001BB1009B1433009303E0090C009B1833DD
:100500000093009B1B680B400BB1012000E0002012
:100510000CBD00002DE9F04385B004460D460026D1
:10052000B1460427DFF8CC80A6884FF6C07006409D
:10053000684600F06BFADDF808802F48B8FBF0F051
:100540001FFA80F946EA0906A68020884FF6FE7158
:100550000840208000262949286888420CD828684D
:100560004000B8FBF0F087B2042F00DA04273E43C6
:1005700009F10100208427E0E8884BF6FF718842EA
:1005800006D1286800EB4000B8FBF0F087B209E024
:10059000286800EBC00101EB0010B8FBF0F087B257
:1005A00047F48047C7F30B0008B947F0010747F449
:1005B000004006434FF4967009FB00F04FF47A7147
:1005C00090FBF1F0401C2084A683208840F00100BD
:1005D000208026884FF6F5300640A88869890843B0
:1005E00006432680A88929890843208105B0BDE8F3
:1005F000F083000000127A0040420F00A086010044
:1006000012B141F0010102E04FF6FE731940018280
:10061000704701827047000070B504460D4600BF68
:100620004FF400311C48FFF757FF0028F8D1012193
:100630001948FFF739FF00BF18491748FFF7B8FE00
:100640000028F9D0002278211348FFF7D9FF00BF16
:1006500013491148FFF7ACFE0028F9D021460E4897
:10066000FFF7D7FF00BF0E49891C0B48FFF7A0FE1C
:100670000028F8D029460848FFF7CBFF00BF0849FB
:10068000891C0548FFF794FE0028F8D00121024894
:10069000FFF716FF70BD000000540040010003008A
:1006A0008200070000BFFEE7704710B5002000F091
:1006B0003BF810BD2DE9F05F06460F4690461C46FC
:1006C000DDF828A04FF0000BE11704EB5171C910C1
:1006D000A4EBC10131B92046E11704EB5171C1F31C
:1006E000C70506E02046E11704EB5171C910491C0B
:1006F000CDB23D4614E02946304600F0A1F8B1469F
:100700000AE059460BF1010B1AF8010000F0ADFAAE
:1007100009F1010000F0FF09C145F2DB681CC5B218
:10072000A542E8DBBDE8F09F70B50646002415E061
:1007300004F1B001C8B200F091FA002000F08EFA86
:10074000102000F08BFA002504E0304600F08DFA0E
:10075000681CC5B2802DF8DB601CC4B2082CE7DB36
:1007600070BD10B56420FFF763FDAE2000F076FA8F
:10077000202000F073FA102000F070FAB02000F092
:100780006DFAC82000F06AFA002000F067FA102025
:1007900000F064FA402000F061FA812000F05EFA77
:1007A000FF2000F05BFAA12000F058FAA62000F02C
:1007B00055FAA82000F052FA3F2000F04FFAA4208A
:1007C00000F04CFAD32000F049FA002000F046FA7D
:1007D000D52000F043FAF02000F040FAD92000F0D4
:1007E0003DFA222000F03AFADA2000F037FA12201F
:1007F00000F034FADB2000F031FA202000F02EFA6D
:100800008D2000F02BFA142000F028FAAF2000F021
:1008100025FA10BD10B58D2000F020FA102000F050
:100820001DFAAE2000F01AFA10BD10B58D2000F0B0
:1008300015FA142000F012FAAF2000F00FFA10BDE4
:1008400070B504460D4605F1B001C8B200F006FAD5
:10085000102141EA141000F001FA04F00F0141F0F8
:10086000010000F0FBF970BD2DE9F04180460E4615
:10087000174600247D0131464046FFF7E1FF00BFE7
:1008800006E00D49485D00F0F0F96D1C601CC4B233
:10089000102CF6DB701CC1B24046FFF7D1FF0024DC
:1008A00006E00549485D00F0E0F96D1C601CC4B22B
:1008B000102CF6DBBDE8F0812C0000202DE9F0477C
:1008C0000646894617469A464FF000080024002540
:1008D000BAF1010F03D0BAF1020F5ED125E020E09A
:1008E000785D203800F0FF087E2E04DD002609F137
:1008F000010000F0FF0949463046FFF7A1FF002440
:1009000009E008EB4801264A02EB4101085D00F0CE
:10091000ACF9601CC4B2062CF3DBB01DC6B2681C77
:10092000C5B2785D0028DBD137E032E0785D203851
:1009300000F0FF08782E04DD002609F1010000F028
:10094000FF0949463046FFF77BFF002407E004EB30
:100950000811144A505C00F088F9601CC4B2082CDD
:10096000F5DB09F10100C1B23046FFF769FF002451
:1009700008E004EB081108310A4A505C00F075F9F0
:10098000601CC4B2082CF4DB06F10800C6B2681C77
:10099000C5B2785D0028C9D100BF00BFBDE8F087AF
:1009A000500D0008780F00087047000029B1064A72
:1009B000D2690243044BDA6104E0034AD2698243FC
:1009C000014BDA61704700000010024029B1064A6D
:1009D00012690243044B1A6104E0034A126982431C
:1009E000014B1A61704700000010024029B1064A0D
:1009F00092690243044B9A6104E0034A926982437C
:100A0000014B9A61704700000010024030B5002190
:100A10000022002400232D4D6D6805F00C0121B14A
:100A2000042905D0082923D105E0294D056022E0DD
:100A3000274D05601FE0254D6D6805F47012234DAC
:100A40006D6805F48034022505EB92421CB9214DF6
:100A5000554305600BE01D4D6D6805F400351DB173
:100A60001C4D5543056002E0194D5543056002E0F9
:100A7000174D056000BF00BF144D6D6805F0F00113
:100A80000909154D6B5C0568DD4045600F4D6D68CB
:100A900005F4E061090A104D6B5C4568DD40856036
:100AA0000A4D6D6805F46051C90A0B4D6B5C4568D1
:100AB000DD40C560054D6D6805F44041890B074D6B
:100AC0006B5CC568B5FBF3F5056130BD00100240F5
:100AD00000127A0000093D000000002010000020F4
:100AE000704710B500F002F810BD00000CB50020F2
:100AF000019000903348006840F48030314908602C
:100B000000BF3048006800F4003000900198401C9D
:100B10000190009818B90198B0F5A06FF1D129485B
:100B2000006800F4003010B10120009001E00020C6
:100B300000900098012843D12348006840F010003D
:100B4000214908600846006820F003000860084654
:100B5000006840F0020008601A484068194948607F
:100B60000846406848600846406840F48060486035
:100B70000846406820F47C1048600846406840F40D
:100B8000E81048600846006840F08070086000BFC8
:100B90000C48006800F000700028F9D0094840684F
:100BA00020F00300074948600846406840F0020012
:100BB000486000BF0348406800F00C000828F9D1E5
:100BC0000CBD00000010024000200240042808D1A3
:100BD0004FF0E021096941F004014FF0E02211617A
:100BE00007E04FF0E021096921F004014FF0E02215
:100BF000116170477047000010B51348006840F05D
:100C000001001149086008464068104908400E4933
:100C10004860084600680E4908400B4908600846CD
:100C2000006820F4802008600846406820F4FE0038
:100C300048604FF41F008860FFF753FF4FF00060DB
:100C40000449086010BD0000001002400000FFF8D9
:100C5000FFFFF6FE08ED00E000BFFEE710B504461A
:100C600021460020FFF7D8FC10BD10B504462146F0
:100C70004020FFF7D1FC10BD02E008C8121F08C1D8
:100C8000002AFAD170477047002001E001C1121F0D
:100C9000002AFBD17047000008B5FFF7A7FAFFF75D
:100CA000A9FBFFF75EFD3FE0FF20FFF73DFD0220BF
:100CB000FFF7E4FA0020FFF737FD0220FFF7DEFA26
:100CC000002409E0162101EB0411C8B222460021DC
:100CD000FFF7CAFD601CC4B2052CF3DB0220FFF74E
:100CE000CDFA012311A203210020FFF7E7FD022323
:100CF00013A204210020FFF7E1FD0220FFF7BEFA56
:100D0000FFF7D3FCFFF786FD0220FFF7B7FAFFF7E6
:100D10008CFD0E4808238022002100900846FFF732
:100D2000C9FC0220FFF7AAFABEE7000048656C5430
:100D30006563204175746F6D6174696F6E000000AA
:100D400048656C6C6F20546563680000CC0000201F
:100D50000000000000000000002F0000000007005D
:100D6000070000147F147F1400242A7F2A120062D7
:100D70006408132300364955225000000503000083
:100D800000001C224100000041221C000014083E0B
:100D900008140008083E0808000000A060000008D1
:100DA0000808080800006060000000201008040225
:100DB000003E5149453E0000427F400000426151E3
:100DC0004946002141454B31001814127F1000277D
:100DD00045454539003C4A49493000017109050340
:100DE00000364949493600064949291E0000363671
:100DF00000000000563600000008142241000014D4
:100E000014141414000041221408000201510906B0
:100E100000324959513E007C1211127C007F494931
:100E20004936003E41414122007F4141221C007F62
:100E300049494941007F09090901003E4149497A70
:100E4000007F0808087F0000417F410000204041EA
:100E50003F01007F08142241007F40404040007F56
:100E6000020C027F007F0408107F003E4141413E9A
:100E7000007F09090906003E4151215E007F0919E2
:100E800029460046494949310001017F0101003FDF
:100E90004040403F001F2040201F003F4038403F5F
:100EA00000631408146300070870080700615149C3
:100EB000454300007F41410000552A552A55000056
:100EC00041417F00000402010204004040404040D4
:100ED000000001020400002054545478007F48446C
:100EE000443800384444442000384444487F0038A3
:100EF0005454541800087E0901020018A4A4A47CCC
:100F0000007F080404780000447D40000040808495
:100F10007D00007F102844000000417F4000007CDD
:100F200004180478007C08040478003844444438E9
:100F300000FC242424180018242418FC007C080435
:100F4000040800485454542000043F444020003C0E
:100F50004040207C001C2040201C003C4030403C95
:100F6000004428102844001CA0A0A07C0044645425
:100F70004C44141414141414000000000000000069
:100F80000000000000000000000000F80000000069
:100F9000000000333000000000100C06100C0600AA
:100FA000000000000000000040C07840C078400011
:100FB000043F04043F040400007088FC0830000073
:100FC000001820FF211E0000F008F000E0180000CB
:100FD00000211C031E211E0000F008887000000084
:100FE0001E2123241927211010160E0000000000D6
:100FF0000000000000000000000000E018040200F3
:10100000000000071820400000020418E000000063
:101010000040201807000000404080F08040400061
:101020000202010F01020200000000F000000000B7
:101030000101011F0101010000000000000000008B
:1010400080B0700000000000000000000000000000
:101050000001010101010101000000000000000089
:101060000030300000000000000000008060180424
:10107000006018060100000000E010080810E00001
:10108000000F102020100F00001010F800000000CA
:101090000020203F20200000007008080888700011
:1010A0000030282422213000003008888848300091
:1010B0000018202020110E000000C02010F80000B1
:1010C00000070424243F240000F80888880808004A
:1010D0000019212020110E0000E01088881800005F
:1010E000000F112020110E0000380808C838080031
:1010F0000000003F000000000070880808887000B1
:10110000001C222121221C0000E010080810E00031
:101110000000312222110F00000000C0C0000000BA
:1011200000000030300000000000008000000000DF
:1011300000008060000000000000804020100800D7
:1011400000010204081020004040404040404000A0
:10115000040404040404040000081020408000007B
:101160000020100804020100007048080808F00080
:101170000000003036010000C030C828E810E00050
:101180000718272423140B000000C038E0000000DB
:10119000203C23020227382008F888888870000045
:1011A000203F202020110E00C03008080808380019
:1011B000071820202010080008F808080810E00090
:1011C000203F202020100F0008F88888E808100031
:1011D000203F20202320180008F88888E808100005
:1011E000203F200003000000C0300808083800003D
:1011F00007182020221E020008F808000008F8083E
:10120000203F210101213F20000808F808080000C4
:101210000020203F2020000000000808F8080800F7
:10122000C08080807F00000008F888C0281808006F
:10123000203F20012638200008F8080000000000A8
:10124000203F20202020300008F8F800F8F808009F
:10125000203F003F003F200008F830C00008F80899
:10126000203F200007183F00E01008080810E000A9
:101270000F10202020100F0008F808080808F000C0
:10128000203F210101010000E01008080810E000E3
:101290000F18242438504F0008F888888888700078
:1012A000203F2000030C3020007088080808380018
:1012B0000038202121221C00180808F8080818000E
:1012C0000000203F2000000008F808000008F8088F
:1012D000001F202020201F000878880000C8380840
:1012E000000007380E010000F80800F80008F800B8
:1012F000033C0700073C0300081868808068180852
:1013000020302C03032C30200838C800C8380800CF
:101310000000203F2000000010080808C83808001E
:101320002038262120201800000000FE02020200C2
:101330000000007F40404000000C30C00000000072
:10134000000000010638C00000020202FE0000009A
:10135000004040407F000000000004020202040040
:10136000000000000000000000000000000000007D
:101370008080808080808080000202040000000065
:10138000000000000000000000008080808000005D
:101390000019242222223F2008F80080800000004B
:1013A000003F112020110E0000000080808000000E
:1013B000000E112020201100000000808088F8001D
:1013C000000E112020103F2000008080808000004F
:1013D000001F222222221300008080F088888818B3
:1013E0000020203F202000000000808080808000BE
:1013F000006B94949493600008F800808080000053
:10140000203F210000203F2000809898000000002D
:101410000020203F2020000000000080989800005D
:1014200000C08080807F000008F80000808080007D
:10143000203F24022D302000000808F800000000A2
:101440000020203F2020000080808080808080005D
:10145000203F20003F20003F8080008080800000EF
:10146000203F210000203F2000008080808000007D
:10147000001F202020201F008080008080000000AE
:1014800080FFA12020110E000000008080808000DD
:10149000000E112020A0FF808080800080808000CE
:1014A00020203F21200001000000808080808000FB
:1014B0000033242424241900008080E08080000070
:1014C0000000001F202000008080000000808000BD
:1014D000001F202020103F2080808000008080801E
:1014E00000010E30080601008080008000808080AE
:1014F0000F300C030C300F000080800080808000D3
:101500000020312E0E3120008080800000808080FD
:1015100080818E70180601000080808080808000AD
:101520000021302C2221300000000000807C0202CB
:1015300000000000003F404000000000FF000000ED
:1015400000000000FF0000000002027C800000009C
:101550000040403F000000000006010102020404B8
:1015600000000000000000008815000800000020B6
:10157000CC0400009001000800190008CC040020F1
:1015800004040000880C0008412D0102030404102B
:1015900009060708090204060884A24A04691851CA
:1015A000200F0202FAFAAAAAFFFFAAAAFAFA020276
:1015B000100F4272723A7A424B5B52626213776644
:1015C0001016203C1CFFFFB0B424243F3FE4E42469
:1015D0002420020203FFFF300B01051D59C1FF7FCC
:1015E000010101500CF8F8484C4F4B4A4848F8F8B4
:1015F0004CFFFF44011929112C2024243810092400
:101600003010FFFF10F0F01010081C1F0B0C0D4FD6
:101610006E341C0F23607F3F180880C060F8FF07FE
:10162000023546E0703C1C08600D7F7F0406033FD6
:101630007F40404078782BF8FF013DF0F0F0FC0946
:1016400099011DF303071F4621062340F8FFE6809A
:101650004A2004981020C18302040C1D397BFAF83B
:10166000F9F3F3F7522A7F012908571FFC7CDFF8B2
:10167000FE6A0F1D3E8F0F7FFFCF2F4009EFDFFF68
:101680001F036C31101E02FFFFF8F89B0224FB2998
:10169000A514B04080140963025024341898D1C3B3
:1016A00067AFD7CFE7E7E3E3E3E1E0E0C0C08181E4
:1016B000010101030303808603334F47F3F94B0114
:1016C000397F3B9F038E580EF3C3C7CFCFDBB8B82B
:1016D000D8C3E0F8FCF529353F0106040808086581
:1016E00019E37E0C0407020274138080627029449F
:1016F000180D40E06130181C0E070B0D040238195C
:10170000011D04060E07017D170F0F06A72163E0D8
:10171000F02AF07E180A7F1F0F0CECF0FCFAFEFE98
:101720001DEF3F3F7F01180BBFEFFF7F060C081036
:10173000F8F00115F3FF1E181B60E0361963180C52
:1017400080C0C0E0E07070606020C09D39031B80E5
:10175000880128080C0E0E1F1F1D1F0118102606D9
:101760000C3CDC4C989818181810303020B3C12964
:10177000952D07070F604A280EC0A6FDDBF7EFFE88
:10178000F8F2FF0F0FCF8B3EFFFFFEFE7F0822DF38
:10179000200F0E0E0C0903070F1F3FFFFF3C0C929A
:1017A000280B0FFFFCFF7F3FFF5F1F1CC8180CF8C2
:1017B000FFFCFEFEF8FC7E3F1F0FE9711B70FC0171
:1017C000280DF9F8F8F0F1FCB8909193868C65B586
:1017D000C0808004180840707038381CFCEE390155
:1017E00019401201401501E0064FDFFFFFF8E3E763
:1017F000EFDFBC70E0C1E7FFFF801009808080C090
:10180000E070381C180C1E9F9F8E8713397C7879E6
:1018100071F8211BF0FF8B6C8F4723791C6040C04F
:10182000311D60C08307AE4901280CCEC5E3E3F14A
:10183000F1F1F9F978187F1D80E0F0F099312C0270
:10184000CEFE7D2ACF013025EFCEDCF8F8D8D8D8EF
:10185000C8E4E4F0F8F9B81819392143879F112139
:1018600003034347C48687C7C7C707092E0808096B
:101870000B1F5A15FEFCFCF8380C80FC7F3FFFE77D
:101880007319040402801A10581CF8F1F31E39224F
:101890006808FDF1F3E7FFEFEF881ACFC36BF0FCA8
:1018A0000E194013F0C02B01830C1AFE883BFDFD7E
:1018B00017100FFDF7FBEF73794F202C06060C096C
:1018C0000929B1211B01010318170303060C0C0C95
:1018D0000606060F0F1F1D5DDDDDBC3C3E7CBEBE57
:1018E0003382C04C70787F012C3F3F3F042901199F
:1018F0000E29578AEF87990119830200F000000032
:0400000508000131BD
:00000001FF
