:020000040800F2
:1000000050150020351E0008C1030008C303000876
:10001000C7030008CB030008CF030008000000005E
:10002000000000000000000000000000D3030008F2
:10003000D503000800000000D7030008D90300081A
:100040004F1E00084F1E00084F1E00084F1E0008DC
:100050004F1E00084F1E00084F1E00084F1E0008CC
:100060004F1E00084F1E00084F1E00084F1E0008BC
:100070004F1E00084F1E00084F1E00084F1E0008AC
:100080004F1E00084F1E00084F1E00084F1E00089C
:100090004F1E00084F1E00084F1E00084F1E00088C
:1000A0004F1E00084F1E00084F1E00084F1E00087C
:1000B0004F1E00085B0700084F1E00084F1E000877
:1000C0004F1E00084F1E00084F1E00084F1E00085C
:1000D0004F1E0008AB1D00084F1E0008D30C00087F
:1000E0004F1E00084F1E00084F1E00084F1E00083C
:1000F0004F1E00084F1E00084F1E00084F1E00082C
:100100004F1E00084F1E00084F1E00084F1E00081B
:100110004F1E00084F1E00084F1E0008350800083B
:100120004F1E00084F1E00084F1E00084F1E0008FB
:1001300000F002F800F0B0F80AA090E8000C824449
:100140008344AAF10107DA4501D100F0A5F8AFF226
:10015000090EBAE80F0013F0010F18BFFB1A43F0A5
:1001600001031847D85D0000F85D00000A444FF015
:10017000000C10F8013B13F0070408BF10F8014B06
:100180001D1108BF10F8015B641E05D010F8016B4B
:10019000641E01F8016BF9D113F0080F1EBF10F8AF
:1001A000014BAD1C0C1B09D16D1E58BF01F801CBD2
:1001B000FAD505E014F8016B01F8016B6D1EF9D555
:1001C0009142D6D37047000000230024002500266A
:1001D000103A28BF78C1FBD8520728BF30C148BFAA
:1001E0000B6070476E2903F0B386702904F01D8000
:1001F000662905F02482652905F02182672905F02A
:100200001E826129AFF3008003681B0A28BF41F0FA
:100210008001692903F06086642903F05D867529F1
:1002200003F05A866F2903F0AA87782903F0E9873B
:10023000E92903F04587E42903F04287F52903F013
:100240003F87EF2903F0A787F82903F0E8870368C1
:10025000DB0928BF41F08001632903F0B4867329CC
:1002600003F0B986E32904F0A282F32904F0A782FF
:10027000002070471FB504F0F7FA040000200021A9
:1002800004F0B0FF401C60600020002104F094FFE7
:10029000E0601FBD10B510BD04F0B9FA1146FFF7BC
:1002A000E9FF00F009F804F095FB03B4FFF7F2FF53
:1002B00003BC01F01FFD00008AB000BF00BF01F0C9
:1002C000AFFC4FF4A06001F0D5FD4FF4165001F0E3
:1002D00020FD4FF4165000F09DFC01F07BFC41F630
:1002E0001F41C72000F0E8FA002140F2833000F0FF
:1002F00047FA00F051FB00F0EFFB00F02AFE00F09F
:100300005DF901F045FA05E0012327A2022105204D
:1003100000F081FE01F0DBFA0028F5D101F072FB5C
:1003200040E000F005FC01A801F04FFB38B99DF852
:100330000440002322460321082000F0A2FF702C75
:1003400002D100F03DFB12E06F2C02D100F05BFB0C
:100350000DE0712C02D100F079FB08E0722C02D183
:1003600000F097FB03E0B42C01D100F0B5FB12487C
:100370000188124803F034F80F4801880F4803F051
:1003800031F80D4801880D4803F02EF80A4801881D
:100390000A4803F02BF8002307480288194618463C
:1003A00000F06FFFBDE700004E524632344C303152
:1003B000204572726F7200000000002000080040AB
:1003C000704700BFFEE700BFFEE700BFFEE700BFCB
:1003D000FEE7704770477047704700000CB500207B
:1003E000019000906C48006840F480306A490860D1
:1003F00000BF6948006800F4003000900198401C7C
:100400000190009818B90198B0F5A06FF1D1624839
:10041000006800F4003010B10120009001E00020DD
:1004200000900098012843D15C48006840F010001B
:100430005A4908600846006820F003000860084632
:10044000006840F002000860534840685249486024
:100450000846406848600846406840F4806048604C
:100460000846406820F47C1048600846406840F424
:10047000E81048600846006840F08070086000BFDF
:100480004548006800F000700028F9D042484068F4
:1004900020F00300404948600846406840F00200F0
:1004A000486000BF3C48406800F00C000828F9D1C3
:1004B0000CBD10B5FFF792FF10BD10B536480068AF
:1004C00040F001003449086008464068344908405B
:1004D0003149486008460068324908402E490860A2
:1004E0000846006820F4802008600846406820F430
:1004F000FE0048604FF41F008860FFF7DAFF4FF0FE
:1005000000602949086010BD10B5002100200022BC
:10051000214B5B6803F00C0121B1042906D00829A6
:1005200028D107E0214B224C236027E01F4B204CB1
:10053000236023E0184B5B6803F47010164B5B6874
:1005400003F48032022303EB904022B9194B43435A
:10055000174C23600DE0104B5B6803F4003323B1AC
:10056000144B4343124C236003E0104B4343104CA5
:10057000236003E00D4B0E4C236000BF00BF064B11
:100580005B68C3F303130C4CE15C094B1B68CB4065
:10059000074C236010BD0000001002400020024004
:1005A0000000FFF8FFFFF6FE08ED00E000127A0001
:1005B0000400002000093D000800002008B50121CA
:1005C000442001F0E1FF7C20ADF8000048208DF8C8
:1005D00003006946474801F01BFD0120ADF800000B
:1005E00028208DF803006946434801F011FD08BD3D
:1005F00010B5044614B10120404908703F48007806
:1006000000284FD004213B4801F095FDC8B10821D6
:10061000384801F090FDA0B11021364801F08BFD63
:1006200078B12021334801F086FD50B14021314896
:1006300001F081FD28B101212F4801F07CFD012846
:1006400030D10A2001F029FB00202C490870042138
:10065000284801F070FD08B9012010BD0821254887
:1006600001F069FD08B90220F7E71021214801F0E7
:1006700062FD08B90320F0E720211E4801F05BFD70
:1006800008B90420E9E740211A4801F054FD08B9EF
:100690000520E2E70121184801F04DFD012827D18E
:1006A0000620DAE70421134801F045FD01281FD197
:1006B0000821104801F03FFD012819D110210D48F3
:1006C00001F039FD012813D120210A4801F033FD42
:1006D00001280DD14021074801F02DFD012807D147
:1006E0000121054801F027FD10B9012003490870D8
:1006F0000020B2E700180140000801401800002067
:100700007FB505460C460121022001F04AFFADF8F5
:100710000850ADF804400020ADF80A00ADF806001E
:1007200001A9954802F068F801221146924802F0AA
:10073000DAFB1D208DF8000000208DF80100032059
:100740008DF8020001208DF80300684601F097FB48
:100750000121894802F0ACFB7FBD10B5012186481C
:1007600002F06FFE58B10121834802F07BFE8348FE
:10077000006808B9012000E000208049086010BD31
:1007800030B589B005460C460121042001F009FF6F
:100790000121212001F0F8FE0121080301F009FDEB
:1007A0004FF47040ADF8200018208DF8230003208E
:1007B0008DF8220008A9724801F02AFCADF8185003
:1007C000ADF814400020ADF81A00ADF8160005A9E8
:1007D0006C4802F011F87020ADF804000120ADF86B
:1007E00006000220ADF80C0001A9664802F041F8AD
:1007F0000821644802F08CFC01A9624802F07BF8F1
:100800000821604802F08DFC01A95E4802F0C0F8A2
:1008100008215C4802F092FC01A95A4802F003F951
:100820000821584802F093FC0121564802F040FB91
:1008300009B030BD10B50121534802F002FE68B185
:100840005248008840F400405049088001214E4839
:1008500002F008FE00214C4802F02AFB10BD7FB5D3
:1008600005460C460121202001F09BFEADF8045006
:10087000ADF800400020ADF80600ADF80200694672
:10088000414801F0B9FF012211463F4802F02BFB1D
:1008900001213D4802F00CFB37208DF80C000020B0
:1008A0008DF80D0002208DF80E0001208DF80F004C
:1008B00003A801F0E4FA7FBD30B589B005460C46C7
:1008C0000121022001F06DFE0121092001F05CFEF2
:1008D00001212F4801F06DFC2020ADF820001820E8
:1008E0008DF8230003208DF8220008A9294801F083
:1008F0008FFB0120ADF8200018208DF82300032085
:100900008DF8220008A9234801F082FBADF81850A9
:10091000ADF814400020ADF81A00ADF8160005A996
:10092000154801F069FF7020ADF804000120ADF812
:1009300006000220ADF80C0001A90F4801F0DBFF12
:1009400008210D4802F0EDFB7020ADF804000120F5
:10095000ADF806000220ADF80C0001A9064802F02F
:1009600017F80821044802F0E9FB0121024802F0CF
:100970009FFA09B030BD00000004004094012342FA
:100980000014014000080040001400401A0000203C
:1009900000081A00000C014008B50121042001F0F4
:1009A000F3FD40F2FD10ADF8000010208DF80300BB
:1009B00003208DF802006946594801F029FB08BD63
:1009C00010B50121564801F0D2FB0421544801F032
:1009D000CCFB0821524801F0CAFB1021504801F01D
:1009E000C4FB20214E4801F0C0FB40214C4801F0DF
:1009F000BEFB80214A4801F0B8FB4FF480714848A3
:100A000001F0B5FB10BD10B50121454801F0ADFB6B
:100A10000421434801F0ABFB0821414801F0A5FB4C
:100A200010213F4801F0A3FB20213D4801F09FFB2E
:100A300040213B4801F099FB8021394801F097FBA8
:100A40004FF48071364801F090FB10BD10B50121C4
:100A5000334801F08AFB0421314801F088FB08216A
:100A60002F4801F084FB10212D4801F080FB20214C
:100A70002B4801F07CFB4021294801F076FB8021C6
:100A8000274801F074FB4FF48071254801F06FFB9B
:100A900010BD10B50121224801F069FB0421204856
:100AA00001F065FB08211E4801F05FFB10211C4886
:100AB00001F05DFB20211A4801F059FB4021184844
:100AC00001F055FB8021164801F051FB4FF4807175
:100AD000134801F04AFB10BD10B50121104801F088
:100AE00046FB04210E4801F042FB08210C4801F0AE
:100AF0003EFB10210A4801F03AFB2021084801F092
:100B000036FB4021064801F032FB8021044801F009
:100B10002EFB4FF48071024801F029FB10BD00004C
:100B20000008014010B54FF4165000F073F810BDE6
:100B300010B500242A48008800F4004000284DD059
:100B400027480088C4B200202649085526A1254818
:100B500003F044F908B9FFF733FF24A1214803F05B
:100B60003DF908B9FFF772FF21A11E4803F036F9DD
:100B700008B9FFF78EFF1FA11A4803F02FF908B933
:100B8000FFF741FF1CA1174803F028F908B9FFF748
:100B9000A3FF1AA1134803F021F920B918480088CF
:100BA0000A301749088017A10E4803F017F920B939
:100BB000134800880A38124908800023094A042192
:100BC000022000F028FA07490FA002F0EDFF0549C6
:100BD0000EA000F0ADF800200149088010BD000013
:100BE0001A000020640500203000000031000000E1
:100BF0003200000033000000340000003500000027
:100C000000000020360000002573000025730D0A47
:100C10000000000010B586B004460121082001F054
:100C2000B3FC0121880401F0BCFC534802F01EFC17
:100C30004FF48060ADF8100003208DF812001820EA
:100C40008DF8130004A94D4801F0E2F94FF400605B
:100C5000ADF8100004208DF8130004A9474801F0F6
:100C6000D7F900940020ADF80400ADF80600ADF807
:100C70000800ADF80C000C20ADF80A0069463E48AB
:100C800002F037FC01213C4802F0BFFC012240F297
:100C90002551394802F0C5FC27208DF814000220A8
:100CA0008DF8150003208DF8160001208DF817002F
:100CB00005A801F0E4F841F61F416320FFF7CFFDDE
:100CC00000202F49088000212E4802F0F1F806B0DC
:100CD00010BD10B540F22551274802F087FDF8B14C
:100CE000254802F003FDC4B22548008800F4004006
:100CF000B0B923480088B0F5167F12DA00212148E8
:100D000002F06AFB1E48008818B901211D4802F054
:100D1000CFF81B490888411C194A11801A490C5404
:100D200005E01748008840F400401549088010BDD0
:100D30000FB438B505A800901448009A049902F041
:100D400021FF00200090114803F028F885B200240C
:100D50000DE000BF4021084802F032FD0028F9D024
:100D60000A48015D044802F0BDFC601C84B2AC423C
:100D7000EFDB38BC5DF814FB00480040000C01407C
:100D80001A0000200014004064050020BC07002069
:100D900008B50121082001F0F7FBC020ADF80000E4
:100DA00010208DF8030003208DF802006946F648F4
:100DB00001F02EF9C021F44801F0D7F908BD10B5B3
:100DC0000120F249086000F044FF0120F049C1F819
:100DD000980100F03EFF0020EC490860012000F07F
:100DE00038FF0020EA49C1F8980110BD10B5002075
:100DF000E6490860012000F02CFF0020E449C1F81A
:100E00009801012000F025FF0120E049086000F072
:100E100020FF0120DE49C1F8980110BD70B50446DD
:100E200000251DE004F0800018B10120D7490860BA
:100E300002E00020D5490860012000F00AFF0120EF
:100E4000D249091F086000F004FF0020D049C1F812
:100E50009801012000F0FDFE6006040E681CC5B27A
:100E6000082DDFDB0120C949091F086000F0F1FEF1
:100E70000020C749C1F8980170BD10B50446FFF7BE
:100E80009EFF7820FFF7CAFF4020FFF7C7FF2046EC
:100E9000FFF7C4FFFFF7AAFF10BD10B50446FFF728
:100EA0008EFF7820FFF7BAFF0020FFF7B7FF20463C
:100EB000FFF7B4FFFFF79AFF10BD70B504460D466B
:100EC00005F1B001C8B2FFF7E8FF102141EA1410A4
:100ED000FFF7E3FF04F00F0141F00100FFF7DDFF32
:100EE00070BD70B50646002415E004F1B001C8B22B
:100EF000FFF7D3FF0120FFF7D0FF1020FFF7CDFF52
:100F0000002504E03046FFF7B8FF681CC5B2802D0D
:100F1000F8DB601CC4B2082CE7DB70BD10B5002004
:100F2000FFF7DFFF10BD10B58D20FFF7B6FF1420CF
:100F3000FFF7B3FFAF20FFF7B0FF10BD10B58D2056
:100F4000FFF7ABFF1020FFF7A8FFAE20FFF7A5FFCC
:100F500010BD10B5FFF71CFF642000F09EFEAE2010
:100F6000FFF79BFF0020FFF798FF1020FFF795FF8A
:100F70004020FFF792FF8120FFF78FFFC420FFF78B
:100F80008CFFA120FFF789FFC820FFF786FFA6206E
:100F9000FFF783FFA820FFF780FF3F20FFF77DFFCB
:100FA000D320FFF77AFF0020FFF777FFD520FFF768
:100FB00074FF8020FFF771FFD920FFF76EFFF1204B
:100FC000FFF76BFFDA20FFF768FF1220FFF765FFDE
:100FD000DB20FFF762FF4020FFF75FFF2020FFF7D5
:100FE0005CFF0220FFF759FF8D20FFF756FF14200A
:100FF000FFF753FFA420FFF750FFA620FFF74DFF98
:10100000AF20FFF74AFF0020FFF76BFF00210846E3
:10101000FFF753FF10BD2DE9F05F044689461546E2
:101020009A464FF0000B00260027BAF1000F01D1BD
:10103000B04601E04FF0FF0822E0E85D203800F004
:10104000FF0B7E2C04DD002409F1010000F0FF09F4
:1010500049462046FFF731FF00260BE00BEB4B0122
:101060004C4A02EB4101895D81EA0800FFF705FF68
:10107000701CC6B2062EF1DBA01DC4B2781CC7B22C
:10108000E85D0028D9D1BDE8F09F2DE9F05F074663
:10109000884691469B4600250024A246BBF1000FDE
:1010A00001D1002600E0FF2638E019F80A002038B8
:1010B000C5B2782F04DD002708F1010000F0FF0819
:1010C00041463846FFF7F9FE002409E004EB05111C
:1010D000314A515C81EA0600FFF7CFFE601CC4B2C2
:1010E000082CF3DB08F10100C1B23846FFF7E5FE3A
:1010F00000240AE004EB05110831274A515C81EA1B
:101100000600FFF7BAFE601CC4B2082CF2DB07F140
:101110000800C7B20AF1010000F0FF0A19F80A003E
:101120000028C2D1BDE8F09F2DE9F04705460E46E4
:10113000174698464FF0000907EB47004FEA400A70
:10114000B8F1000F01D1002400E0FF247E2D02DD64
:101150000025701CC6B231462846FFF7AEFE4FF0A0
:1011600000090CE051460AF1010A0C4A515C81EA7F
:101170000400FFF782FE09F1010000F0FF09B9F158
:10118000060FEFDBBDE8F087000C01409C81214297
:1011900000802142425600086A5800081C000020C6
:1011A0002DE9F04707460E469046994600244FEA3F
:1011B000081AB9F1000F01D1002500E0FF25782FB2
:1011C00002DD0027701CC6B231463846FFF775FEB7
:1011D00000240AE051460AF1010AFD4A515C81EA05
:1011E0000500FFF74AFE601CC4B2082CF2DB701C3D
:1011F000C1B23846FFF761FE00240AE051460AF109
:10120000010AF34A515C81EA0500FFF736FE601CD3
:10121000C4B2082CF2DBBDE8F0872DE9F047824626
:101220000F469046994600244FEA4815B9F1000F41
:1012300001D1002600E0FF2639465046FFF73DFE6B
:10124000002408E0E349495D81EA0600FFF715FE46
:101250006D1C601CC4B2102CF4DB781CC1B250466B
:10126000FFF72BFE002408E0DA49495D81EA060019
:10127000FFF703FE6D1C601CC4B2102CF4DBBDE84C
:10128000F0872DE9FC410746884614461E4600209B
:101290008DF805000A20B4FBF0F100FB114030305E
:1012A0008DF804000A20B4FBF0F4B4FBF0F100FB6D
:1012B000114030308DF803000A20B4FBF0F4B4FB89
:1012C000F0F100FB114030308DF802000A20B4FB31
:1012D000F0F4B4FBF0F100FB114030308DF8010068
:1012E0000A20B4FBF0F4B4FBF0F100FB1140303005
:1012F0008DF8000000250AE01DF80500302803D114
:1013000020200DF8050000E003E0681CC5B2042DA4
:10131000F2DB00BF16B1012E0ED106E000236A46B3
:1013200041463846FFF777FE07E000236A4641460C
:101330003846FFF7AAFE00E000BF00BFBDE8FC8111
:101340002DE9FF5F81468A461646984600208DF8B3
:101350000F002E208DF80C000021304603F0FAFF1C
:1013600005D286F000462D208DF8080002E02020EE
:101370008DF80800304603F0B9FF0446642104FBF1
:1013800001F003F0D3FF94490190304604F016F8C1
:101390000090019904F0DEF8834603F0A7FFC7B27E
:1013A0000A20B4FBF0F100FB114030308DF80B0047
:1013B0000A20B4FBF0F4B4FBF0F100FB1140303034
:1013C0008DF80A000A20B4FBF0F404F13000C0B23A
:1013D0008DF809000A2097FBF0F100FB1170303006
:1013E000C0B28DF80E000A2097FBF0F0C7B207F1EB
:1013F0003000C0B28DF80D0001250AE002A8405D62
:10140000302803D1202002A9485500E003E0681CE1
:10141000C5B2032DF2DB00BFB8F1000F03D0B8F165
:10142000010F0ED106E0002302AA51464846FFF7FD
:10143000F2FD07E0002302AA51464846FFF725FEC9
:1014400000E000BF00BFBDE8FF9FF0B503461446B3
:10145000E4B1CD1701EB5575ED1003EBC5155F4EEB
:10146000755D0A46CE1701EB5676F610A1EBC6075E
:101470000126BE40F6B235430846CE1701EB56763C
:10148000F61003EBC616554FBD551AE0CD1701EB0C
:101490005575ED1003EBC515504E755D0A46CE1718
:1014A00001EB5676F610A1EBC6070126BE40B54308
:1014B0000846CE1701EB5676F61003EBC616474FDB
:1014C000BD55F0BD70B504460D461DB1E0B2FFF745
:1014D000D4FC02E0E0B2FFF7E0FC70BD70B5002480
:1014E0001BE004F1B0000021FFF7ECFF0021022017
:1014F000FFF7E8FF00211020FFF7E4FF002508E0D8
:1015000005EBC411354A505C0121FFF7DBFF681C75
:10151000C5B2802DF4DB601CC4B2082CE1DB70BDC9
:101520002DE9FF4F85B081468A460020039083460F
:101530000798A0EB09050898A0EB0A06CDF80890DB
:10154000CDF804A0002D01DD012705E00DB900272D
:1015500002E04FF0FF376D42002E02DD4FF0010830
:1015600006E016B94FF0000802E04FF0FF3876426F
:10157000B54201DD2C4600E03446002004901EE018
:10158000019AD1B2029AD0B2129AFFF75EFF039885
:1015900028440390B3440398A04205DD0398001B40
:1015A0000390029838440290A34504DDABEB040B92
:1015B0000198404401900498401C80B20490611C42
:1015C00004988842DCDDFFF789FF09B0BDE8F08FA1
:1015D000140A0020220000200000C842240A002033
:1015E0002DE9F84305460E4617469846089C3346B3
:1015F0003A46314628460094FFF792FF43462A4672
:10160000314628460094FFF78BFF43463A46414651
:1016100028460094FFF784FF43463A463146384651
:101620000094FFF77DFFBDE8F88370B504460D46D2
:101630001646324629462046FFF707FFFFF74EFFC2
:1016400070BD2DE9F04104460D4616461F46DDF8F3
:101650001880EA19D1B2A219D0B24246FFF7F5FEBE
:10166000EA19D1B2A21BD0B24246FFF7EEFEEA1B46
:10167000D1B2A219D0B24246FFF7E7FEEA1BD1B2BF
:10168000A21BD0B24246FFF7E0FEAA19D1B2E2197E
:10169000D0B24246FFF7D9FEAA19D1B2E21BD0B2AE
:1016A0004246FFF7D2FEAA1BD1B2E219D0B242469F
:1016B000FFF7CBFEAA1BD1B2E21BD0B24246FFF726
:1016C000C4FEBDE8F0812DE9F84F81468A46904678
:1016D0001E46002435467000C0F1030716E0EBB249
:1016E000E2B251464846CDF80080FFF7AAFF002F2E
:1016F00004DA042000FB0470871D06E0601B04214F
:1017000001FB007000F10A076D1E641CAC42E6DDAF
:10171000FFF7E4FEBDE8F88F2DE9F05F06460F46BF
:1017200090461C46DDF828A04FF0000BE11704EBB3
:101730005171C910A4EBC10131B92046E11704EB86
:101740005171C1F3C70506E02046E11704EB517162
:10175000C910491CCDB23D4615E029463046FFF779
:10176000ACFBB1460BE059460BF1010B1AF8010036
:101770000121FFF7A7FE09F1010000F0FF09C145B3
:10178000F1DB681CC5B2A542E7DBBDE8F09F0000B5
:1017900000B587B001214FF4847000F0F5FE4FF4DE
:1017A0008050ADF8180010208DF81B0003208DF834
:1017B0001A0006A9BC4800F02BFC4FF48051BA482F
:1017C00000F0D3FC4FF4C070ADF8180006A9B7487C
:1017D00000F01EFC4020ADF8180028208DF81B00FA
:1017E00006A9B24800F014FC4FF4E071AF4800F0D5
:1017F000BEFC00F092F90021AD4802F006F900208D
:10180000ADF804004FF48270ADF806000020ADF88A
:101810000800ADF80A00ADF80C004FF40070ADF808
:101820000E001820ADF810000020ADF812000720BF
:10183000ADF8140001A99E4802F042F801219C482D
:1018400002F0E3F800209B49086001209A49C1F8A2
:101850009C0107B000BD2DE9F04107460D46164634
:1018600000209449091F0860384600F02FF980468F
:10187000002405E0FF2000F029F92855601CC4B2BF
:10188000B442F7DB01208B49091F08604046BDE8E0
:10189000F0812DE9F04107460C46154600208549A8
:1018A000091F0860384600F011F98046002605E05F
:1018B00014F8010B00F00AF9701CC6B2AE42F7DB57
:1018C00001207C49091F08604046BDE8F0811CB535
:1018D0007AA103C9CDE90001082000F064F90522CE
:1018E00069463020FFF7D5FF052269461020FFF733
:1018F000B2FF002406E01DF80400A52800D003E094
:10190000601CC4B2052CF6DB00BF052C01D0012001
:101910001CBD0020FCE770B505460C46002065495B
:10192000091F0860284600F0D1F80646204600F05E
:10193000CDF801206049C1F89C01304670BD70B5FA
:10194000044600205B49091F0860204600F0BEF8ED
:10195000FF2000F0BBF8054601205749C1F89C0163
:10196000284670BD70B505464FF4E13000F0D1F95E
:10197000102000F018F900204E4908602022294666
:10198000A020FFF786FF01204B49C1F8A00100BF4E
:101990004848883800680028FAD10720FFF7CFFFB1
:1019A000044621462720FFF7B6FF04F0100028B1B7
:1019B000FF21E120FFF7AFFF102070BD04F02000F1
:1019C00008B12020F9E7FF20F7E770B504461020A2
:1019D00000F0E9F80720FFF7B2FF05462946272067
:1019E000FFF799FF05F0400050B120222146612009
:1019F000FFF731FFFF21E220FFF78DFF002070BDD0
:101A00000120FCE710B500202A49086005222D4975
:101A10002A20FFF73EFF01212120FFF77CFF012153
:101A20002220FFF778FF42212520FFF774FF2021B5
:101A30003120FFF770FF0F212620FFF76CFF0F21E9
:101A40002020FFF768FF01201B49C1F8A00110BD4D
:101A500010B500201749086005221B493020FFF708
:101A600018FF052217492A20FFF713FF0121212023
:101A7000FFF751FF01212220FFF74DFF1A212420FB
:101A8000FFF749FF28212520FFF745FF0F212620DA
:101A9000FFF741FF0E212020FFF73DFF01200649FF
:101AA000C1F8A00110BD0000000C01400020014061
:101AB00000380040A001244200002442A5A5A5A5AD
:101AC000A50000005F5E00085A5E000870B505467C
:101AD000002405E0601CC4B2C82C01DD002070BDEC
:101AE00002213A4802F015F80028F3D02946374879
:101AF00001F0BCFF002405E0601CC4B2C82C01DD6D
:101B00000020ECE70121314802F003F80028F3D06F
:101B10002E4801F0ADFFC0B2E1E700B587B001216A
:101B2000082000F031FD0121880300F03AFD4FF458
:101B30006040ADF8180018208DF81B0003208DF8C8
:101B40001A0006A9224800F063FA4FF460412048C9
:101B500000F00BFB0020ADF804004FF48270ADF8EC
:101B600006000020ADF808000220ADF80A000120B0
:101B7000ADF80C004002ADF80E003820ADF81000B2
:101B80000020ADF812000720ADF8140001A90F489D
:101B900001F096FE01210D4801F037FFFF20FFF70D
:101BA00095FF07B000BD10B50446084800884FF601
:101BB000C77108400549088008460088204308800E
:101BC0000121024801F021FF10BD00000038004053
:101BD000000C014008B50121482000F0D5FC202070
:101BE000ADF8000010208DF8030003208DF80200EE
:101BF0006946094800F00CFA2021074800F0B5FAC0
:101C00002020ADF800006946044800F001FA2021C8
:101C1000024800F0AAFA08BD000C0140001801407B
:101C200010B56FF0040000F074F92E4800682E49DA
:101C3000B0FBF1F02D4908700846007800EB400138
:101C4000C1EBC0104FF6FF7101EAC00028490880BF
:101C500010BD0146254A12784A434FF0E0235A61ED
:101C600000229A611A46126942F001021A6100BF0D
:101C70004FF0E022106900F001021AB100F4803246
:101C8000002AF5D04FF0E022126922F001024FF055
:101C9000E0231A6100229A6170470146144A1288B3
:101CA0004A434FF0E0235A6100229A611A461269B2
:101CB00042F001021A6100BF4FF0E022106900F00B
:101CC00001021AB100F48032002AF5D04FF0E02270
:101CD000126922F001024FF0E0231A6100229A619A
:101CE000704700000400002000127A004205002026
:101CF00044050020014600BF704700BF494A1288D2
:101D000002F04002002AF9D0C2B2464B1B1D1A80D5
:101D1000704710B586B00446012144F2040000F07B
:101D200033FC4FF40070ADF8140003208DF816005A
:101D300018208DF8170005A93B4800F069F94FF409
:101D40008060ADF8140004208DF8170005A936480E
:101D500000F05EF925208DF8000003208DF80100C9
:101D60008DF8020001208DF80300684600F087F826
:101D700001940020ADF80800ADF80A00ADF80C00A1
:101D8000ADF810000C20ADF80E0001A9254801F0B7
:101D9000B0FB012240F22551224801F042FC012112
:101DA000204801F032FC06B010BD10B540F22551BC
:101DB0001C4801F01BFD10B31A4801F097FCC4B297
:101DC0001A48008800F40040C8B91848008800F498
:101DD000804060B10A2C03D000201449088020E024
:101DE0001248008840F400401049088019E00D2C8A
:101DF00006D10E48008840F480400C49088010E06D
:101E00000A480088C0F30D0009490C5407480088AF
:101E1000401C0649088008460088C72801DD0020CC
:101E2000088010BD00380140000801404C0500202A
:101E3000240E00200948804709480047FEE7FEE7D6
:101E4000FEE7FEE7FEE7FEE7FEE7FEE7FEE7FEE76A
:101E500004480549054A064B70470000BB040008CA
:101E600031010008500F00205015002050110020B3
:101E70005011002031490143314A1160704770B55B
:101E8000002100230F22C47804B32D4C246804F4ED
:101E9000E064C4F5E064210AC1F10403CA40447857
:101EA00004FA03F18478144021430901254C067893
:101EB000A155047804F01F050124AC4005786D118C
:101EC000AD0005F1E025C5F8004109E0047804F013
:101ED0001F050124AC401C4D0678761145F82640BC
:101EE00070BD1A4A0A400243154B1B1F1A60704707
:101EF00039B1134A121D12680243114B1B1D1A609F
:101F000006E00F4A121D126882430D4B1B1D1A601A
:101F10007047042808D14FF0E021096941F004011D
:101F20004FF0E022116107E04FF0E021096921F054
:101F300004014FF0E0221161704700000000FA0533
:101F40000CED00E000E400E080E100E080FFFF1F16
:101F500010B50446CC48844208D10121042000F089
:101F60002DFB0021042000F029FB46E0C7488442F5
:101F700008D10121082000F021FB0021082000F0F9
:101F80001DFB3AE0C248844208D10121102000F034
:101F900015FB0021102000F011FB2EE0BD4884420B
:101FA00008D10121202000F009FB0021202000F0B1
:101FB00005FB22E0B848844208D10121402000F00E
:101FC000FDFA0021402000F0F9FA16E0B3488442FF
:101FD00008D10121802000F0F1FA0021802000F0DA
:101FE000EDFA0AE0AE48844207D10121801500F0E5
:101FF000E5FA0021A01500F0E1FA10BD10B50121AD
:10200000084600F0DBFA0021012000F0D7FA10BDED
:102010002DE9F0410246002500260020002300247F
:10202000002791F803C00CF00F0591F803C00CF0E5
:10203000100CBCF1000F03D091F802C04CEA05056A
:1020400091F800C0BCF1000F31D0146800202BE0E3
:102050004FF0010C0CFA00F3B1F800C00CEA0306D3
:102060009E4220D183004FF00F0C0CFA03F7BC43C3
:1020700005FA03FC4CEA040491F803C0BCF1280FF4
:1020800006D14FF0010C0CFA00FCC2F814C00AE0B3
:1020900091F803C0BCF1480F05D14FF0010C0CFAC8
:1020A00000FCC2F810C0401C0828D1D31460B1F85D
:1020B00000C0BCF1FF0F34DD546800202EE000F1B9
:1020C000080C4FF0010808FA0CF3B1F800C00CEA54
:1020D00003069E4221D183004FF00F0C0CFA03F748
:1020E000BC4305FA03FC4CEA040491F803C0BCF1BC
:1020F000280F05D100F1080C08FA0CF8C2F814807A
:1021000091F803C0BCF1480F07D100F1080C4FF063
:10211000010808FA0CF8C2F81080401C0828CED339
:102120005460BDE8F0814FF6FF710180022181709B
:102130000421C17070470246002093680B400BB128
:10214000012000E0002070470146886880B2704797
:1021500002460020D3680B400BB1012000E00020B4
:1021600070470146C86880B270470161704741619D
:1021700070470AB1016100E041617047C16070477A
:102180004FF480320A43826181618261826982698F
:10219000704702460020434B18684FF68073184082
:1021A00040EA021008433F4B186070473E49C8613F
:1021B0007047F0B50A46002300240021002500F0F6
:1021C0000046B6F1004F02D1364EF16901E0354EBE
:1021D0007168C0F3034583B200F44016B6F5401FA2
:1021E00008D121F070612F4E766826F070662D4F71
:1021F0007E6012E000F48016B6F5801F06D103263B
:1022000006FA05F4A14341F0706106E0460D36017F
:1022100003FA06F6B14341F0706122B1460D360172
:1022200003FA06F6314300F00046B6F1004F02D142
:102230001C4EF16101E01B4E7160F0BD30B5002213
:102240008B071C0F0F2303FA04F2164B08338C1074
:1022500053F824309343134C08348D1044F8253040
:1022600023468C1053F824308C07240F00FA04F412
:1022700023430C4C08348D1044F8253030BD0A49F6
:10228000DC3108607047000000080140000C01408C
:10229000001001400014014000180140001C0140E2
:1022A000002001400000014000002042DF4800689B
:1022B00040F00100DD49086008464068DC490840FC
:1022C000DA49486008460068DA490840D74908609A
:1022D0000846006820F4802008600846406820F422
:1022E000FE0048604FF41F0088607047CF490968BE
:1022F00021F48031CD4A11601146096821F4802112
:102300001160B0F5803F03D0B0F5802F0ED106E00C
:10231000C649096841F48031C44A116007E0C349E5
:10232000096841F4A021C14A116000E000BF00BF6C
:10233000704710B501460022002300204A11012AEF
:1023400002D1BA4C236806E0022A02D1B74C236AB4
:1023500001E0B64C636A01F01F02012494401C4066
:102360000CB1012000E0002010BD38B50020009025
:102370000024002500BF3120FFF7DBFF0546009851
:10238000401C00900098B0F5A06F01D0002DF2D055
:102390003120FFF7CEFF08B1012400E000242046E1
:1023A00038BD01460020A14A106820F0F80040EA3C
:1023B000C10010607047A0490860704702460020C5
:1023C0009A4B586820F47C1042EA01031843974B5B
:1023D0005860704798490866704701460020934A44
:1023E000506820F003000843506070478F484068F1
:1023F00000F00C007047014600208C4A506820F025
:10240000F00008435060704701460020874A50683A
:1024100020F4E06008435060704701460020834A82
:10242000506820F4605040EAC1005060704729B104
:102430007E4A527A02437D4B5A7204E07B4A527ABA
:1024400082437A4B5A7270477B49D8310860704793
:1024500001460020754A506820F44040084350600F
:1024600070470021714A20321170704A82F82010A2
:10247000012802D004280AD104E001216B4A20324D
:10248000117005E00521694A2032117000E000BF9B
:1024900000BF70476949086070476449096A014391
:1024A000624A11627047654944390860704730B527
:1024B00000210022002400235C4D6D6805F00C0112
:1024C00021B1042905D0082923D105E05C4D056020
:1024D00022E05B4D05601FE0544D6D6805F47012FD
:1024E000524D6D6805F48034022505EB92421CB90B
:1024F000544D554305600BE04C4D6D6805F40035B7
:102500001DB1504D5543056002E04D4D55430560EA
:1025100002E04B4D056000BF00BF444D6D6805F003
:10252000F0010909484D6B5C0568DD4045603F4D91
:102530006D6805F4E061090A434D6B5C4568DD4058
:1025400085603A4D6D6805F46051C90A3E4D6B5C7B
:102550004568DD40C560354D6D6805F44041890B27
:102560003A4D6B5CC568B5FBF3F5056130BD29B12B
:102570002E4A526902432D4B5A6104E02B4A52699C
:1025800082432A4B5A61704729B1284A9269024313
:10259000264B9A6104E0254A92698243234B9A6153
:1025A000704729B1214AD2690243204BDA6104E025
:1025B0001E4AD26982431D4BDA61704729B11B4A1A
:1025C000D2680243194BDA6004E0184AD2688243A9
:1025D000164BDA60704729B1144A12690243134B53
:1025E0001A6104E0114A12698243104B1A61704764
:1025F00012494039086070470F49C86470470B4959
:10260000C87170470948406A40F0807007494862C5
:10261000704701460020054A92680A400AB101202D
:1026200000E00020704701498872704700100240A6
:102630000000FFF8FFFFF6FE000042428004424225
:1026400000127A0000093D004E0500205E050020C2
:1026500010B50446FE48844208D10121C014FFF79A
:10266000ADFF0021E014FFF7A9FFC4E0B4F1804FF3
:1026700008D101210846FFF7AEFF00210120FFF736
:10268000AAFFB8E0F348844208D101210220FFF7F5
:10269000A2FF00210220FFF79EFFACE0EE4884423B
:1026A00008D101210420FFF796FF00210420FFF745
:1026B00092FFA0E0E948844208D101210820FFF7F9
:1026C0008AFF00210820FFF786FF94E0E448844257
:1026D00008D101211020FFF77EFF00211020FFF715
:1026E0007AFF88E0DF48844208D101212020FFF7EB
:1026F00072FF00212020FFF76EFF7CE0DA48844261
:1027000008D101214014FFF759FF00216014FFF7A1
:1027100055FF70E0D548844209D10121C804FFF774
:102720004DFF00214FF40020FFF748FF63E0D04841
:10273000844209D101210805FFF740FF00214FF431
:102740008010FFF73BFF56E0CA48844209D10121BF
:102750004805FFF733FF00214FF40010FFF72EFF6D
:1027600049E0C548844208D101214020FFF733FFEA
:1027700000214020FFF72FFF3DE0C048844208D1F0
:1027800001218020FFF727FF00218020FFF723FF92
:1027900031E0BB48844208D101218015FFF71BFFBF
:1027A0000021A015FFF717FF25E0B648844209D1A4
:1027B00001210804FFF702FF00214FF48030FFF7EA
:1027C000FDFE18E0B048844209D101214804FFF71A
:1027D000F5FE00214FF40030FFF7F0FE0BE0AB48B0
:1027E000844208D101218804FFF7E8FE00214FF45C
:1027F0008020FFF7E3FE10BD00220288944B984230
:102800000ED0994B98420BD0B0F1804F08D0914B2D
:10281000984205D0904B984202D0904B984204D1F8
:102820004FF68F731A404B881A438D4B984207D04E
:102830008C4B984204D04FF6FF431A40CB881A4382
:1028400002808B8883850B880385814B98420BD04F
:10285000854B984208D08B4B984205D08A4B9842C2
:1028600002D08A4B984201D10B7A038601238382DE
:10287000704770B5002400220023058C4FF6FE76C9
:1028800035400584028C8388048B4FF68F752C406D
:10289000B51E2C400D882C43751E2A400D892A43F5
:1028A0004D882A436A4DA8420BD06F4DA84208D0EC
:1028B000744DA84205D0744DA84202D0734DA84271
:1028C00013D14FF6F7752A404D892A434FF6FB7511
:1028D0002A408D882A434FF6FF652B404FF6FF555F
:1028E0002B408D892B43CD892B4383800483CD8856
:1028F0008586028470BD70B5002400220023058CFB
:102900004FF6EF7635400584028C8388048B48F6B9
:10291000FF752C404FF6FF452C400D884FF6FF7693
:1029200006EA05252C434FF6DF752A400D8906EA95
:1029300005152A434D8806EA05152A43444DA84249
:1029400002D0494DA8421DD14FF67F752A404D89CE
:102950004FF6FF7606EA05152A434FF6BF752A4063
:102960008D8806EA05152A434FF6FF352B404FF2B6
:10297000FF752B408D8906EA85052B43CD8906EA34
:1029800085052B4383800483CD880587028470BD31
:1029900070B5002400220023058C4FF6FF663540F9
:1029A0000584028C8388848B4FF68F752C404FF6FC
:1029B000FC752C400D882C434FF6FF552A400D899D
:1029C0004FF6FF7606EA05252A434D8806EA0525D7
:1029D0002A431F4DA84202D0234DA8421DD14FF2D9
:1029E000FF752A404D894FF6FF7606EA05252A43F2
:1029F0004FF6FF352A408D8806EA05252A434EF614
:102A0000FF752B404DF6FF752B408D8906EA0515A5
:102A10002B43CD8906EA05152B4383808483CD881B
:102A20008587028470BD70B5002200230024058CC8
:102A30004EF6FF7635400584038C8488828B48F6F9
:102A4000FF752A404FF6FF452A400D8820E0000020
:102A5000002C01400004004000080040000C004031
:102A6000001000400014004000340140004C0140C0
:102A7000005001400054014000180040001C00407C
:102A80000020004000400140004401400048014057
:102A90004FF6FF7606EA05252A434DF6FF752B40D3
:102AA0000D8906EA05352B434D8806EA05352B438B
:102AB000FA4DA84202D0FA4DA84208D14BF6FF7554
:102AC0002C408D894FF6FF7606EA85152C438480CD
:102AD0008283CD88A0F84050038470BD828B4FF272
:102AE000FF331A408283828B4FF6FF7303EA012380
:102AF0001A4382837047F0B50C4615460022002128
:102B00000026078C4EF6FF7C07EA0C070784828BB1
:102B1000018C4FF6FF7707EA043640F6FF473A404C
:102B20004FF6FF7707EA05273A434FF6FF7707EAA4
:102B300003373A43D94FB8420ED0D94FB8420BD0E1
:102B4000B0F1804F08D0D74FB84205D0D64FB84229
:102B500002D0D64FB84206D14DF6FF77394046F441
:102B60008057394305E047F6FF57394044F4805712
:102B7000394382830184F0BD828B4FF6F3731A4090
:102B80008283828B0A4382837047F0B50C461546D8
:102B9000002200210026078C4FF6FF6C07EA0C0785
:102BA0000784828B018C4FF6FF7707EA04264FF6E5
:102BB0000C773A404FF6FF7707EA03172F433A4363
:102BC000B64FB8420ED0B64FB8420BD0B0F1804FDE
:102BD00008D0B44FB84205D0B34FB84202D0B34F7B
:102BE000B84206D14FF6FF57394046F48077394353
:102BF00005E04FF2FF57394044F480773943828330
:102C00000184F0BD028B4FF2FF331A400283028B26
:102C10004FF6FF7303EA01231A4302837047F0B5AE
:102C20000C461546002200210026078C4FF6EF7C4B
:102C300007EA0C070784028B018C4FF6FF7707EA3F
:102C4000041640F6FF473A404FF6FF7707EA03378E
:102C50003A434FF6FF7707EA05273A438F4FB842CA
:102C60000ED08F4FB8420BD0B0F1804F08D08D4FAF
:102C7000B84205D08C4FB84202D08C4FB84206D132
:102C80004FF6DF77394046F01007394305E04FF63D
:102C90005F77394044F01007394302830184F0BD67
:102CA000028B4FF6F3731A400283028B0A430283AE
:102CB0007047F0B50C46154600220021068C4FF6F1
:102CC000FE773E400684028B018C4FF60C76324034
:102CD0007E1C06EA03162E433243704EB0420ED0DD
:102CE0006F4EB0420BD0B0F1804F08D06D4EB04265
:102CF00005D06D4EB04202D06C4EB04206D14FF6B8
:102D0000FD76314044F00106314305E04FF6F5769B
:102D1000314044F00106314302830184F0BD70B5B7
:102D200005460C465D4885420ED05D4885420BD075
:102D3000B5F1804F08D05B48854205D05A4885429E
:102D400002D05A48854200D100E000BF208850B927
:102D50002389A28861882846FFF7ABFFE1882846CF
:102D6000FFF79EFF25E0208804280AD12389A28846
:102D700061882846FFF753FFE1882846FFF742FFA6
:102D800017E0208808280AD12389A288618828466C
:102D9000FFF7FBFEE1882846FFF7EEFE09E02389F6
:102DA000A28861882846FFF7A6FEE1882846FFF73B
:102DB00095FE70BD2DE9F04105460C460026012721
:102DC000608808B9022600E00026A088012801D109
:102DD000022700E001272088A0B92389A288618802
:102DE0002846FFF766FFE1882846FFF759FF238949
:102DF0003A4631462846FFF712FFE1882846FFF79A
:102E000001FF13E02389A28861882846FFF707FFA6
:102E1000E1882846FFF7F6FE23893A4631462846E0
:102E2000FFF747FFE1882846FFF73AFFBDE8F0814A
:102E30000A884B881A438B881A43CB881A430B891C
:102E40001A434B891A438B891A43A0F844207047D0
:102E50004FF6FF71818000210180C18041800172A5
:102E600070470021018041808180C18001814181C2
:102E70008181C181704700210180418001218180D1
:102E80000021C18001817047002101804180818043
:102E9000C18001814181818170470000002C014087
:102EA000003401400004004000080040000C0040D5
:102EB00021B1028842F00102028004E002884FF64C
:102EC000FE731A400280704731B1B0F8442042F4DA
:102ED0000042A0F8442005E0B0F84420C2F30E02FE
:102EE000A0F8442070471AB183890B43838102E024
:102EF00083898B43838170478182704741EA020353
:102F0000A0F8483070471AB183890B43838102E0EF
:102F100083898B438381704701894FF6F872114092
:102F2000018170470A46002101894FF68F731940CD
:102F300011430181704730B504460D4629462046AD
:102F4000FFF7F0FF208940F00700208130BD2DE918
:102F5000F04104460D4616461F46602D06D13B46FD
:102F6000012231462046FFF75AFE05E03B4601228A
:102F700031462046FFF79DFE29462046FFF7D2FF47
:102F8000208940F007002081BDE8F08130B50C4673
:102F900000210189C9B24FF6FF7505EA03251543E3
:102FA00025432943018130BD2DE9F04105460E46F8
:102FB00017469846002443463A4631462846FFF7CE
:102FC000E5FF2C894FF6F870044044F007044FF6F3
:102FD0008F70044044F070042C81BDE8F081F0B59E
:102FE00004460D4616461F463B46324629462046B5
:102FF000FFF7CCFF208940F480402081F0BD01859F
:10300000828270470A46002101884FF68F7319406B
:10301000114301807047F0B50C4615461E4600214D
:10302000002200230189028B038C4FF6F877394088
:1030300021434FF6FC473A4040F201173A434FF61E
:10304000DD773B404FF6FF7707EA06172F433B43F8
:10305000018102830384F0BD0A460021018B4FF6F3
:103060008F7319401143018370470A460021018B79
:1030700048F6FF7319404FF6FF7303EA0223194322
:10308000018370470A460021818B4FF68F731940E8
:103090001143818370470A460021818B48F6FF73F4
:1030A00019404FF6FF7303EA0223194381837047E7
:1030B00021B1028842F08002028004E002884FF6CB
:1030C0007F731A400280704721B1828842F0040267
:1030D000828004E082884FF6FB731A40828070473A
:1030E00021B1828842F00802828004E082884FF693
:1030F000F7731A408280704721B1828842F0010242
:10310000828004E082884FF6FE731A408280704706
:103110000A460021018B4FF6F773194011430183D2
:1031200070470A460021018B4FF2FF7319404FF69A
:10313000FF7303EA02231943018370470A46002103
:10314000818B4FF6F77319401143818370470A460C
:103150000021818B4FF2FF7319404FF6FF7303EA92
:1031600002231943818370470A460021018B4FF6E1
:10317000FB7319401143018370470A460021018BFC
:103180004FF6FF3319404FF6FF7303EA022319434A
:10319000018370470A460021818B4FF6FB7319406B
:1031A0001143818370470A460021818B4FF6FF331C
:1031B00019404FF6FF7303EA0223194381837047D6
:1031C0000A460021018B4FF67F731940114301839A
:1031D00070470A460021018BC1F30E014FF6FF73C1
:1031E00003EA02231943018370470A460021818BB9
:1031F0004FF67F7319401143818370470A460021BF
:10320000818BC1F30E014FF6FF7303EA02231943CA
:10321000818370470A460021018C4FF6FD731940E7
:103220001143018470470A460021018C4FF6F77361
:1032300019401143018470470A460021018C4FF662
:10324000DF7319404FF6FF7303EA02131943018439
:1032500070470A460021018C4FF67F7319404FF6E4
:10326000FF7303EA02131943018470470A460021E1
:10327000018C4FF6FF5319404FF6FF7303EA022308
:103280001943018470470A460021018C4FF2FF73F5
:1032900019404FF6FF7303EA022319430184704774
:1032A0000A460021018C4DF6FF7319404FF6FF735B
:1032B00003EA023319430184704730B50023012427
:1032C0008C40A3B2048C9C430484048C02FA01F564
:1032D000ADB22C43048430BD30B5002304248C40AF
:1032E000A3B2048C9C430484048C02FA01F5ADB2B1
:1032F0002C43048430BD70B50346002000241846DA
:10330000183001258D40ACB21D8CA5431D8409B138
:10331000082909D100EB6100056825F070050560FA
:103320000568154305600EE00D1FC5F34E052844E2
:10333000056825F4E045056005684FF6FF7606EA66
:1033400002263543056070BD21B1028842F00202B9
:10335000028004E002884FF6FD731A400280704735
:1033600021B1028842F00402028004E002884FF694
:10337000FB731A400280704721B1828842F08002BC
:10338000828004E082884FF67F731A408280704703
:1033900002884FF6F7731A40028002880A430280BF
:1033A000704782884FF68F731A40828082880A4362
:1033B0008280704702894FF6F8731A4002810289B1
:1033C0000A430281704702894FF67F731A400281D7
:1033D00002890A4302817047818470478185704762
:1033E000818670470187704781877047A0F8401039
:1033F000704702884FF6FF431A40028002880A4352
:10340000028070470146888E70470146088F7047DA
:103410000146888F70470146B1F840007047014669
:10342000888C70470146088D704702460020138A39
:103430000B400BB1012000E000207047CA4302821C
:10344000704730B50246002000230024158A05EAA3
:103450000103958905EA010413B10CB1012000E0D4
:10346000002030BDCA4302827047000010B50446F8
:10347000FB48844209D101218803FFF79FF800210E
:103480004FF48040FFF79AF832E0F648844209D1C1
:1034900001214804FFF79FF800214FF40030FFF7A7
:1034A0009AF825E0F048844209D101218804FFF709
:1034B00092F800214FF48020FFF78DF818E0EB48D8
:1034C000844209D10121C804FFF785F800214FF497
:1034D0000020FFF780F80BE0E548844208D1012185
:1034E0000805FFF778F800214FF48010FFF773F814
:1034F00010BD2DE9F04786B005460E460024A246D1
:1035000000BFA1460027B08900B100BF2F462C8A1A
:103510004CF6FF700440F08804432C82AC894EF6D0
:10352000F3100440B088318908437189084304438B
:10353000AC81AC8A4FF6FF400440B0890443AC82B2
:1035400001A8FEF7B4FFC648874202D1DDF810A0FB
:1035500001E0DDF80CA0A88900F4004040B10AEBBE
:10356000CA0000EB0A1031684900B0FBF1F807E02F
:103570000AEBCA0000EB0A1031688900B0FBF1F8D1
:103580006420B8FBF0F004012009642101FB1089DC
:10359000A88900F4004040B1322000EBC900B0FB24
:1035A000F1F000F00700044308E0322000EB0910BE
:1035B0006421B0FBF1F000F00F0004432C8106B051
:1035C000BDE8F0874FF41651016000218180C18071
:1035D00001810C21418100218181704710B5024693
:1035E0000020108A4FF2FF0318400B884C882343B9
:1035F0008C882343CC8823431843108210BD0021BC
:10360000018041808180C180704721B1828942F46C
:103610000052828104E082894DF6FF731A40828154
:103620007047F0B50346002400260025002040F630
:103630006A17B94200D100BF1846C1F3421401F025
:103640001F06012707FA06F5012C01D10C3004E012
:10365000022C01D1103000E014301AB107682F435A
:10366000076002E00768AF430760F0BD1AB1838AC4
:103670000B43838202E0838A8B4383827047028AF2
:103680004FF6F0731A400282028A0A4302827047A0
:1036900082894FF2FF731A40828182890A438281B4
:1036A000704721B1828942F00202828104E082895E
:1036B0004FF6FD731A4082817047028A4FF6DF731E
:1036C0001A400282028A0A430282704721B1028AAA
:1036D00042F48042028204E0028A4BF6FF731A40F1
:1036E00002827047C1F308028280704701468888D1
:1036F000C0F308007047818941F001018181704762
:10370000028BD2B20283028B42EA0122028370470B
:10371000028B02F47F420283028B0A4302837047CA
:1037200021B1828A42F02002828204E0828A4FF62E
:10373000DF731A408282704721B1828A42F0100200
:10374000828204E0828A4FF6EF731A4082827047C9
:1037500021B1828A42F00802828204E0828A4FF616
:10376000F7731A408282704721B1828942F4004285
:10377000828103E08289C2F30E028281704721B107
:10378000828A42F40062828204E0828A4FF2FF73EE
:103790001A4082827047828A4FF6FB731A408282F7
:1037A000828A0A438282704721B1828A42F00202F1
:1037B000828204E0828A4FF6FD731A40828270474B
:1037C00002460020B1F5007F00D100BF13880B40F6
:1037D0000BB1012000E00020704701F40072B2F547
:1037E000007F00D100BFCA430280704770B5024617
:1037F000002400230025002040F66A16B14200D1C3
:1038000000BFC1F3421501F01F03012606FA03F3BE
:10381000012D02D19689334006E0022D02D1168A8D
:10382000334001E0968A33400C12012606FA04F474
:103830001688344013B10CB1012000E0002070BDA7
:1038400010B50022002340F66A14A14200D100BF47
:103850000A1201249440A3B2DC43048010BD00008E
:10386000003801400044004000480040004C004047
:103870000050004010B50446BE48844208D10121E2
:103880008014FEF79BFE0021A014FEF797FE16E0C1
:10389000B948844208D101210014FEF79CFE0021A2
:1038A0002014FEF798FE0AE0B448844207D10121B3
:1038B000C013FEF790FE0021E013FEF78CFE10BD52
:1038C00010B50022028802F441520B884C88234331
:1038D0008C882343CC8823430C8923434C8923437E
:1038E0008C892343CC8923431A430280838B4FF274
:1038F000FF74234083830B8A038210BD2DE9F04FB0
:1039000085B005460C464FF0000902274FF000082D
:103910004FF0010B0026B246A88B4FF24001084041
:10392000A88302202884B5F81C90A068022801D141
:1039300000BF38E0A08810B94FF0010B01E04FF054
:10394000020B8D48854200D100E000BF6846FEF7BB
:10395000AEFDDDF800A0E088B0F5007F0AD14FEAA7
:103960001A2000EB80004000A168B0FBF1F0401D80
:1039700086B20BE04FEA4B10BAFBF0F000EB800090
:103980004000A168B0FBF1F0401D86B20A20B6FBF2
:10399000F0F606F00108A6EB0800C0F34F074FF65B
:1039A000FF7000EA0828022F01DBFF2F02DD02274B
:1039B0004FF00008E08840EA080038432884A088D7
:1039C000A1890843618808432188084340F40060C6
:1039D00040EA0909A5F81C9005B0BDE8F08F002168
:1039E000018041808180C180018141818181C181CB
:1039F0000721018270470021018041808180C180C0
:103A00000221816000218181704721B1028842F04A
:103A10004002028004E002884FF6BF731A40028021
:103A2000704721B1828B42F48062828304E0828BF2
:103A30004FF6FF331A408283704730B500240023CD
:103A40000C110125A540ABB21AB185881D438580B4
:103A500002E085889D43858030BD1AB183880B4381
:103A6000838002E083888B43838070478181704725
:103A70000146888970474FF6FF62914204D0028860
:103A800042F48072028004E002884FF6FF631A401D
:103A90000280704721B1828842F00402828004E0F3
:103AA00082884FF6FB731A408280704702884FF27B
:103AB000FF731A40028002880A430280704701881F
:103AC00041F480510180704721B1028842F40052D4
:103AD000028004E002884DF6FF731A4002807047AE
:103AE00002460020012901D0108B00E0908A704727
:103AF0000146088A7047B1F5804F04D1028842F42C
:103B00008042028004E002884BF6FF731A40028074
:103B100070470246002013890B400BB1012000E0E2
:103B200000207047CA4302817047F0B5024600206A
:103B300000240023002501F00F070126BE40B4B287
:103B40000B1101269E40B3B2968806EA030516893A
:103B5000264016B10DB1012000E00020F0BD10B5E7
:103B6000002201F00F040123A3409AB2D343038142
:103B700010BD00000030014000380040003C004013
:103B8000704700001CB50C46064B7B44694600900C
:103B9000204600F0F6F904460020694600F004FAD9
:103BA00020461CBD1B0400000FB4044910B503AA35
:103BB000029800F015FA10BC5DF814FB48050020CF
:103BC00070B50C460546012A05D02878800600D538
:103BD000EA69002302E0012305E05B1C934202D264
:103BE000E05C0028F9D1A869E618C01AA861286A23
:103BF00018442862284600F035F904E0D5E901218F
:103C000014F8010B9047B442F8D3284600F040F96D
:103C100070BD00002DE9F05F894604464FF0000AB0
:103C2000DFF874B1FB44C0F820A02046E168884763
:103C3000002874D0252806D0D4E901219047206AB5
:103C4000401C2062F1E700265F462046E168884775
:103C50002028054607DB312D05D2781910F8200CF5
:103C600008B10643F1E7B00701D526F00406C4F811
:103C70001CA00027C4F818A02A2D09D0284601F05E
:103C800093FA38B304EB8708303DC8F8185019E0B0
:103C900059F8041B204604EB87029161E1688847CC
:103CA000012F054618D1E069002820DA26F0200609
:103CB0001DE0D8F8180000EB800005EB400030381C
:103CC000C8F818002046E1688847054601F06CFAFC
:103CD0000028EED1012F0AD02E2D08D12046E16810
:103CE00088477F1C0546022F46F02006C4DBA069EA
:103CF000002803DA404246F00106A061F00701D037
:103D000026F010066C2D0BD0682D09D04C2D39D023
:103D10006A2D35D0742D35D07A2D33D016E038E0A9
:103D2000E1682F4620468847B842054609D16C2FE6
:103D300026D04FF48060E168064320468847054658
:103D400004E06C2F1AD04FF4807006430DB3A5F138
:103D50004100192802D8203546F400664A46294613
:103D6000204626604E46FCF73DFA80B101280BD074
:103D7000F61D26F0070000F1080956E74020E4E7A9
:103D80008020D8E70020D6E706F104094DE7284651
:103D900052E7206ABDE8F09F3C22000010B5431CAA
:103DA00002E010F8011B71B18107FAD14FF0013226
:103DB00002C88C1A8C4314EAC211F9D0C01A0A0640
:103DC00003D0C01E10BDC01A10BD0A0401D0801E51
:103DD00010BD0902FCD0401E10BD00004FF0013C98
:103DE00050F8042B51F8043B9A4221D1A2EB0C036A
:103DF000934313EACC1317D150F8042B51F8043B2A
:103E00009A4215D1A2EB0C03934313EACC130BD1C6
:103E100050F8042B51F8043B9A4209D1A2EB0C0351
:103E2000934313EACC13DBD04FF00000704700BF80
:103E3000D01A01BAB1FA81F101F0180122FA01F0A9
:103E4000CB40C1F12001DBB2C0B2C01A2CFA01F3A1
:103E5000D11A914311EAC311E6D1704770477047F8
:103E60007047704770B5044685690068C10601D582
:103E7000302600E02026C00707D070BDD4E901211C
:103E800030469047206A401C20626D1EF6D570BDFA
:103E900070B5044685690078C00707D170BDD4E9C4
:103EA000012120209047206A401C20626D1EF6D51B
:103EB00070BD09684A0501D540B27047C905FCD5F7
:103EC00000B2704709684A0501D5C0B27047C905FC
:103ED000FCD580B2704700002DE9F0410646002471
:103EE00010687529314616A510D0FFF7E2FF0028AB
:103EF00002DA404213A507E031688A0701D512A50E
:103F000002E0490704D511A5012401E0FFF7DAFF1B
:103F100000210A2206F1240709E0B0FBF2FCB0FB05
:103F2000F2F302FB1C00303078541846491C00287C
:103F3000F3D123462A463046BDE8F04100F0C5B92A
:103F4000000000002D0000002B00000020000000F9
:103F500011680268006A530501D508700AE0D305AC
:103F600001D5088006E0130603D5C217C1E9000297
:103F700000E008600120704701694A1C026108786E
:103F8000704700B58FB0CDE9013100210591054999
:103F90007944CDE9031011466846FFF73BFE0FB0A8
:103FA00000BD0000E5FFFFFF0A6802F8010B0A6090
:103FB000704710B5436913B1AFF3008001E0FFF71C
:103FC000FFFD012010BD127800F124010A700022CB
:103FD0004A700122EDE711684FF0FF32E9E7000077
:103FE000074B70B50D467B44FFF7CBFF04462846D0
:103FF00000F0E9FB10B14FF0FF3070BD204670BDFE
:1040000011DDFFFF2DE9FF5F15468A460446DFF804
:10401000AC80F8440027D8E900103E46CDE90010F6
:1040200010E03AF816106A4602A800F0D0FB411CD6
:1040300007D02178890603D5E269391891420DD855
:104040000744761C2078800602D5E069B84205DD79
:10405000AE42E6DB3AF816000028E2D1A069C01BA8
:10406000A0612046FFF7FEFED8E90010CDE9001060
:10407000002017E03AF818106A4602A800F0A7FBE3
:10408000B0F1FF3F81460BD000250DF1080B05E094
:10409000D4E901211BF8050090476D1C4D45F7D36D
:1040A00008F10100B0428046E4DB206A3844206217
:1040B0002046FFF7EDFEBDE8FF9F0000621E0000F6
:1040C0002DE9F0418046D21D22F007020025D2E9F9
:1040D0000002F52915A614D0011E72F1000106DABE
:1040E0000023D0EB030063EB020211A608E0D8F82E
:1040F00000108B0701D50FA602E0490701D50EA6D7
:1041000001251146002408F1240704E000F098F886
:1041100030323A55641C50EA0102F7D12B46324640
:1041200021464046BDE8F04100F0CFB80000000055
:104130002D0000002B0000002000000030B4002102
:1041400000F1240408E002F00705D208303542EA05
:104150004372DB086554491C52EA0305F3D1046835
:10416000002310A2250707D5A40600D421B1C469F5
:1041700001230DA2641EC46130BC00F0A6B810B5C6
:10418000044621461068FFF79DFE02462046BDE822
:1041900010400023D2E7D21D22F00701D1E900230D
:1041A000CCE700000000000030000000F0B40D4635
:1041B0000188090502D5214C7C4402E01F4C7C4457
:1041C0000E34002100F1240608E002F00F07120966
:1041D000E75D42EA03721B097754491C52EA030760
:1041E000F3D102780023120704D5702D06D009B14F
:1041F000022311342246F0BC00F067B801231034CA
:10420000F8E770B504460D4621461068FFF75AFEE0
:10421000024629462046BDE870400023C6E7D21D6D
:1042200022F00703D3E90023C0E70368126843F0D4
:10423000200303600823C3610023B7E7C41C000008
:1042400030B5B0F10A024FEA900E71F100034EEA68
:10425000817EB0EB0E0061EB91014FEA101E4EEA39
:10426000017E10EB0E0041EB11114FEA102E4EEAC9
:10427000016E10EB0E0041EB11214FEA104E4EEA99
:10428000014E10EB0E0041EB1141401841F10001CD
:104290004FEAD00040EA41704FEAD10110EB8005AF
:1042A0004FEA810444EA907444EB01046D1944EB35
:1042B0000404521BA3414FF0000348BF0A3200D54B
:1042C00030BD401C41F1000130BD2DE9F0470D46E5
:1042D00099469246044600F124080168880604D5F0
:1042E000E06921F01001216000E00120A84201DD19
:1042F000471B00E00027A1697A1902EB0900081AA0
:10430000A0612078C00602D42046FFF7ABFD00264E
:1043100008E0D4E901211AF806009047206A401C01
:10432000761C20624E45F4DB2078C0060AD5204674
:10433000FFF798FD06E0D4E9012130209047206A7C
:10434000401C2062381EA7F10107F4DC07E0D4E925
:10435000012118F805009047206A401C2062281EA1
:10436000A5F10105F3DC2046FFF792FD2078000659
:1043700002D50220BDE8F0870120FBE770472DE958
:10438000FF4F0C461E464FF0FF378BB0D2E90001BD
:10439000DDF860800A908A46C1F30A5505B93D46AA
:1043A000002108464FF00000BAF1000F00F4400071
:1043B00005DA00EB80004FF4400101EA50004FEABB
:1043C0009059B9F1010F00DDB9460A9850EA4A0048
:1043D0000ED044F61050A5F2FF3545432F14B8F126
:1043E000000F1ED07542291E1EDDC9F100021CE01F
:1043F000B8F1010F4FF0000001D0302103E0F2438B
:1044000005E02154401CB042FBDB30460022002175
:1044100021540B99C1F80880C1E900200FB0BDE814
:10442000F08FBD1B6D1CDEE74A4600DA694206A824
:1044300000F05EFA06AB93E8070003AB83E80700E1
:1044400050460A9900F0D4FA8DE80700A0F5005014
:104450001F3800900398002D0ADD42F21F014A46E2
:104460000844002303A90390684600F03DFD09E0DD
:10447000A0F500504A461F38002303A90390684660
:1044800000F047FD8DE807000004000C03D04FF05A
:10449000FF30410800E01046B8F1000F03D00022C1
:1044A000009215461EE0751E05D4FFF7C9FE303296
:1044B00062556D1EF9D5B3460122084302D0002291
:1044C0007F1C04E02078302801D100227F1E002AC2
:1044D000099784D01DE0112D07DAFFF7B1FE3032C5
:1044E00062556D1C50EA0102F5D1084302D00098D4
:1044F000C8B10EE00021681E05E0235C625C6354D5
:104500002254401E491C8142F7DBAB46A81B401ECB
:104510000990002004F80B000B98099AC0F8088055
:10452000C0E9002B7AE711264FF0000857E72DE984
:10453000F04F88460446D21D22F0070191B0D1E920
:104540000001CDE90A0100F01BFE02460B98C00FE6
:1045500001D02D2007E02068810701D52B2002E043
:10456000202101EAC000032A099001D0072A05DBB7
:1045700003464146204600F07BF90BE12078800697
:1045800001D5E06900E00620B8F1650F814606D04C
:10459000B8F1660F18D0B8F1670F70D131E0002084
:1045A000B9F1110F009001DB112301E009F10103C2
:1045B0000AAA01A90CA8FFF7E2FEDDE90C700026AB
:1045C00009F10105834647E001204B4600904FF07A
:1045D00000470AAA01A90CA8FFF7D1FEDDE90DB03A
:1045E0000C995D46002610B909F101000D18B9EBD0
:1045F000050003D4C0F1FF3609F10105A5EB090060
:104600002BE0B9F1010F01DA4FF001090020B9F1F7
:10461000110F0090484601DD112300E003460AAA6D
:1046200001A90CA8FFF7ABFEDDE90C704D46002692
:104630008346207800070AD4AB4500DA5D4601A81E
:10464000012D04DD411911F8011C302907D04F4517
:1046500002DA17F1040F04DA012082460FE06D1E22
:10466000EEE7002F02DCED1B3E4403E0781CA8427D
:1046700000DD7D1CB81B00F1010A4FF000472078D7
:10468000000703D4AA4501DB4FF0FF3A0021B7F140
:10469000004F0DF143088DF8431024D002202B2346
:1046A000002F01DA7F422D230A21021EA0F1010012
:1046B00000DC5FB197FBF1FC97FBF1F201FB1C7C86
:1046C00017460CF1300C08F801CDEEE7A8F1010017
:1046D00003702188090501D5452100E06521A0F17D
:1046E000010800F8011C09980FA9A1EB0807FF1D9C
:1046F00000B10120411901EBEA70A1693844081AA0
:10470000401EA0612078C00602D42046FFF7AAFB15
:10471000099828B1D4E901219047206A401C206201
:104720002078C00622D52046FFF79CFB1EE0002E15
:1047300004DBB34502DD01A8805D00E03020D4E950
:1047400001219047206A401C2062761CAAF10100DA
:104750005FEA000A0AD100F087F8C0680168405C8F
:10476000D4E901219047206A401C2062281EA5F14F
:104770000105DCDC07E0D4E9012118F8010B9047C2
:10478000206A401C2062381EA7F10107F3DC204696
:10479000FFF77EFB032011B041E610B5436913B16A
:1047A000AFF3008001E0FFF72DFC012010BD12885F
:1047B00000F1240182840022C2840122EDE7116805
:1047C0004FF0FF32E9E7007B00F08000704770B5E2
:1047D00016460C46054600F03FF8036893F80101C1
:1047E000012806D0FF2C0FD8185D68B101202C706D
:1047F00070BDD3F807013246214603F20713034484
:104800002846BDE8704018474FF0FF3070BD754630
:1048100000F0EAF8AE4605006946534620F007006E
:10482000854618B020B5FDF713FBBDE820404FF0DA
:1048300000064FF000074FF000084FF0000B21F08A
:104840000701AC46ACE8C009ACE8C009ACE8C00957
:10485000ACE8C0098D46704710B500F005F8001DA2
:1048600010BD00BF81090000004870470C0F0020F8
:104870002DE9F0411F46044603260168072A01F48A
:10488000006004DB08B116A505E016A503E008B139
:1048900015A500E015A521F010002060A069C01E3C
:1048A000A0610FB1401EA0612046FFF7DBFA4FB1B7
:1048B000D4E9012138469047206A401C2062C01C80
:1048C000206206E0206AFAE7D4E9012115F8010B1D
:1048D0009047761EF8D22046FFF7DAFABDE8F0815D
:1048E0004E414E006E616E00494E4600696E660094
:1048F0002DE9F047814616468AB0354878440DC800
:104900008DE80D0032487844801C03AC0DC884E863
:104910000D0041F69B300844372190FBF1F290FBEB
:10492000F1F5A5F1800501FB12041B3C02D56442A0
:10493000012000E00020DFF898A080460027FA441C
:10494000AAF1BE0A0EE0E0070AD03246684607EB3D
:10495000470101230AEB810100F0DBFA8DE8070033
:1049600064107F1C002CEED1194F7F44AE3F19E03C
:10497000E80715D007EB04100DF1180A90E80E00B7
:104980008AE80E00C068F04201D1981908903246BA
:10499000012306A903A800F0BCFA03AB83E80700D3
:1049A0006D10641C002DE3D14FF0010332466946BF
:1049B000B8F1000F03A802D000F096FA01E000F071
:1049C000A8FAC9E90001C9F808200AB0BDE8F087D3
:1049D0002416000010B50446AFF300802046BDE861
:1049E0001040FBF762BC000000487047EC0E00204E
:1049F0005FEA400C08BF91F0000F4FEA8C234FEAAA
:104A0000C12243EA51514FEA1C5018BF00F5F04053
:104A10004FEA300018BF41F000415FEA6C5C00F0E3
:104A20002980BCF1FF3F08BF40F080407047130C65
:104A300006BF12044FF0100C4FF0000C130E04BF11
:104A400012020CF1080C130F04BF12010CF1040C3C
:104A5000930F04BF92000CF1020CD30F04BF52005D
:104A60000CF1010C11464FF00002A0F11F00A0EB69
:104A70000C00704711F0004F08BF704731F0004143
:104A80003FF4D5AF0B0C06BF09044FF0100C4FF0EC
:104A9000000C0B0E04BF09020CF1080C0B0F04BF35
:104AA00009010CF1040C8B0F04BF89000CF1020CFE
:104AB000CB0F04BF49000CF1010CCCF12003A0EB9B
:104AC0000C0022FA03F302FA0CF241EA030100F1AE
:104AD0000100704720F07F4C80EA030023F07F47FD
:104AE000ACEB070303F57C5300F0004003F1FF0338
:104AF0002DE980494FEA154B09B44FEA144325EAE2
:104B00000B4E24EA03480FF2042606EB132749084C
:104B10003E785FEA320203FB0667C7F5000707FB32
:104B200006F64FEA54374FEAD64606F1020607FB6F
:104B3000066CCCF1005C4FEA1C472CEA074C07FBE3
:104B400006F40CFB06F504EB15464FEA961634BF47
:104B500000204FF000404FEAD13706FB07FC4FEA38
:104B60001C4C0CFB0BF7D21B03FB0CF761EB070192
:104B70000CFB0EF7B0EB074072EB17420CFB08F78B
:104B800034BFA2EB0742B2EB074261EB17414FEA99
:104B90000C444FEA910706FB07FC4FEA1C4C0CFB48
:104BA0000BF7B0EBC74072EB573203FB0CF734BF87
:104BB000A2EBC742B2EBC74261EB57310CFB0EF7D9
:104BC000B0EBC70072EB57720CFB08F734BFA2EBD7
:104BD000C702B2EBC70261EB5771039F4FEA8161D5
:104BE00041EA921104EBCC044FEAD1374FEA8262DA
:104BF00006FB07FC42EA90124FEA80604FEA1C4C29
:104C00000CFB0BF7D21B03FB0CF761EB07010CFB52
:104C10000EF7B0EB074072EB17420CFB08F734BFFE
:104C2000A2EB0742B2EB074261EB17414FEA8C550A
:104C30004FEA910704EB9C2406FB07FC4FEA1C4C4F
:104C40000CFB0BF7B0EBC74072EB573203FB0CF7D2
:104C500034BFA2EBC742B2EBC74261EB57310CFB4A
:104C60000EF7B0EBC70072EB57720CFB08F734BFBE
:104C7000A2EBC702B2EBC70261EB577115EB4C25F3
:104C80004FEA816141EA92114FEA82624FEAD137DD
:104C900042EA901206FB07FC44F100044FEA8060F0
:104CA0004FEA1C4C0CFB0BF7D21B03FB0CF761EB20
:104CB00007010CFB0EF7B0EB074072EB17420CFB41
:104CC00008F734BFA2EB0742B2EB074261EB174192
:104CD00015EB1C154FEA813141EA92414FEA8232CD
:104CE00042EA90424FEA80304FEA0C7644F10004E9
:104CF00048EA03434EEA0B484FF0000EB2EB080CB3
:104D000071EB030724BF624639464EEB0E0E4FF09F
:104D1000000B0018524149414BEB0B0BB2EB080C56
:104D200071EB03077BF1000B24BF624639464EEB63
:104D30000E0E4FF0000B0018524149414BEB0B0B8C
:104D4000B2EB080C71EB03077BF1000B24BF62464A
:104D500039464EEB0E0E51EA020718BF46F0010627
:104D600016EB0E7655F1000254F1000103D5BDE8B3
:104D70008901BDE80088BDE88901BDE80048B61991
:104D8000524141EB0101A3F10103704780807F7E16
:104D90007D7C7B7A797877767675747372717170B1
:104DA0006F6E6E6D6C6C6B6A6A6968686766666563
:104DB0006464636362616160605F5F5E5E5D5D5CF1
:104DC0005C5B5B5A5A595958585757565655555562
:104DD0005454535352525251515050504F4F4F4EC2
:104DE0004E4D4D4D4C4C4C4B4B4B4A4A4A49494910
:104DF0004848484747474746464645454544444452
:104E0000444343434342424242414141002B9C467A
:104E100030D477002BD01CB54FEA370703B44FF0DE
:104E200010004FF01001BAF1000F06D0BCF1000FD6
:104E3000DCBF40F0080040F008014FF000000FBC5C
:104E4000BDE810400BF1010BBBF1010F08BF5FEA99
:104E5000170722BF12F1010211F101014FF00041C9
:104E600043F1000300F0004043EA00007047F9D32B
:104E70005708D0E746EA064613F1400F4FEA1646B8
:104E80001FDD13F1200FDFBF16430A460021203338
:104E90005B42BED0C3F1200746EA064602FA07F796
:104EA0004FEA164646EA0706C3F1200722FA03F244
:104EB00001FA07F721FA03F14FF0000342EA070273
:104EC000A7E746EA020646EA06464FEA164646EADB
:104ED0000106BCBF46EA0646360C4FF000034FF011
:104EE00000024FF0000194E72DE9804C9A4693466A
:104EF00070B491E8380007C831EA400C48BF34EA82
:104F0000430C03D5FFF7E6FDFFF780FFF0BCBDE8DB
:104F1000008C2DE9804C9A46934670B491E8380095
:104F200007C810F0804F08BF13F0804F03D100F086
:104F300005F8FFF76BFFF0BCBDE8008C20F07F4761
:104F400080EA030023F07F4C07EB0C03A3F57C53AE
:104F500000F00040A3F1FE0392F0000F00F0B380D8
:104F600095F0000F00F077802DE901494FEA1140DC
:104F70004FEA144621EA004800FB06FC24EA0647F3
:104F800008FB06F607FB08F800FB07F718EB0648D6
:104F90004CEB164C4FEA124B18EB07484FEA1546FC
:104FA0004CEB174022EA0B4E0BFB06FC25EA0647AA
:104FB0000EFB06F607FB0EFE0BFB07F71EEB064E7D
:104FC0004CEB164C4FF000061EEB074E4CEB174B0C
:104FD00018EB0B0840F1000018EB0E0B58EB000823
:104FE00040F100008F1A4FF000013CBFC943661B1F
:104FF00014BFB5EB040C00213CBFC943F61B4FEABC
:1050000017444EEA8E0E27EA04454FEA1C4704FB7C
:1050100007622CEA074C05FB07F70CFB05F604FBBF
:105020000CFC16EB074642EB174216EB0C4642EB24
:105030001C421BEB060658EB0202414146EA9E0663
:1050400001D5BDE80189B619524141EB0101A3F137
:105050000103BDE801894FEA14454FEA114724EAEC
:10506000054621EA074C05FB07F406FB07F70CFB96
:1050700006F105FB0CFC11EB074144EB17444FEA2A
:10508000124711EB0C4144EB1C4422EA074C05FB90
:1050900007F206FB07F70CFB06F605FB0CFC16EB0C
:1050A000074642EB174216EB0C4642EB1C456A18CA
:1050B00054F1000148BF7047B619524141EB01015C
:1050C000A3F10103704795F0000F37D04FEA11426A
:1050D0004FEA144721EA024624EA074C02FB07F193
:1050E00006FB07F70CFB06F402FB0CFC14EB074471
:1050F00041EB17414FEA154714EB0C4441EB1C41BF
:1051000025EA074C02FB07F506FB07F70CFB06F642
:1051100002FB0CFC16EB074645EB174516EB0C465D
:1051200045EB1C42121951F1000148BF7047B619F6
:10513000524141EB0101A3F1010370474FEA1445CD
:105140004FEA114724EA054621EA074C05FB07F11F
:1051500006FB07F70CFB06F24FF0000605FB0CFC04
:1051600012EB074241EB174112EB0C4251EB1C4191
:1051700048BF7047921841EB0101A3F1010370474A
:10518000490050EAC12018BF04204A0D18BF40F062
:10519000010040F2FF72B2EB515F08BF40F0020025
:1051A000012808BF0520704730380A2801D20120A5
:1051B000704700207047000010B500290AD0087819
:1051C000002807D005487844FEF708FE002801D0E3
:1051D000002010BD0248784410BD0000960D00006C
:1051E0008E0D000010B500290AD00878002807D0DD
:1051F00005487844FEF7F2FD002801D0002010BDDC
:105200000248784410BD0000860D00007E0D0000AD
:1052100090EA010F48BF81F0004100F1A281421ADB
:105220003CBF801A89184FEAD0524FF07F4C1CEADD
:10523000410FA2EBD15318BF9CEA026F00F03B80F4
:105240004FF0004C4CEA00204CEA012121FA03FC0B
:1052500010EB0C0C1ED202F1FF325FEA1C2040EB77
:10526000C25038BF70471CF07F0F4FEA400C18BF88
:10527000BCF17F4F38BF7047C3F12003994008BF8E
:1052800020F00100BCF17F4F38BF7047A0F1C04053
:1052900000F05BB94FEA3C00000A40EBC25028BF67
:1052A0001CF0FF0F4FEA400CE6D018BFBCF17F4F57
:1052B00038BF7047EAE79CEA026F05D010EA5C0F3E
:1052C00008BF00F00040704710B500F0F8F800BFCC
:1052D00064FBBE3E401058BFC0F14040491058BF6B
:1052E000C1F140418142EFF300807047C10DD1F11F
:1052F0009E0206DB4FEA002343F0004323FA02F04C
:105300007047004207D54FEA4001B1F1FE4F02D28B
:105310004FF00000704710B500F0D1F8499224809A
:10532000002070476FEA200070470000B0FA80F359
:1053300010FA03F2C3F19D030AD0D90501EB122044
:10534000530638BF704700F1010008BF20F001008C
:105350007047000050EA010C00F113801CF5000FAB
:1053600058BFBCF5000F01D48842704707D710F52D
:10537000000F58BF11F5000F15D4884270478942BD
:1053800070471CF5000F04D5BCF5000FF7D581421E
:1053900070474FF0807C1CEB400F38BF1CEB410F77
:1053A00001D28142704710B500F089F8922449007B
:1053B0004FF000504FF08051FFF78CBF4FF47F0C3F
:1053C0001CEAD0121EBF1CEAD11392EA0C0F93EA1A
:1053D0000C0F00F0478090EA010F48BF42F4807242
:1053E0004FF0004C4CEA00204CEA012102EB030292
:1053F000A0FB0113A2F50002002918BF43F001032E
:105400005B0028BF4FEA330342EB22425FEA132CD2
:105410004CEBC2502EBFBCEB436FB2F57C0F704714
:105420004FEA036CBCF1004F08BF20F00100B2F559
:105430007C0F38BF70470BD582F0FF0212F5803F1A
:10544000C8BF704700F1C040D8BF00F000407047AF
:1054500000F5000C5FEA4C0C48BF7047B0F1C0404B
:1054600000F073B890EA010F0CEAD11348BF42F480
:105470008072624538BF634504D280EA010000F0C3
:105480000040704710B500F01AF800BF8900013ED7
:1054900000F007B800F009B85FEA410C5FEA1C6C45
:1054A00008D080EA010000F050B85FEA400C5FEAE3
:1054B0001C6CF6D14FF00040A0F5800070470EF153
:1054C000020E2EF0030E5EF8044B244204D44FEA81
:1054D0004102B2F17F4F11D84FEA4003B3F17F4F41
:1054E0000CD80ED14FEAD07CB2F17F4F0CEB4C0CB4
:1054F0000CF1020C08BF4CEBD17C04E04FF0080C1F
:1055000001E04FEAD17C0CEB4C0324FA03F404F0E5
:105510000704B4F1040C06D20EEB840CBDE8104075
:105520004CF0010C6047DFE80CF0070802024FF076
:105530000040A0F5800010BD0846420018BFD2F11F
:10554000807288BF00F0004010BDFF2141EAD050BA
:10555000C005704790EA010F48BF81F000413FF558
:105560005EAE421A04D882F00042A0EB0200114461
:105570004FEAD0524FF07F4C1CEA410FA2EBD153BF
:1055800018BF9CEA026F4AD04FF0004C4CEA002052
:105590004CEA012121FA03FCB0EB0C0C0FD412F001
:1055A000FE0F36D05FEA4C001DD5001240EBC25012
:1055B00038BF70471CF03F0F18BF70470BE0A2F1D7
:1055C00001025FEA1C2040EBC25038BF70471CF05C
:1055D0007F0F18BF7047C3F12003994014BF401ECE
:1055E00020F00100704780084FEA122308BF70477F
:1055F000B0FA80FCA2EB0C02CCF1280C60FA0CF0A3
:1056000093EA122F04BF00EBC25070474FEAC370F9
:105610007047130A5FEADC1008BF7047F6E79CEAA0
:10562000026F04D010EA5C0F08BF0020704710B56D
:10563000FFF745FF40DFF63E81F000407047FEF780
:1056400076BF0000000000000000002F00000000F6
:105650000700070000147F147F1400242A7F2A12F9
:1056600000626408132300364955225000000503E8
:10567000000000001C224100000041221C00001418
:10568000083E08140008083E0808000000A060005A
:1056900000080808080800006060000000201008EA
:1056A0000402003E5149453E0000427F4000004256
:1056B00061514946002141454B31001814127F10B9
:1056C000002745454539003C4A49493000017109E8
:1056D000050300364949493600064949291E00009C
:1056E0003636000000005636000000081422410043
:1056F0000014141414140000412214080002015173
:10570000090600324959513E007C1211127C007F7B
:1057100049494936003E41414122007F4141221C16
:10572000007F49494941007F09090901003E41497B
:10573000497A007F0808087F0000417F410000206F
:1057400040413F01007F08142241007F404040401B
:10575000007F020C027F007F0408107F003E414161
:10576000413E007F09090906003E4151215E007F4C
:10577000091929460046494949310001017F0101C3
:10578000003F4040403F001F2040201F003F403866
:10579000403F0063140814630007087008070061A5
:1057A0005149454300007F41410000552A552A5583
:1057B000000041417F00000402010204004040401B
:1057C0004040000001020400002054545478007F3F
:1057D0004844443800384444442000384444487F16
:1057E00000385454541800087E0901020018A4A47B
:1057F000A47C007F080404780000447D4000004041
:1058000080847D00007F102844000000417F40001C
:10581000007C04180478007C0804047800384444B0
:10582000443800FC242424180018242418FC007C8C
:105830000804040800485454542000043F44402005
:10584000003C4040207C001C2040201C003C40309C
:10585000403C004428102844001CA0A0A07C004428
:1058600064544C4414141414141400000000000078
:1058700000000000000000000000000000F8000030
:105880000000000000333000000000100C06100C77
:105890000600000000000000000040C07840C07812
:1058A0004000043F04043F040400007088FC0830FA
:1058B0000000001820FF211E0000F008F000E01892
:1058C000000000211C031E211E0000F0088870004B
:1058D00000001E2123241927211010160E0000009D
:1058E00000000000000000000000000000E01804BC
:1058F0000200000000071820400000020418E00029
:1059000000000040201807000000404080F0804068
:1059100040000202010F01020200000000F000003E
:1059200000000101011F0101010000000000000052
:10593000000080B0700000000000000000000000C7
:105940000000000101010101010100000000000050
:105950000000003030000000000000000000806007
:105960001804006018060100000000E0100808108C
:10597000E000000F102020100F00001010F80000B1
:1059800000000020203F2020000000700808088848
:105990007000003028242221300000300888884818
:1059A00030000018202020110E000000C02010F848
:1059B000000000070424243F240000F80888880819
:1059C00008000019212020110E0000E0108888181E
:1059D0000000000F112020110E0000380808C83800
:1059E00008000000003F00000000007088080888E0
:1059F0007000001C222121221C0000E01008081069
:105A0000E0000000312222110F00000000C0C000A1
:105A100000000000003030000000000000800000A6
:105A200000000000806000000000000080402010A6
:105A3000080000010204081020004040404040409F
:105A40004000040404040404040000081020408002
:105A50000000002010080402010000704808080837
:105A6000F0000000003036010000C030C828E81007
:105A7000E0000718272423140B000000C038E000C2
:105A80000000203C23020227382008F8888888700C
:105A90000000203F202020110E00C0300808080818
:105AA0003800071820202010080008F808080810FF
:105AB000E000203F202020100F0008F88888E80828
:105AC0001000203F20202320180008F88888E808CC
:105AD0001000203F200003000000C03008080838F4
