:020000040800F2
:1000000090070020CD01000839040008D50300083E
:1000100035040008B10200084B1800080000000079
:10002000000000000000000000000000750E000845
:10003000B502000800000000A70B0008890F0008A7
:10004000E7010008E7010008E7010008E7010008F0
:10005000E7010008E7010008E7010008E7010008E0
:10006000E7010008E7010008E7010008E7010008D0
:10007000E7010008E7010008E7010008E7010008C0
:10008000E7010008E7010008E7010008E7010008B0
:10009000E7010008E7010008E7010008E7010008A0
:1000A000E7010008E7010008E7010008E701000890
:1000B000E70100082D120008E7010008E701000829
:1000C000E7010008E7010008E7010008E701000870
:1000D000E701000829160008E7010008E701000809
:1000E000E7010008E7010008E7010008E701000850
:1000F000E7010008E7010008E7010008E701000840
:10010000E7010008E701000851130008E7010008B3
:10011000E7010008E7010008E7010008E70100081F
:10012000E7010008E7010008E7010008E70100080F
:1001300000F002F800F03AF80AA090E8000C8244BF
:100140008344AAF10107DA4501D100F02FF8AFF29C
:10015000090EBAE80F0013F0010F18BFFB1A43F0A5
:10016000010318471422000034220000103A24BF73
:1001700078C878C1FAD8520724BF30C830C144BF0C
:1001800004680C607047000000230024002500264E
:10019000103A28BF78C1FBD8520728BF30C148BFEA
:1001A0000B6070471FB51FBD10B510BD00F033F8D0
:1001B0001146FFF7F7FF01F0BBFB00F051F803B465
:1001C000FFF7F2FF03BC01F042FB00000948804743
:1001D00009480047FEE7FEE7FEE7FEE7FEE7FEE729
:1001E000FEE7FEE7FEE7FEE704480549054A064B41
:1001F000704700008D0F00083101000890010020B9
:100200009007002090030020900300207047704763
:10021000704770477047754600F02CF8AE460500F1
:100220006946534620F00700854618B020B5FFF711
:10023000DBFFBDE820404FF000064FF000074FF015
:1002400000084FF0000B21F00701AC46ACE8C009F4
:10025000ACE8C009ACE8C009ACE8C0098D467047FD
:1002600010B50446AFF300802046BDE81040FFF70C
:10027000A6BF0000004870472C01002008B50121EE
:10028000042000F0A1FC0220ADF8000010208DF841
:10029000030003208DF802006946044800F00BF8C3
:1002A0000221024800F092F808BD00000008014059
:1002B00000BFFEE770472DE9F04102460025002609
:1002C000002000230024002791F803C00CF00F0544
:1002D00091F803C00CF0100CBCF1000F03D091F8A2
:1002E00002C04CEA050591F800C0BCF1000F31D006
:1002F000146800202BE04FF0010C0CFA00F3B1F869
:1003000000C00CEA03069E4220D183004FF00F0C80
:100310000CFA03F7BC4305FA03FC4CEA040491F819
:1003200003C0BCF1280F06D14FF0010C0CFA00FC01
:10033000C2F814C00AE091F803C0BCF1480F05D11F
:100340004FF0010C0CFA00FCC2F810C0401C082849
:10035000D1D31460B1F800C0BCF1FF0F34DD546894
:1003600000202EE000F1080C4FF0010808FA0CF311
:10037000B1F800C00CEA03069E4221D183004FF081
:100380000F0C0CFA03F7BC4305FA03FC4CEA040417
:1003900091F803C0BCF1280F05D100F1080C08FA50
:1003A0000CF8C2F8148091F803C0BCF1480F07D1D3
:1003B00000F1080C4FF0010808FA0CF8C2F81080A0
:1003C000401C0828CED35460BDE8F08141617047DD
:1003D0000161704700BFFEE708B50121402000F031
:1003E000F3FB0720ADF8000048208DF803006946B4
:1003F0000148FFF760FF08BD0018014008B5012162
:100400004C2000F0E1FB40F2FE40ADF8000010206F
:100410008DF8030003208DF8020069460448FFF7B9
:100420004AFF40F2FE410248FFF7D0FF08BD00003E
:100430000008014000BFFEE7704700001CB511A195
:1004400003C9CDE90001082000F0C8FC0522694677
:10045000302000F007F905226946102000F0B0F8BE
:10046000002406E01DF80400A52800D003E0601C6D
:10047000C4B2052CF6DB00BF052C01D001201CBD49
:100480000020FCE7A5A5A5A5A500000000B587B044
:1004900001214FF4847000F097FB4FF48050ADF8C9
:1004A000180010208DF81B0003208DF81A0006A9F3
:1004B0002848FFF700FF4FF480512648FFF788FFD8
:1004C0004FF4C070ADF8180006A92348FFF7F3FEFB
:1004D0004020ADF8180028208DF81B0006A91E4802
:1004E000FFF7E9FE4FF4E0711B48FFF76FFF00F0E4
:1004F00001FC0021194800F085FC0020ADF8040043
:100500004FF48270ADF806000020ADF80800ADF899
:100510000A00ADF80C004FF40070ADF80E00182082
:10052000ADF810000020ADF812000720ADF814005F
:1005300001A90A4800F080FC0121084800F062FC93
:1005400000200749086001200649C1F89C0107B056
:1005500000BD0000000C01400020014000380040B8
:10056000A00124420000244210B500201149086077
:10057000052211492A2000F075F80121212000F000
:100580008FF80121222000F08BF83C21252000F07B
:1005900087F82021312000F083F80F21262000F079
:1005A0007FF80F21202000F07BF801200349C1F8DB
:1005B000A00110BDA00124427123000800002442C4
:1005C0002DE9F04107460D46164600200A4908600D
:1005D000384600F0D9FB8046002405E0FF2000F0FB
:1005E000D3FB2855601CC4B2B442F7DB012002499A
:1005F00008604046BDE8F0819C01244270B5044685
:10060000002007490860204600F0BEFBFF2000F0F4
:10061000BBFB054601200349C1F89C01284670BD7B
:100620009C0124420000244270B50446102000F0D2
:10063000D5FB0720FFF7E2FF05462946272000F0FB
:100640002FF805F0400050B1202221466120FFF72D
:10065000B7FFFF21E22000F023F8002070BD012049
:10066000FCE700002DE9F04107460C461546002046
:100670000A490860384600F087FB8046002605E0FE
:1006800014F8010B00F080FB701CC6B2AE42F7DB21
:100690000120024908604046BDE8F0819C012442E7
:1006A00070B505460C46002007490860284600F052
:1006B0006BFB0646204600F067FB01200349C1F8AA
:1006C0009C01304670BD00009C0124420000244281
:1006D00070B5002100230F22C47804B3154C2468A0
:1006E00004F4E064C4F5E064210AC1F10403CA40E3
:1006F000447804FA03F184781440214309010E4C34
:100700000678A155047804F01F050124AC40057853
:100710006D11AD0005F1E025C5F8004109E0047850
:1007200004F01F050124AC40044D0678761145F80D
:10073000264070BD0CED00E000E400E080E100E048
:1007400002490143024A1160704700000000FA05A7
:100750000CED00E070B50646002415E004F1B00190
:10076000C8B200F06DF9012000F06AF9102000F025
:1007700067F9002504E0304600F072F9681CC5B244
:10078000802DF8DB601CC4B2082CE7DB70BD0000D4
:1007900008B50121082000F017FA4FF44060ADF8C9
:1007A000000010208DF8030003208DF80200694638
:1007B0000448FFF780FD4FF440610248FFF708FE50
:1007C00008BD0000000C014010B501200A49086076
:1007D00001F088F801200949C1F8A80101F082F868
:1007E000002005490860012001F07CF80020034941
:1007F000C1F8A80110BD0000AC8121420080214257
:1008000010B500200A490860012001F06BF80020B3
:100810000849C1F8A801012001F064F80120044949
:10082000086001F05FF801200249C1F8A80110BD7D
:10083000AC8121420080214210B5FFF7A9FF64205E
:1008400001F02AF8AE2000F0FBF8002000F0F8F8E4
:10085000102000F0F5F8402000F0F2F8812000F0C0
:10086000EFF8C42000F0ECF8A12000F0E9F8C8206F
:1008700000F0E6F8A62000F0E3F8A82000F0E0F889
:100880003F2000F0DDF8D32000F0DAF8002000F07F
:10089000D7F8D52000F0D4F8802000F0D1F8D92086
:1008A00000F0CEF8F12000F0CBF8DA2000F0C8F824
:1008B000122000F0C5F8DB2000F0C2F8402000F064
:1008C000BFF8202000F0BCF8022000F0B9F88D201D
:1008D00000F0B6F8142000F0B3F8A42000F0B0F84F
:1008E000A62000F0ADF8AF2000F0AAF80020FFF736
:1008F00031FF0021084600F08FF810BD2DE9F05FB0
:100900000446894615469A464FF0000B00260027FC
:10091000BAF1000F01D1B04601E04FF0FF0822E02C
:10092000E85D203800F0FF0B7E2C04DD002409F187
:10093000010000F0FF094946204600F06DF800264E
:100940000BE00BEB4B010A4A02EB4101895D81EAA6
:10095000080000F085F8701CC6B2062EF1DBA01D61
:10096000C4B2781CC7B2E85D0028D9D1BDE8F09FB9
:10097000541B00082DE9F05F0746884691469B46C8
:1009800000250024A246BBF1000F01D1002600E0A3
:10099000FF2638E019F80A002038C5B2782F04DDA8
:1009A000002708F1010000F0FF084146384600F03A
:1009B00033F8002409E004EB0511164A515C81EA82
:1009C000060000F04DF8601CC4B2082CF3DB08F1FF
:1009D0000100C1B2384600F01FF800240AE004EB21
:1009E000051108310B4A515C81EA060000F038F825
:1009F000601CC4B2082CF2DB07F10800C7B20AF190
:100A0000010000F0FF0A19F80A000028C2D1BDE871
:100A1000F09F00007C1D000870B504460D4605F1EE
:100A2000B001C8B200F00CF8102141EA141000F037
:100A300007F804F00F0141F0010000F001F870BD6B
:100A400010B50446FFF7C0FE782000F019F800202A
:100A500000F016F8204600F013F8FFF7D1FE10BDA5
:100A600010B50446FFF7B0FE782000F009F84020EA
:100A700000F006F8204600F003F8FFF7C1FE10BDB5
:100A800070B5044600251DE004F0800018B1012077
:100A90001349086002E0002011490860012000F0BD
:100AA00021FF01200E49091F086000F01BFF0020F4
:100AB0000C49C1F8A801012000F014FF6006040EE3
:100AC000681CC5B2082DDFDB01200549091F08603D
:100AD00000F008FF00200349C1F8A80170BD000024
:100AE000AC812142008021422DE9FC410746884625
:100AF00014461E4600208DF805000A20B4FBF0F1D4
:100B000000FB114030308DF804000A20B4FBF0F4F3
:100B1000B4FBF0F100FB114030308DF803000A20E7
:100B2000B4FBF0F4B4FBF0F100FB114030308DF871
:100B300002000A20B4FBF0F4B4FBF0F100FB11401A
:100B400030308DF801000A20B4FBF0F4B4FBF0F172
:100B500000FB114030308DF8000000250AE01DF840
:100B60000500302803D120200DF8050000E003E047
:100B7000681CC5B2042DF2DB00BF16B1012E0ED1E8
:100B800006E000236A4641463846FFF7B7FE07E015
:100B900000236A4641463846FFF7ECFE00E000BFFE
:100BA00000BFBDE8FC81704729B1064AD269024303
:100BB000044BDA6104E0034AD2698243014BDA61F3
:100BC000704700000010024029B1064A92690243B2
:100BD000044B9A6104E0034A92698243014B9A6193
:100BE000704700000010024030B5002100220024B0
:100BF00000232D4D6D6805F00C0121B1042905D0AD
:100C0000082923D105E0294D056022E0274D056024
:100C10001FE0254D6D6805F47012234D6D6805F4D5
:100C20008034022505EB92421CB9214D55430560E5
:100C30000BE01D4D6D6805F400351DB11C4D55438D
:100C4000056002E0194D5543056002E0174D05604F
:100C500000BF00BF144D6D6805F0F0010909154D86
:100C60006B5C0568DD4045600F4D6D6805F4E06123
:100C7000090A104D6B5C4568DD4085600A4D6D6862
:100C800005F46051C90A0B4D6B5C4568DD40C560D9
:100C9000054D6D6805F44041890B074D6B5CC568D7
:100CA000B5FBF3F5056130BD0010024000127A007B
:100CB00000093D00220000203200002008B501217B
:100CC0000820FFF781FFC020ADF8000014208DF848
:100CD000030003208DF8020069460548FFF7EBFA90
:100CE00040200349103108608020086008BD0000E2
:100CF000000C014000B587B001210820FFF764FF18
:100D000001218803FFF750FF4FF46040ADF8180051
:100D100018208DF81B0003208DF81A0006A918482A
:100D2000FFF7C9FA4FF460411548FFF751FB002067
:100D3000ADF804004FF48270ADF806000020ADF865
:100D400008000220ADF80A000120ADF80C004002B6
:100D5000ADF80E003820ADF810000020ADF81200FC
:100D60000720ADF8140001A9064800F065F801213C
:100D7000044800F047F8FF2000F006F807B000BD77
:100D8000000C01400038004070B50546002405E025
:100D9000601CC4B2C82C01DD002070BD02210E48C9
:100DA00000F03CF80028F3D029460B4800F042F848
:100DB000002405E0601CC4B2C82C01DD0020ECE773
:100DC0000121054800F02AF80028F3D0024800F07D
:100DD0002EF8C0B2E1E700000038004010B504462C
:100DE000074800884FF6C771084005490880084643
:100DF0000088204308800121014800F003F810BD5D
:100E00000038004021B1028842F04002028004E034
:100E100002884FF6BF731A400280704702460020D6
:100E200013890B400BB1012000E000207047014600
:100E3000888970478181704710B50022028802F4CA
:100E400041520B884C8823438C882343CC8823430E
:100E50000C8923434C8923438C892343CC89234326
:100E60001A430280838B4FF2FF74234083830B8AE3
:100E7000038210BD704710B500F002F810BD0000ED
:100E80000CB50020019000903348006840F4803099
:100E90003149086000BF3048006800F4003000901D
:100EA0000198401C0190009818B90198B0F5A06F06
:100EB000F1D12948006800F4003010B10120009001
:100EC00001E0002000900098012843D123480068E9
:100ED00040F01000214908600846006820F0030037
:100EE00008600846006840F0020008601A48406840
:100EF000194948600846406848600846406840F420
:100F0000806048600846406820F47C1048600846CD
:100F1000406840F4E81048600846006840F080707F
:100F2000086000BF0C48006800F000700028F9D08D
:100F30000948406820F003000749486008464068B7
:100F400040F00200486000BF0348406800F00C0019
:100F50000828F9D10CBD000000100240002002401A
:100F6000042808D14FF0E021096941F004014FF055
:100F7000E022116107E04FF0E021096921F004014E
:100F80004FF0E022116170477047000010B5134820
:100F9000006840F0010011490860084640681049A7
:100FA00008400E494860084600680E4908400B4951
:100FB00008600846006820F4802008600846406801
:100FC00020F4FE0048604FF41F008860FFF753FFD5
:100FD0004FF000600449086010BD0000001002409E
:100FE0000000FFF8FFFFF6FE08ED00E0F0B50C464C
:100FF000154600220021068C4FF6FE773E400684FF
:10100000028B018C4FF60C7632407E1C06EA0316EA
:101010002E433243104EB0420ED0104EB0420BD091
:10102000B0F1804F08D00E4EB04205D00D4EB04208
:1010300002D00D4EB04206D14FF6FD76314044F05D
:101040000106314305E04FF6F576314044F00106E4
:10105000314302830184F0BD002C01400034014083
:101060000004004000080040000C0040F0B50C46B1
:101070001546002200210026078C4FF6EF7C07EA78
:101080000C070784028B018C4FF6FF7707EA0416E2
:1010900040F6FF473A404FF6FF7707EA03373A43F7
:1010A0004FF6FF7707EA05273A43114FB8420ED0B3
:1010B000104FB8420BD0B0F1804F08D00E4FB8425D
:1010C00005D00E4FB84202D00D4FB84206D14FF6B0
:1010D000DF77394046F01007394305E04FF65F7778
:1010E000394044F01007394302830184F0BD000009
:1010F000002C014000340140000400400008004082
:10110000000C0040F0B50C461546002200210026D8
:10111000078C4FF6FF6C07EA0C070784828B018C63
:101120004FF6FF7707EA04264FF60C773A404FF662
:10113000FF7707EA03172F433A43114FB8420ED007
:10114000104FB8420BD0B0F1804F08D00E4FB842CC
:1011500005D00E4FB84202D00D4FB84206D14FF61F
:10116000FF57394046F48077394305E04FF2FF5787
:10117000394044F48077394382830184F0BD000014
:10118000002C0140003401400004004000080040F1
:10119000000C0040F0B50C46154600220021002648
:1011A000078C4EF6FF7C07EA0C070784828B018CC4
:1011B0004FF6FF7707EA043640F6FF473A404FF60E
:1011C000FF7707EA05273A434FF6FF7707EA033729
:1011D0003A43114FB8420ED0104FB8420BD0B0F185
:1011E000804F08D00E4FB84205D00E4FB84202D003
:1011F0000D4FB84206D14DF6FF77394046F480577F
:10120000394305E047F6FF57394044F480573943E6
:1012100082830184F0BD0000002C014000340140B5
:101220000004004000080040000C004010B50121FF
:10123000044800F0FFF818B10121024800F0E8F876
:1012400010BD0000000400407FB505460C4601219A
:101250000220FFF7A9FCADF80850ADF804400020CB
:10126000ADF80A00ADF8060001A90E4800F08AF9B1
:10127000012211460B4800F045F91D208DF80000B1
:1012800000208DF8010003208DF8020001208DF868
:1012900003006846FFF71CFA0021024800F0BBF883
:1012A0007FBD00000004004030B585B005460C4607
:1012B00001210820FFF778FC01210420FFF784FCBE
:1012C0000120ADF8100028208DF8130004A91D4856
:1012D000FEF7F1FF01211B48FFF778F8ADF8085041
:1012E000ADF804400020ADF80A00ADF8060001A9F1
:1012F000154800F047F90020144908804880012073
:1013000088800020C88008810F4800F0A5F83220AE
:101310008DF8000002208DF8010000208DF80200F9
:1013200001208DF803006846FFF7D2F9012203215E
:10133000054800F0E7F80121034800F06CF805B01B
:1013400030BD000000080140000C004058000020A3
:1013500010B52C48007800F0800000284CD1012105
:10136000294800F067F8D0B12648007800F0400026
:10137000A8B12448007800F03F003F280AD1214856
:10138000007840F080001F4908704FF6FF701F4939
:10139000088004E01B480078401C1A4908700221AC
:1013A000194800F047F838B31648007800F04000BC
:1013B00078B11448007840F0800012490870124853
:1013C00000F035F81149088000210F4800F0A3F81B
:1013D00012E000200B4908700C49088000210A48DF
:1013E00000F0A2F80748007840F040000549087076
:1013F0000221054800F08FF80321034800F008F8A7
:1014000010BD000014000020000C00401600002059
:10141000CA430282704721B1028842F00102028071
:1014200004E002884FF6FE731A40028070470146BE
:10143000888E704730B50246002000230024158AAC
:1014400005EA0103958905EA010413B10CB10120F5
:1014500000E0002030BD000070B505460C46244871
:1014600085420ED0234885420BD0B5F1804F08D07D
:101470002148854205D02148854202D02048854236
:1014800000D100E000BF208850B92389A28861887C
:101490002846FFF7ABFDE188284600F047F825E035
:1014A000208804280AD12389A28861882846FFF76A
:1014B000DDFDE188284600F042F817E02088082882
:1014C0000AD12389A28861882846FFF71BFEE1889C
:1014D000284600F041F809E02389A288618828465F
:1014E000FFF758FEE188284600F03FF870BD000085
:1014F000002C01400034014000040040000800407E
:10150000000C00401AB183890B43838102E0838978
:101510008B43838170470A460021018C4FF6FD738F
:10152000194011430184704781847047028B4FF644
:10153000F3731A400283028B0A4302837047028BC3
:101540004FF2FF331A400283028B4FF6FF7303EA18
:1015500001231A4302837047828B4FF6F3731A40BC
:101560008283828B0A4382837047828B4FF2FF33E0
:101570001A408283828B4FF6FF7303EA01231A43DA
:1015800082837047002202881D4B98420ED01D4B6B
:1015900098420BD0B0F1804F08D01B4B984205D039
:1015A0001A4B984202D01A4B984204D14FF68F73CF
:1015B0001A404B881A43174B984207D0164B984253
:1015C00004D04FF6FF431A40CB881A4302808B8821
:1015D00083850B8803850A4B98420BD0094B9842B0
:1015E00008D00E4B984205D00D4B984202D00D4BBF
:1015F000984201D10B7A0386012383827047000051
:10160000002C01400034014000040040000800406C
:10161000000C004000100040001400400040014059
:10162000004401400048014010B540F225511D48DA
:1016300000F04AF810B31B4800F002F9C4B21A488F
:10164000008800F40040C8B91748008800F48040C2
:1016500060B10A2C03D000201349088020E0124812
:10166000008840F400401049088019E00D2C06D194
:101670000D48008840F480400B49088010E00A487B
:101680000088C0F30D0009490C5407480088401C2D
:101690000549088008460088C72801DD0020088029
:1016A00010BD000000380140200000206200002032
:1016B00021B1828942F40052828104E082894DF690
:1016C000FF731A408281704770B5024600240023E0
:1016D0000025002040F66A16B14200D100BFC1F3D8
:1016E000421501F01F03012606FA03F3012D02D172
:1016F0009689334006E0022D02D1168A334001E07C
:10170000968A33400C12012606FA04F416883440F7
:1017100013B10CB1012000E0002070BDF0B503460C
:10172000002400260025002040F66A17B94200D1A7
:1017300000BF1846C1F3421401F01F06012707FA43
:1017400006F5012C01D10C3004E0022C01D110303F
:1017500000E014301AB107682F43076002E0076801
:10176000AF430760F0BD00002DE9F04786B00546A5
:101770000E460024A24600BFA1460027B08900B152
:1017800000BF2F462C8A4CF6FF700440F0880443BB
:101790002C82AC894EF6F3100440B088318908439E
:1017A000718908430443AC81AC8A4FF6FF40044082
:1017B000B0890443AC8201A8FFF716FA1F4887429C
:1017C00002D1DDF810A001E0DDF80CA0A88900F43A
:1017D000004040B10AEBCA0000EB0A103168490032
:1017E000B0FBF1F807E00AEBCA0000EB0A10316821
:1017F0008900B0FBF1F86420B8FBF0F00401200987
:10180000642101FB1089A88900F4004040B1322016
:1018100000EBC900B0FBF1F000F00700044308E062
:10182000322000EB09106421B0FBF1F000F00F0052
:1018300004432C8106B0BDE8F08700000038014069
:1018400001468888C0F30800704700BFFEE70146E4
:1018500000BF704710B56FF00400FFF781FB0A4826
:1018600000680A49B0FBF1F00949087008460078A1
:1018700000EB4001C1EBC0104FF6FF7101EAC00060
:101880000449088010BD00000000002000127A000A
:10189000180000201A0000200146114A12884A430D
:1018A0004FF0E0235A6100229A611A46126942F011
:1018B00001021A6100BF4FF0E022106900F001023E
:1018C0001AB100F48032002AF5D04FF0E0221269FC
:1018D00022F001024FF0E0231A6100229A61704762
:1018E0001A0000200146114A12784A434FF0E023C3
:1018F0005A6100229A611A46126942F001021A6185
:1019000000BF4FF0E022106900F001021AB100F4AC
:101910008032002AF5D04FF0E022126922F0010255
:101920004FF0E0231A6100229A61704718000020EE
:101930008AB0FFF78FFF4FF4A060FEF701FF4FF46E
:10194000E13000F0B7F841F61F4142F20F70FFF7A7
:101950007BFCFEF753FDFEF76FFFFEF78FFCFEF7F3
:101960003BFDFFF7ABF947214FF6FF70FFF79CFCFB
:10197000FEF78CFD05E001233EA202210520FEF7C3
:10198000BDFFFEF75BFD0028F5D1FEF7EDFD01235D
:101990003CA219460820FEF7B1FF69E001A8FEF756
:1019A00043FE002864D19DF80400384908700846B9
:1019B0000278002307210820FFF796F833480078C3
:1019C000792806D07A2817D07B2828D07C284ED1B9
:1019D00039E001232EA205210820FEF78FFF012008
:1019E0002D4908602D49C1F884012B492039086030
:1019F0002A49C1F88C013AE0012329A205210820D7
:101A0000FEF77CFF0020244908602449C1F88401C6
:101A10002149203908602149C1F88C0127E00123C0
:101A200020A205210820FEF769FF01201A49183974
:101A300008601A49C1F8940117491039086017491C
:101A4000C1F89C0113E0012318A205210820FEF72C
:101A500055FF00201049183908601049C1F8940159
:101A60000D49103908600D49C1F89C0100BF00BF45
:101A700094E700004E524632344C303120457272A9
:101A80006F72000072656164790000003800002008
:101A90006361746368000000A801214200002142D4
:101AA0007365740063617463683100007365743139
:101AB0000000000010B586B00446012144F2040085
:101AC000FFF782F84FF40070ADF8140003208DF892
:101AD000160018208DF8170005A91C48FEF7EBFB2F
:101AE0004FF48060ADF8140004208DF8170005A9AC
:101AF0001648FEF7E0FB25208DF8000003208DF846
:101B000001008DF8020001208DF803006846FEF701
:101B1000DFFD01940020ADF80800ADF80A00ADF833
:101B20000C00ADF810000C20ADF80E0001A908481B
:101B3000FFF71AFE012240F225510548FFF7EEFD9E
:101B400001210348FFF7B4FD06B010BD00080140B5
:101B5000003801400000000000000000002F0000DD
:101B600000000700070000147F147F1400242A7F60
:101B70002A120062640813230036495522500000DF
:101B80000503000000001C224100000041221C004F
:101B90000014083E08140008083E0808000000A0D1
:101BA00060000008080808080000606000000020CD
:101BB00010080402003E5149453E0000427F4000AB
:101BC000004261514946002141454B310018141231
:101BD0007F10002745454539003C4A4949300001FE
:101BE0007109050300364949493600064949291E4D
:101BF00000003636000000005636000000081422AF
:101C000041000014141414140000412214080002AE
:101C10000151090600324959513E007C1211127CD3
:101C2000007F49494936003E41414122007F414100
:101C3000221C007F49494941007F09090901003EF2
:101C40004149497A007F0808087F0000417F410030
:101C5000002040413F01007F08142241007F4040A6
:101C60004040007F020C027F007F0408107F003E8E
:101C70004141413E007F09090906003E4151215E74
:101C8000007F091929460046494949310001017F71
:101C90000101003F4040403F001F2040201F003F07
:101CA0004038403F006314081463000708700807B9
:101CB00000615149454300007F41410000552A55CC
:101CC0002A55000041417F00000402010204004047
:101CD0004040404000000102040000205454547869
:101CE000007F484444380038444444200038444489
:101CF000487F00385454541800087E090102001827
:101D0000A4A4A47C007F080404780000447D400063
:101D1000004080847D00007F102844000000417F47
:101D20004000007C04180478007C08040478003823
:101D30004444443800FC242424180018242418FCAB
:101D4000007C0804040800485454542000043F4414
:101D50004020003C4040207C001C2040201C003CD7
:101D60004030403C004428102844001CA0A0A07C27
:101D7000004464544C44141414141414000000005F
:101D8000000000000000000000000000000000F85B
:101D900000000000000000333000000000100C06BE
:101DA000100C0600000000000000000040C0784059
:101DB000C0784000043F04043F040400007088FC25
:101DC00008300000001820FF211E0000F008F0007D
:101DD000E018000000211C031E211E0000F00888EE
:101DE000700000001E2123241927211010160E0058
:101DF000000000000000000000000000000000E003
:101E00001804020000000007182040000002041817
:101E1000E00000000040201807000000404080F073
:101E2000804040000202010F01020200000000F0A9
:101E3000000000000101011F01010100000000007D
:101E40000000000080B070000000000000000000F2
:101E5000000000000001010101010101000000007B
:101E60000000000000303000000000000000000012
:101E700080601804006018060100000000E01008EF
:101E80000810E000000F102020100F00001010F8C4
:101E9000000000000020203F202000000070080803
:101EA0000888700000302824222130000030088883
:101EB000884830000018202020110E000000C020AB
:101EC00010F8000000070424243F240000F80888CC
:101ED000880808000019212020110E0000E0108859
:101EE00088180000000F112020110E00003808088B
:101EF000C83808000000003F00000000007088089B
:101F000008887000001C222121221C0000E010081B
:101F10000810E0000000312222110F00000000C074
:101F2000C000000000000030300000000000008011
:101F30000000000000008060000000000000804001
:101F4000201008000001020408102000404040401A
:101F5000404040000404040404040400000810206D
:101F600040800000002010080402010000704808B2
:101F70000808F0000000003036010000C030C8281A
:101F8000E810E0000718272423140B000000C038D5
:101F9000E0000000203C23020227382008F888884F
:101FA00088700000203F202020110E00C03008085B
:101FB00008083800071820202010080008F8080832
:101FC0000810E000203F202020100F0008F888882B
:101FD000E8081000203F20202320180008F88888F7
:101FE000E8081000203F200003000000C03008086F
:101FF0000838000007182020221E020008F80800F8
:102000000008F808203F210101213F20000808F8BE
:10201000080800000020203F2020000000000808E1
:10202000F8080800C08080807F00000008F888C0A1
:1020300028180800203F20012638200008F8080052
:1020400000000000203F20202020300008F8F80089
:10205000F8F80800203F003F003F200008F830C09B
:102060000008F808203F200007183F00E01008088B
:102070000810E0000F10202020100F0008F80808BA
:102080000808F000203F210101010000E0100808CD
:102090000810E0000F18242438504F0008F88888F2
:1020A00088887000203F2000030C302000708808D2
:1020B000080838000038202121221C00180808F8E0
:1020C000080818000000203F2000000008F8080061
:1020D0000008F808001F202020201F000878880032
:1020E00000C83808000007380E010000F80800F8A2
:1020F0000008F800033C0700073C0300081868804C
:102100008068180820302C03032C30200838C800C1
:10211000C83808000000203F200000001008080810
:10212000C83808002038262120201800000000FEB2
:10213000020202000000007F40404000000C30C05E
:1021400000000000000000010638C000000202028A
:10215000FE000000004040407F000000000004023C
:102160000202040000000000000000000000000067
:102170000000000080808080808080800002020457
:10218000000000000000000000000000000080804F
:10219000808000000019242222223F2008F80080BD
:1021A00080000000003F112020110E000000008080
:1021B00080800000000E112020201100000000800F
:1021C0008088F800000E112020103F200000808041
:1021D00080800000001F222222221300008080F055
:1021E000888888180020203F202000000000808080
:1021F00080808000006B94949493600008F80080C5
:1022000080800000203F210000203F20008098981F
:10221000000000000020203F20200000000000807F
:102220009898000000C08080807F000008F80000BF
:1022300080808000203F24022D302000000808F814
:10224000000000000020203F2020000080808080CF
:1022500080808000203F20003F20003F8080008061
:1022600080800000203F210000203F20000080806F
:1022700080800000001F202020201F008080008020
:102280008000000080FFA12020110E0000000080CF
:1022900080808000000E112020A0FF8080808000C0
:1022A0008080800020203F212000010000008080ED
:1022B000808080000033242424241900008080E0E2
:1022C000808000000000001F2020000080800000AF
:1022D00000808000001F202020103F208080800090
:1022E0000080808000010E300806010080800080A0
:1022F000008080800F300C030C300F0000808000C5
:10230000808080000020312E0E31200080808000EF
:102310000080808080818E7018060100008080809F
:10232000808080000021302C22213000000000003D
:10233000807C020200000000003F404000000000DE
:10234000FF00000000000000FF0000000002027C0F
:10235000800000000040403F000000000006010136
:1023600002020404000000000000000034431010CA
:1023700001344310100100009823000800000020E1
:10238000380000006C010008D0230008380000204D
:10239000580700008801000800A24A04000000005D
:1023A0000000000001020304060708090000000005
:1023B000000000000000000000000000000001021A
:1023C00003040102030406070809020406080000CA
:04000005080001CD21
:00000001FF
