:020000040800F2
:10000000B00B00202D020008A51900085D1600089D
:10001000A1190008E31300083F27000800000000B2
:10002000000000000000000000000000C51D0008E6
:100030003D150008000000008D1C0008F91E000896
:10004000470200084702000847020008470200086C
:10005000470200084702000847020008470200085C
:10006000470200084702000847020008470200084C
:10007000470200084702000847020008470200083C
:10008000470200084702000847020008470200082C
:10009000470200084702000847020008470200081C
:1000A000470200084702000847020008470200080C
:1000B00047020008470200084702000847020008FC
:1000C00047020008470200084702000847020008EC
:1000D000470200081D2500084702000847020008E3
:1000E00047020008470200084702000847020008CC
:1000F00047020008470200084702000847020008BC
:10010000470200084702000845220008470200088D
:10011000470200084702000847020008470200089B
:10012000470200084702000847020008470200088B
:1001300000F002F800F06AF80AA090E8000C82448F
:100140008344AAF10107DA4501D100F05FF8AFF26C
:10015000090EBAE80F0013F0010F18BFFB1A43F0A5
:100160000103184770470000904700000A444FF011
:10017000000C10F8013B13F0070408BF10F8014B06
:100180001D1108BF10F8015B641E05D010F8016B4B
:10019000641E01F8016BF9D113F0080F1EBF10F8AF
:1001A000014BAD1C0C1B09D16D1E58BF01F801CBD2
:1001B000FAD505E014F8016B01F8016B6D1EF9D555
:1001C0009142D6D37047000000230024002500266A
:1001D000103A28BF78C1FBD8520728BF30C148BFAA
:1001E0000B607047662902F02B86642900F060805E
:1001F000002070471FB500F0CDFB04000020002157
:1002000002F034FCE0601FBD10B510BD00F0C2FC70
:100210001146FFF7EFFF02F03DFB00F0E0FC03B4F6
:10022000FFF7F2FF03BC02F0B5FA0000094880476F
:1002300009480047FEE7FEE7FEE7FEE7FEE7FEE7C8
:10024000FEE7FEE7FEE7FEE704480549054A064BE0
:1002500070470000FD1E000831010008B0050020B5
:10026000B00B0020B0070020B0070020704700004E
:100270000FB4044910B503AA029800F079FB10BC32
:100280005DF814FB5C0400200FB41CB5074B06AAF4
:100290007B4469460090059800F051FB00206946B8
:1002A00000F060FB1CBC5DF814FB0000D1060000F0
:1002B0002DE9F0410646002410687529314616A53F
:1002C00010D0AFF30080002802DA404213A507E007
:1002D00031688A0701D512A502E0490704D511A5A6
:1002E000012401E0AFF3008000210A2206F1240777
:1002F00009E0B0FBF2FCB0FBF2F302FB1C00303073
:1003000078541846491C0028F3D123462A46304623
:10031000BDE8F04100F0A8B8000000002D0000008A
:100320002B000000200000002DE9F05F8946044604
:100330004FF0000ADFF824B1FB44C0F820A02046AB
:10034000E168884700287DD0252806D0D4E901211E
:100350009047206A401C2062F1E700255F46204656
:10036000E16888472028064607DB312E05D2B819F8
:1003700010F8200C08B10543F1E7A80701D525F0D6
:100380000405C4F81CA00027C4F818A02A2E09D020
:10039000304602F0F8F938B304EB8708303EC8F86D
:1003A000186019E059F8041B204604EB870291619C
:1003B000E1688847012F064618D1E069002820DA55
:1003C00025F020051DE0D8F8180000EB800006EBB2
:1003D00040003038C8F818002046E16888470646D3
:1003E00002F0D1F90028EED1012F0AD02E2E08D12B
:1003F0002046E16888477F1C0646022F45F020050D
:10040000C4DBA069002803DA404245F00105A06181
:10041000E80701D025F01005A6B1A6F14100192882
:1004200002D8203645F400654A463146204625600C
:100430004D46FFF7D7FE60B1012807D0ED1D25F02E
:10044000070000E007E000F1080978E705F104097A
:1004500075E730467AE7206ABDE8F09FF044000077
:1004600070477047704770472DE9F0470D46994631
:100470009246044600F124080168880604D5E06924
:1004800021F01001216000E00120A84201DD471B9E
:1004900000E00027A1697A1902EB0900081AA0619F
:1004A0002078C00602D42046AFF30080002608E082
:1004B000D4E901211AF806009047206A401C761CF6
:1004C00020624E45F4DB2078C0060AD52046AFF303
:1004D000008006E0D4E9012130209047206A401CCA
:1004E0002062381EA7F10107F4DC07E0D4E90121FE
:1004F00018F805009047206A401C2062281EA5F1CC
:100500000105F3DC2046AFF300802078000602D519
:100510000220BDE8F0870120FBE770472DE9FF4F7F
:100520000C461E464FF0FF378BB0D2E90001DDF8D4
:1005300060800A908A46C1F30A5505B93D460021FC
:1005400008464FF00000BAF1000F00F4400005DA51
:1005500000EB80004FF4400101EA50004FEA90594F
:10056000B9F1010F00DDB9460A9850EA4A000ED0F1
:1005700044F61050A5F2FF3545432F14B8F1000F93
:100580001ED07542291E1EDDC9F100021CE0B8F123
:10059000010F4FF0000001D0302103E0F24305E0ED
:1005A0002154401CB042FBDB304600220021215484
:1005B0000B99C1F80880C1E900200FB0BDE8F08FA9
:1005C000BD1B6D1CDEE74A4600DA694206A800F052
:1005D0006BFA06AB93E8070003AB83E807005046CD
:1005E0000A9900F043FB8DE80700A0F500501F3882
:1005F00000900398002D09DD42F21F014A4608448D
:1006000003A90390684600F0A2FD08E0A0F50050A1
:100610004A461F3803A90390684600F0ACFD8DE8F8
:1006200007000004000C03D04FF0FF30410800E049
:100630001046B8F1000F03D00022009215461EE0CC
:10064000751E05D400F0AAF9303262556D1EF9D539
:10065000B3460122084302D000227F1C04E0207828
:10066000302801D100227F1E002A099786D01DE084
:10067000112D07DA00F092F9303262556D1C50EA04
:100680000102F5D1084302D00098C8B10EE0002164
:10069000681E05E0235C625C63542254401E491CC2
:1006A0008142F7DBAB46A81B401E0990002004F8EE
:1006B0000B000B98099AC0F80880C0E9002B7CE772
:1006C00011264FF0000859E72DE9F04F88460446FF
:1006D000D21D22F0070191B0D1E90001CDE90A0154
:1006E00002F03DF802460B98C00F01D02D2007E024
:1006F0002068810701D52B2002E0202101EAC000FB
:10070000032A099001D0072A05DB0346414620460B
:1007100000F08AF90BE12078800601D5E06900E05D
:100720000620B8F1650F814606D0B8F1660F18D0E3
:10073000B8F1670F70D131E00020B9F1110F0090CE
:1007400001DB112301E009F101030AAA01A90CA8A8
:10075000FFF7E4FEDDE90C70002609F10105834690
:1007600047E001204B4600904FF000470AAA01A93C
:100770000CA8FFF7D3FEDDE90DB00C995D4600260D
:1007800010B909F101000D18B9EB050003D4C0F14F
:10079000FF3609F10105A5EB09002BE0B9F1010FC6
:1007A00001DA4FF001090020B9F1110F009048461D
:1007B00001DD112300E003460AAA01A90CA8FFF7F6
:1007C000ADFEDDE90C704D4600268346207800071B
:1007D0000AD4AB4500DA5D4601A8012D04DD4119BC
:1007E00011F8011C302907D04F4502DA17F1040F28
:1007F00004DA012082460FE06D1EEEE7002F02DCD6
:10080000ED1B3E4403E0781CA84200DD7D1CB81BB4
:1008100000F1010A4FF000472078000703D4AA45F1
:1008200001DB4FF0FF3A0021B7F1004F0DF1430813
:100830008DF8431024D002202B23002F01DA7F42B1
:100840002D230A21021EA0F1010000DC5FB197FBFD
:10085000F1FC97FBF1F201FB1C7C17460CF1300C0C
:1008600008F801CDEEE7A8F1010003702188090521
:1008700001D5452100E06521A0F1010800F8011C27
:1008800009980FA9A1EB0807FF1D00B1012041192C
:1008900001EBEA70A1693844081A401EA061207873
:1008A000C00602D42046AFF30080099828B1D4E9ED
:1008B00001219047206A401C20622078C00622D582
:1008C0002046AFF300801EE0002E04DBB34502DDBE
:1008D00001A8805D00E03020D4E901219047206A22
:1008E000401C2062761CAAF101005FEA000A0AD1CE
:1008F00000F050F8C0680168405CD4E901219047DD
:10090000206A401C2062281EA5F10105DCDC07E0FE
:10091000D4E9012118F8010B9047206A401C20629D
:10092000381EA7F10107F3DC2046AFF30080032057
:1009300011B043E601694A1C02610878704700B5AE
:100940008FB0CDE901310021059105497944CDE908
:10095000031011466846FFF7E7FC0FB000BD00002A
:10096000E5FFFFFF0A6802F8010B0A60704700000C
:10097000074B70B50D467B44FFF7E1FF0446284660
:1009800000F000F910B14FF0FF3070BD204670BD8F
:10099000FF1E0000004870476C05002030B5B0F124
:1009A0000A024FEA900E71F100034EEA817EB0EB2D
:1009B0000E0061EB91014FEA101E4EEA017E10EB32
:1009C0000E0041EB11114FEA102E4EEA016E10EBB2
:1009D0000E0041EB11214FEA104E4EEA014E10EB92
:1009E0000E0041EB1141401841F100014FEAD000E7
:1009F00040EA41704FEAD10110EB80054FEA8104D3
:100A000044EA907444EB01046D1944EB0404521B56
:100A1000A3414FF0000348BF0A3200D530BD401C4F
:100A200041F1000130BD00002DE9F0411F460446B0
:100A300003260168072A01F4006004DB08B116A54B
:100A400005E016A503E008B115A500E015A521F005
:100A500010002060A069C01EA0610FB1401EA061FF
:100A60002046AFF300804FB1D4E9012138469047CA
:100A7000206A401C2062C01C206206E0206AFAE75F
:100A8000D4E9012115F8010B9047761EF8D22046D3
:100A9000AFF30080BDE8F0814E414E006E616E0004
:100AA000494E4600696E66002DE9F04781461646BC
:100AB0008AB0334878440DC88DE80D00304878443A
:100AC000801C03AC0DC884E80D0041F69B3008443F
:100AD000372190FBF1F290FBF1F5A5F1800501FBC8
:100AE00012041B3C02D56442012000E00020DFF824
:100AF00090A080460027FA44AAF1BE0A0DE0E00764
:100B000009D03246684607EB47010AEB810100F045
:100B100032FB8DE8070064107F1C002CEFD1184FCA
:100B20007F44AC3F18E0E80714D007EB04100DF148
:100B3000180A90E80E008AE80E00C068F04201D161
:100B400098190890324606A903A800F014FB03ABDD
:100B500083E807006D10641C002DE4D1324669461D
:100B6000B8F1000F03A802D000F0F1FA01E000F0A4
:100B700002FBC9E90001C9F808200AB0BDE8F08706
:100B8000043E0000007B00F0800070470048704782
:100B90004C0500207546FFF7F9FFAE460500694693
:100BA000534620F00700854618B020B5FFF74CFBF0
:100BB000BDE820404FF000064FF000074FF000085E
:100BC0004FF0000B21F00701AC46ACE8C009ACE8DF
:100BD000C009ACE8C009ACE8C0098D4670470446BE
:100BE000AFF300802046FFF71AFB00004FF0013CF6
:100BF00050F8042B51F8043B9A4221D1A2EB0C038C
:100C0000934313EACC1317D150F8042B51F8043B4B
:100C10009A4215D1A2EB0C03934313EACC130BD1E8
:100C200050F8042B51F8043B9A4209D1A2EB0C0373
:100C3000934313EACC13DBD04FF00000704700BFA2
:100C4000D01A01BAB1FA81F101F0180122FA01F0CB
:100C5000CB40C1F12001DBB2C0B2C01A2CFA01F3C3
:100C6000D11A914311EAC311E6D170475FEA400CF3
:100C700008BF91F0000F4FEA8C234FEAC12243EAEC
:100C800051514FEA1C5018BF00F5F0404FEA3000B8
:100C900018BF41F000415FEA6C5C00F02980BCF1B4
:100CA000FF3F08BF40F080407047130C06BF12049E
:100CB0004FF0100C4FF0000C130E04BF12020CF199
:100CC000080C130F04BF12010CF1040C930F04BFA6
:100CD00092000CF1020CD30F04BF52000CF1010C76
:100CE00011464FF00002A0F11F00A0EB0C0070476E
:100CF00011F0004F08BF704731F000413FF4D5AF0D
:100D00000B0C06BF09044FF0100C4FF0000C0B0E3B
:100D100004BF09020CF1080C0B0F04BF09010CF110
:100D2000040C8B0F04BF89000CF1020CCB0F04BF25
:100D300049000CF1010CCCF12003A0EB0C0022FACD
:100D400003F302FA0CF241EA030100F101007047DB
:100D500020F07F4C80EA030023F07F47ACEB0703D1
:100D600003F57C5300F0004003F1FF032DE98049B7
:100D70004FEA154B09B44FEA144325EA0B4E24EA17
:100D800003480FF2042606EB132749083E785FEA72
:100D9000320203FB0667C7F5000707FB06F64FEABA
:100DA00054374FEAD64606F1020607FB066CCCF133
:100DB000005C4FEA1C472CEA074C07FB06F40CFBCF
:100DC00006F504EB15464FEA961634BF00204FF0A7
:100DD00000404FEAD13706FB07FC4FEA1C4C0CFBE6
:100DE0000BF7D21B03FB0CF761EB07010CFB0EF7B3
:100DF000B0EB074072EB17420CFB08F734BFA2EBD5
:100E00000742B2EB074261EB17414FEA0C444FEA4D
:100E1000910706FB07FC4FEA1C4C0CFB0BF7B0EBF1
:100E2000C74072EB573203FB0CF734BFA2EBC7424B
:100E3000B2EBC74261EB57310CFB0EF7B0EBC700CA
:100E400072EB57720CFB08F734BFA2EBC702B2EB90
:100E5000C70261EB5771039F4FEA816141EA92112A
:100E600004EBCC044FEAD1374FEA826206FB07FC61
:100E700042EA90124FEA80604FEA1C4C0CFB0BF7E1
:100E8000D21B03FB0CF761EB07010CFB0EF7B0EB79
:100E9000074072EB17420CFB08F734BFA2EB074286
:100EA000B2EB074261EB17414FEA8C554FEA9107CD
:100EB00004EB9C2406FB07FC4FEA1C4C0CFB0BF7D5
:100EC000B0EBC74072EB573203FB0CF734BFA2EB19
:100ED000C742B2EBC74261EB57310CFB0EF7B0EBE8
:100EE000C70072EB57720CFB08F734BFA2EBC702C6
:100EF000B2EBC70261EB577115EB4C254FEA8161EC
:100F000041EA92114FEA82624FEAD13742EA9012E7
:100F100006FB07FC44F100044FEA80604FEA1C4CDA
:100F20000CFB0BF7D21B03FB0CF761EB07010CFB6F
:100F30000EF7B0EB074072EB17420CFB08F734BF1B
:100F4000A2EB0742B2EB074261EB174115EB1C1510
:100F50004FEA813141EA92414FEA823242EA9042BD
:100F60004FEA80304FEA0C7644F1000448EA03432C
:100F70004EEA0B484FF0000EB2EB080C71EB030782
:100F800024BF624639464EEB0E0E4FF0000B0018A0
:100F9000524149414BEB0B0BB2EB080C71EB0307D1
:100FA0007BF1000B24BF624639464EEB0E0E4FF02C
:100FB000000B0018524149414BEB0B0BB2EB080CF4
:100FC00071EB03077BF1000B24BF624639464EEB01
:100FD0000E0E51EA020718BF46F0010616EB0E7618
:100FE00055F1000254F1000103D5BDE88901BDE8C7
:100FF0000088BDE88901BDE80048B619524141EBBF
:101000000101A3F10103704780807F7E7D7C7B7AA4
:101010007978777676757473727171706F6E6E6DA4
:101020006C6C6B6A6A69686867666665646463634A
:1010300062616160605F5F5E5E5D5D5C5C5B5B5AD0
:101040005A5959585857575656555555545453533D
:1010500052525251515050504F4F4F4E4E4D4D4D98
:101060004C4C4C4B4B4B4A4A4A49494948484847E3
:101070004747474646464545454444444443434321
:101080004342424242414141002B26D4770021D0C5
:101090001CB54FEA370703B44FF010004FF01001B2
:1010A0004FF000000FBCBDE810400BF1010BBBF18D
:1010B000010F08BF5FEA170722BF12F1010211F109
:1010C00001014FF0004143F1000300F0004043EA0A
:1010D00000007047F9D35708DAE746EA064613F1ED
:1010E000400F4FEA16461FDD13F1200FDFBF1643F6
:1010F0000A46002120335B42C8D0C3F1200746EAEC
:10110000064602FA07F74FEA164646EA0706C3F113
:10111000200722FA03F201FA07F721FA03F14FF050
:10112000000342EA0702B1E746EA020646EA06463B
:101130004FEA164646EA0106BCBF46EA0646360CAA
:101140004FF000034FF000024FF000019EE72DE941
:10115000C048934630B491E8380007C831EA400CE3
:1011600048BF34EA430C03D5FFF7F2FDFFF78CFFCD
:10117000F0BCBDE800882DE9C048934630B491E842
:10118000380007C810F0804F08BF13F0804F03D11C
:1011900000F005F8FFF778FFF0BCBDE8008820F00C
:1011A0007F4780EA030023F07F4C07EB0C03A3F595
:1011B0007C5300F00040A3F1FE0392F0000F00F01A
:1011C000B38095F0000F00F077802DE901494FEAD8
:1011D00011404FEA144621EA004800FB06FC24EACD
:1011E000064708FB06F607FB08F800FB07F718EBB5
:1011F00006484CEB164C4FEA124B18EB07484FEAE7
:1012000015464CEB174022EA0B4E0BFB06FC25EA79
:1012100006470EFB06F607FB0EFE0BFB07F71EEB61
:10122000064E4CEB164C4FF000061EEB074E4CEBF7
:10123000174B18EB0B0840F1000018EB0E0B58EBA6
:10124000000840F100008F1A4FF000013CBFC94375
:10125000661B14BFB5EB040C00213CBFC943F61B51
:101260004FEA17444EEA8E0E27EA04454FEA1C4720
:1012700004FB07622CEA074C05FB07F70CFB05F69D
:1012800004FB0CFC16EB074642EB174216EB0C4630
:1012900042EB1C421BEB060658EB0202414146EAB8
:1012A0009E0601D5BDE80189B619524141EB010105
:1012B000A3F10103BDE801894FEA14454FEA114744
:1012C00024EA054621EA074C05FB07F406FB07F76D
:1012D0000CFB06F105FB0CFC11EB074144EB17443A
:1012E0004FEA124711EB0C4144EB1C4422EA074C35
:1012F00005FB07F206FB07F70CFB06F605FB0CFCEB
:1013000016EB074642EB174216EB0C4642EB1C4528
:101310006A1854F1000148BF7047B619524141EBB9
:101320000101A3F10103704795F0000F37D04FEA98
:1013300011424FEA144721EA024624EA074C02FB15
:1013400007F106FB07F70CFB06F402FB0CFC14EBA1
:10135000074441EB17414FEA154714EB0C4441EBAE
:101360001C4125EA074C02FB07F506FB07F70CFBBF
:1013700006F602FB0CFC16EB074645EB174516EB91
:101380000C4645EB1C42121951F1000148BF704751
:10139000B619524141EB0101A3F1010370474FEA35
:1013A00014454FEA114724EA054621EA074C05FB9C
:1013B00007F106FB07F70CFB06F24FF0000605FBF2
:1013C0000CFC12EB074241EB174112EB0C4251EBC4
:1013D0001C4148BF7047921841EB0101A3F1010382
:1013E000704700BFFEE7000008B50121242000F08F
:1013F0006FFC10208DF803000820ADF800000320DA
:101400008DF8020069460B4800F099F80821094858
:1014100000F020F928208DF803000120ADF800002D
:101420006946054800F08BF80121034800F012F9E5
:1014300008BD0000001401400008014010B5002460
:101440001548006820F00F0013490860084600683E
:1014500040F00800086004E0601CC4B2012001F004
:10146000E5F90E48006808B1C82CF5DBC82C01DB93
:10147000012010BD002404E0601CC4B2012001F072
:10148000D5F90648006808B9F02CF5DBF02C01DB33
:101490000120EEE70020ECE70008014000012142B6
:1014A00008B50121042000F013FC0120ADF8000074
:1014B00010208DF8030003208DF8020069460748CC
:1014C00000F03DF80121054800F0C6F800F00AF8E8
:1014D00003A0FEF7CDFEFFF7B1FF08BD00080140F5
:1014E0003434000010B51048006820F00F000E4999
:1014F00008600846006840F00300086000200B49BF
:1015000008600BA0FEF7B4FE40F2EE2001F08EF969
:1015100008A0FEF7ADFE01200749C1F880010F20A9
:1015200001F084F910BD0000000801408001214253
:1015300033330000343400000000214270472DE9AD
:10154000F041024600250026002000230024002749
:1015500091F803C00CF00F0591F803C00CF0100CCB
:10156000BCF1000F03D091F802C04CEA050591F8D8
:1015700000C0BCF1000F31D0146800202BE04FF008
:10158000010C0CFA00F3B1F800C00CEA03069E420D
:1015900020D183004FF00F0C0CFA03F7BC4305FA7F
:1015A00003FC4CEA040491F803C0BCF1280F06D1F7
:1015B0004FF0010C0CFA00FCC2F814C00AE091F8DC
:1015C00003C0BCF1480F05D14FF0010C0CFA00FC30
:1015D000C2F810C0401C0828D1D31460B1F800C074
:1015E000BCF1FF0F34DD546800202EE000F1080C40
:1015F0004FF0010808FA0CF3B1F800C00CEA03063A
:101600009E4221D183004FF00F0C0CFA03F7BC432C
:1016100005FA03FC4CEA040491F803C0BCF1280F5E
:1016200005D100F1080C08FA0CF8C2F8148091F802
:1016300003C0BCF1480F07D100F1080C4FF00108BE
:1016400008FA0CF8C2F81080401C0828CED3546069
:10165000BDE8F081416170470161704700BFFEE75E
:1016600070B502460024002500230020958A138BC4
:101670001B0445EA030626F07F4404EA01068E4275
:1016800001D1012000E0002070BD21B1028842F0AC
:101690000102028004E002884FF6FE731A400280C5
:1016A0007047000000B585B00121480500F0F0FA50
:1016B0000121082000F00CFBC020ADF80000032041
:1016C0008DF802001C208DF8030069461148FFF7D1
:1016D00036FF114800F024F80020ADF808004BF662
:1016E000FF70ADF80A003020ADF80C004FF48060B8
:1016F000ADF80E000001ADF810000848019001217E
:101700000548FFF7C2FF01A9034800F05BF805B0E8
:1017100000BD0000000C014000540040801A06008B
:1017200010B504460B48844209D10121480500F058
:10173000BFFA00214FF4001000F0BAFA08E00121CE
:10174000880500F0B5FA00214FF4800000F0B0FAEF
:1017500010BD00000054004021B1028842F48072A4
:10176000028004E002884FF6FF631A40028070474F
:1017700021B1028842F40072028004E002884FF630
:10178000FF531A40028070470CB502460020002328
:101790000193009300920B0F019321F07F41019B75
:1017A0001BB1009B1433009303E0090C009B18331A
:1017B0000093009B1B680B400BB1012000E0002050
:1017C0000CBD00002DE9F04385B004460D4600260F
:1017D000B1460427DFF8CC80A6884FF6C0700640DB
:1017E000684600F085FADDF808802F48B8FBF0F075
:1017F0001FFA80F946EA0906A68020884FF6FE7196
:101800000840208000262949286888420CD828688A
:101810004000B8FBF0F087B2042F00DA04273E4303
:1018200009F10100208427E0E8884BF6FF71884227
:1018300006D1286800EB4000B8FBF0F087B209E061
:10184000286800EBC00101EB0010B8FBF0F087B294
:1018500047F48047C7F30B0008B947F0010747F486
:10186000004006434FF4967009FB00F04FF47A7184
:1018700090FBF1F0401C2084A683208840F00100FA
:10188000208026884FF6F5300640A88869890843ED
:1018900006432680A88929890843208105B0BDE830
:1018A000F083000000127A0040420F00A086010081
:1018B00012B141F0010102E04FF6FE7319400182BE
:1018C000704701827047000070B504460D4600BFA6
:1018D0004FF400311C48FFF757FF0028F8D10121D1
:1018E0001948FFF739FF00BF18491748FFF7B8FE3E
:1018F0000028F9D0002278211348FFF7D9FF00BF54
:1019000013491148FFF7ACFE0028F9D021460E48D4
:10191000FFF7D7FF00BF0E49891C0B48FFF7A0FE59
:101920000028F8D029460848FFF7CBFF00BF084938
:10193000891C0548FFF794FE0028F8D001210248D1
:10194000FFF716FF70BD00000054004001000300C7
:101950008200070008B50121482000F0B9F92020D5
:10196000ADF8000010208DF8030003208DF8020070
:1019700069460948FFF7E3FD20210748FFF76CFEA1
:101980002020ADF8000069460448FFF7D8FD20216B
:101990000248FFF761FE08BD000C0140001801403D
:1019A00000BFFEE77047000070B5002100230F2242
:1019B000C47804B3154C246804F4E064C4F5E0640E
:1019C000210AC1F10403CA40447804FA03F184787F
:1019D0001440214309010E4C0678A155047804F007
:1019E0001F050124AC4005786D11AD0005F1E0251F
:1019F000C5F8004109E0047804F01F050124AC405B
:101A0000044D0678761145F8264070BD0CED00E0D7
:101A100000E400E080E100E002490143024A116075
:101A2000704700000000FA050CED00E010B5002042
:101A300000F001F810BD70B50646002415E004F171
:101A4000B001C8B200F07DFE002000F07AFE102048
:101A500000F077FE002504E0304600F079FE681CB7
:101A6000C5B2802DF8DB601CC4B2082CE7DB70BD6A
:101A700010B5642000F0B4FEAE2000F062FE20201D
:101A800000F05FFE102000F05CFEB02000F059FE78
:101A9000C82000F056FE002000F053FE102000F099
:101AA00050FE402000F04DFE812000F04AFEFF2055
:101AB00000F047FEA12000F044FEA62000F041FE09
:101AC000A82000F03EFE3F2000F03BFEA42000F0E6
:101AD00038FED32000F035FE002000F032FED52085
:101AE00000F02FFEF02000F02CFED92000F029FE9F
:101AF000222000F026FEDA2000F023FE122000F063
:101B000020FEDB2000F01DFE202000F01AFE8D20BC
:101B100000F017FE142000F014FEAF2000F011FEBC
:101B200010BD70B504460D4605F1B001C8B200F015
:101B300008FE102141EA141000F003FE04F00F012A
:101B400041F0010000F0FDFD70BD00002DE9F04105
:101B500080460E46174600247D0131464046FFF779
:101B6000E0FF00BF06E00D49485D00F0F1FD6D1C8F
:101B7000601CC4B2102CF6DB701CC1B24046FFF7EB
:101B8000D0FF002406E00549485D00F0E1FD6D1C32
:101B9000601CC4B2102CF6DBBDE8F08114000020FC
:101BA0002DE9F0470646894617469A464FF0000849
:101BB00000240025BAF1010F03D0BAF1020F5ED163
:101BC00025E020E0785D203800F0FF087E2E04DD5F
:101BD000002609F1010000F0FF0949463046FFF7F1
:101BE000A0FF002409E008EB4801264A02EB41016E
:101BF000085D00F0ADFD601CC4B2062CF3DBB01D27
:101C0000C6B2681CC5B2785D0028DBD137E032E08F
:101C1000785D203800F0FF08782E04DD002609F1F9
:101C2000010000F0FF0949463046FFF77AFF002423
:101C300007E004EB0811144A505C00F089FD601CB9
:101C4000C4B2082CF5DB09F10100C1B23046FFF740
:101C500068FF002408E004EB081108310A4A505CD0
:101C600000F076FD601CC4B2082CF4DB06F108001D
:101C7000C6B2681CC5B2785D0028C9D100BF00BFDC
:101C8000BDE8F087442E00086C3000087047000063
:101C900029B1064AD2690243044BDA6104E0034ADF
:101CA000D2698243014BDA617047000000100240A4
:101CB00029B1064A12690243044B1A6104E0034A3F
:101CC00012698243014B1A61704700000010024004
:101CD00029B1064A92690243044B9A6104E0034A1F
:101CE00092698243014B9A617047000000100240E4
:101CF00030B500210022002400232D4D6D6805F031
:101D00000C0121B1042905D0082923D105E0294D72
:101D1000056022E0274D05601FE0254D6D6805F444
:101D20007012234D6D6805F48034022505EB924254
:101D30001CB9214D554305600BE01D4D6D6805F440
:101D400000351DB11C4D5543056002E0194D55434A
:101D5000056002E0174D056000BF00BF144D6D68BF
:101D600005F0F0010909154D6B5C0568DD40456023
:101D70000F4D6D6805F4E061090A104D6B5C456814
:101D8000DD4085600A4D6D6805F46051C90A0B4D50
:101D90006B5C4568DD40C560054D6D6805F44041EC
:101DA000890B074D6B5CC568B5FBF3F5056130BD6C
:101DB0000010024000127A0000093D006204002079
:101DC00072040020704710B500F002F810BD00004A
:101DD0000CB50020019000903348006840F480303A
:101DE0003149086000BF3048006800F400300090BE
:101DF0000198401C0190009818B90198B0F5A06FA7
:101E0000F1D12948006800F4003010B101200090A1
:101E100001E0002000900098012843D12348006889
:101E200040F01000214908600846006820F00300D7
:101E300008600846006840F0020008601A484068E0
:101E4000194948600846406848600846406840F4C0
:101E5000806048600846406820F47C10486008466E
:101E6000406840F4E81048600846006840F0807020
:101E7000086000BF0C48006800F000700028F9D02E
:101E80000948406820F00300074948600846406858
:101E900040F00200486000BF0348406800F00C00BA
:101EA0000828F9D10CBD00000010024000200240BB
:101EB00010B508210548FFF7CFFB0A2000F090FC81
:101EC00008210248FFF7C6FB10BD000000140140C6
:101ED000042808D14FF0E021096941F004014FF0D6
:101EE000E022116107E04FF0E021096921F00401CF
:101EF0004FF0E022116170477047000010B51348A1
:101F0000006840F001001149086008464068104927
:101F100008400E494860084600680E4908400B49D1
:101F200008600846006820F4802008600846406881
:101F300020F4FE0048604FF41F008860FFF743FF65
:101F40004FF000600449086010BD0000001002401E
:101F50000000FFF8FFFFF6FE08ED00E0F0B50C46CC
:101F6000154600220021068C4FF6FE773E4006847F
:101F7000028B018C4FF60C7632407E1C06EA03166B
:101F80002E433243104EB0420ED0104EB0420BD012
:101F9000B0F1804F08D00E4EB04205D00D4EB04289
:101FA00002D00D4EB04206D14FF6FD76314044F0DE
:101FB0000106314305E04FF6F576314044F0010665
:101FC000314302830184F0BD002C01400034014004
:101FD0000004004000080040000C0040F0B50C4632
:101FE0001546002200210026078C4FF6EF7C07EAF9
:101FF0000C070784028B018C4FF6FF7707EA041663
:1020000040F6FF473A404FF6FF7707EA03373A4377
:102010004FF6FF7707EA05273A43114FB8420ED033
:10202000104FB8420BD0B0F1804F08D00E4FB842DD
:1020300005D00E4FB84202D00D4FB84206D14FF630
:10204000DF77394046F01007394305E04FF65F77F8
:10205000394044F01007394302830184F0BD000089
:10206000002C014000340140000400400008004002
:10207000000C0040F0B50C46154600220021002659
:10208000078C4FF6FF6C07EA0C070784828B018CE4
:102090004FF6FF7707EA04264FF60C773A404FF6E3
:1020A000FF7707EA03172F433A43114FB8420ED088
:1020B000104FB8420BD0B0F1804F08D00E4FB8424D
:1020C00005D00E4FB84202D00D4FB84206D14FF6A0
:1020D000FF57394046F48077394305E04FF2FF5708
:1020E000394044F48077394382830184F0BD000095
:1020F000002C014000340140000400400008004072
:10210000000C0040F0B50C461546002200210026C8
:10211000078C4EF6FF7C07EA0C070784828B018C44
:102120004FF6FF7707EA043640F6FF473A404FF68E
:10213000FF7707EA05273A434FF6FF7707EA0337A9
:102140003A43114FB8420ED0104FB8420BD0B0F105
:10215000804F08D00E4FB84205D00E4FB84202D083
:102160000D4FB84206D14DF6FF77394046F48057FF
:10217000394305E047F6FF57394044F48057394367
:1021800082830184F0BD0000002C01400034014036
:102190000004004000080040000C004030B585B04D
:1021A00005460C4601210820FFF772FD012104209D
:1021B000FFF78EFD0120ADF8100028208DF81300E8
:1021C00004A91D48FFF7BBF901211B48FFF742FA9C
:1021D000ADF80850ADF804400020ADF80A00ADF8A5
:1021E000060001A9154800F047F9002014490880AD
:1021F0004880012088800020C88008810F4800F0B6
:10220000A5F832208DF8000002208DF80100002092
:102210008DF8020001208DF803006846FFF7C4FB2B
:1022200001220321054800F0E7F80121034800F0EE
:102230006CF805B030BD000000080140000C004003
:102240007804002010B52C48007800F080000028A9
:102250004CD10121294800F067F8D0B12648007818
:1022600000F04000A8B12448007800F03F003F286B
:102270000AD12148007840F080001F4908704FF6CD
:10228000FF701F49088004E01B480078401C1A4971
:1022900008700221194800F047F838B31648007852
:1022A00000F0400078B11448007840F080001249F6
:1022B0000870124800F035F81149088000210F48D5
:1022C00000F0A3F812E000200B4908700C490880C8
:1022D00000210A4800F0A2F80748007840F04000CA
:1022E000054908700221054800F08FF803210348D2
:1022F00000F008F810BD000054040020000C00405D
:1023000056040020CA430282704721B1028842F07D
:102310000102028004E002884FF6FE731A40028038
:1023200070470146888E704730B502460020002372
:102330000024158A05EA0103958905EA010413B111
:102340000CB1012000E0002030BD000070B5054652
:102350000C46244885420ED0234885420BD0B5F167
:10236000804F08D02148854205D02148854202D0BF
:102370002048854200D100E000BF208850B9238961
:10238000A28861882846FFF7E9FDE188284600F029
:1023900047F825E0208804280AD12389A28861888B
:1023A0002846FFF71BFEE188284600F042F817E0B8
:1023B000208808280AD12389A28861882846FFF747
:1023C00059FEE188284600F041F809E02389A288F7
:1023D00061882846FFF796FEE188284600F03FF81E
:1023E00070BD0000002C014000340140000400409A
:1023F00000080040000C00401AB183890B43838120
:1024000002E083898B43838170470A460021018C57
:102410004FF6FD7319401143018470478184704762
:10242000028B4FF6F3731A400283028B0A43028336
:102430007047028B4FF2FF331A400283028B4FF634
:10244000FF7303EA01231A4302837047828B4FF61E
:10245000F3731A408283828B0A4382837047828B94
:102460004FF2FF331A408283828B4FF6FF7303EAE9
:1024700001231A4382837047002202881D4B984231
:102480000ED01D4B98420BD0B0F1804F08D01B4BA3
:10249000984205D01A4B984202D01A4B984204D168
:1024A0004FF68F731A404B881A43174B984207D048
:1024B000164B984204D04FF6FF431A40CB881A437C
:1024C00002808B8883850B8803850A4B98420BD04A
:1024D000094B984208D00E4B984205D00D4B9842BC
:1024E00002D00D4B984201D10B7A038601238382DF
:1024F00070470000002C01400034014000040040FF
:1025000000080040000C0040001000400014004093
:1025100000400140004401400048014010B540F235
:1025200025511D4800F04AF810B31B4800F002F98D
:10253000C4B21A48008800F40040C8B9174800889F
:1025400000F4804060B10A2C03D0002013490880B9
:1025500020E01248008840F400401049088019E04B
:102560000D2C06D10D48008840F480400B490880AE
:1025700010E00A480088C0F30D0009490C540748D0
:102580000088401C0549088008460088C72801DDEE
:102590000020088010BD00000038014060040020C9
:1025A0008204002021B1828942F40052828104E039
:1025B00082894DF6FF731A408281704770B50246DA
:1025C000002400230025002040F66A16B14200D105
:1025D00000BFC1F3421501F01F03012606FA03F301
:1025E000012D02D19689334006E0022D02D1168AD0
:1025F000334001E0968A33400C12012606FA04F4B7
:102600001688344013B10CB1012000E0002070BDE9
:10261000F0B50346002400260025002040F66A1786
:10262000B94200D100BF1846C1F3421401F01F06A1
:10263000012707FA06F5012C01D10C3004E0022C29
:1026400001D1103000E014301AB107682F43076041
:1026500002E00768AF430760F0BD00002DE9F047D6
:1026600086B005460E460024A24600BFA1460027BC
:10267000B08900B100BF2F462C8A4CF6FF70044091
:10268000F08804432C82AC894EF6F3100440B088E5
:1026900031890843718908430443AC81AC8A4FF601
:1026A000FF400440B0890443AC8201A8FFF720FB3F
:1026B0001F48874202D1DDF810A001E0DDF80CA030
:1026C000A88900F4004040B10AEBCA0000EB0A10F0
:1026D00031684900B0FBF1F807E00AEBCA0000EBF3
:1026E0000A1031688900B0FBF1F86420B8FBF0F003
:1026F00004012009642101FB1089A88900F400402D
:1027000040B1322000EBC900B0FBF1F000F007004F
:10271000044308E0322000EB09106421B0FBF1F023
:1027200000F00F0004432C8106B0BDE8F0870000E4
:102730000038014001468888C0F30800704700BF98
:10274000FEE710B5044621460020FFF7BDF810BD96
:1027500010B5044621464020FFF7B6F810BD4900E9
:1027600050EAC12018BF04204A0D18BF40F00100F4
:1027700040F2FF72B2EB515F08BF40F00200012847
:1027800008BF0520704730380A2801D20120704761
:1027900000207047014600BF7047000010B56FF081
:1027A0000400FFF795FB0A4800680A49B0FBF1F006
:1027B000094908700846007800EB4001C1EBC010E1
:1027C0004FF6FF7101EAC0000449088010BD000007
:1027D0000000002000127A00580400205A04002053
:1027E0000146114A12884A434FF0E0235A61002201
:1027F0009A611A46126942F001021A6100BF4FF055
:10280000E022106900F001021AB100F48032002ABF
:10281000F5D04FF0E022126922F001024FF0E023E0
:102820001A6100229A6170475A0400200146114A39
:1028300012784A434FF0E0235A6100229A611A4607
:10284000126942F001021A6100BF4FF0E0221069E4
:1028500000F001021AB100F48032002AF5D04FF0E6
:10286000E022126922F001024FF0E0231A610022F7
:102870009A6170475804002000BF054A128802F090
:102880004002002AF9D0C2B2014B1B1D1A807047CA
:10289000003801400EB500244FF4A060FFF7BCF8EB
:1028A0004FF4E13000F092F8FFF778FFFEF79CFD5F
:1028B00047214FF6FF70FFF771FCFEF7F1FDFFF7C0
:1028C00049F8FEF7EFFEFFF7D3F8FFF7AFF85AE04D
:1028D0004FF47A70FFF784FFFFF7EAFA002507E06C
:1028E0002907080E2A460021FFF730F9681CC5B2F7
:1028F000022DF5DB2448007800F08000002841D04C
:102900002148007800F03F04240420480088044453
:1029100021461FA0FDF7ACFC00201B490870204693
:1029200000F0AEF981461E4900F0E8F807461D495F
:1029300000F0BAF906464FF0804100F0DFF880461B
:10294000404600F0AFF8064632460B4616A0FDF7AB
:102950008FFC404600F0A6F8064632460B4616A10C
:102960006846FDF791FC01236A4603210020FFF72A
:1029700017F9404600F096F8064632460B4610A07E
:10298000FDF776FC00BFA3E75404002056040020A6
:10299000484947483A2564207573202020200000CC
:1029A000002474490000AA4344495354414E43450E
:1029B0003A2566206D0D0A0025302E36660000008F
:1029C000BEE0C0EBCEAA25660A0D000010B586B0A9
:1029D0000446012144F20400FFF77AF94FF4007035
:1029E000ADF8140003208DF8160018208DF817009C
:1029F00005A91C48FEF7A3FD4FF48060ADF8140054
:102A000004208DF8170005A91648FEF798FD25202B
:102A10008DF8000003208DF801008DF802000120E0
:102A20008DF803006846FEF7BFFF01940020ADF863
:102A30000800ADF80A00ADF80C00ADF810000C204D
:102A4000ADF80E0001A90848FFF708FE012240F288
:102A500025510548FFF7DCFD01210348FFF7A2FDE2
:102A600006B010BD000801400038014010B5002933
:102A70000AD00878002807D005487844FEF7B6F851
:102A8000002801D0002010BD0248784410BD00008D
:102A90007A1E0000721E00000808A0F500114FEA1F
:102AA0003101704743004FEAD30C4FEA3C0C4340DE
:102AB0001FBF40070CF1605113F0FE4F70471CF030
:102AC000006F03D100200CF0004170470CF0004370
:102AD00043EA507010B540EACC0000F066F900BF40
:102AE000000000924FEA0001FFF7D6BF4FF000410F
:102AF0004FF00000A1F50021704700004FF47F0C5B
:102B00001CEAD0121EBF1CEAD11392EA0C0F93EA02
:102B10000C0F00F0858090EA010F48BF42F48072EC
:102B200040F4000C41F400002CF07F4120F07F4085
:102B300000B58142A2EB03020FF2081CACEB504E31
:102B4000C0F100009EF800E04FEA4E0E00FB0EFCC4
:102B500038BF49004FEA2C1C02F5FA020CFB0EF3B9
:102B60004FEACE1E4FEA112C4FEAC1210EEB635EF5
:102B700042EB22420EFB0CFC4FEA1C5300FB0311FC
:102B80004FEA112C4FEA01310EFB0CFC4FEADC4CF2
:102B900000FB0C11C14228BF09184CEB03335DF850
:102BA00004EB10EB410143EBC250B2F57C0F38BF90
:102BB000704729D512F0F00F1CBF00F1C04000F0A3
:102BC00000407047008182838485868788898B8C4A
:102BD0008D8E8F919293959697999A9C9D9FA0A286
:102BE000A3A5A7A8AAACAEB0B2B3B5B7B9BCBEC0D6
:102BF000C2C5C7C9CCCED1D4D7D9DCDFE2E6E9EC77
:102C0000F0F3F7FAFE0000004FEA400C0CF1807C74
:102C1000BCF17E4F28BF7047B0F1C04000F00BB947
:102C200090EA010F0CEAD11348BF42F4807262456A
:102C300038BF634507D213F47F0F16D080EA010036
:102C400000F00040704710B500F0AFF8097EFC3E80
:102C500000F005B880EA010000F00040704780EA0B
:102C6000010000F0004000F0E6B812F47F0F04BF4E
:102C70000248704780EA010000F0DDB80000C07F24
:102C8000B0FA80F310FA03F2C3F19D030AD0D9051C
:102C900001EB1220530638BF704700F1010008BF56
:102CA00020F00100704700004FF47F0C1CEAD012A6
:102CB0001EBF1CEAD11392EA0C0F93EA0C0F00F02E
:102CC000478090EA010F48BF42F480724FF0004CF9
:102CD0004CEA00204CEA012102EB0302A0FB0113A5
:102CE000A2F50002002918BF43F001035B0028BFD2
:102CF0004FEA330342EB22425FEA132C4CEBC25003
:102D00002EBFBCEB436FB2F57C0F70474FEA036CEC
:102D1000BCF1004F08BF20F00100B2F57C0F38BFB6
:102D200070470BD582F0FF0212F5803FC8BF704795
:102D300000F1C040D8BF00F00040704700F5000C23
:102D40005FEA4C0C48BF7047B0F1C04000F073B868
:102D500090EA010F0CEAD11348BF42F48072624539
:102D600038BF634504D280EA010000F0004070479C
:102D700010B500F01AF800BF8900013E00F007B856
:102D800000F009B85FEA410C5FEA1C6C08D080EAE9
:102D9000010000F050B85FEA400C5FEA1C6CF6D10D
:102DA0004FF00040A0F5800070470EF1020E2EF0AB
:102DB000030E5EF8044B244204D44FEA4102B2F100
:102DC0007F4F11D84FEA4003B3F17F4F0CD80ED19B
:102DD0004FEAD07CB2F17F4F0CEB4C0C0CF1020CA3
:102DE00008BF4CEBD17C04E04FF0080C01E04FEA47
:102DF000D17C0CEB4C0324FA03F404F00704B4F187
:102E0000040C06D20EEB840CBDE810404CF0010C13
:102E10006047DFE80CF0070802024FF00040A0F521
:102E2000800010BD0846420018BFD2F1807288BFF2
:102E300000F0004010BDFF2141EAD050C0057047AE
:102E4000FDF742BC0000000000000000002F000061
:102E500000000700070000147F147F1400242A7F5D
:102E60002A120062640813230036495522500000DC
:102E70000503000000001C224100000041221C004C
:102E80000014083E08140008083E0808000000A0CE
:102E900060000008080808080000606000000020CA
:102EA00010080402003E5149453E0000427F4000A8
:102EB000004261514946002141454B31001814122E
:102EC0007F10002745454539003C4A4949300001FB
:102ED0007109050300364949493600064949291E4A
:102EE00000003636000000005636000000081422AC
:102EF00041000014141414140000412214080002AC
:102F00000151090600324959513E007C1211127CD0
:102F1000007F49494936003E41414122007F4141FD
:102F2000221C007F49494941007F09090901003EEF
:102F30004149497A007F0808087F0000417F41002D
:102F4000002040413F01007F08142241007F4040A3
:102F50004040007F020C027F007F0408107F003E8B
:102F60004141413E007F09090906003E4151215E71
:102F7000007F091929460046494949310001017F6E
:102F80000101003F4040403F001F2040201F003F04
:102F90004038403F006314081463000708700807B6
:102FA00000615149454300007F41410000552A55C9
:102FB0002A55000041417F00000402010204004044
:102FC0004040404000000102040000205454547866
:102FD000007F484444380038444444200038444486
:102FE000487F00385454541800087E090102001824
:102FF000A4A4A47C007F080404780000447D400061
:10300000004080847D00007F102844000000417F44
:103010004000007C04180478007C08040478003820
:103020004444443800FC242424180018242418FCA8
:10303000007C0804040800485454542000043F4411
:103040004020003C4040207C001C2040201C003CD4
:103050004030403C004428102844001CA0A0A07C24
:10306000004464544C44141414141414000000005C
:10307000000000000000000000000000000000F858
:1030800000000000000000333000000000100C06BB
:10309000100C0600000000000000000040C0784056
:1030A000C0784000043F04043F040400007088FC22
:1030B00008300000001820FF211E0000F008F0007A
:1030C000E018000000211C031E211E0000F00888EB
:1030D000700000001E2123241927211010160E0055
:1030E000000000000000000000000000000000E000
:1030F0001804020000000007182040000002041815
:10310000E00000000040201807000000404080F070
:10311000804040000202010F01020200000000F0A6
:10312000000000000101011F01010100000000007A
:103130000000000080B070000000000000000000EF
:103140000000000000010101010101010000000078
:10315000000000000030300000000000000000000F
:1031600080601804006018060100000000E01008EC
:103170000810E000000F102020100F00001010F8C1
:10318000000000000020203F202000000070080800
:103190000888700000302824222130000030088880
:1031A000884830000018202020110E000000C020A8
:1031B00010F8000000070424243F240000F80888C9
:1031C000880808000019212020110E0000E0108856
:1031D00088180000000F112020110E000038080888
:1031E000C83808000000003F000000000070880898
:1031F00008887000001C222121221C0000E0100819
:103200000810E0000000312222110F00000000C071
:10321000C00000000000003030000000000000800E
:1032200000000000000080600000000000008040FE
:103230002010080000010204081020004040404017
:10324000404040000404040404040400000810206A
:1032500040800000002010080402010000704808AF
:103260000808F0000000003036010000C030C82817
:10327000E810E0000718272423140B000000C038D2
:10328000E0000000203C23020227382008F888884C
:1032900088700000203F202020110E00C030080858
:1032A00008083800071820202010080008F808082F
:1032B0000810E000203F202020100F0008F8888828
:1032C000E8081000203F20202320180008F88888F4
:1032D000E8081000203F200003000000C03008086C
:1032E0000838000007182020221E020008F80800F5
:1032F0000008F808203F210101213F20000808F8BC
:10330000080800000020203F2020000000000808DE
:10331000F8080800C08080807F00000008F888C09E
:1033200028180800203F20012638200008F808004F
:1033300000000000203F20202020300008F8F80086
:10334000F8F80800203F003F003F200008F830C098
:103350000008F808203F200007183F00E010080888
:103360000810E0000F10202020100F0008F80808B7
:103370000808F000203F210101010000E0100808CA
:103380000810E0000F18242438504F0008F88888EF
:1033900088887000203F2000030C302000708808CF
:1033A000080838000038202121221C00180808F8DD
:1033B000080818000000203F2000000008F808005E
:1033C0000008F808001F202020201F00087888002F
:1033D00000C83808000007380E010000F80800F89F
:1033E0000008F800033C0700073C03000818688049
:1033F0008068180820302C03032C30200838C800BF
:10340000C83808000000203F20000000100808080D
:10341000C83808002038262120201800000000FEAF
:10342000020202000000007F40404000000C30C05B
:1034300000000000000000010638C0000002020287
:10344000FE000000004040407F0000000000040239
:103450000202040000000000000000000000000064
:103460000000000080808080808080800002020454
:10347000000000000000000000000000000080804C
:10348000808000000019242222223F2008F80080BA
:1034900080000000003F112020110E00000000807D
:1034A00080800000000E112020201100000000800C
:1034B0008088F800000E112020103F20000080803E
:1034C00080800000001F222222221300008080F052
:1034D000888888180020203F20200000000080807D
:1034E00080808000006B94949493600008F80080C2
:1034F00080800000203F210000203F20008098981D
:10350000000000000020203F20200000000000807C
:103510009898000000C08080807F000008F80000BC
:1035200080808000203F24022D302000000808F811
:10353000000000000020203F2020000080808080CC
:1035400080808000203F20003F20003F808000805E
:1035500080800000203F210000203F20000080806C
:1035600080800000001F202020201F00808000801D
:103570008000000080FFA12020110E0000000080CC
:1035800080808000000E112020A0FF8080808000BD
:103590008080800020203F212000010000008080EA
:1035A000808080000033242424241900008080E0DF
:1035B000808000000000001F2020000080800000AC
:1035C00000808000001F202020103F20808080008D
:1035D0000080808000010E3008060100808000809D
:1035E000008080800F300C030C300F0000808000C2
:1035F000808080000020312E0E31200080808000ED
:103600000080808080818E7018060100008080809C
:10361000808080000021302C22213000000000003A
:10362000807C020200000000003F404000000000DB
:10363000FF00000000000000FF0000000002027C0C
:10364000800000000040403F000000000006010133
:10365000020204040000000000000000000000005E
:103660000000000000000000000000003F400000DB
:10367000000000000000300040003000400000006A
:1036800009000BC03D000BC03D00090018C02440DC
:103690007FE0224031800000180024C01B000D8014
:1036A0003240018003801C4027401C8007400040BE
:1036B000100060000000000000000000000000009A
:1036C00000001F80204040200000402020401F803C
:1036D00000000000090006001F800600090000002D
:1036E000040004003F80040004000000001000609B
:1036F00000000000000000000400040004000400BA
:103700000400000000000040000000000000000075
:10371000002001C006003800400000001F8020404B
:10372000204020401F800000000010403FC00040AB
:103730000000000018C02140224024401840000032
:1037400010802040244024401B80000002000D0017
:1037500011003FC0014000003C8024402440244030
:10376000238000001F802440244034400380000058
:103770003000200027C03800200000001B802440BB
:10378000244024401B8000001C0022C02240224014
:103790001F80000000000000084000000000000042
:1037A00000000000046000000000000000000400B1
:1037B0000A001100208040400900090009000900AA
:1037C0000900000000004040208011000A000400B1
:1037D0001800200023402400180000001F80204013
:1037E000274029401F400000004007C039000F005B
:1037F00001C0004020403FC0244024401B80000006
:103800001F802040204020403080000020403FC0EA
:10381000204020401F80000020403FC024402E4018
:1038200030C0000020403FC024402E003000000087
:103830000F001080204022403380020020403FC013
:10384000040004003FC02040204020403FC02040F2
:10385000204000000060202020203FC020002000E9
:1038600020403FC024400B0030C0204020403FC0DB
:1038700020400040004000C03FC03C0003C03C006E
:103880003FC0000020403FC00C4023003FC020004C
:103890001F802040204020401F80000020403FC06B
:1038A00024402400180000001F802140214020E017
:1038B0001FA0000020403FC02440260019C0004047
:1038C00018C02440244022403180000030002040B5
:1038D0003FC020403000000020003F8000400040FA
:1038E0003F80200020003E0001C00700380020007B
:1038F000380007C03C0007C038000000204039C035
:10390000060039C0204000002000384007C0384081
:1039100020000000304021C02640384020C0000078
:10392000000000007FE04020402000000000700008
:103930000C000380004000000000402040207FE099
:1039400000000000000020004000200000000000F7
:103950000010001000100010001000100000000007
:10396000400000000000000000000280054005400B
:1039700003C0004020003FC004400440038000001A
:103980000000038004400440064000000000038063
:10399000044024403FC00040000003800540054033
:1039A00003400000000004401FC0244024402000C9
:1039B000000002E0055005500650042020403FC0A2
:1039C0000440040003C000400000044027C0004041
:1039D0000000000000100010041027E000000000AC
:1039E00020403FC00140070004C004402040204068
:1039F0003FC000400040000007C0040007C00400B2
:103A000003C00000044007C00440040003C000409D
:103A1000000003800440044003800000041007F00D
:103A20000450044003800000000003800440045060
:103A300007F00010044007C002400400040000002A
:103A4000000006400540054004C0000000000400DE
:103A50001F80044000400000040007800040044034
:103A600007C000400400070004C0018006000400F5
:103A7000060001C0070001C006000000044006C0A7
:103A8000010006C0044000000410071004E001809B
:103A9000060004000000044005C006400440000089
:103AA0000000000004007BE0402000000000000057
:103AB0000000FFF000000000000040207BE0040058
:103AC0000000000040008000400020002000400076
:103AD00000000000000000000000000000000000E6
:103AE00000000000000000000000000000000000D6
:103AF00000000000000000000000000000000000C6
:103B00000000000F80380FFE380F803800000000E2
:103B100000000000000000000000000000000100A4
:103B2000000600000C000038000031000006000014
:103B30000C00003800003000000000000000000011
:103B400061800067F807F980006180006180006192
:103B5000800061800067F807F98000618000000044
:103B600000000000000001C0E003E0F0063008049F
:103B700018081FFFFE040E080787F00381E000000D
:103B80000000000001F000060C00040408060C70A0
:103B900001F9C0000E00003BE000EC180708080423
:103BA0000C180003E00000000001E00007F003F83B
:103BB00018041C0804170807E1D003C0E00023B074
:103BC000003C080020080000100000000000000178
:103BD00000003100003200001C0000000000000066
:103BE00000000000000000000000000000000000D5
:103BF00000000000000000000000000000000000C5
:103C00007F0001FFC00780F00C00181000042000A6
:103C1000020000000000002000021000040C001848
:103C20000780F001FFC0007F0000000000000000DE
:103C300000000000000000000000000042000066DC
:103C400000006600003C0000180003FFC0001800E0
:103C5000003C00006600006600004200000000001A
:103C6000080000080000080000080000080001FF2C
:103C7000C00008000008000008000008000008005C
:103C800000000000000100003100003200001C00B4
:103C90000000000000000000000000000000000024
:103CA00000000000000000000800000800000800FC
:103CB00000080000080000080000080000080000DC
:103CC00008000008000000000000000000000000E4
:103CD000380000380000380000000000000000003C
:103CE00000000000000000000000000000000000D4
:103CF000000600001C000070000180000E0000386B
:103D00000000C0000700001C0000300000000000A0
:103D1000000000007F8001FFE003807006001804AF
:103D2000000804000806001803807001FFE0007F0F
:103D300080000000000000000000010008010008F1
:103D400001000803FFF807FFF80000080000080062
:103D5000000800000000000000000001C03802C0A0
:103D600058040098040118040218040418061C18CA
:103D700003F81801E0F80000000000000000000156
:103D8000C0E003C0F004000804080804080806188E
:103D90000803F41801E7F00001E000000000000053
:103DA000000000000300000D000011000061000091
:103DB000810803010807FFF80FFFF8000108000160
:103DC000080000000000000000E007FCD006080822
:103DD000061008061008061008061838060FF00628
:103DE00007C0000000000000000000003F8001FF4D
:103DF000E0038430020818041008041008041008B6
:103E0000071810030FF00007C000000000000000BA
:103E1000000003C0000700000600000600F80607C7
:103E2000F806180006E00007000006000000000089
:103E300000000001E1E003F7F00634100418080464
:103E40001808040C08040C0806161803F3F001C146
:103E5000E000000000000000F80003FC300306381A
:103E60000402080402080402080404100308F00114
:103E7000FFC0007F00000000000000000000000004
:103E8000000000000000000070380070380070383A
:103E90000000000000000000000000000000000022
:103EA000000000000000000000000000301A003098
:103EB0001C000000000000000000000000000000E6
:103EC00000000000000000080000140000220000B4
:103ED0004100008080010040020020040010080022
:103EE0000800000000000000210000210000210067
:103EF000002100002100002100002100002100001D
:103F00002100002100000000000000000000080067
:103F100008040010020020010040008080004100E1
:103F20000022000014000008000000000000000350
:103F3000C00004C000040000080038080F3808085A
:103F4000380810000C300007E00003C0000000003B
:103F5000000000003F8000FFE0038070020F1006A9
:103F6000708804C088048308047F8802C09003011D
:103F70002000FE400000080000180001F8003E0884
:103F800001C20007020007E20000FE00001FC80097
:103F900001F800003800000804000807FFF807FFD8
:103FA000F8040808040808040808040808061808A3
:103FB00003F41801E7F00001E00000000000000039
:103FC0003F8001FFE0038070020018040008040035
:103FD000080400080400100600200780C00000004C
:103FE00004000807FFF807FFF804000804000804AD
:103FF000000804001802001003807001FFE0007F39
:104000008000000004000807FFF807FFF804080814
:10401000040808040808040808043E080400080608
:10402000001801006000000004000807FFF807FF07
:10403000F8040808040800040800040800043E000E
:1040400006000006000001800000000000000000E3
:104050003F8001FFE003807006001804000804029E
:10406000080402080203F00783F0000200000200C7
:1040700004000807FFF807FFF8040808000800001C
:10408000080000080000080004080807FFF807FF00
:10409000F804000800000000000004000804000804
:1040A00004000807FFF807FFF804000804000804EC
:1040B00000080000000000000000000000060000F2
:1040C0000700000104000104000104000307FFFED3
:1040D00007FFFC04000004000004000004000807BF
:1040E000FFF807FFF8040C08001800003E0004C7A2
:1040F000800503C80600F804003804001800000812
:1041000004000807FFF807FFF80400080000080093
:104110000008000008000008000008000018000067
:104120006000000004000807FFF807800807FC0093
:10413000007FC00003F80007C00078000780080770
:10414000FFF807FFF804000804000807FFF807005D
:104150000803C00000E000003800001E0000070057
:104160000001C00400F007FFF80400000000000098
:104170007F8001FFE003807006001804000804003F
:104180000806001803003001FFE0007F80000000F7
:1041900004000807FFF807FFF804040804040004FB
:1041A0000400040400040400060C0003F80001F0FD
:1041B00000000000000000007F8001FFE00380702D
:1041C0000600880400880400C806003C03003E0185
:1041D000FFE6007F8400000004000807FFF807FFE7
:1041E000F8040808040800040C00040F00040BC0C5
:1041F0000610F003F03801E008000008000000019C
:10420000E0F803F030063010041808041808040C15
:1042100008040C080206180207F00781E0000000FD
:1042200001800006000004000004000004000807EC
:10423000FFF807FFF804000804000004000006006F
:104240000001800004000007FFE007FFF0040018F1
:104250000000080000080000080000080000080432
:10426000001007FFE004000004000006000007E063
:104270000007FE00041FE00001F80000380001E024
:10428000043E0007C0000600000400000400000710
:10429000E00007FFC0041FF80007C007F80007FF91
:1042A00080043FF80007C004F80007000004000085
:1042B00000000004000806001807C07805F1C800D7
:1042C0003E00001F800463E80780F8060018040021
:1042D0000800000004000006000007800007E00856
:1042E000047C08001FF80007F800180804E008071D
:1042F00000000600000400000000000100080600A5
:10430000380400F80403E8040F08047C0805F008EA
:1043100007C008070018040060000000000000004B
:1043200000000000000000000000003FFFFE200031
:1043300002200002200002200002200002000000F3
:1043400000000000000008000007000000C000009E
:1043500038000006000001C000003000000E000020
:104360000100000000000000000020000220000208
:104370002000022000022000023FFFFE000000009B
:10438000000000000000000000000000000000002D
:104390000008000010000030000020000030000085
:1043A00010000008000000000000000000000100F4
:1043B00000010000010000010000010000010000F8
:1043C00001000001000001000001000001000001E7
:1043D000000000000000000000200000200000108D
:1043E00000001000000000000000000000000000BD
:1043F000000000000000000000F00019F8001B1889
:10440000002208002608002408002410003FF800BD
:104410001FF800000800001800000004000007FF5B
:10442000F80FFFF0001818001008002008002008FE
:10443000003018001FF0000FC00000000000000056
:1044400007C0001FF00018300020080020080020DE
:1044500008003C08001C1000006000000000000084
:104460000000000007C0001FF000381800200800FE
:10447000200800200804101007FFF80FFFF00000CC
:10448000100000000000000000000007C0001FF046
:104490000012300022180022080022080032080012
:1044A0001E10000E20000000000000002000002070
:1044B0000800200801FFF803FFF806200804200880
:1044C0000420080720000300000000000000000096
:1044D000000E000E6E001FF30031B10020B100206D
:1044E000B1003191001F13002E1E00200E0030007D
:1044F00000000004000807FFF80FFFF80010080094
:104500002000002000002008003FF8001FF80000F5
:104510000800000000000000000000200800200843
:10452000002008063FF8063FF800000800000800D9
:104530000008000000000000000000000000000073
:1045400003000003002001002001002003063FFEBD
:10455000063FFC0000000000000000000000000416
:10456000000807FFF80FFFF8000188000300002F84
:10457000C00038F8002038002008000008000000C3
:104580000000000000000400080400080400080700
:10459000FFF80FFFF8000008000008000008000006
:1045A00000000000002008003FF8003FF80010085D
:1045B000002000003FF8003FF80010080020000035
:1045C0003FF8003FF8000008000000002008003F0E
:1045D000F8003FF80010080010000020000020083C
:1045E000003FF8001FF80000080000000000000075
:1045F00007C0000FF000183000300800200800202D
:1046000008003008001830000FF00007C00000005C
:10461000000000002001003FFF003FFF00101100DC
:104620002009002008002008003038001FF0000F8B
:10463000C00000000000000007C0001FF000381894
:10464000002008002008002009001011001FFF00B2
:104650003FFF0000010000000020080020080020AB
:1046600008003FF8003FF800080800100800200884
:1046700000200000300000300000000000000000BA
:104680000000000C78001E180033080023080021E9
:10469000080021880021980030F0003860000000F8
:1046A00000000000200000200000200000FFF003B8
:1046B000FFF800200800200800200800003000005B
:1046C00000000000000000002000003FF0007FF824
:1046D000000018000008000008002010003FF8004B
:1046E0007FF00000100000000000000020000030FB
:1046F00000003C00003F800023F0000078000070C4
:10470000002380003C00003000002000002000005A
:104710003C00003FE00023F80000E0002700003EDE
:1047200000003FE00021F80001E0003E0000200012
:10473000000000002008002008003838003E680013
:1047400027800003C8002CF800383800201800200B
:1047500008000000000000002000003003003C01C1
:10476000003F830023EC000070002380003C000029
:1047700020000020000000000000000000000038C1
:10478000080020380020F80023E8002F88003E08A9
:104790000038080020180000700000000000000031
:1047A00000000000000000000000000008000014ED
:1047B000001FF7FC3000062000020000000000008F
:1047C00000000000000000000000000000000000E9
:1047D0000000FFFFFF0000000000000000000000DC
:1047E0000000000000000000000020000230000671
:1047F0001FF7FC001400000800000000000000008B
:104800000000000000000000000000180000600030
:1048100000400000400000200000100000080000E0
:104820000400000400000C00001000000400000858
:104830000000000000000002000100001000000065
:1048400002400000000000A0000000000540000041
:10485000000000C8000000000C4000000000409C68
:1048600000000000194000000020BCBE0000000055
:1048700034400000BFC91B8E00000004B54000009A
:10488000504BCFD06607E2CF010000006C41000022
:104890003E8251AADFEEA73401000000D942000099
:1048A000DCB5A0E23A301F97FFFFFFFFB4450000E0
:1048B000FD25A0C8E9A3C14FFFFFFFFFFF3F000098
:1048C0000000008000000000FF3F000000000080AA
:1048D00000000000104900080000002078040000DB
:1048E0006C010008844A00087804002038070000A2
:1048F000C80100081C00000043000000F8FFFFFF93
:104900000C0000000E0000000F0000002E00000050
:104910001184A24A04101801020304060708099032
:10492000523410FF10345280708F0808F8081008B5
:10493000829A566322528E10088040330C33408096
:104940001A101E1290100AFE929292F292929E807B
:10495000100842827F0180601F37FC44474444FCBA
:10496000100A03050911FF118905C312E012F07244
:10497000F8073D4428FF11AA44700B830138448294
:1049800092927401831E7C44C7017D0199055AFFF0
:10499000CD990279E1890B013669419949FA010102
:1049A000A12A4001212A6D01212A600179150164A3
:1049B0002ADB010915072ADA01212AD801212AC098
:1049C000010915072A800101352A06010918071C6B
:1049D000E66620076A86157A861C2A8601180A80F0
:1049E000808686068686C0C00C0E1C0606D03076F1
:1049F0004D2907013113601C12FE1301021009C476
:104A00001820029E63B20E1DFF8181FFF2444030E8
:104A10000F12FF180923EAAABFAAEA033F0B012DD0
:104A2000BC808080080115240E0C082A0101314940
:104A3000041D81808081021901B917061101010945
:104A40000C0E0A14C0012178081E21404050215E3E
:104A500008012A4DFFFFC1C10409232D081512804A
:104A6000FCF3EFF3FC80FF80EEEEEEF5FBFF9CBE67
:104A7000B6B6883A2D01020304041808060708098F
:044A8000020406F72F
:040000050800022DC0
:00000001FF
