:020000040800F2
:100000000020002075180008590200085B02000853
:100010005F02000863020008670200080000000099
:100020000000000000000000000000006B0200085B
:100030006D020008000000006F0200087102000855
:100040008F1800088F1800088F1800088F180008F4
:100050008F1800088F1800088F1800088F180008E4
:100060008F1800088F1800088F1800088F180008D4
:100070008F1800088F1800088F1800088F180008C4
:100080008F1800088F1800088F1800088F180008B4
:100090008F1800088F1800088F1800088F180008A4
:1000A0008F1800088F1800088F1800088F18000894
:1000B0008F1800088F1800088F1800088F18000884
:1000C0008F1800088F1800088F1800088F18000874
:1000D0008F180008EB1700088F1800088F18000809
:1000E0008F1800088F1800088F1800088F18000854
:1000F0008F1800088F1800088F1800088F18000844
:100100008F1800088F1800088F1800088F18000833
:100110008F1800088F1800088F1800088F18000823
:100120008F1800088F1800088F1800088F18000813
:1001300000F002F800F05EF80AA090E8000C82449B
:100140008344AAF10107DA4501D100F053F8AFF278
:10015000090EBAE80F0013F0010F18BFFB1A43F0A5
:1001600001031847EC2F00000C30000010F8013B91
:100170000A4413F0030408BF10F8014B1D1108BF17
:1001800010F8015B641E05D010F8016B641E01F8C5
:10019000016BF9D1002D15D010F8014B03F00C03C1
:1001A0000C2BA1EB04040ABF10F8013BA4EB831451
:1001B000A4EB032405F1010314F8016B5B1E01F8A5
:1001C000016BF9D5914238BF10F8013BD1D370478C
:1001D0000023002400250026103A28BF78C1FBD850
:1001E000520728BF30C148BF0B6070471FB51FBD05
:1001F00010B510BD02F055F91146FFF7F7FF00F0FA
:1002000009F802F073F903B4FFF7F2FF03BC01F041
:1002100091FA000001F024FA4FF4A06001F04AFBCB
:100220004FF4E13001F095FA00F03AFE00F012F9D7
:1002300000F017FA0DE001F0EAF90648007820B165
:10024000012803D0022803D101E001E000E000BF53
:1002500000BFF0E77D070020704700BFFEE700BF4A
:10026000FEE700BFFEE700BFFEE77047704770473C
:10027000704700000CB50020019000906C480068A9
:1002800040F480306A49086000BF6948006800F4A3
:10029000003000900198401C0190009818B9019816
:1002A000B0F5A06FF1D16248006800F4003010B1E1
:1002B0000120009001E0002000900098012843D127
:1002C0005C48006840F010005A4908600846006821
:1002D00020F0030008600846006840F00200086053
:1002E000534840685249486008464068486008469C
:1002F000406840F4806048600846406820F47C1004
:1003000048600846406840F4E810486008460068C5
:1003100040F08070086000BF4548006800F0007041
:100320000028F9D04248406820F003004049486066
:100330000846406840F00200486000BF3C48406802
:1003400000F00C000828F9D10CBD10B5FFF792FFA2
:1003500010BD10B53648006840F00100344908600F
:1003600008464068344908403149486008460068FA
:10037000324908402E4908600846006820F4802071
:1003800008600846406820F4FE0048604FF41F00F3
:100390008860FFF7DAFF4FF000602949086010BD60
:1003A00010B5002100200022214B5B6803F00C01F6
:1003B00021B1042906D0082928D107E0214B224C7D
:1003C000236027E01F4B204C236023E0184B5B6821
:1003D00003F47010164B5B6803F48032022303EBC6
:1003E000904022B9194B4343174C23600DE0104B4A
:1003F0005B6803F4003323B1144B4343124C236076
:1004000003E0104B4343104C236003E00D4B0E4CB4
:10041000236000BF00BF064B5B68C3F303130C4CA3
:10042000E15C094B1B68CB40074C236010BD00000A
:1004300000100240002002400000FFF8FFFFF6FE1F
:1004400008ED00E000127A000000002000093D00E5
:100450000400002008B50121482001F0B5FD20204E
:10046000ADF8000010208DF8030003208DF8020085
:100470006946094801F0ECFA2021074801F095FB94
:100480002020ADF800006946044801F0E1FA20217F
:10049000024801F08AFB08BD000C01400018014031
:1004A00008B50121082001F08FFDC020ADF8000043
:1004B00010208DF8030003208DF802006946F648ED
:1004C00001F0C6FAC021F44801F06FFB08BD10B579
:1004D0000120F249086001F0DCF80120F049C1F880
:1004E000980101F0D6F80020EC490860012001F0E5
:1004F000D0F80020EA49C1F8980110BD10B50020DD
:10050000E6490860012001F0C4F80020E449C1F880
:100510009801012001F0BDF80120E049086001F0D8
:10052000B8F80120DE49C1F8980110BD70B5044645
:1005300000251DE004F0800018B10120D7490860B3
:1005400002E00020D5490860012001F0A2F8012056
:10055000D249091F086001F09CF80020D049C1F879
:100560009801012001F095F86006040E681CC5B2E0
:10057000082DDFDB0120C949091F086001F089F857
:100580000020C749C1F8980170BD10B50446FFF7B7
:100590009EFF7820FFF7CAFF4020FFF7C7FF2046E5
:1005A000FFF7C4FFFFF7AAFF10BD10B50446FFF721
:1005B0008EFF7820FFF7BAFF0020FFF7B7FF204635
:1005C000FFF7B4FFFFF79AFF10BD70B504460D4664
:1005D00005F1B001C8B2FFF7E8FF102141EA14109D
:1005E000FFF7E3FF04F00F0141F00100FFF7DDFF2B
:1005F00070BD70B50646002415E004F1B001C8B224
:10060000FFF7D3FF0120FFF7D0FF1020FFF7CDFF4A
:10061000002504E03046FFF7B8FF681CC5B2802D06
:10062000F8DB601CC4B2082CE7DB70BD10B50020FD
:10063000FFF7DFFF10BD10B58D20FFF7B6FF1420C8
:10064000FFF7B3FFAF20FFF7B0FF10BD10B58D204F
:10065000FFF7ABFF1020FFF7A8FFAE20FFF7A5FFC5
:1006600010BD10B5FFF71CFF642001F036F8AE2076
:10067000FFF79BFF0020FFF798FF1020FFF795FF83
:100680004020FFF792FF8120FFF78FFFC420FFF784
:100690008CFFA120FFF789FFC820FFF786FFA62067
:1006A000FFF783FFA820FFF780FF3F20FFF77DFFC4
:1006B000D320FFF77AFF0020FFF777FFD520FFF761
:1006C00074FF8020FFF771FFD920FFF76EFFF12044
:1006D000FFF76BFFDA20FFF768FF1220FFF765FFD7
:1006E000DB20FFF762FF4020FFF75FFF2020FFF7CE
:1006F0005CFF0220FFF759FF8D20FFF756FF142003
:10070000FFF753FFA420FFF750FFA620FFF74DFF90
:10071000AF20FFF74AFF0020FFF76BFF00210846DC
:10072000FFF753FF10BD2DE9F05F044689461546DB
:100730009A464FF0000B00260027BAF1000F01D1B6
:10074000B04601E04FF0FF0822E0E85D203800F0FD
:10075000FF0B7E2C04DD002409F1010000F0FF09ED
:1007600049462046FFF731FF00260BE00BEB4B011B
:100770004C4A02EB4101895D81EA0800FFF705FF61
:10078000701CC6B2062EF1DBA01DC4B2781CC7B225
:10079000E85D0028D9D1BDE8F09F2DE9F05F07465C
:1007A000884691469B4600250024A246BBF1000FD7
:1007B00001D1002600E0FF2638E019F80A002038B1
:1007C000C5B2782F04DD002708F1010000F0FF0812
:1007D00041463846FFF7F9FE002409E004EB051115
:1007E000314A515C81EA0600FFF7CFFE601CC4B2BB
:1007F000082CF3DB08F10100C1B23846FFF7E5FE33
:1008000000240AE004EB05110831274A515C81EA13
:100810000600FFF7BAFE601CC4B2082CF2DB07F139
:100820000800C7B20AF1010000F0FF0A19F80A0037
:100830000028C2D1BDE8F09F2DE9F04705460E46DD
:10084000174698464FF0000907EB47004FEA400A69
:10085000B8F1000F01D1002400E0FF247E2D02DD5D
:100860000025701CC6B231462846FFF7AEFE4FF099
:1008700000090CE051460AF1010A0C4A515C81EA78
:100880000400FFF782FE09F1010000F0FF09B9F151
:10089000060FEFDBBDE8F087000C01409C81214290
:1008A00000802142362900085E2B00081400002039
:1008B0002DE9F04707460E469046994600244FEA38
:1008C000081AB9F1000F01D1002500E0FF25782FAB
:1008D00002DD0027701CC6B231463846FFF775FEB0
:1008E00000240AE051460AF1010AFD4A515C81EAFE
:1008F0000500FFF74AFE601CC4B2082CF2DB701C36
:10090000C1B23846FFF761FE00240AE051460AF101
:10091000010AF34A515C81EA0500FFF736FE601CCC
:10092000C4B2082CF2DBBDE8F0872DE9F04782461F
:100930000F469046994600244FEA4815B9F1000F3A
:1009400001D1002600E0FF2639465046FFF73DFE64
:10095000002408E0E349495D81EA0600FFF715FE3F
:100960006D1C601CC4B2102CF4DB781CC1B2504664
:10097000FFF72BFE002408E0DA49495D81EA060012
:10098000FFF703FE6D1C601CC4B2102CF4DBBDE845
:10099000F0872DE9FC410746884614461E46002094
:1009A0008DF805000A20B4FBF0F100FB1140303057
:1009B0008DF804000A20B4FBF0F4B4FBF0F100FB66
:1009C000114030308DF803000A20B4FBF0F4B4FB82
:1009D000F0F100FB114030308DF802000A20B4FB2A
:1009E000F0F4B4FBF0F100FB114030308DF8010061
:1009F0000A20B4FBF0F4B4FBF0F100FB11403030FE
:100A00008DF8000000250AE01DF80500302803D10C
:100A100020200DF8050000E003E0681CC5B2042D9D
:100A2000F2DB00BF16B1012E0ED106E000236A46AC
:100A300041463846FFF777FE07E000236A46414605
:100A40003846FFF7AAFE00E000BF00BFBDE8FC810A
:100A50002DE9FF5F81468A461646984600208DF8AC
:100A60000F002E208DF80C000021304601F0EEFD25
:100A700005D286F000462D208DF8080002E02020E7
:100A80008DF80800304601F0ADFD0446642104FBFA
:100A900001F001F0C7FD94490190304601F00AFED3
:100AA0000090019901F0D2FE834601F09BFDC7B290
:100AB0000A20B4FBF0F100FB114030308DF80B0040
:100AC0000A20B4FBF0F4B4FBF0F100FB114030302D
:100AD0008DF80A000A20B4FBF0F404F13000C0B233
:100AE0008DF809000A2097FBF0F100FB11703030FF
:100AF000C0B28DF80E000A2097FBF0F0C7B207F1E4
:100B00003000C0B28DF80D0001250AE002A8405D5A
:100B1000302803D1202002A9485500E003E0681CDA
:100B2000C5B2032DF2DB00BFB8F1000F03D0B8F15E
:100B3000010F0ED106E0002302AA51464846FFF7F6
:100B4000F2FD07E0002302AA51464846FFF725FEC2
:100B500000E000BF00BFBDE8FF9FF0B503461446AC
:100B6000E4B1CD1701EB5575ED1003EBC5155F4EE4
:100B7000755D0A46CE1701EB5676F610A1EBC60757
:100B80000126BE40F6B235430846CE1701EB567635
:100B9000F61003EBC616554FBD551AE0CD1701EB05
:100BA0005575ED1003EBC515504E755D0A46CE1711
:100BB00001EB5676F610A1EBC6070126BE40B54301
:100BC0000846CE1701EB5676F61003EBC616474FD4
:100BD000BD55F0BD70B504460D461DB1E0B2FFF73E
:100BE000D4FC02E0E0B2FFF7E0FC70BD70B5002479
:100BF0001BE004F1B0000021FFF7ECFF0021022010
:100C0000FFF7E8FF00211020FFF7E4FF002508E0D0
:100C100005EBC411354A505C0121FFF7DBFF681C6E
:100C2000C5B2802DF4DB601CC4B2082CE1DB70BDC2
:100C30002DE9FF4F85B081468A4600200390834608
:100C40000798A0EB09050898A0EB0A06CDF80890D4
:100C5000CDF804A0002D01DD012705E00DB9002726
:100C600002E04FF0FF376D42002E02DD4FF0010829
:100C700006E016B94FF0000802E04FF0FF38764268
:100C8000B54201DD2C4600E03446002004901EE011
:100C9000019AD1B2029AD0B2129AFFF75EFF03987E
:100CA00028440390B3440398A04205DD0398001B39
:100CB0000390029838440290A34504DDABEB040B8B
:100CC0000198404401900498401C80B20490611C3B
:100CD00004988842DCDDFFF789FF09B0BDE8F08F9A
:100CE000C41400201A0000200000C842D4140020C0
:100CF0002DE9F84305460E4617469846089C3346AC
:100D00003A46314628460094FFF792FF43462A466A
:100D1000314628460094FFF78BFF43463A4641464A
:100D200028460094FFF784FF43463A46314638464A
:100D30000094FFF77DFFBDE8F88370B504460D46CB
:100D40001646324629462046FFF707FFFFF74EFFBB
:100D500070BD2DE9F04104460D4616461F46DDF8EC
:100D60001880EA19D1B2A219D0B24246FFF7F5FEB7
:100D7000EA19D1B2A21BD0B24246FFF7EEFEEA1B3F
:100D8000D1B2A219D0B24246FFF7E7FEEA1BD1B2B8
:100D9000A21BD0B24246FFF7E0FEAA19D1B2E21977
:100DA000D0B24246FFF7D9FEAA19D1B2E21BD0B2A7
:100DB0004246FFF7D2FEAA1BD1B2E219D0B2424698
:100DC000FFF7CBFEAA1BD1B2E21BD0B24246FFF71F
:100DD000C4FEBDE8F0812DE9F84F81468A46904671
:100DE0001E46002435467000C0F1030716E0EBB242
:100DF000E2B251464846CDF80080FFF7AAFF002F27
:100E000004DA042000FB0470871D06E0601B042147
:100E100001FB007000F10A076D1E641CAC42E6DDA8
:100E2000FFF7E4FEBDE8F88F2DE9F05F06460F46B8
:100E300090461C46DDF828A04FF0000BE11704EBAC
:100E40005171C910A4EBC10131B92046E11704EB7F
:100E50005171C1F3C70506E02046E11704EB51715B
:100E6000C910491CCDB23D4615E029463046FFF772
:100E7000ACFBB1460BE059460BF1010B1AF801002F
:100E80000121FFF7A7FE09F1010000F0FF09C145AC
:100E9000F1DB681CC5B2A542E7DBBDE8F09F0000AE
:100EA00008B50121442001F08FF81C20ADF80000A6
:100EB00048208DF803006946264800F0C9FD08BDAA
:100EC00010B5044614B10120234908702248007867
:100ED00048B310211F4800F04EFE48B108211D48BC
:100EE00000F049FE20B104211A4800F044FED0B9B8
:100EF0000A2000F0F2FB0020174908701021154865
:100F000000F039FE08B9012010BD0821114800F099
:100F100032FE08B90220F7E704210E4800F02BFE4C
:100F2000A8B90320F0E710210A4800F024FE0128A8
:100F30000DD10821074800F01EFE012807D1042129
:100F4000044800F018FE012801D103490870002070
:100F5000DAE70000001801407A07002010B50020F1
:100F6000FE4908700023332219461846FFF7DDFCBE
:100F700000232B2219461020FFF7D7FC00232C2238
:100F800019462020FFF7D1FC00232D2219463020DE
:100F9000FFF7CBFC00232E2219464020FFF7C5FCAB
:100FA0000023342219465020FFF7BFFC00232922DA
:100FB00002211020FFF7B9FC00232A220221202061
:100FC000FFF7B3FC00232D2202213020FFF7ADFCF8
:100FD00000232E2202214020FFF7A7FC00232F220E
:100FE00004211020FFF7A1FC00233022042120203F
:100FF000FFF79BFC00232D2204213020FFF795FCF6
:1010000000232E2204214020FFF78FFC00233122F1
:1010100006212020FFF789FC002332220621302000
:10102000FFF783FC10BD10B50020CC4908700023E9
:101030002B2219461020FFF778FC00232C2219469A
:101040002020FFF772FC00232D2219463020FFF7E5
:101050006CFC00232E2219464020FFF766FC00237B
:10106000332202211846FFF760FC002329220221C7
:101070001020FFF75AFC00232A2202212020FFF72C
:1010800054FC00232D2202213020FFF74EFC0023C8
:101090002E2202214020FFF748FC002334220221A7
:1010A0005020FFF742FC00232F2204211020FFF7DD
:1010B0003CFC0023302204212020FFF736FC0023D3
:1010C0002D2204213020FFF730FC00232E220421A2
:1010D0004020FFF72AFC0023312206212020FFF7C1
:1010E00024FC0023322206213020FFF71EFC10BD15
:1010F00010B500209949087000232B2219461020B2
:10110000FFF713FC00232C2219462020FFF70DFCCB
:1011100000232D2219463020FFF707FC00232E2242
:1011200019464020FFF701FC00232922022110204C
:10113000FFF7FBFB00232A2202212020FFF7F5FB0B
:1011400000232D2202213020FFF7EFFB00232E2267
:1011500002214020FFF7E9FB002333220421184637
:10116000FFF7E3FB00232F2204211020FFF7DDFB14
:101170000023302204212020FFF7D7FB00232D225B
:1011800004213020FFF7D1FB00232E220421402030
:10119000FFF7CBFB0023342204215020FFF7C5FBCF
:1011A0000023312206212020FFF7BFFB002332223B
:1011B00006213020FFF7B9FB10BD10B500206749AC
:1011C000087000232B2219461020FFF7AEFB0023E6
:1011D0002C2219462020FFF7A8FB00232D221946B8
:1011E0003020FFF7A2FB00232E2219464020FFF7F4
:1011F0009CFB0023292202211020FFF796FB0023ED
:101200002A2202212020FFF790FB00232D22022119
:101210003020FFF78AFB00232E2202214020FFF717
:1012200084FB00232F2204211020FFF77EFB0023E4
:10123000302204212020FFF778FB00232D220421F7
:101240003020FFF772FB00232E2204214020FFF7FD
:101250006CFB0023332206211846FFF766FB0023B0
:10126000312206212020FFF760FB002332220621D5
:101270003020FFF75AFB0023342206215020FFF7CD
:1012800054FB10BD10B501203449087000232B22F7
:1012900019461020FFF749FB00232C221946202075
:1012A000FFF743FB00232D2219463020FFF73DFBBB
:1012B00000232E2219464020FFF737FB002328A2E7
:1012C00003211846FFF769FA10BD10B50220234923
:1012D00008700023292219461020FFF726FB00235F
:1012E0002A2219462020FFF720FB00232D22194631
:1012F0003020FFF71AFB00232E2219464020FFF76B
:1013000014FB002316A203211846FFF746FA10BD6E
:1013100010B503201149087000232F221946102010
:10132000FFF703FB0023302219462020FFF7FDFAC8
:1013300000232D2219463020FFF7F7FA00232E2232
:1013400019464020FFF7F1FA002333220221184604
:10135000FFF7EBFA00233522022109E07D07002088
:1013600053756363657373456E74657200000000A6
:101370001020FFF7DAFA0023362202212020FFF79F
:10138000D4FA0023392202213020FFF7CEFA0023BD
:101390003A2202214020FFF7C8FA0023342202211A
:1013A0005020FFF7C2FA0023372204211020FFF754
:1013B000BCFA0023382204212020FFF7B6FA0023CC
:1013C000392204213020FFF7B0FA00233A22042109
:1013D0004020FFF7AAFA0023312206212020FFF740
:1013E000A4FA0023322206213020FFF79EFA10BD16
:1013F00010B503209149087000232F2219461020B0
:10140000FFF793FA0023302219462020FFF78DFAC8
:1014100000232D2219463020FFF787FA00232E22C1
:1014200019464020FFF781FA0023352202211020BF
:10143000FFF77BFA0023362202212020FFF775FAFE
:101440000023392202213020FFF76FFA00233A22CD
:1014500002214020FFF769FA0023332204211846B5
:10146000FFF763FA0023372204211020FFF75DFA0B
:101470000023382204212020FFF757FA00233922C5
:1014800004213020FFF751FA00233A2204214020A2
:10149000FFF74BFA0023342204215020FFF745FACE
:1014A0000023312206212020FFF73FFA00233222B9
:1014B00006213020FFF739FA10BD10B503205F492F
:1014C000087000232F2219461020FFF72EFA002360
:1014D000302219462020FFF728FA00232D22194632
:1014E0003020FFF722FA00232E2219464020FFF772
:1014F0001CFA0023352202211020FFF716FA0023E0
:10150000362202212020FFF710FA0023392202217F
:101510003020FFF70AFA00233A2202214020FFF789
:1015200004FA0023372204211020FFF7FEF90023DC
:10153000382204212020FFF7F8F900233922042162
:101540003020FFF7F2F900233A2204214020FFF770
:10155000ECF90023332206211846FFF7E6F90023B1
:10156000312206212020FFF7E0F900233222062154
:101570003020FFF7DAF90023342206215020FFF74C
:10158000D4F910BD10B500232DA203214020FFF790
:10159000CAF810BD08B52C4808238022002100900D
:1015A0000846FFF741FC08BD08B5284808238022FB
:1015B000002100900846FFF737FC08BD10B504462F
:1015C000022C0AD122482349097800EBC100407857
:1015D00020490870FFF72AF818E0012C0AD11C48AE
:1015E0001C49097800EBC10080781A490870FFF7A0
:1015F0001DF80BE0032C09D115481649097800EBBA
:10160000C100C07813490870FFF710F810BD10B57D
:101610000020FFF755FC1049087008460078FFF7D6
:10162000CDFF0B480B49097800EBC10040680B491E
:10163000086008460068804710BD00007D07002054
:101640006D656E7500000000A40C0020A410002041
:10165000440800207E0700207C070020800700202F
:1016600010B56FF0040000F074F92E4800682E49A0
:10167000B0FBF1F02D4908700846007800EB4001FE
:10168000C1EBC0104FF6FF7101EAC0002849088085
:1016900010BD0146254A12784A434FF0E0235A61B3
:1016A00000229A611A46126942F001021A6100BFD3
:1016B0004FF0E022106900F001021AB100F480320C
:1016C000002AF5D04FF0E022126922F001024FF01B
:1016D000E0231A6100229A6170470146144A128879
:1016E0004A434FF0E0235A6100229A611A46126978
:1016F00042F001021A6100BF4FF0E022106900F0D1
:1017000001021AB100F48032002AF5D04FF0E02235
:10171000126922F001024FF0E0231A6100229A615F
:10172000704700000000002000127A00A41400207E
:10173000A6140020014600BF704700BF494A128826
:1017400002F04002002AF9D0C2B2464B1B1D1A809B
:10175000704710B586B00446012144F2040000F041
:1017600033FC4FF40070ADF8140003208DF8160020
:1017700018208DF8170005A93B4800F069F94FF4CF
:101780008060ADF8140004208DF8170005A93648D4
:1017900000F05EF925208DF8000003208DF801008F
:1017A0008DF8020001208DF80300684600F087F8EC
:1017B00001940020ADF80800ADF80A00ADF80C0067
:1017C000ADF810000C20ADF80E0001A9254800F07E
:1017D000A2FC012240F22551224800F034FD0121F3
:1017E000204800F024FD06B010BD10B540F2255190
:1017F0001C4800F00DFE10B31A4800F089FDC4B279
:101800001A48008800F40040C8B91848008800F45D
:10181000804060B10A2C03D000201449088020E0E9
:101820001248008840F400401049088019E00D2C4F
:1018300006D10E48008840F480400C49088010E032
:101840000A480088C0F30D0009490C540748008875
:10185000401C0649088008460088C72801DD002092
:10186000088010BD0038014000080140AC14002081
:10187000D41800200948804709480047FEE7FEE7E2
:10188000FEE7FEE7FEE7FEE7FEE7FEE7FEE7FEE730
:1018900004480549054A064B7047000053030008F9
:1018A00031010008001A002000200020001C002048
:1018B000001C002031490143314A1160704770B566
:1018C000002100230F22C47804B32D4C246804F4B3
:1018D000E064C4F5E064210AC1F10403CA4044781D
:1018E00004FA03F18478144021430901254C067859
:1018F000A155047804F01F050124AC4005786D1152
:10190000AD0005F1E025C5F8004109E0047804F0D8
:101910001F050124AC401C4D0678761145F8264081
:1019200070BD1A4A0A400243154B1B1F1A607047CC
:1019300039B1134A121D12680243114B1B1D1A6064
:1019400006E00F4A121D126882430D4B1B1D1A60E0
:101950007047042808D14FF0E021096941F00401E3
:101960004FF0E022116107E04FF0E021096921F01A
:1019700004014FF0E0221161704700000000FA05F9
:101980000CED00E000E400E080E100E080FFFF1FDC
:1019900010B50446CC48844208D10121042000F04F
:1019A0002DFB0021042000F029FB46E0C7488442BB
:1019B00008D10121082000F021FB0021082000F0BF
:1019C0001DFB3AE0C248844208D10121102000F0FA
:1019D00015FB0021102000F011FB2EE0BD488442D1
:1019E00008D10121202000F009FB0021202000F077
:1019F00005FB22E0B848844208D10121402000F0D4
:101A0000FDFA0021402000F0F9FA16E0B3488442C4
:101A100008D10121802000F0F1FA0021802000F09F
:101A2000EDFA0AE0AE48844207D10121801500F0AA
:101A3000E5FA0021A01500F0E1FA10BD10B5012172
:101A4000084600F0DBFA0021012000F0D7FA10BDB3
:101A50002DE9F04102460025002600200023002445
:101A6000002791F803C00CF00F0591F803C00CF0AB
:101A7000100CBCF1000F03D091F802C04CEA050530
:101A800091F800C0BCF1000F31D0146800202BE0A9
:101A90004FF0010C0CFA00F3B1F800C00CEA030699
:101AA0009E4220D183004FF00F0C0CFA03F7BC4389
:101AB00005FA03FC4CEA040491F803C0BCF1280FBA
:101AC00006D14FF0010C0CFA00FCC2F814C00AE079
:101AD00091F803C0BCF1480F05D14FF0010C0CFA8E
:101AE00000FCC2F810C0401C0828D1D31460B1F823
:101AF00000C0BCF1FF0F34DD546800202EE000F17F
:101B0000080C4FF0010808FA0CF3B1F800C00CEA19
:101B100003069E4221D183004FF00F0C0CFA03F70D
:101B2000BC4305FA03FC4CEA040491F803C0BCF181
:101B3000280F05D100F1080C08FA0CF8C2F814803F
:101B400091F803C0BCF1480F07D100F1080C4FF029
:101B5000010808FA0CF8C2F81080401C0828CED3FF
:101B60005460BDE8F0814FF6FF7101800221817061
:101B70000421C17070470246002093680B400BB1EE
:101B8000012000E0002070470146886880B270475D
:101B900002460020D3680B400BB1012000E000207A
:101BA00070470146C86880B2704701617047416163
:101BB00070470AB1016100E041617047C160704740
:101BC0004FF480320A438261816182618269826955
:101BD000704702460020434B18684FF68073184048
:101BE00040EA021008433F4B186070473E49C86105
:101BF0007047F0B50A46002300240021002500F0BC
:101C00000046B6F1004F02D1364EF16901E0354E83
:101C10007168C0F3034583B200F44016B6F5401F67
:101C200008D121F070612F4E766826F070662D4F36
:101C30007E6012E000F48016B6F5801F06D1032600
:101C400006FA05F4A14341F0706106E0460D360145
:101C500003FA06F6B14341F0706122B1460D360138
:101C600003FA06F6314300F00046B6F1004F02D108
:101C70001C4EF16101E01B4E7160F0BD30B50022D9
:101C80008B071C0F0F2303FA04F2164B08338C103A
:101C900053F824309343134C08348D1044F8253006
:101CA00023468C1053F824308C07240F00FA04F4D8
:101CB00023430C4C08348D1044F8253030BD0A49BC
:101CC000DC3108607047000000080140000C014052
:101CD000001001400014014000180140001C0140A8
:101CE000002001400000014000002042DF48006861
:101CF00040F00100DD49086008464068DC490840C2
:101D0000DA49486008460068DA490840D74908605F
:101D10000846006820F4802008600846406820F4E7
:101D2000FE0048604FF41F0088607047CF49096883
:101D300021F48031CD4A11601146096821F48021D7
:101D40001160B0F5803F03D0B0F5802F0ED106E0D2
:101D5000C649096841F48031C44A116007E0C349AB
:101D6000096841F4A021C14A116000E000BF00BF32
:101D7000704710B501460022002300204A11012AB5
:101D800002D1BA4C236806E0022A02D1B74C236A7A
:101D900001E0B64C636A01F01F02012494401C402C
:101DA0000CB1012000E0002010BD38B500200090EB
:101DB0000024002500BF3120FFF7DBFF0546009817
:101DC000401C00900098B0F5A06F01D0002DF2D01B
:101DD0003120FFF7CEFF08B1012400E000242046A7
:101DE00038BD01460020A14A106820F0F80040EA02
:101DF000C10010607047A04908607047024600208B
:101E00009A4B586820F47C1042EA01031843974B20
:101E10005860704798490866704701460020934A09
:101E2000506820F003000843506070478F484068B6
:101E300000F00C007047014600208C4A506820F0EA
:101E4000F00008435060704701460020874A506800
:101E500020F4E06008435060704701460020834A48
:101E6000506820F4605040EAC1005060704729B1CA
:101E70007E4A527A02437D4B5A7204E07B4A527A80
:101E800082437A4B5A7270477B49D8310860704759
:101E900001460020754A506820F4404008435060D5
:101EA00070470021714A20321170704A82F8201068
:101EB000012802D004280AD104E001216B4A203213
:101EC000117005E00521694A2032117000E000BF61
:101ED00000BF70476949086070476449096A014357
:101EE000624A11627047654944390860704730B5ED
:101EF00000210022002400235C4D6D6805F00C01D8
:101F000021B1042905D0082923D105E05C4D0560E5
:101F100022E05B4D05601FE0544D6D6805F47012C2
:101F2000524D6D6805F48034022505EB92421CB9D0
:101F3000544D554305600BE04C4D6D6805F400357C
:101F40001DB1504D5543056002E04D4D55430560B0
:101F500002E04B4D056000BF00BF444D6D6805F0C9
:101F6000F0010909484D6B5C0568DD4045603F4D57
:101F70006D6805F4E061090A434D6B5C4568DD401E
:101F800085603A4D6D6805F46051C90A3E4D6B5C41
:101F90004568DD40C560354D6D6805F44041890BED
:101FA0003A4D6B5CC568B5FBF3F5056130BD29B1F1
:101FB0002E4A526902432D4B5A6104E02B4A526962
:101FC00082432A4B5A61704729B1284A92690243D9
:101FD000264B9A6104E0254A92698243234B9A6119
:101FE000704729B1214AD2690243204BDA6104E0EB
:101FF0001E4AD26982431D4BDA61704729B11B4AE0
:10200000D2680243194BDA6004E0184AD26882436E
:10201000164BDA60704729B1144A12690243134B18
:102020001A6104E0114A12698243104B1A61704729
:1020300012494039086070470F49C86470470B491E
:10204000C87170470948406A40F08070074948628B
:10205000704701460020054A92680A400AB10120F3
:1020600000E000207047014988727047001002406C
:102070000000FFF8FFFFF6FE0000424280044242EB
:1020800000127A0000093D00AE140020BE140020AA
:1020900010B50446FB48844209D101218803FFF7AB
:1020A000ADFF00214FF48040FFF7A8FF32E0F64873
:1020B000844209D101214804FFF7ADFF00214FF40C
:1020C0000030FFF7A8FF25E0F048844209D1012144
:1020D0008804FFF7A0FF00214FF48020FFF79BFF4B
:1020E00018E0EB48844209D10121C804FFF793FFAF
:1020F00000214FF40020FFF78EFF0BE0E5488442FB
:1021000008D101210805FFF786FF00214FF4801058
:10211000FFF781FF10BD2DE9F04786B005460E465A
:102120000024A24600BFA1460027B08900B100BF2D
:102130002F462C8A4CF6FF700440F08804432C8212
:10214000AC894EF6F3100440B08831890843718998
:1021500008430443AC81AC8A4FF6FF400440B08989
:102160000443AC8201A8FFF7C2FEC648874202D1F1
:10217000DDF810A001E0DDF80CA0A88900F4004013
:1021800040B10AEBCA0000EB0A1031684900B0FB0D
:10219000F1F807E00AEBCA0000EB0A103168890089
:1021A000B0FBF1F86420B8FBF0F0040120096421D1
:1021B00001FB1089A88900F4004040B1322000EBF7
:1021C000C900B0FBF1F000F00700044308E0322042
:1021D00000EB09106421B0FBF1F000F00F000443A4
:1021E0002C8106B0BDE8F0874FF416510160002144
:1021F0008180C18001810C21418100218181704752
:1022000010B502460020108A4FF2FF0318400B88D9
:102210004C8823438C882343CC8823431843108263
:1022200010BD0021018041808180C180704721B1B3
:10223000828942F40052828104E082894DF6FF7364
:102240001A4082817047F0B503460024002600251D
:10225000002040F66A17B94200D100BF1846C1F30A
:10226000421401F01F06012707FA06F5012C01D1DF
:102270000C3004E0022C01D1103000E014301AB10F
:1022800007682F43076002E00768AF430760F0BDAF
:102290001AB1838A0B43838202E0838A8B43838251
:1022A0007047028A4FF6F0731A400282028A0A438C
:1022B0000282704782894FF2FF731A4082818289BD
:1022C0000A438281704721B1828942F002028281F1
:1022D00004E082894FF6FD731A4082817047028ABA
:1022E0004FF6DF731A400282028A0A430282704765
:1022F00021B1028A42F48042028204E0028A4BF653
:10230000FF731A4002827047C1F30802828070474F
:1023100001468888C0F308007047818941F00101B7
:1023200081817047028BD2B20283028B42EA012282
:1023300002837047028B02F47F420283028B0A43BE
:102340000283704721B1828A42F02002828204E037
:10235000828A4FF6DF731A408282704721B1828AE7
:1023600042F01002828204E0828A4FF6EF731A4034
:102370008282704721B1828A42F00802828204E0A0
:10238000828A4FF6F7731A408282704721B18289A0
:1023900042F40042828103E08289C2F30E0282810C
:1023A000704721B1828A42F40062828204E0828A0C
:1023B0004FF2FF731A4082827047828A4FF6FB7396
:1023C0001A408282828A0A438282704721B1828ABD
:1023D00042F00202828204E0828A4FF6FD731A40C4
:1023E0008282704702460020B1F5007F00D100BF15
:1023F00013880B400BB1012000E00020704701F46E
:102400000072B2F5007F00D100BFCA43028070475E
:1024100070B50246002400230025002040F66A160D
:10242000B14200D100BFC1F3421501F01F030126E4
:1024300006FA03F3012D02D19689334006E0022DFE
:1024400002D1168A334001E0968A33400C120126ED
:1024500006FA04F41688344013B10CB1012000E0F0
:10246000002070BD10B50022002340F66A14A1427E
:1024700000D100BF0A1201249440A3B2DC430480BF
:1024800010BD0000003801400044004000480040FA
:10249000004C004000500040704770477047704744
:1024A0007047754600F02CF8AE4605006946534665
:1024B00020F00700854618B020B5FFF7E9F9BDE820
:1024C00020404FF000064FF000074FF000084FF09B
:1024D000000B21F00701AC46ACE8C009ACE8C0092C
:1024E000ACE8C009ACE8C0098D46704710B5044699
:1024F000AFF300802046BDE81040FDF784BE000029
:10250000004870479C19002090EA010F48BF81F0F5
:10251000004100F1A281421A3CBF801A89184FEA9B
:10252000D0524FF07F4C1CEA410FA2EBD15318BFA1
:102530009CEA026F00F03B804FF0004C4CEA002018
:102540004CEA012121FA03FC10EB0C0C1ED202F123
:10255000FF325FEA1C2040EBC25038BF70471CF0CE
:102560007F0F4FEA400C18BFBCF17F4F38BF704758
:10257000C3F12003994008BF20F00100BCF17F4F58
:1025800038BF7047A0F1C04000F05BB94FEA3C0093
:10259000000A40EBC25028BF1CF0FF0F4FEA400C6E
:1025A000E6D018BFBCF17F4F38BF7047EAE79CEA1E
:1025B000026F05D010EA5C0F08BF00F000407047C2
:1025C00010B500F0F8F800BF64FBBE3E401058BFE5
:1025D000C0F14040491058BFC1F140418142EFF382
:1025E00000807047C10DD1F19E0206DB4FEA002347
:1025F00043F0004323FA02F07047004207D54FEA48
:102600004001B1F1FE4F02D24FF00000704710B50B
:1026100000F0D1F849922480002070476FEA200032
:1026200070470000B0FA80F310FA03F2C3F19D0383
:102630000AD0D90501EB1220530638BF704700F1CC
:10264000010008BF20F001007047000050EA010CB3
:1026500000F113801CF5000F58BFBCF5000F01D42A
:102660008842704707D710F5000F58BF11F5000FCB
:1026700015D488427047894270471CF5000F04D575
:10268000BCF5000FF7D5814270474FF0807C1CEB02
:10269000400F38BF1CEB410F01D28142704710B58B
:1026A00000F089F8922449004FF000504FF080511B
:1026B000FFF78CBF4FF47F0C1CEAD0121EBF1CEA40
:1026C000D11392EA0C0F93EA0C0F00F0478090EAC6
:1026D000010F48BF42F480724FF0004C4CEA0020DA
:1026E0004CEA012102EB0302A0FB0113A2F5000258
:1026F000002918BF43F001035B0028BF4FEA3303F2
:1027000042EB22425FEA132C4CEBC2502EBFBCEBD3
:10271000436FB2F57C0F70474FEA036CBCF1004F7A
:1027200008BF20F00100B2F57C0F38BF70470BD511
:1027300082F0FF0212F5803FC8BF704700F1C04031
:10274000D8BF00F00040704700F5000C5FEA4C0C69
:1027500048BF7047B0F1C04000F073B890EA010F75
:102760000CEAD11348BF42F48072624538BF63451A
:1027700004D280EA010000F00040704710B500F07C
:102780001AF800BF8900013E00F007B800F009B850
:102790005FEA410C5FEA1C6C08D080EA010000F09F
:1027A00050B85FEA400C5FEA1C6CF6D14FF0004075
:1027B000A0F5800070470EF1020E2EF0030E5EF8B9
:1027C000044B244204D44FEA4102B2F17F4F11D8A6
:1027D0004FEA4003B3F17F4F0CD80ED14FEAD07CC3
:1027E000B2F17F4F0CEB4C0C0CF1020C08BF4CEB20
:1027F000D17C04E04FF0080C01E04FEAD17C0CEBF7
:102800004C0324FA03F404F00704B4F1040C06D2D8
:102810000EEB840CBDE810404CF0010C6047DFE883
:102820000CF0070802024FF00040A0F5800010BD38
:102830000846420018BFD2F1807288BF00F0004005
:1028400010BDFF2141EAD050C005704790EA010F4A
:1028500048BF81F000413FF55EAE421A04D882F0D5
:102860000042A0EB020011444FEAD0524FF07F4CDF
:102870001CEA410FA2EBD15318BF9CEA026F4AD069
:102880004FF0004C4CEA00204CEA012121FA03FCF5
:10289000B0EB0C0C0FD412F0FE0F36D05FEA4C00F8
:1028A0001DD5001240EBC25038BF70471CF03F0FDF
:1028B00018BF70470BE0A2F101025FEA1C2040EB59
:1028C000C25038BF70471CF07F0F18BF7047C3F16C
:1028D0002003994014BF401E20F00100704780087B
:1028E0004FEA122308BF7047B0FA80FCA2EB0C023B
:1028F000CCF1280C60FA0CF093EA122F04BF00EB25
:10290000C25070474FEAC3707047130A5FEADC1089
:1029100008BF7047F6E79CEA026F04D010EA5C0F2C
:1029200008BF0020704710B5FFF745FF40DFF63EB7
:1029300081F0004070470000000000000000002F00
:10294000000000000700070000147F147F1400241B
:102950002A7F2A1200626408132300364955225048
:1029600000000503000000001C224100000041227D
:102970001C000014083E08140008083E0808000067
:1029800000A060000008080808080000606000005F
:10299000002010080402003E5149453E0000427FDD
:1029A0004000004261514946002141454B31001829
:1029B00014127F10002745454539003C4A494930EB
:1029C00000017109050300364949493600064949A5
:1029D000291E0000363600000000563600000008B0
:1029E000142241000014141414140000412214088D
:1029F00000020151090600324959513E007C121172
:102A0000127C007F49494936003E41414122007F06
:102A10004141221C007F49494941007F09090901C0
:102A2000003E4149497A007F0808087F0000417F45
:102A30004100002040413F01007F08142241007FF7
:102A400040404040007F020C027F007F0408107F5E
:102A5000003E4141413E007F09090906003E4151C7
:102A6000215E007F09192946004649494931000184
:102A7000017F0101003F4040403F001F2040201FD8
:102A8000003F4038403F006314081463000708709B
:102A9000080700615149454300007F41410000554E
:102AA0002A552A55000041417F000004020102041A
:102AB0000040404040400000010204000020545407
:102AC0005478007F48444438003844444420003857
:102AD0004444487F00385454541800087E090102C9
:102AE0000018A4A4A47C007F080404780000447D9E
:102AF0004000004080847D00007F102844000000DA
:102B0000417F4000007C04180478007C08040478AD
:102B100000384444443800FC242424180018242499
:102B200018FC007C08040408004854545420000495
:102B30003F444020003C4040207C001C2040201CA2
:102B4000003C4030403C004428102844001CA0A019
:102B5000A07C004464544C44141414141414000055
:102B60000000000000000000000000000000000065
:102B700000F80000000000000033300000000010EA
:102B80000C06100C0600000000000000000040C011
:102B90007840C0784000043F04043F040400007003
:102BA00088FC08300000001820FF211E0000F008FB
:102BB000F000E018000000211C031E211E0000F0A0
:102BC0000888700000001E212324192721101016E8
:102BD0000E000000000000000000000000000000E7
:102BE00000E0180402000000000718204000000266
:102BF0000418E000000000402018070000004040DA
:102C000080F0804040000202010F0102020000003B
:102C100000F0000000000101011F0101010000009F
:102C200000000000000080B0700000000000000004
:102C3000000000000000000101010101010100008D
:102C40000000000000000030300000000000000024
:102C5000000080601804006018060100000000E019
:102C600010080810E000000F102020100F000010C6
:102C700010F8000000000020203F2020000000701D
:102C80000808088870000030282422213000003015
:102C90000888884830000018202020110E0000000D
:102CA000C02010F8000000070424243F240000F88E
:102CB0000888880808000019212020110E0000E073
:102CC000108888180000000F112020110E00003815
:102CD0000808C83808000000003F0000000000702D
:102CE000880808887000001C222121221C0000E0B6
:102CF00010080810E0000000312222110F0000002F
:102D000000C0C000000000000030300000000000E3
:102D10000080000000000000806000000000000053
:102D200080402010080000010204081020004040EC
:102D3000404040404000040404040404040000082F
:102D400010204080000000201008040201000070E4
:102D500048080808F0000000003036010000C030CC
:102D6000C828E810E0000718272423140B000000EF
:102D7000C038E0000000203C23020227382008F879
:102D8000888888700000203F202020110E00C0306D
:102D9000080808083800071820202010080008F844
:102DA00008080810E000203F202020100F0008F83D
:102DB0008888E8081000203F20202320180008F809
:102DC0008888E8081000203F200003000000C03081
:102DD00008080838000007182020221E020008F802
:102DE00008000008F808203F210101213F200008C9
:102DF00008F8080800000020203F20200000000004
:102E00000808F8080800C08080807F00000008F8EB
:102E100088C028180800203F20012638200008F824
:102E2000080000000000203F20202020300008F88B
:102E3000F800F8F80800203F003F003F200008F8A5
:102E400030C00008F808203F200007183F00E010BD
:102E500008080810E0000F10202020100F0008F8CC
:102E600008080808F000203F210101010000E010DF
:102E700008080810E0000F18242438504F0008F804
:102E8000888888887000203F2000030C3020007064
:102E90008808080838000038202121221C00180862
:102EA00008F8080818000000203F2000000008F87B
:102EB00008000008F808001F202020201F000878C4
:102EC000880000C83808000007380E010000F80824
:102ED00000F80008F800033C0700073C030008184E
:102EE00068808068180820302C03032C30200838B4
:102EF000C800C83808000000203F2000000010086B
:102F00000808C838080020382621202018000000B2
:102F100000FE020202000000007F40404000000C62
:102F200030C000000000000000010638C0000002B0
:102F30000202FE000000004040407F000000000050
:102F40000402020204000000000000000000000073
:102F5000000000000000808080808080808000026F
:102F6000020400000000000000000000000000005B
:102F70008080808000000019242222223F2008F84F
:102F8000008080000000003F112020110E00000092
:102F9000008080800000000E112020201100000021
:102FA00000808088F800000E112020103F200000D3
:102FB000808080800000001F2222222213000080D7
:102FC00080F0888888180020203F20200000000022
:102FD000808080808000006B94949493600008F857
:102FE000008080800000203F210000203F200080E2
:102FF0009898000000000020203F202000000000E2
:1030000000809898000000C08080807F000008F851
:10301000000080808000203F24022D302000000826
:1030200008F8000000000020203F202000008080E1
:10303000808080808000203F20003F20003F8080F3
:10304000008080800000203F210000203F20000001
:10305000808080800000001F202020201F008080B2
:1030600000808000000080FFA12020110E000000E1
:10307000008080808000000E112020A0FF808080D2
:1030800080008080800020203F212000010000007F
:103090008080808080000033242424241900008054
:1030A00080E0808000000000001F20200000808061
:1030B000000000808000001F202020103F20808022
:1030C00080000080808000010E30080601008080B2
:1030D0000080008080800F300C030C300F000080D7
:1030E0008000808080000020312E0E312000808002
:1030F00080000080808080818E7018060100008032
:103100008080808080000021302C2221300000004F
:103110000000807C020200000000003F40400000F0
:103120000000FF00000000000000FF00000000029F
:10313000027C800000000040403F000000000006CC
:103140000101020204040000000000000000000071
:103150007031000800000020C41400006C01000859
:10316000983C0008C41400203C0B0000D00100086B
:10317000500600A24A040001000A290102030406C5
:1031800007080900013026F0781C06060202928A20
:103190008400C0F0381807FFE7000203C3A3210131
:1031A000C1848A92820202060C78F0C02A100E2195
:1031B000C10143E3030200EEFF0E1838142011078B
:1031C0001F7080E000010F1F70E0C30403000324A0
:1031D000100D030D317060C0C0E16746183C14301B
:1031E0001984C7E4781F0F0100E080701F073C18A6
:1031F0004667E1C0C06060310D2C500F0C12120CFC
:1032000000F0180C0404040C18308F200A0F18303A
:1032100020202030180C9C200D80C0E0F0F8FCFC31
:10322000F8F0E0C080DF2101127F013109111F2178
:103230000112FC0131092500100B03070F1F3F3F4E
:103240001F0F07031F12005923FF540112FF63844D
:103250004B000011118985939191FD91919385897E
:103260001111000484E45C44C4007C4040FF4040F1
:103270007C000002017F10103F007E40407F4040F4
:10328000FE0000101010FF109000F80808090E084A
:103290000808000444827F0180601F3C3007FE1252
:1032A0009292F29204121E8F1010601F0404FC47C9
:1032B000240C1427344C44440034113C220846109A
:1032C000041010F050502A30101F088848300E01AA
:1032D0004080403F000008CC4A49484ACC18007F53
:1032E00088888482E00000FF121252927F00007EE4
:1032F000103183940410F0F8AE151C173F3F2145A0
:10330000BC3005607050080123F0F012140B20301F
:10331000302828242422212141212030043030303B
:103320001F300490F0603E20061838202021015400
:1033300004121E0CFF700480402062240D04060558
:1033400005040424243F3F242431B8060000E0E0B3
:10335000E02D88043838383A257E1006FF8080A09A
:1033600090AE458011C3140B402112040810202098
:103370004040202009FC242424FC25262408340F66
:10338000040040308F80844C55252525554CB010C5
:103390000C0202F2121212F2020202FE0435FE15B3
:1033A000B314050F0040800540100000404042CC9F
:1033B0000040A09E8282829EA0F3340B3F90884002
:1033C000432C10284641F0492042C00165FF437F4D
:1033D0000701240E002010E824272424E424342CA0
:1033E000204E15A012090130067F090949896101A3
:1033F0001EA049A20D183B0325DE240508887F88FE
:103400008225431806FF0008040298200401024C9C
:10341000C2200E4454547F545444202827E4342CB2
:10342000812007FF1555957F007E280409091FA1FB
:103430003700F033210131F0297931043112115C68
:103440003408C8380C0B0808E8E519A0112C124103
:1034500001227F05141A4000424A52FE51498286D9
:103460004A52A2524A868000100C03FF02041053F5
:103470001949131210401809F94A48C84820D817AA
:1034800045131010E0140D0F20403F804021160816
:1034900016214080200AE000FF10200888780F6283
:1034A0001F8800520312FF4514098344231807188C
:1034B0006281403F08F73F032C045454F440032436
:1034C00007809090494D57BF274D45C01C051010EF
:1034D00014D45D032007FC525252D31260100840EE
:1034E00050575555557F043B5750003C04424458B3
:1034F0005D034C045048468F03210152FF081D1103
:1035000003100C88C43380824222121A2622902192
:10351000E0100700404242427E042642124004006E
:10352000FE22014AFE104004407F4201252449202A
:1035300019642407A4242222A36241280D201F20FD
:10354000584750484542454850807AFE62314118FC
:1035500005007F20201148052427202061114A20E2
:1035600005C27E42C26E4E400B031E0C9A04263FDB
:10357000812E704F031005AC632018F6180BFF90D6
:10358000494A484000226722AF1C0A404020130CE1
:10359000142241F85F041404E4040F1A1807F444D9
:1035A000CF444444E03C0D407D44447D4445447C4C
:1035B00044457C00031BC2B2BC20048282FE061577
:1035C000701620524804040241DE2D6004140CD011
:1035D000FF9014E4AFA4A4A4AFE40F1D3005240CA5
:1035E000FF00894B2A1A0E1A2A4B88602290013D4F
:1035F00040041004111610911C0460203F12043086
:103600000900030C102040F800FF3409FE8292925A
:10361000FE929282221C073F10887F001E54032ACC
:103620005E803D4003540A04F49494FF9494F4049F
:1036300020040A41484442415F41424448405D05FC
:10364000057C07FEFE3E0E060217041DA10534048C
:103650007C7060BF100502060E3E1F711B1C0540EA
:1036600060707CBF055DEB053D3E03197D51011D7A
:10367000B0038B4846DF2C0F4000C8B88FE888C8DD
:1036800020900C030C9050041C04081808C9051362
:10369000003FC235A02DF90483C838402D7D034377
:1036A000FF41011EFFBD04011E40051E200D1EC06E
:1036B000047E019605220AEC2DFE0629E611DA1E8B
:1036C000053C0402110B145212046E0AB007D130EB
:1036D000E114A130160632D20760E114A1301208BD
:1036E0006852092861786114D212041C16000A0B72
:1036F0000185150008010402055D0F0008020103A1
:10370000062741041C0603020407F149041E044F66
:10371000071C0EBB110008050505018512000806EF
:10372000320812CB081407070908081113C910053D
:10373000070909F108100E09080704BB1400080A5C
:103740000B0B00955030070B0A0A00A9158B019F3F
:10375000014EF05F074FE0E06A0632A0013D04072A
:10376000610A63C0C02C711D000446088270803F4E
:10377000033C6609100C43436060602020A0A2A2B5
:10378000B20112B0011007B2323232B2B3091C07D3
:10379000B3B3B2B2A2A20A071C07606360604040E4
:1037A000AA0404044980F01F021806030E70C0200A
:1037B000D71C0403030740093D6D091004033FFFB4
:1037C0000122FE0553FF0F13111D2D5E0904064E45
:1037D0004080E03C0785A40801071C38E0D0201792
:1037E000321F7D927F6B080956800080C8703C0EA6
:1037F000030A1C0901030E1C3A74E8D0E3063D5588
:103800000A50041FFF3F7E4C08A0D0E070381D0E08
:103810005E0A095E91258810070E1C1C383870015D
:1038200000066438181C0E06780185015F80800848
:10383000095F40405C0A016074540B1028284484DE
:103840000400828202E22C0718001C000098590C28
:1038500000073E068484486830D51C043878C46C60
:103860000D801102020383C34262361C8080C04077
:1038700040C080E04C10C060100C072360607030C6
:103880003038381810B50B190300082430FF337096
:10389000703010C51C063824542022AB08201002BA
:1038A0000A1260C3020434F800383C4446427811DE
:1038B000DA2D190D1C048042036F092C05020160EA
:1038C000005F081D5E081F090FE8042E38FD08156B
:1038D000792C0670080480820F0710080202040881
:1038E0007804842A1E000A063C040C7860E40B4C21
:1038F00004F01808C9090404160C8878112D1F0A51
:103900004C0C4040467F01A1A1A1A02121F0072C31
:1039100005060F0919D10C1F180FFC094F0704BA2F
:103920000C4F0907690C1F3C0367061DEB0D3C0A91
:10393000F1E1E0E2C8CAD2D383DD0D1C1190888585
:103940008891910101405000081C6383022B0E5E98
:1039500006F8031C041E1321290E2E20E70A1D4B16
:103960000812044F3E88C30515542C044EDF514FF6
:103970000E1D8D0D1D6F0A0C05192486AB38F70539
:103980001C04C060206909335C87DB1E013F0E2CDC
:103990000D1F3F5F5F5F1F9F9FBF9F9F9F7C041D09
:1039A000CF085F7830710D1601112C121010C4046D
:1039B0000870001020E040404C42506262A30A2090
:1039C000140212121109080C649C4E13AD5023A46A
:1039D000484810909D6C09031290583C0405052F2F
:1039E0000D1DE90B21B321015DF60820070C1722FC
:1039F000020440C3170101A02DA80E3DEC0B3DFAB7
:103A00000D4250DD3D9B0D1C0D84801090406A0AD4
:103A100098C90D5731450A3D690C3D83081D64085E
:103A200031351132100B0020004041C0C24120242A
:103A3000641208266DA80415EB1F212148033D845C
:103A400009080928A04000902050A0C0B61C092CED
:103A500002002994920846740C1DC40A78050020BF
:103A600040808A4C041020001D103DC20C1D6309CB
:103A70001C07204000113142040E8F18303B0E020B
:103A800090FF014D231001242D2D7310123F05B11D
:103A900011A101323F01A122E1422019070380C197
:103AA000434747C7CF6F6FC7C7CFEFECE3C2E4E42C
:103AB000E4E0E0E3013007C3C3C1C1C1E101500E3E
:103AC000E3C2C2C5C5C545050503030B03011DEAD5
:103AD000101E3014082C06607070F0F00B06600F9A
:103AE00058B8B0B8B8B8F8F8F8DADCDCDCCC014388
:103AF000C484012D980A2DA50750040F1FBFBD1DBA
:103B000010111004FCFC3830400BF81818181CDC9D
:103B1000DE7E3E3EAF850E1C10FEBEBE9E8C4C4C23
:103B20007C3C1C1C3C3C0C0C7211112B6C05183895
:103B3000F8889C0B1EF886111008041C1C1C3E26DD
:103B400027011406474F5D5E5E0F25071004FFBF77
:103B50002F0110076F4FCE8E060F012C049FF766C2
:103B60007F0F3EF7B507373F1F652C0518FE5F5FD7
:103B700043083E8721122012030604C4E48482C253
:103B8000E3818180E0E0838381013DED031DBA0381
:103B900031011EFC750338084060E0B0988F8FB18A
:103BA0001D2105155CE004FFE0C0011D181214087A
:103BB000E0F87060606878185271011D3B0517309D
:103BC00038911E1FD3044C1480C0FC7C46464243EF
:103BD0000C1C1C190F0F1F7DF1E181C4087101F24B
:103BE00001013D42041C0540406020E5094FA1B0A1
:103BF000810D2E1094121D73090E24C089061D9785
:103C0000100C05116030381C28081DA1122E0ECF93
:103C1000051E6024130E1380D7064E02BB121D80B2
:103C200009100A090C04263212121A0A017DE11346
:103C30000E16016F052C0AC040E0E0F0F0181C0CD5
:103C400026080D259F0835091C0A060E1E7EFCC499
:103C5000040C0C8E0D231818EC2D81132E20620AF3
:103C60003D7D073D5D115D89071D990A1D64122D7B
:103C7000C3051E18BB042D8D051D3A1435443DE5C2
:103C8000030D250F0A2DA6146DAA140007000204C7
:083C900006080000000000001E
:0400000508000131BD
:00000001FF
