:020000040800F2
:10000000C81800209D180008AD040008AF040008BF
:10001000B3040008B7040008BB0400080000000097
:10002000000000000000000000000000BF04000805
:10003000C104000800000000C3040008C504000853
:10004000B7180008B7180008B7180008B718000854
:10005000B7180008B7180008B7180008B718000844
:10006000B7180008B7180008B7180008B718000834
:10007000B7180008B7180008B7180008B718000824
:10008000B7180008B7180008B7180008B718000814
:10009000B7180008B7180008B7180008B718000804
:1000A000B7180008B7180008B7180008B7180008F4
:1000B000B7180008B718000851390008B718000829
:1000C000B7180008B7180008B7180008B7180008D4
:1000D000B718000813180008B718000855080008DA
:1000E000B7180008B7180008B7180008B7180008B4
:1000F000B7180008B7180008B7180008B7180008A4
:10010000B7180008B7180008B7180008B718000893
:10011000B7180008B7180008B7180008C907000882
:10012000B7180008B7180008B7180008B718000873
:1001300000F002F800F0B4F80AA090E8000C824445
:100140008344AAF10107DA4501D100F0A9F8AFF222
:10015000090EBAE80F0013F0010F18BFFB1A43F0A5
:1001600001031847086900002869000010F8013BE6
:100170000A4413F0030408BF10F8014B1D1108BF17
:1001800010F8015B641E05D010F8016B641E01F8C5
:10019000016BF9D1002D15D010F8014B03F00C03C1
:1001A0000C2BA1EB04040ABF10F8013BA4EB831451
:1001B000A4EB032405F1010314F8016B5B1E01F8A5
:1001C000016BF9D5914238BF10F8013BD1D370478C
:1001D0000023002400250026103A28BF78C1FBD850
:1001E000520728BF30C148BF0B6070476E2904F02A
:1001F0006D83702904F00D82662905F072876529E8
:1002000005F06F87672905F06C876129AFF30080DF
:1002100003681B0A28BF41F08001692904F07E8130
:10022000642904F07B81752904F078816F2904F03A
:100230006484782904F0D981E92904F0FF83E42952
:1002400004F0FC83F52904F0F983EF2904F06184BC
:10025000F82904F0D8810368DB0928BF41F0800148
:10026000632904F06E83732904F07383E32904F097
:10027000B986F32904F0BE86002070471FB504F04C
:100280000FFF04000020002105F008FC401C606006
:100290000020002105F0ECFBE0601FBD10B510BD93
:1002A00004F0D0FE1146FFF7E9FF00F009F804F072
:1002B000ADFF03B4FFF7F2FF03BC01F04FFA0000FB
:1002C00008B500200090002400278046814600BF2A
:1002D00000BF00BF0025002601F0D6F94FF4A06052
:1002E00001F0FCFA4FF4165001F047FA00F0DCF987
:1002F00000F000FA574841684820884701F034F977
:1003000000F013FD002354A21946032000F0A9FDBC
:1003100001F081F94FF47A7001F0F3F901F07BF903
:1003200000F056FB00204E49088092E0002000F0CB
:10033000FBF900909DF80000012804D002280AD0A3
:10034000032822D114E0012346A20721782000F0DF
:100350004EFD012719E0012343A20721782000F078
:1003600046FD4FF001084FF0000901F054F90CE090
:1003700001233EA20721782000F039FD4FF001094A
:100380004FF0000801F047F900BF00BFB8F1010FBE
:1003900028D10A2001F0B5F92046611CCCB20A2808
:1003A00020DD002401F03DF93148007818B93148CA
:1003B0000068851B00E0002501232A460021322029
:1003C00000F04BFE01232CA20021642000F049FD27
:1003D00001232AA20021032000F043FD294629A081
:1003E00004F040F8B9F1010F33D1012329A2002113
:1003F000032000F036FD0A2001F083F92046611C3D
:10040000CCB20A281ADD002401F00BF91848007854
:1004100018B918480068851B00E0002501232A460A
:100420000021322000F019FE012313A200216420D4
:1004300000F017FD294613A004F014F8012F08D18D
:10044000294616A000F094FA0BA116A000F090FA2D
:1004500000276BE7EC0700207265616479000000FB
:1004600016000020300000003100000032000000C3
:100470008C07002088070020670000007765696707
:1004800068740000BEBBD6D8C1BF203D20256420C3
:10049000670D0A00626C75652020000025640D0A56
:1004A0000000000025730D0A00000000704700BF27
:1004B000FEE700BFFEE700BFFEE700BFFEE77047B4
:1004C00070477047704700000CB500200190009005
:1004D0006C48006840F480306A49086000BF694891
:1004E000006800F4003000900198401C01900098D2
:1004F00018B90198B0F5A06FF1D16248006800F416
:10050000003010B10120009001E000200090009820
:10051000012843D15C48006840F010005A49086047
:100520000846006820F0030008600846006840F0B4
:1005300002000860534840685249486008464068D5
:1005400048600846406840F480604860084640685B
:1005500020F47C1048600846406840F4E810486089
:100560000846006840F08070086000BF4548006899
:1005700000F000700028F9D04248406820F00300E5
:10058000404948600846406840F00200486000BFAB
:100590003C48406800F00C000828F9D10CBD10B5AB
:1005A000FFF792FF10BD10B53648006840F001001B
:1005B0003449086008464068344908403149486079
:1005C00008460068324908402E490860084600681D
:1005D00020F4802008600846406820F4FE0048604F
:1005E0004FF41F008860FFF7DAFF4FF000602949E1
:1005F000086010BD10B5002100200022214B5B686F
:1006000003F00C0121B1042906D0082928D107E004
:10061000214B224C236027E01F4B204C236023E01A
:10062000184B5B6803F47010164B5B6803F4803260
:10063000022303EB904022B9194B4343174C23602C
:100640000DE0104B5B6803F4003323B1144B4343BC
:10065000124C236003E0104B4343104C236003E033
:100660000D4B0E4C236000BF00BF064B5B68C3F30D
:1006700003130C4CE15C094B1B68CB40074C236017
:1006800010BD000000100240002002400000FFF8F2
:10069000FFFFF6FE08ED00E000127A0000000020E7
:1006A00000093D000400002008B50121482001F0A8
:1006B0009FFC2020ADF8000010208DF803000320DF
:1006C0008DF802006946094801F0D6F92021074853
:1006D00001F07FFA2020ADF800006946044801F0DF
:1006E000CBF92021024801F074FA08BD000C01404A
:1006F0000018014008B50121442001F079FC1C20BC
:10070000ADF8000048208DF8030069462B4801F041
:10071000B3F90120ADF8000028208DF803006946E8
:10072000274801F0A9F908BD10B5044614B101200D
:10073000244908702348007848B310211F4801F06D
:100740002EFA48B108211D4801F029FA20B10421F0
:100750001A4801F024FAD0B90A2000F0D2FF002094
:10076000184908701021154801F019FA08B901203C
:1007700010BD0821114801F012FA08B90220F7E76C
:1007800004210E4801F00BFAA8B90320F0E710216C
:100790000A4801F004FA01280DD10821074801F0A8
:1007A000FEF9012807D10421044801F0F8F90128D5
:1007B00001D1044908700020DAE700000018014068
:1007C000000801401400002010B501211F4802F06C
:1007D00070FD68B11E48008840F400401C49088044
:1007E00001211A4802F076FD0021184802F098FA1B
:1007F00010BD7FB505460C460121202001F005FC07
:10080000ADF80450ADF800400020ADF80600ADF89A
:10081000020069460D4801F027FF012211460B48EE
:1008200002F099FA0121094802F07AFA37208DF88E
:100830000C0000208DF80D0002208DF80E00012024
:100840008DF80F0003A801F04EF87FBD00140040A2
:100850001600002010B540F22551574801F0ECFD7C
:10086000F8B1554801F068FDC4B25448008800F45E
:100870000040B0B951480088B0F5167F12DA002167
:100880004F4802F0E1FC4D48008818B901214C485E
:1008900002F046FA49490888411C484A11804949F2
:1008A0000C5405E04548008840F400404349088066
:1008B00010BD10B586B004460121082001F098FB58
:1008C0000121880401F0A1FB3B4801F0F5FB4FF446
:1008D0008060ADF8100003208DF8120018208DF80C
:1008E000130004A9384801F0C7F84FF40060ADF8D0
:1008F000100004208DF8130004A9334801F0BCF85F
:1009000000940020ADF80400ADF80600ADF8080032
:10091000ADF80C000C20ADF80A006946264801F03D
:100920000EFC0121244801F096FC012240F22551E1
:10093000214801F09CFC27208DF8140002208DF83E
:10094000150003208DF8160001208DF8170005A86A
:1009500000F0C9FF41F61F416320FFF74AFF002066
:10096000164908800021164802F0DAF906B010BDD9
:100970000FB438B505A800901448009A049903F004
:100980005FFD00200090114803F012FF85B20024A3
:100990000DE000BF4021084801F038FD0028F9D0E3
:1009A0000A48015D044801F0C3FC601C84B2AC42FB
:1009B000EFDB38BC5DF814FB004800401600002057
:1009C00000140040E0080020000C0140380B00201B
:1009D00010B54FF41650FFF76CFF10BD70B50F2621
:1009E00031E00120554908600A2000F08AFE54A039
:1009F000FFF7BEFF00250AE00A2000F082FE534800
:100A0000008800F4004000B103E0681CC5B2142D5A
:100A1000F2DB00BF0020494908604C48008800F420
:100A2000004080B149480088C4B20020474908808E
:100A30000D2C08D1464800782B2804D144488079F1
:100A40003038C4B204E0301EA6F10101CEB2C8D1E4
:100A500000BF06B9FF24204670BD2DE9F0410546D0
:100A60000F2730E00120354908600A2000F049FED8
:100A7000294638A0FFF77CFF00203849C1F89001D3
:100A800000260AE03148008800F4004000B106E08A
:100A9000052000F036FE701CC6B2142EF2DB00BF3B
:100AA0002A48008800F4004068B128480088C4B291
:100AB000002026490880042C05D1254800784F28BD
:100AC00001D1002404E0381EA7F10101CFB2C9D141
:100AD00000BF07B9FF242046BDE8F08170B5044689
:100AE0000120164908600A2000F00BFE214619A0DB
:100AF000FFF73EFF00260AE01448008800F400409B
:100B000000B106E00A2000F0FCFD701CC6B2322ED7
:100B1000F2DB00BF0020094908600C48008800F49F
:100B2000004050B109480088C5B20020074908803C
:100B3000074948550AA003F095FC70BD9001214279
:100B400041542B524F4C453F0D0A00001600002027
:100B5000E008002025730D0A00000000000021427B
:100B60000D0A25730000000008B50121082001F0DE
:100B70003FFAC020ADF8000010208DF803000320DC
:100B80008DF802006946F64800F076FFC021F4486F
:100B900001F01FF808BD10B50120F249086000F00F
:100BA0008CFD0120F049C1F8980100F086FD00207D
:100BB000EC490860012000F080FD0020EA49C1F8FE
:100BC000980110BD10B50020E6490860012000F032
:100BD00074FD0020E449C1F89801012000F06DFD8A
:100BE0000120E049086000F068FD0120DE49C1F8FD
:100BF000980110BD70B5044600251DE004F080008A
:100C000018B10120D749086002E00020D5490860EA
:100C1000012000F052FD0120D249091F086000F0B8
:100C20004CFD0020D049C1F89801012000F045FD9D
:100C30006006040E681CC5B2082DDFDB0120C9491F
:100C4000091F086000F039FD0020C749C1F898016C
:100C500070BD10B50446FFF79EFF7820FFF7CAFF6E
:100C60004020FFF7C7FF2046FFF7C4FFFFF7AAFFAA
:100C700010BD10B50446FFF78EFF7820FFF7BAFFCE
:100C80000020FFF7B7FF2046FFF7B4FFFFF79AFFFA
:100C900010BD70B504460D4605F1B001C8B2FFF7AE
:100CA000E8FF102141EA1410FFF7E3FF04F00F0101
:100CB00041F00100FFF7DDFF70BD70B5064600246E
:100CC00015E004F1B001C8B2FFF7D3FF0120FFF730
:100CD000D0FF1020FFF7CDFF002504E03046FFF7DE
:100CE000B8FF681CC5B2802DF8DB601CC4B2082CAC
:100CF000E7DB70BD10B50020FFF7DFFF10BD10B5BA
:100D00008D20FFF7B6FF1420FFF7B3FFAF20FFF7EA
:100D1000B0FF10BD10B58D20FFF7ABFF1020FFF71F
:100D2000A8FFAE20FFF7A5FF10BD10B5FFF71CFF11
:100D3000642000F0E6FCAE20FFF79BFF0020FFF7E9
:100D400098FF1020FFF795FF4020FFF792FF8120CA
:100D5000FFF78FFFC420FFF78CFFA120FFF789FF6B
:100D6000C820FFF786FFA620FFF783FFA820FFF724
:100D700080FF3F20FFF77DFFD320FFF77AFF0020A1
:100D8000FFF777FFD520FFF774FF8020FFF771FF93
:100D9000D920FFF76EFFF120FFF76BFFDA20FFF796
:100DA00068FF1220FFF765FFDB20FFF762FF40209E
:100DB000FFF75FFF2020FFF75CFF0220FFF759FFDE
:100DC0008D20FFF756FF1420FFF753FFA420FFF7F5
:100DD00050FFA620FFF74DFFAF20FFF74AFF00208E
:100DE000FFF76BFF00210846FFF753FF10BD2DE909
:100DF000F05F0446894615469A464FF0000B0026E0
:100E00000027BAF1000F01D1B04601E04FF0FF0812
:100E100022E0E85D203800F0FF0B7E2C04DD00248A
:100E200009F1010000F0FF0949462046FFF731FFB4
:100E300000260BE00BEB4B014C4A02EB4101895DB4
:100E400081EA0800FFF705FF701CC6B2062EF1DB31
:100E5000A01DC4B2781CC7B2E85D0028D9D1BDE896
:100E6000F09F2DE9F05F0746884691469B46002596
:100E70000024A246BBF1000F01D1002600E0FF26AE
:100E800038E019F80A002038C5B2782F04DD0027B1
:100E900008F1010000F0FF0841463846FFF7F9FE6F
:100EA000002409E004EB0511314A515C81EA060097
:100EB000FFF7CFFE601CC4B2082CF3DB08F1010081
:100EC000C1B23846FFF7E5FE00240AE004EB051145
:100ED0000831274A515C81EA0600FFF7BAFE601C20
:100EE000C4B2082CF2DB07F10800C7B20AF1010016
:100EF00000F0FF0A19F80A000028C2D1BDE8F09FEF
:100F00002DE9F04705460E46174698464FF0000972
:100F100007EB47004FEA400AB8F1000F01D1002467
:100F200000E0FF247E2D02DD0025701CC6B2314694
:100F30002846FFF7AEFE4FF000090CE051460AF1DB
:100F4000010A0C4A515C81EA0400FFF782FE09F1B4
:100F5000010000F0FF09B9F1060FEFDBBDE8F087F3
:100F6000000C01409C81214200802142E660000883
:100F70000E630008180000202DE9F04707460E46D2
:100F80009046994600244FEA081AB9F1000F01D1A2
:100F9000002500E0FF25782F02DD0027701CC6B277
:100FA00031463846FFF775FE00240AE051460AF143
:100FB000010AFD4A515C81EA0500FFF74AFE601C08
:100FC000C4B2082CF2DB701CC1B23846FFF761FED8
:100FD00000240AE051460AF1010AF34A515C81EA11
:100FE0000500FFF736FE601CC4B2082CF2DBBDE83A
:100FF000F0872DE9F04782460F4690469946002437
:101000004FEA4815B9F1000F01D1002600E0FF2694
:1010100039465046FFF73DFE002408E0E349495DAC
:1010200081EA0600FFF715FE6D1C601CC4B2102C8F
:10103000F4DB781CC1B25046FFF72BFE002408E019
:10104000DA49495D81EA0600FFF703FE6D1C601C6A
:10105000C4B2102CF4DBBDE8F0872DE9FC41074653
:10106000884614461E4600208DF805000A20B4FB71
:10107000F0F100FB114030308DF804000A20B4FB81
:10108000F0F4B4FBF0F100FB114030308DF80300B8
:101090000A20B4FBF0F4B4FBF0F100FB1140303057
:1010A0008DF802000A20B4FBF0F4B4FBF0F100FB71
:1010B000114030308DF801000A20B4FBF0F4B4FB8D
:1010C000F0F100FB114030308DF8000000250AE0FF
:1010D0001DF80500302803D120200DF8050000E0A0
:1010E00003E0681CC5B2042DF2DB00BF16B1012E6F
:1010F0000ED106E000236A4641463846FFF777FEE8
:1011000007E000236A4641463846FFF7AAFE00E0A2
:1011100000BF00BFBDE8FC812DE9FF5F81468A4624
:101120001646984600208DF80F002E208DF80C00F2
:101130000021304604F060FE05D286F000462D20E6
:101140008DF8080002E020208DF80800304604F0F9
:1011500007FE0446642104FB01F004F039FE9449C3
:101160000190304604F07CFE0090019904F044FFA9
:10117000834604F0F5FDC7B20A20B4FBF0F100FB92
:10118000114030308DF80B000A20B4FBF0F4B4FBB2
:10119000F0F100FB114030308DF80A000A20B4FB5A
:1011A000F0F404F13000C0B28DF809000A2097FB7A
:1011B000F0F100FB11703030C0B28DF80E000A2043
:1011C00097FBF0F0C7B207F13000C0B28DF80D0008
:1011D00001250AE002A8405D302803D1202002A9A1
:1011E000485500E003E0681CC5B2032DF2DB00BFE8
:1011F000B8F1000F03D0B8F1010F0ED106E00023C3
:1012000002AA51464846FFF7F2FD07E0002302AA72
:1012100051464846FFF725FE00E000BF00BFBDE88D
:10122000FF9FF0B503461446E4B1CD1701EB5575A9
:10123000ED1003EBC5155F4E755D0A46CE1701EB49
:101240005676F610A1EBC6070126BE40F6B235432E
:101250000846CE1701EB5676F61003EBC616554F2F
:10126000BD551AE0CD1701EB5575ED1003EBC51513
:10127000504E755D0A46CE1701EB5676F610A1EB7F
:10128000C6070126BE40B5430846CE1701EB567689
:10129000F61003EBC616474FBD55F0BD70B50446BA
:1012A0000D461DB1E0B2FFF7D4FC02E0E0B2FFF75B
:1012B000E0FC70BD70B500241BE004F1B00000211B
:1012C000FFF7ECFF00210220FFF7E8FF00211020CC
:1012D000FFF7E4FF002508E005EBC411354A505C38
:1012E0000121FFF7DBFF681CC5B2802DF4DB601C19
:1012F000C4B2082CE1DB70BD2DE9FF4F85B08146FB
:101300008A460020039083460798A0EB09050898B9
:10131000A0EB0A06CDF80890CDF804A0002D01DD61
:10132000012705E00DB9002702E04FF0FF376D42BD
:10133000002E02DD4FF0010806E016B94FF000085C
:1013400002E04FF0FF387642B54201DD2C4600E066
:101350003446002004901EE0019AD1B2029AD0B225
:10136000129AFFF75EFF039828440390B344039852
:10137000A04205DD0398001B0390029838440290B8
:10138000A34504DDABEB040B0198404401900498A5
:10139000401C80B20490611C04988842DCDDFFF799
:1013A00089FF09B0BDE8F08F900D00201E000020DD
:1013B0000000C842A00D00202DE9F84305460E4666
:1013C00017469846089C33463A46314628460094CC
:1013D000FFF792FF43462A46314628460094FFF71E
:1013E0008BFF43463A46414628460094FFF784FF68
:1013F00043463A46314638460094FFF77DFFBDE844
:10140000F88370B504460D461646324629462046F6
:10141000FFF707FFFFF74EFF70BD2DE9F0410446CF
:101420000D4616461F46DDF81880EA19D1B2A219FA
:10143000D0B24246FFF7F5FEEA19D1B2A21BD0B2F4
:101440004246FFF7EEFEEA1BD1B2A219D0B24246E5
:10145000FFF7E7FEEA1BD1B2A21BD0B24246FFF76C
:10146000E0FEAA19D1B2E219D0B24246FFF7D9FE86
:10147000AA19D1B2E21BD0B24246FFF7D2FEAA1B94
:10148000D1B2E219D0B24246FFF7CBFEAA1BD1B2CD
:10149000E21BD0B24246FFF7C4FEBDE8F0812DE961
:1014A000F84F81468A4690461E4600243546700015
:1014B000C0F1030716E0EBB2E2B251464846CDF860
:1014C0000080FFF7AAFF002F04DA042000FB04705D
:1014D000871D06E0601B042101FB007000F10A0774
:1014E0006D1E641CAC42E6DDFFF7E4FEBDE8F88F3C
:1014F0002DE9F05F06460F4690461C46DDF828A011
:101500004FF0000BE11704EB5171C910A4EBC101BE
:1015100031B92046E11704EB5171C1F3C70506E06C
:101520002046E11704EB5171C910491CCDB23D466C
:1015300015E029463046FFF7ACFBB1460BE05946B3
:101540000BF1010B1AF801000121FFF7A7FE09F1C9
:10155000010000F0FF09C145F1DB681CC5B2A542DE
:10156000E7DBBDE8F09F000008B50121082000F08E
:101570003FFD0120ADF8000010208DF8030003208E
:101580008DF802006946394800F076FA0220ADF87D
:10159000000048208DF803006946344800F06CFADA
:1015A0000121324800F015FB08BD70B5012030491B
:1015B000086000F082F800202E49C1F88001002464
:1015C00000BF2B4800680028FBD1002513E0012054
:1015D00027497C310860640000F06FF8002025493D
:1015E000C1F880012248006800B1641C012000F0AD
:1015F00064F8681CC5B2182DE9DB01201C497C3158
:10160000086084F4000400F058F800201949C1F87B
:101610008001204670BD10B5FFF7C7FF164908606E
:1016200010BD70B5FFF7C1FF144908600846006897
:1016300011490968884217D91048006810490860A4
:10164000084600680C490968401A0D4908600846B8
:10165000006804F0A5FB05460A4904F0A3FA044615
:1016600004F062FB0649086070BD0000000C0140F8
:10167000048121420080214284070020800700204D
:10168000880700200080D54310B56FF0040000F0FB
:1016900074F92E4800682E49B0FBF1F02D4908700E
:1016A0000846007800EB4001C1EBC0104FF6FF7117
:1016B00001EAC0002849088010BD0146254A127879
:1016C0004A434FF0E0235A6100229A611A46126998
:1016D00042F001021A6100BF4FF0E022106900F0F1
:1016E00001021AB100F48032002AF5D04FF0E02256
:1016F000126922F001024FF0E0231A6100229A6180
:1017000070470146144A12884A434FF0E0235A6159
:1017100000229A611A46126942F001021A6100BF62
:101720004FF0E022106900F001021AB100F480329B
:10173000002AF5D04FF0E022126922F001024FF0AA
:10174000E0231A6100229A61704700000000002027
:1017500000127A008E07002090070020014600BF8B
:10176000704700BF494A128802F04002002AF9D0AF
:10177000C2B2464B1B1D1A80704710B586B0044696
:10178000012144F2040000F033FC4FF40070ADF886
:10179000140003208DF8160018208DF8170005A9F5
:1017A0003B4800F069F94FF48060ADF81400042064
:1017B0008DF8170005A9364800F05EF925208DF850
:1017C000000003208DF801008DF8020001208DF843
:1017D0000300684600F087F801940020ADF8080087
:1017E000ADF80A00ADF80C00ADF810000C20ADF813
:1017F0000E0001A9254800F0A2FC012240F225516B
:10180000224800F034FD0121204800F024FD06B0FC
:1018100010BD10B540F225511C4800F00DFE10B36C
:101820001A4800F089FDC4B21A48008800F400404C
:10183000C8B91848008800F4804060B10A2C03D071
:1018400000201449088020E01248008840F400403D
:101850001049088019E00D2C06D10E48008840F48C
:1018600080400C49088010E00A480088C0F30D0051
:1018700009490C5407480088401C0649088008465E
:101880000088C72801DD0020088010BD0038014015
:101890000008014098070020A01100200948804757
:1018A00009480047FEE7FEE7FEE7FEE7FEE7FEE742
:1018B000FEE7FEE7FEE7FEE704480549054A064B5A
:1018C00070470000A705000831010008C812002079
:1018D000C8180020C8140020C81400203149014352
:1018E000314A1160704770B5002100230F22C4787F
:1018F00004B32D4C246804F4E064C4F5E064210AC8
:10190000C1F10403CA40447804FA03F18478144016
:1019100021430901254C0678A155047804F01F05E0
:101920000124AC4005786D11AD0005F1E025C5F846
:10193000004109E0047804F01F050124AC401C4D6F
:101940000678761145F8264070BD1A4A0A400243CF
:10195000154B1B1F1A60704739B1134A121D1268CC
:101960000243114B1B1D1A6006E00F4A121D12683C
:1019700082430D4B1B1D1A607047042808D14FF09D
:10198000E021096941F004014FF0E022116107E014
:101990004FF0E021096921F004014FF0E0221161CC
:1019A000704700000000FA050CED00E000E400E0E4
:1019B00080E100E080FFFF1F10B50446CC48844260
:1019C00008D10121042000F02DFB0021042000F0AB
:1019D00029FB46E0C748844208D10121082000F0D5
:1019E00021FB0021082000F01DFB3AE0C2488442A0
:1019F00008D10121102000F015FB0021102000F07B
:101A000011FB2EE0BD48844208D10121202000F0C6
:101A100009FB0021202000F005FB22E0B8488442A9
:101A200008D10121402000F0FDFA0021402000F003
:101A3000F9FA16E0B348844208D10121802000F071
:101A4000F1FA0021802000F0EDFA0AE0AE4884426D
:101A500007D10121801500F0E5FA0021A01500F062
:101A6000E1FA10BD10B50121084600F0DBFA0021B3
:101A7000012000F0D7FA10BD2DE9F0410246002503
:101A80000026002000230024002791F803C00CF05A
:101A90000F0591F803C00CF0100CBCF1000F03D03F
:101AA00091F802C04CEA050591F800C0BCF1000FA6
:101AB00031D0146800202BE04FF0010C0CFA00F339
:101AC000B1F800C00CEA03069E4220D183004FF01B
:101AD0000F0C0CFA03F7BC4305FA03FC4CEA0404B0
:101AE00091F803C0BCF1280F06D14FF0010C0CFA9D
:101AF00000FCC2F814C00AE091F803C0BCF1480F22
:101B000005D14FF0010C0CFA00FCC2F810C0401CCB
:101B10000828D1D31460B1F800C0BCF1FF0F34DD48
:101B2000546800202EE000F1080C4FF0010808FA7C
:101B30000CF3B1F800C00CEA03069E4221D18300E9
:101B40004FF00F0C0CFA03F7BC4305FA03FC4CEA08
:101B5000040491F803C0BCF1280F05D100F1080C72
:101B600008FA0CF8C2F8148091F803C0BCF1480FD1
:101B700007D100F1080C4FF0010808FA0CF8C2F880
:101B80001080401C0828CED35460BDE8F0814FF689
:101B9000FF710180022181700421C17070470246EB
:101BA000002093680B400BB1012000E0002070473B
:101BB0000146886880B2704702460020D3680B4017
:101BC0000BB1012000E0002070470146C86880B2D8
:101BD000704701617047416170470AB1016100E0DF
:101BE00041617047C16070474FF480320A4382619F
:101BF0008161826182698269704702460020434B9D
:101C000018684FF68073184040EA021008433F4BB3
:101C1000186070473E49C8617047F0B50A46002316
:101C200000240021002500F00046B6F1004F02D14B
:101C3000364EF16901E0354E7168C0F3034583B259
:101C400000F44016B6F5401F08D121F070612F4E08
:101C5000766826F070662D4F7E6012E000F48016E4
:101C6000B6F5801F06D1032606FA05F4A14341F01C
:101C7000706106E0460D360103FA06F6B14341F005
:101C8000706122B1460D360103FA06F6314300F0C9
:101C90000046B6F1004F02D11C4EF16101E01B4E2F
:101CA0007160F0BD30B500228B071C0F0F2303FAC3
:101CB00004F2164B08338C1053F824309343134C22
:101CC00008348D1044F8253023468C1053F8243006
:101CD0008C07240F00FA04F423430C4C08348D10B5
:101CE00044F8253030BD0A49DC31086070470000F7
:101CF00000080140000C01400010014000140140A8
:101D000000180140001C014000200140000001407B
:101D100000002042DF48006840F00100DD49086013
:101D200008464068DC490840DA49486008460068CF
:101D3000DA490840D74908600846006820F4802046
:101D400008600846406820F4FE0048604FF41F0019
:101D500088607047CF49096821F48031CD4A11600D
:101D60001146096821F480211160B0F5803F03D04D
:101D7000B0F5802F0ED106E0C649096841F48031E4
:101D8000C44A116007E0C349096841F4A021C14A6F
:101D9000116000E000BF00BF704710B5014600228F
:101DA000002300204A11012A02D1BA4C236806E020
:101DB000022A02D1B74C236A01E0B64C636A01F0F3
:101DC0001F02012494401C400CB1012000E00020BF
:101DD00010BD38B5002000900024002500BF312040
:101DE000FFF7DBFF05460098401C00900098B0F517
:101DF000A06F01D0002DF2D03120FFF7CEFF08B147
:101E0000012400E00024204638BD01460020A14AFC
:101E1000106820F0F80040EAC10010607047A04947
:101E200008607047024600209A4B586820F47C10E6
:101E300042EA01031843974B586070479849086677
:101E4000704701460020934A506820F00300084381
:101E5000506070478F48406800F00C0070470146A2
:101E600000208C4A506820F0F00008435060704712
:101E700001460020874A506820F4E0600843506023
:101E8000704701460020834A506820F4605040EAC1
:101E9000C1005060704729B17E4A527A02437D4B9F
:101EA0005A7204E07B4A527A82437A4B5A727047E4
:101EB0007B49D8310860704701460020754A506858
:101EC00020F440400843506070470021714A20329E
:101ED0001170704A82F82010012802D004280AD11B
:101EE00004E001216B4A2032117005E00521694AA6
:101EF0002032117000E000BF00BF704769490860E0
:101F000070476449096A0143624A11627047654932
:101F100044390860704730B50021002200240023B6
:101F20005C4D6D6805F00C0121B1042905D008292C
:101F300023D105E05C4D056022E05B4D05601FE0AC
:101F4000544D6D6805F47012524D6D6805F480347F
:101F5000022505EB92421CB9544D554305600BE038
:101F60004C4D6D6805F400351DB1504D554305606D
:101F700002E04D4D5543056002E04B4D056000BF4A
:101F800000BF444D6D6805F0F0010909484D6B5CD8
:101F90000568DD4045603F4D6D6805F4E061090A64
:101FA000434D6B5C4568DD4085603A4D6D6805F4D6
:101FB0006051C90A3E4D6B5C4568DD40C560354DDA
:101FC0006D6805F44041890B3A4D6B5CC568B5FB03
:101FD000F3F5056130BD29B12E4A526902432D4BFC
:101FE0005A6104E02B4A526982432A4B5A61704776
:101FF00029B1284A92690243264B9A6104E0254A96
:1020000092698243234B9A61704729B1214AD26970
:102010000243204BDA6104E01E4AD26982431D4B21
:10202000DA61704729B11B4AD2680243194BDA6062
:1020300004E0184AD2688243164BDA60704729B12F
:10204000144A12690243134B1A6104E0114A1269DF
:102050008243104B1A61704712494039086070473B
:102060000F49C86470470B49C87170470948406AF6
:1020700040F0807007494862704701460020054AD9
:1020800092680A400AB1012000E00020704701492F
:1020900088727047001002400000FFF8FFFFF6FE54
:1020A000000042428004424200127A0000093D00D2
:1020B0009A070020AA07002010B50446FB48844276
:1020C00009D101218803FFF7ADFF00214FF48040C3
:1020D000FFF7A8FF32E0F648844209D10121480405
:1020E000FFF7ADFF00214FF40030FFF7A8FF25E018
:1020F000F048844209D101218804FFF7A0FF0021A4
:102100004FF48020FFF79BFF18E0EB48844209D191
:102110000121C804FFF793FF00214FF40020FFF7CF
:102120008EFF0BE0E548844208D101210805FFF746
:1021300086FF00214FF48010FFF781FF10BD2DE9CD
:10214000F04786B005460E460024A24600BFA146D1
:102150000027B08900B100BF2F462C8A4CF6FF70D3
:102160000440F08804432C82AC894EF6F3100440FE
:10217000B08831890843718908430443AC81AC8A33
:102180004FF6FF400440B0890443AC8201A8FFF73A
:10219000C2FEC648874202D1DDF810A001E0DDF89A
:1021A0000CA0A88900F4004040B10AEBCA0000EB83
:1021B0000A1031684900B0FBF1F807E00AEBCA00E9
:1021C00000EB0A1031688900B0FBF1F86420B8FB1D
:1021D000F0F004012009642101FB1089A88900F4B2
:1021E000004040B1322000EBC900B0FBF1F000F03C
:1021F0000700044308E0322000EB09106421B0FB23
:10220000F1F000F00F0004432C8106B0BDE8F08728
:102210004FF41651016000218180C18001810C21A1
:10222000418100218181704710B502460020108A4B
:102230004FF2FF0318400B884C8823438C882343BC
:10224000CC8823431843108210BD002101804180B7
:102250008180C180704721B1828942F4005282811D
:1022600004E082894DF6FF731A4082817047F0B511
:102270000346002400260025002040F66A17B942D4
:1022800000D100BF1846C1F3421401F01F06012718
:1022900007FA06F5012C01D10C3004E0022C01D123
:1022A000103000E014301AB107682F43076002E0D5
:1022B0000768AF430760F0BD1AB1838A0B4383827E
:1022C00002E0838A8B4383827047028A4FF6F07361
:1022D0001A400282028A0A430282704782894FF2C0
:1022E000FF731A40828182890A438281704721B13B
:1022F000828942F00202828104E082894FF6FD73F6
:102300001A4082817047028A4FF6DF731A400282B8
:10231000028A0A430282704721B1028A42F4804253
:10232000028204E0028A4BF6FF731A400282704771
:10233000C1F308028280704701468888C0F3080014
:102340007047818941F0010181817047028BD2B2CF
:102350000283028B42EA012202837047028B02F45D
:102360007F420283028B0A430283704721B1828A33
:1023700042F02002828204E0828A4FF6DF731A4024
:102380008282704721B1828A42F01002828204E088
:10239000828A4FF6EF731A408282704721B1828A97
:1023A00042F00802828204E0828A4FF6F7731A40F4
:1023B0008282704721B1828942F40042828103E027
:1023C0008289C2F30E028281704721B1828A42F46F
:1023D0000062828204E0828A4FF2FF731A40828296
:1023E0007047828A4FF6FB731A408282828A0A43C0
:1023F0008282704721B1828A42F00202828204E026
:10240000828A4FF6FD731A4082827047024600208E
:10241000B1F5007F00D100BF13880B400BB1012044
:1024200000E00020704701F40072B2F5007F00D197
:1024300000BFCA430280704770B5024600240023E3
:102440000025002040F66A16B14200D100BFC1F35A
:10245000421501F01F03012606FA03F3012D02D1F4
:102460009689334006E0022D02D1168A334001E0FE
:10247000968A33400C12012606FA04F4168834407A
:1024800013B10CB1012000E0002070BD10B5002296
:10249000002340F66A14A14200D100BF0A120124B1
:1024A0009440A3B2DC43048010BD0000003801401A
:1024B0000044004000480040004C004000500040F4
:1024C00010B50446FE48844208D10121C014FFF72C
:1024D000A9FD0021E014FFF7A5FDC4E0B4F1804F91
:1024E00008D101210846FFF7AAFD00210120FFF7CE
:1024F000A6FDB8E0F348844208D101210220FFF78D
:102500009EFD00210220FFF79AFDACE0EE488442D8
:1025100008D101210420FFF792FD00210420FFF7DC
:102520008EFDA0E0E948844208D101210820FFF790
:1025300086FD00210820FFF782FD94E0E4488442F4
:1025400008D101211020FFF77AFD00211020FFF7AC
:1025500076FD88E0DF48844208D101212020FFF782
:102560006EFD00212020FFF76AFD7CE0DA488442FE
:1025700008D101214014FFF755FD00216014FFF739
:1025800051FD70E0D548844209D10121C804FFF70C
:1025900049FD00214FF40020FFF744FD63E0D048DF
:1025A000844209D101210805FFF73CFD00214FF4C9
:1025B0008010FFF737FD56E0CA48844209D1012157
:1025C0004805FFF72FFD00214FF40010FFF72AFD0B
:1025D00049E0C548844208D101214020FFF72FFD82
:1025E00000214020FFF72BFD3DE0C048844208D188
:1025F00001218020FFF723FD00218020FFF71FFD30
:1026000031E0BB48844208D101218015FFF717FD56
:102610000021A015FFF713FD25E0B648844209D13B
:1026200001210804FFF7FEFC00214FF48030FFF782
:10263000F9FC18E0B048844209D101214804FFF7B1
:10264000F1FC00214FF40030FFF7ECFC0BE0AB484D
:10265000844208D101218804FFF7E4FC00214FF4F3
:102660008020FFF7DFFC10BD00220288944B9842C7
:102670000ED0994B98420BD0B0F1804F08D0914BBF
:10268000984205D0904B984202D0904B984204D18A
:102690004FF68F731A404B881A438D4B984207D0E0
:1026A0008C4B984204D04FF6FF431A40CB881A4314
:1026B00002808B8883850B880385814B98420BD0E1
:1026C000854B984208D08B4B984205D08A4B984254
:1026D00002D08A4B984201D10B7A03860123838270
:1026E000704770B5002400220023058C4FF6FE765B
:1026F00035400584028C8388048B4FF68F752C40FF
:10270000B51E2C400D882C43751E2A400D892A4386
:102710004D882A436A4DA8420BD06F4DA84208D07D
:10272000744DA84205D0744DA84202D0734DA84202
:1027300013D14FF6F7752A404D892A434FF6FB75A2
:102740002A408D882A434FF6FF652B404FF6FF55F0
:102750002B408D892B43CD892B4383800483CD88E7
:102760008586028470BD70B5002400220023058C8C
:102770004FF6EF7635400584028C8388048B48F64B
:10278000FF752C404FF6FF452C400D884FF6FF7625
:1027900006EA05252C434FF6DF752A400D8906EA27
:1027A00005152A434D8806EA05152A43444DA842DB
:1027B00002D0494DA8421DD14FF67F752A404D8960
:1027C0004FF6FF7606EA05152A434FF6BF752A40F5
:1027D0008D8806EA05152A434FF6FF352B404FF248
:1027E000FF752B408D8906EA85052B43CD8906EAC6
:1027F00085052B4383800483CD880587028470BDC3
:1028000070B5002400220023058C4FF6FF6635408A
:102810000584028C8388848B4FF68F752C404FF68D
:10282000FC752C400D882C434FF6FF552A400D892E
:102830004FF6FF7606EA05252A434D8806EA052568
:102840002A431F4DA84202D0234DA8421DD14FF26A
:10285000FF752A404D894FF6FF7606EA05252A4383
:102860004FF6FF352A408D8806EA05252A434EF6A5
:10287000FF752B404DF6FF752B408D8906EA051537
:102880002B43CD8906EA05152B4383808483CD88AD
:102890008587028470BD70B5002200230024058C5A
:1028A0004EF6FF7635400584038C8488828B48F68B
:1028B000FF752A404FF6FF452A400D8820E00000B2
:1028C000002C01400004004000080040000C0040C3
:1028D000001000400014004000340140004C014052
:1028E000005001400054014000180040001C00400E
:1028F00000200040004001400044014000480140E9
:102900004FF6FF7606EA05252A434DF6FF752B4064
:102910000D8906EA05352B434D8806EA05352B431C
:10292000FA4DA84202D0FA4DA84208D14BF6FF75E5
:102930002C408D894FF6FF7606EA85152C4384805E
:102940008283CD88A0F84050038470BD828B4FF203
:10295000FF331A408283828B4FF6FF7303EA012311
:102960001A4382837047F0B50C46154600220021B9
:102970000026078C4EF6FF7C07EA0C070784828B43
:10298000018C4FF6FF7707EA043640F6FF473A40DE
:102990004FF6FF7707EA05273A434FF6FF7707EA36
:1029A00003373A43D94FB8420ED0D94FB8420BD073
:1029B000B0F1804F08D0D74FB84205D0D64FB842BB
:1029C00002D0D64FB84206D14DF6FF77394046F4D3
:1029D0008057394305E047F6FF57394044F48057A4
:1029E000394382830184F0BD828B4FF6F3731A4022
:1029F0008283828B0A4382837047F0B50C4615466A
:102A0000002200210026078C4FF6FF6C07EA0C0716
:102A10000784828B018C4FF6FF7707EA04264FF676
:102A20000C773A404FF6FF7707EA03172F433A43F4
:102A3000B64FB8420ED0B64FB8420BD0B0F1804F6F
:102A400008D0B44FB84205D0B34FB84202D0B34F0C
:102A5000B84206D14FF6FF57394046F480773943E4
:102A600005E04FF2FF57394044F4807739438283C1
:102A70000184F0BD028B4FF2FF331A400283028BB8
:102A80004FF6FF7303EA01231A4302837047F0B540
:102A90000C461546002200210026078C4FF6EF7CDD
:102AA00007EA0C070784028B018C4FF6FF7707EAD1
:102AB000041640F6FF473A404FF6FF7707EA033720
:102AC0003A434FF6FF7707EA05273A438F4FB8425C
:102AD0000ED08F4FB8420BD0B0F1804F08D08D4F41
:102AE000B84205D08C4FB84202D08C4FB84206D1C4
:102AF0004FF6DF77394046F01007394305E04FF6CF
:102B00005F77394044F01007394302830184F0BDF8
:102B1000028B4FF6F3731A400283028B0A4302833F
:102B20007047F0B50C46154600220021068C4FF682
:102B3000FE773E400684028B018C4FF60C763240C5
:102B40007E1C06EA03162E433243704EB0420ED06E
:102B50006F4EB0420BD0B0F1804F08D06D4EB042F6
:102B600005D06D4EB04202D06C4EB04206D14FF649
:102B7000FD76314044F00106314305E04FF6F5762D
:102B8000314044F00106314302830184F0BD70B549
:102B900005460C465D4885420ED05D4885420BD007
:102BA000B5F1804F08D05B48854205D05A48854230
:102BB00002D05A48854200D100E000BF208850B9B9
:102BC0002389A28861882846FFF7ABFFE188284661
:102BD000FFF79EFF25E0208804280AD12389A288D8
:102BE00061882846FFF753FFE1882846FFF742FF38
:102BF00017E0208808280AD12389A28861882846FE
:102C0000FFF7FBFEE1882846FFF7EEFE09E0238987
:102C1000A28861882846FFF7A6FEE1882846FFF7CC
:102C200095FE70BD2DE9F04105460C4600260127B2
:102C3000608808B9022600E00026A088012801D19A
:102C4000022700E001272088A0B92389A288618893
:102C50002846FFF766FFE1882846FFF759FF2389DA
:102C60003A4631462846FFF712FFE1882846FFF72B
:102C700001FF13E02389A28861882846FFF707FF38
:102C8000E1882846FFF7F6FE23893A463146284672
:102C9000FFF747FFE1882846FFF73AFFBDE8F081DC
:102CA0000A884B881A438B881A43CB881A430B89AE
:102CB0001A434B891A438B891A43A0F84420704762
:102CC0004FF6FF71818000210180C1804180017237
:102CD00070470021018041808180C1800181418154
:102CE0008181C18170470021018041800121818063
:102CF0000021C180018170470021018041808180D5
:102D0000C18001814181818170470000002C014018
:102D1000003401400004004000080040000C004066
:102D200021B1028842F00102028004E002884FF6DD
:102D3000FE731A400280704731B1B0F8442042F46B
:102D40000042A0F8442005E0B0F84420C2F30E028F
:102D5000A0F8442070471AB183890B43838102E0B5
:102D600083898B43838170478182704741EA0203E4
:102D7000A0F8483070471AB183890B43838102E081
:102D800083898B438381704701894FF6F872114024
:102D9000018170470A46002101894FF68F7319405F
:102DA00011430181704730B504460D46294620463F
:102DB000FFF7F0FF208940F00700208130BD2DE9AA
:102DC000F04104460D4616461F46602D06D13B468F
:102DD000012231462046FFF75AFE05E03B4601221C
:102DE00031462046FFF79DFE29462046FFF7D2FFD9
:102DF000208940F007002081BDE8F08130B50C4605
:102E000000210189C9B24FF6FF7505EA0325154374
:102E100025432943018130BD2DE9F04105460E4689
:102E200017469846002443463A4631462846FFF75F
:102E3000E5FF2C894FF6F870044044F007044FF684
:102E40008F70044044F070042C81BDE8F081F0B52F
:102E500004460D4616461F463B4632462946204646
:102E6000FFF7CCFF208940F480402081F0BD018530
:102E7000828270470A46002101884FF68F731940FD
:102E8000114301807047F0B50C4615461E460021DF
:102E9000002200230189028B038C4FF6F87739401A
:102EA00021434FF6FC473A4040F201173A434FF6B0
:102EB000DD773B404FF6FF7707EA06172F433B438A
:102EC000018102830384F0BD0A460021018B4FF685
:102ED0008F7319401143018370470A460021018B0B
:102EE00048F6FF7319404FF6FF7303EA02231943B4
:102EF000018370470A460021818B4FF68F7319407A
:102F00001143818370470A460021818B48F6FF7385
:102F100019404FF6FF7303EA022319438183704778
:102F200021B1028842F08002028004E002884FF65C
:102F30007F731A400280704721B1828842F00402F8
:102F4000828004E082884FF6FB731A4082807047CB
:102F500021B1828842F00802828004E082884FF624
:102F6000F7731A408280704721B1828842F00102D3
:102F7000828004E082884FF6FE731A408280704798
:102F80000A460021018B4FF6F77319401143018364
:102F900070470A460021018B4FF2FF7319404FF62C
:102FA000FF7303EA02231943018370470A46002195
:102FB000818B4FF6F77319401143818370470A469E
:102FC0000021818B4FF2FF7319404FF6FF7303EA24
:102FD00002231943818370470A460021018B4FF673
:102FE000FB7319401143018370470A460021018B8E
:102FF0004FF6FF3319404FF6FF7303EA02231943DC
:10300000018370470A460021818B4FF6FB731940FC
:103010001143818370470A460021818B4FF6FF33AD
:1030200019404FF6FF7303EA022319438183704767
:103030000A460021018B4FF67F731940114301832B
:1030400070470A460021018BC1F30E014FF6FF7352
:1030500003EA02231943018370470A460021818B4A
:103060004FF67F7319401143818370470A46002150
:10307000818BC1F30E014FF6FF7303EA022319435C
:10308000818370470A460021018C4FF6FD73194079
:103090001143018470470A460021018C4FF6F773F3
:1030A00019401143018470470A460021018C4FF6F4
:1030B000DF7319404FF6FF7303EA021319430184CB
:1030C00070470A460021018C4FF67F7319404FF676
:1030D000FF7303EA02131943018470470A46002173
:1030E000018C4FF6FF5319404FF6FF7303EA02239A
:1030F0001943018470470A460021018C4FF2FF7387
:1031000019404FF6FF7303EA022319430184704705
:103110000A460021018C4DF6FF7319404FF6FF73EC
:1031200003EA023319430184704730B500230124B8
:103130008C40A3B2048C9C430484048C02FA01F5F5
:10314000ADB22C43048430BD30B5002304248C4040
:10315000A3B2048C9C430484048C02FA01F5ADB242
:103160002C43048430BD70B503460020002418466B
:10317000183001258D40ACB21D8CA5431D8409B1CA
:10318000082909D100EB6100056825F0700505608C
:103190000568154305600EE00D1FC5F34E05284474
:1031A000056825F4E045056005684FF6FF7606EAF8
:1031B00002263543056070BD21B1028842F002024B
:1031C000028004E002884FF6FD731A4002807047C7
:1031D00021B1028842F00402028004E002884FF626
:1031E000FB731A400280704721B1828842F080024E
:1031F000828004E082884FF67F731A408280704795
:1032000002884FF6F7731A40028002880A43028050
:10321000704782884FF68F731A40828082880A43F3
:103220008280704702894FF6F8731A400281028942
:103230000A430281704702894FF67F731A40028168
:1032400002890A43028170478184704781857047F3
:10325000818670470187704781877047A0F84010CA
:10326000704702884FF6FF431A40028002880A43E3
:10327000028070470146888E70470146088F70476C
:103280000146888F70470146B1F8400070470146FB
:10329000888C70470146088D704702460020138ACB
:1032A0000B400BB1012000E000207047CA430282AE
:1032B000704730B50246002000230024158A05EA35
:1032C0000103958905EA010413B10CB1012000E066
:1032D000002030BDCA4302827047000010B58CB098
:1032E00004461E230BAA03A9204600F0ABFE009063
:1032F000009810B101200CB010BD9DF82C000444C2
:1033000000200B900EE040489DF82C2050F8221031
:1033100003A800F0FFFD00B908E09DF82C00401C58
:10332000C0B20B909DF82C000728ECD300BF9DF88D
:103330002C00072863D2DFE800F004053C5E6564DA
:10334000630000BF31A001F08DF831A001F08AF8D0
:103350003FA001F087F84EA001F084F85CA001F0D6
:1033600081F86BA001F07EF879A001F07BF886A0CF
:1033700001F078F88BA001F075F890A001F072F8D8
:1033800094A001F06FF899A001F06CF89EA001F0F4
:1033900069F8A4A001F066F8B0A001F063F8BDA040
:1033A00001F060F8C8A001F05DF8D4A001F05AF86F
:1033B0009AE216A001F056F8E0A001F053F80020C0
:1033C0000B900EE0ED4800689DF82C2000EBC20049
:1033D0004168EBA001F046F89DF82C00401CC0B2FB
:1033E0000B90E648007D9DF82C108842EADC07A08F
:1033F00001F038F878E205A001F034F8C4E171E298
:1034000045E219E2ECE10000B00700200D0A0000DF
:103410002D2D2D2D2D2D2D2D2D2D2D2D2D2D2D2DDC
:103420002D2D2D2D2D2D2D2D55534D4152542056E2
:10343000332E312D2D2D2D2D2D2D2D2D2D2D2D2DB1
:103440002D2D2D2D2D2D2D2D2D2D2D200D0A000056
:103450002020202055534D415254CAC7D3C9414C56
:1034600049454E54454BBFAAB7A2B5C4D2BBB8F626
:10347000C1E9C7C9B5C4B4AEBFDAB5F7CAD4BBA5F4
:10348000BDBBD7E9BCFE2CCDA8B9FD200D0A0000BC
:10349000CBFC2CC4E3BFC9D2D4CDA8B9FDB4AEBF18
:1034A000DAD6FACAD6B5F7D3C3B3CCD0F2C0EFC3DD
:1034B000E6B5C4C8CEBACEBAAFCAFD2CB2A2D6B455
:1034C000D0D02ED2F2B4CB2CC4E3BFC90D0A000079
:1034D000D2D4CBE6D2E2B8FCB8C4BAAFCAFDB5C408
:1034E000CAE4C8EBB2CECAFD28D6A7B3D6CAFDD768
:1034F000D62831302F3136BDF8D6C629A1A2D7D66D
:10350000B7FBB4AEA1A2BAAFCAFDC8EB0D0A00006A
:10351000BFDAB5D8D6B7B5C8D7F7CEAAB2CECAFDEE
:10352000292CB5A5B8F6BAAFCAFDD7EEB6E0D6A736
:10353000B3D63130B8F6CAE4C8EBB2CECAFD2CB26D
:10354000A2D6A7B3D6BAAFCAFDB7B5200D0A000000
:10355000BBD8D6B5CFD4CABE2ED0C2D4F6B2CECA4E
:10356000FDCFD4CABEBDF8D6C6C9E8D6C3B9A6C475
:10357000DC2CD0C2D4F6BDF8D6C6D7AABBBBB9A640
:10358000C4DC2E0D0A000000BCBCCAF5D6A7B3D619
:103590003A7777772E6F70656E6564762E636F6D00
:1035A0000D0A000055534D415254D3D037B8F6CFD1
:1035B000B5CDB3C3FCC1EE3A0D0A00003F3A20205E
:1035C00020202020BBF1C8A1B0EFD6FAD0C5CFA2F1
:1035D0000D0A000068656C703A202020BBF1C8A17C
:1035E000B0EFD6FAD0C5CFA20D0A00006C69737493
:1035F0003A202020BFC9D3C3B5C4BAAFCAFDC1D0D9
:10360000B1ED0D0A0A00000069643A202020202054
:10361000BFC9D3C3BAAFCAFDB5C44944C1D0B1ED27
:103620000D0A0A006865783A20202020B2CECAFD33
:103630003136BDF8D6C6CFD4CABE2CBAF3B8FABF5D
:10364000D5B8F12BCAFDD7D6BCB4D6B4D0D0BDF80E
:10365000D6C6D7AABBBB0D0A0A0000006465633A50
:1036600020202020B2CECAFD3130BDF8D6C6CFD43E
:10367000CABE2CBAF3B8FABFD5B8F12BCAFDD7D65B
:10368000BCB4D6B4D0D0BDF8D6C6D7AABBBB0D0A41
:103690000A00000072756E74696D653A312CBFAA1C
:1036A000C6F4BAAFCAFDD4CBD0D0BCC6CAB13B3089
:1036B0002CB9D8B1D5BAAFCAFDD4CBD0D0BCC6CA0C
:1036C000B13B0D0A0A000000C7EBB0B4D5D5B3CCAE
:1036D000D0F2B1E0D0B4B8F1CABDCAE4C8EBBAAF19
:1036E000CAFDC3FBBCB0B2CECAFDB2A2D2D4BBD815
:1036F000B3B5BCFCBDE1CAF82E0D0A002D2D2D2D51
:103700002D2D2D2D2D2D2D2D2D2D2D2D2D2D2D2DE9
:103710002D2D2D2D2D2D414C49454E54454B2D2DF4
:103720002D2D2D2D2D2D2D2D2D2D2D2D2D2D2D2DC9
:103730002D2D2D2D2D2D2D200D0A00002D2D2D2D63
:103740002D2D2D2D2D2D2D2D2D2D2D2D2D2D2D2DA9
:103750002D2D2D2D2DBAAFCAFDC7E5B5A52D2D2DCB
:103760002D2D2D2D2D2D2D2D2D2D2D2D2D2D2D2D89
:103770002D2D2D2D2D2D2D2D200D0A00EC07002097
:1037800025730D0A00000000EFA000F06BFE002082
:103790000B901AE0FC4909689DF82C2001EBC2014E
:1037A00001AB02AA486803A900F072FCF648006861
:1037B0009DF82C1050F8312003A9F4A000F052FE1F
:1037C0009DF82C00401CC0B20B90EF48007D9DF886
:1037D0002C108842DEDCAFF2CC3000F043FE83E0F8
:1037E000AFF2D83000F03EFE0BAA03A9204600F04D
:1037F0002BFD9DF82C00C8B9694603A800F0BDFB5D
:103800000B909DF82C0020B9E5A0009900F02AFE4D
:103810000EE09DF82C00042801D002206BE5E3A007
:1038200000F020FE0120D849C87501E0022062E5C1
:10383000DDA000F017FE57E0DBA000F013FE0BAA9E
:1038400003A9204600F000FD9DF82C00C8B9694688
:1038500003A800F092FB0B909DF82C0020B9D8A093
:10386000009900F0FFFD0EE09DF82C00042801D027
:10387000022040E5D5A000F0F5FD0020C249C87542
:1038800001E0022037E5C8A000F0ECFD2CE0C6A066
:1038900000F0E8FD0BAA03A9204600F0D5FC9DF836
:1038A0002C00C8B9694603A800F067FB0B909DF88F
:1038B0002C0078B9B449009881F8EC00084690F8DB
:1038C000EC0018B1C6A000F0CDFD07E0CBA000F0E1
:1038D000C9FD03E002200EE502200CE5B2A000F0D5
:1038E000C1FD01E0012006E500BF002003E510B5A1
:1038F0000121C948FFF7DAFC4FF6FF71C648FFF710
:10390000A5FC0021C448FFF79FFC00209E49C1F898
:10391000F00010BD10B50121BF48FFF7BEFC012823
:1039200008D19948D0F8F0004FF6FF710844964945
:10393000C1F8F000B848FFF7AAFC9349D1F8F0109D
:1039400008449149C1F8F0000846D0F8F00010BDD5
:1039500010B50121B048FFF7ACFC01280AD18A4913
:10396000086980470021AC48FFF76EFC6421AA4833
:10397000FFF76CFC0121A848FFF7ACFC10BD7FB538
:1039800005460C4601210420FEF73FFBADF8085028
:10399000ADF804400020ADF80A00ADF8060001A91A
:1039A0009D48FEF761FE012241219B48FFF7D3F9B4
:1039B0001E208DF8000003208DF801008DF8020014
:1039C00001208DF803006846FDF78DFF0121924824
:1039D000FFF7A6F97FBD10B5044604EBC40000EB69
:1039E00004100122C2EB800081B24FF47A70FFF71D
:1039F000C6FF01206449C87510BD30B595B00546B5
:103A000013AB12AA09A9284600F042FB044614B1E0
:103A1000204615B030BD0020149026E05A490968B0
:103A20009DF8502001EBC20113AB11AA486801A90F
:103A300000F02EFB04460CB12046EAE709A901A8D4
:103A400000F068FA60B99DF844009DF8481088427B
:103A500001DD0220DDE79DF850004B4988750AE042
:103A60009DF85000401CC0B214904748007D9DF85E
:103A700050108842D2DC00BF4348007D9DF85010B2
:103A8000884201D10420C4E714A9284600F04DFC67
:103A900004460CB12046BCE79DF850003A494875F1
:103AA0000020B6E72DE9F0419AB03748847D007DCB
:103AB000A04202DC1AB0BDE8F0813349096801EB8D
:103AC000C40106AB07AA486808A900F0E1FA08A9F2
:103AD00052A000F0C7FC0026BAE02B48008B012161
:103AE000B1400840D8B122214EA000F0BBFC3046C6
:103AF00000F00EFC24492431471839464AA000F052
:103B0000B1FC222147A000F0ADFC304600F000FCE3
:103B10001D492431084410A941F826008EE03046A2
:103B200000F0F6FB18492431085810A941F8260086
:103B30001548C07D30B910A850F826103BA000F001
:103B400091FC7BE074E000002D2D2D2D2D2D2D2DD1
:103B50002D2D2D2D2D2D2D2D2D2D2D2D2D2D2D2D95
:103B60002DBAAFCAFD204944202D2D2D2D2D2D2DF0
:103B70002D2D2D2D2D2D2D2D2D2D2D2D2D2D2D2D75
:103B80002D2D2D2D200D0A00EC0700202573206916
:103B9000642069733A0D0A3058253038580D0A00F0
:103BA0004845583A305825580D0A00003136BDF8BE
:103BB000D6C6B2CECAFDCFD4CABE210D0A000000BF
:103BC0004445433A256C750D0A0000003130BDF8BC
:103BD000D6C6B2CECAFDCFD4CABE210D0A0000009F
:103BE00052756E2054696D652043616C63756C611C
:103BF00074696F6E204F4E0D0A00000052756E20E2
:103C000054696D652043616C63756C6174696F6E96
:103C1000204F46460D0A0000000800400D0A25739B
:103C2000280000002563000025730000256C750046
:103C300010A850F8261095A000F014FC9DF81C0068
:103C4000401EB04202D093A000F00CFC701CC6B223
:103C50009DF81C008642FFF640AF8FA000F002FCEA
:103C6000FFF745FE8D48407D0B280DD2DFE800F0C0
:103C7000060D151E27323F4E5F728700874909687F
:103C800051F834008047054690E0844A126852F8A3
:103C9000341010988847054688E0804B1B6853F81D
:103CA0003420DDE91001904705467FE07B4F3F68F7
:103CB00057F8343010A807C89847054676E0DFF873
:103CC000DCC1DCF800C05CF8347010A80FC8B8473D
:103CD00005466BE01498DFF8C4C10090DCF800C022
:103CE0005CF8347010A80FC8B84705465EE0DDE9FF
:103CF0001401DFF8A8C1CDE90001DCF800C05CF8D0
:103D0000347010A80FC8B84705464FE0DDE914121B
:103D10001698DFF888C1CDE900120290DCF800C0E7
:103D20005CF8347010A80FC8B84705463EE0DDE9DE
:103D30001423DDE91610DFF864C1CDE90023CDE9D5
:103D40000210DCF800C05CF8347010A80FC8B84747
:103D500005462BE0DDE91523DDE91710CDE9012348
:103D6000CDE903101498DFF834C10090DCF800C0EE
:103D70005CF8347010A80FC8B847054616E0DDE9B6
:103D80001623DDE91810CDE90223CDE90410DDE9A1
:103D90001401DFF808C1CDE90001DCF800C05CF8CF
:103DA000347010A80FC8B847054600BF00BFFFF722
:103DB000B1FD9DF8180001280CD13848C07D20B90C
:103DC000294637A000F04EFB07E0294636A000F058
:103DD00049FB02E033A000F045FB304890F8EC00CE
:103DE00088B12E48D0F8F0000A21B0FBF1F201FBB7
:103DF00012072A48D0F8F000B0FBF1F83A464146E5
:103E00002CA000F02FFB00BF54E670B531480088AD
:103E100000F40040002833D02E48057800202E49B9
:103E200048551E4881682C48884704461CB91B49E0
:103E3000C868804721E02848FFF750FA0546012D61
:103E400000D02C46CCB1012C06D0022C08D0032C7B
:103E50000AD0042C10D10BE020A000F003FB0BE0F3
:103E600021A000F0FFFA07E022A000F0FBFA03E037
:103E700023A000F0F7FA00BF00BF0020154908801A
:103E800070BD01460868704701607047305825587A
:103E9000000000002C00000029000000EC070020BA
:103EA0003D256C753B0D0A003D305825583B0D0AE9
:103EB0000000000046756E6374696F6E2052756E67
:103EC0002054696D653A25642E2531646D730D0AA1
:103ED0000000000098070020A0110020BAAFCAFD22
:103EE000B4EDCEF3210D0A00B2CECAFDB4EDCEF38F
:103EF000210D0A00B2CECAFDCCABB6E0210D0A00FE
:103F0000CEB4D5D2B5BDC6A5C5E4B5C4BAAFCAFD59
:103F1000210D0A0002460AE010780B78984201D081
:103F200001207047107800B902E0521C491CF3E7E9
:103F300000BF0020F5E706E002780A70027802B9B7
:103F400002E0401C491CF7E700BF70470146002013
:103F500005E00A7802B903E0421CD0B2491CF8E738
:103F600000BF704710B50246012000E050430B1E11
:103F7000A1F10104E1B2F9D110BD2DE9F0430746EA
:103F80000E4600254FF00A083C46002030601FE036
:103F90002078392802DC207830280ADA2078462870
:103FA00002DC2078412804DA2078582809D1012D34
:103FB00007D12078412801DB4FF01008681CC5B2FA
:103FC00005E0207800B904E00120BDE8F083641C1E
:103FD000DEE700BF3C46B8F1100F0FD1032D01DA28
:103FE0000220F2E72078302806D16078582803D1E3
:103FF000A41CA81EC5B204E00320E6E70DB9042006
:10400000E3E71BE00DB1681EC5B22078392806DC55
:104010002078302803DB2078A0F1300902E02078F6
:10402000A0F1370929464046FFF79CFF316809FB9C
:1040300000103060641C207800B900E0E2E700BFA7
:104040000020C2E710B50446002010700BE0207875
:104050000870641C491C1078401C1070107898423D
:1040600001DB012010BD2078202802D02078002814
:10407000EDD10020087000BFF4E70146491C00E0C4
:10408000491C0878202801D10029F9D10878704707
:104090002DE9FF4F85B08046894600270020049017
:1040A0000390012002904FF0000B002544461DE0D4
:1040B0002078202816D005F07F00052812DA0DB9E7
:1040C00045F0800505F07F00042803D120782A28D8
:1040D00000D00EE0207805F07F010DF80100681C8B
:1040E000C5B202E0852D00D103E0641C20780028D1
:1040F000DED100BF8DB1002005F07F010DF8010079
:10410000CBA16846FFF706FF18B900210898017097
:1041100002E001210898017000254FF0000A444692
:1041200014E0641C0AF1010000F0FF0A2078202846
:1041300002D020782A2809D12046FFF79EFF0646A4
:10414000282E03D02A2E01D0CDF810A020782828C0
:1041500002D020780028E4D14446049810B1049895
:10416000401C04444FF0000A002654E0207810B9A7
:104170004FF0010A50E02078282803D116B9781CA6
:10418000C7B213E02078292808D13EB917B1781EAC
:10419000C7B201E04FF0010A47B93DE0207822287C
:1041A00004D10EB9012000E00020064647B920786E
:1041B00020282FD0207889F8000009F1010929E092
:1041C00020782C2804D101200290681CC5B214E08C
:1041D0002078202811D0207828280ED04DB9BBF1A6
:1041E000050F06DA20780DF80B000BF1010000F046
:1041F000FF0B0298401CC0B20290012F0AD1029816
:10420000022807D10298401CC0B202900398401CBB
:10421000C0B20390641CA9E700BF0398012809D12C
:1042200000200DF80B0082A16846FFF773FE08B965
:1042300000200390079903980870002089F8000077
:10424000504609B0BDE8F08FF0B503461546002092
:1042500000220026002455E01F782C2F01D104B93C
:1042600001221F78292F01D01F780FB904B94AE025
:10427000002E34D11F78302F02DB1F78392F11DD4B
:104280001F78612F02DB1F78662F0BDD1F78412F0F
:1042900002DB1F78462F05DD1F78582F02D01F78CC
:1042A000782F0CD102B12EE01F78612F03DB1F782D
:1042B000203F0F7001E01F780F70491C1FE01F782E
:1042C000222F04D102B11EE00126012417E01F783D
:1042D000202F14D01F782C2F11D0FF2613E01F7829
:1042E000222F00D1002402B10DE044B11F785C2FD1
:1042F00002D15B1C471CF8B21F780F70491C471C89
:10430000F8B25B1CA8E700BF00270F702E70F0BD4D
:1043100002460020002105E0474B5B5C0344D8B215
:104320004B1CD9B29142F7DB70472DE9F043B5B091
:1043300005460F460024002604E000213E48815532
:10434000701CC6B20A2EF8DB06E06D1C287818B97E
:10435000012035B0BDE8F08328782828F5D16D1C00
:1043600061E034AA69462846FFF76EFF06463544E9
:104370009DF8D00020B1012827D0FF284CD149E07A
:104380009DF8000000B333A96846FFF7F6FD064626
:104390000EB10220DDE72046FFF7BAFF26490A31B9
:1043A000339A0A50A1F12400008B0121A1408843D7
:1043B00021491A39088304211F480155601CC4B2E1
:1043C0000A2C01DD0320C4E726E06846FFF7BEFDA6
:1043D000401C00F0FF082046FFF79AFF16490A31FB
:1043E00000EB010949466846FFF7A5FD12481A3857
:1043F000018B0120A040014388B20F491A3908837C
:104400000D4800F80480601CC4B20A2C01DD0320B2
:104410009FE701E002209CE700BF2878292801D00F
:10442000287800B900E09CE700BF3C70002090E7CE
:10443000766F6964000000000608002070470000E5
:104440001CB50C46064B7B4469460090204600F0A4
:1044500056FA04460020694600F064FA20461CBD66
:10446000DB0400000FB4044910B503AA029800F061
:1044700075FA10BC5DF814FB9407002070B5044673
:1044800085690068C10601D5302600E02026C007F6
:1044900007D070BDD4E9012130469047206A401C06
:1044A00020626D1EF6D570BD70B504468569007832
:1044B000C00707D170BDD4E9012120209047206AB0
:1044C000401C20626D1EF6D570BD70B50C460546C9
:1044D000012A05D02878800600D5EA69002302E089
:1044E000012305E05B1C934202D2E05C0028F9D175
:1044F000A869E618C01AA861286A184428622846E4
:10450000FFF7BCFF04E0D5E9012114F8010B904747
:10451000B442F8D32846FFF7C7FF70BD2DE9F0413C
:104520000646002410687529314616A510D000F003
:1045300062F9002802DA404213A507E031688A07D1
:1045400001D512A502E0490704D511A5012401E017
:1045500000F05AF900210A2206F1240709E0B0FB15
:10456000F2FCB0FBF2F302FB1C003030785418462A
:10457000491C0028F3D123462A463046BDE8F041C5
:1045800000F04BB9000000002D0000002B000000DF
:1045900020000000F0B40D460188090502D5214C29
:1045A0007C4402E01F4C7C440E34002100F12406C0
:1045B00008E002F00F071209E75D42EA03721B09E7
:1045C0007754491C52EA0307F3D1027800231207FB
:1045D00004D5702D06D009B1022311342246F0BC57
:1045E00000F01BB901231034F8E770B504460D46FE
:1045F0002146106800F008F9024629462046BDE829
:1046000070400023C6E7D21D22F00703D3E9002340
:10461000C0E70368126843F0200303600823C36106
:104620000023B7E75A2300002DE9F05F89460446CE
:104630004FF0000ADFF874B1FB44C0F820A0204618
:10464000E1688847002874D0252806D0D4E90121E4
:104650009047206A401C2062F1E700265F46204612
:10466000E16888472028054607DB312D05D27819F7
:1046700010F8200C08B10643F1E7B00701D526F089
:104680000406C4F81CA00027C4F818A02A2D09D0DD
:10469000284601F0E5F938B304EB8708303DC8F847
:1046A000185019E059F8041B204604EB8702916169
:1046B000E1688847012F054618D1E069002820DA13
:1046C00026F020061DE0D8F8180000EB800005EB6E
:1046D00040003038C8F818002046E1688847054691
:1046E00001F0BEF90028EED1012F0AD02E2D08D1FD
:1046F0002046E16888477F1C0546022F46F02006C9
:10470000C4DBA069002803DA404246F00106A0613C
:10471000F00701D026F010066C2D0BD0682D09D0C3
:104720004C2D39D06A2D35D0742D35D07A2D33D01B
:1047300016E038E0E1682F4620468847B842054633
:1047400009D16C2F26D04FF48060E16806432046E3
:104750008847054604E06C2F1AD04FF4807006435A
:104760000DB3A5F14100192802D8203546F40066A2
:104770004A462946204626604E46FBF737FD80B163
:1047800001280BD0F61D26F0070000F1080956E7B6
:104790004020E4E78020D8E70020D6E706F10409AE
:1047A0004DE7284652E7206ABDE8F09FEA22000064
:1047B00010B5431C02E010F8011B71B18107FAD15A
:1047C0004FF0013202C88C1A8C4314EAC211F9D09E
:1047D000C01A0A0603D0C01E10BDC01A10BD0A04BC
:1047E00001D0801E10BD0902FCD0401E10BD7047D4
:1047F00070477047704709684A0501D540B2704755
:10480000C905FCD500B2704709684A0501D5C0B298
:104810007047C905FCD580B270472DE9F0470D46B9
:1048200099469246044600F124080168880604D59A
:10483000E06921F01001216000E00120A84201DDC3
:10484000471B00E00027A1697A1902EB0900081A4A
:10485000A0612078C00602D42046FFF70FFE002694
:1048600008E0D4E901211AF806009047206A401CAC
:10487000761C20624E45F4DB2078C0060AD520461F
:10488000FFF7FCFD06E0D4E9012130209047206AC3
:10489000401C2062381EA7F10107F4DC07E0D4E9D0
:1048A000012118F805009047206A401C2062281E4C
:1048B000A5F10105F3DC2046FFF7F6FD20780006A0
:1048C00002D50220BDE8F0870120FBE711680268ED
:1048D000006A530501D508700AE0D30501D50880A8
:1048E00006E0130603D5C217C1E9000200E0086024
:1048F0000120704701694A1C02610878704700B5C1
:104900008FB0CDE901310021059105497944CDE908
:10491000031011466846FFF787FE0FB000BD000088
:10492000E5FFFFFF0A6802F8010B0A60704710B547
:10493000436913B1AFF3008001E0FFF7C6FD01202A
:1049400010BD127800F124010A7000224A70012281
:10495000EDE711684FF0FF32E9E70000074B70B553
:104960000D467B44FFF7CBFF0446284600F046FB8C
:1049700010B14FF0FF3070BD204670BDFDCDFFFF80
:104980002DE9FF5F15468A460446DFF8AC80F844FF
:104990000027D8E900103E46CDE9001010E03AF8B3
:1049A00016106A4602A800F02DFB411C07D02178A2
:1049B000890603D5E269391891420DD80744761C5F
:1049C0002078800602D5E069B84205DDAE42E6DB1C
:1049D0003AF816000028E2D1A069C01BA061204669
:1049E000FFF74CFDD8E90010CDE90010002017E0DA
:1049F0003AF818106A4602A800F004FBB0F1FF3F35
:104A000081460BD000250DF1080B05E0D4E901210A
:104A10001BF8050090476D1C4D45F7D308F10100C8
:104A2000B0428046E4DB206A384420622046FFF72B
:104A30003BFDBDE8FF9F0000A61F00002DE9F041EF
:104A40008046D21D22F007020025D2E90002F52996
:104A500015A614D0011E72F1000106DA0023D0EB76
:104A6000030063EB020211A608E0D8F800108B07E0
:104A700001D50FA602E0490701D50EA60125114672
:104A8000002408F1240704E000F04EF830323A55D3
:104A9000641C50EA0102F7D12B46324621464046BB
:104AA000BDE8F041FFF7B9BE000000002D00000096
:104AB0002B0000002000000030B4002100F124048D
:104AC00008E002F00705D208303542EA4372DB08FD
:104AD0006554491C52EA0305F3D10468002310A26F
:104AE000250707D5A40600D421B1C46901230DA26E
:104AF000641EC46130BCFFF790BE10B50446214669
:104B00001068FFF781FE02462046BDE810400023F2
:104B1000D2E7D21D22F00701D1E90023CCE7000043
:104B2000000000003000000030B5B0F10A024FEA8A
:104B3000900E71F100034EEA817EB0EB0E0061EB46
:104B400091014FEA101E4EEA017E10EB0E0041EB80
:104B500011114FEA102E4EEA016E10EB0E0041EBE0
:104B600011214FEA104E4EEA014E10EB0E0041EBC0
:104B70001141401841F100014FEAD00040EA417074
:104B80004FEAD10110EB80054FEA810444EA9074AA
:104B900044EB01046D1944EB0404521BA3414FF094
:104BA000000348BF0A3200D530BD401C41F100016E
:104BB00030BD70472DE9FF4F0C461E464FF0FF37C2
:104BC0008BB0D2E90001DDF860800A908A46C1F31B
:104BD0000A5505B93D46002108464FF00000BAF1DC
:104BE000000F00F4400005DA00EB80004FF44001B4
:104BF00001EA50004FEA9059B9F1010F00DDB946C2
:104C00000A9850EA4A000ED044F61050A5F2FF353B
:104C100045432F14B8F1000F1ED07542291E1EDD2A
:104C2000C9F100021CE0B8F1010F4FF0000001D003
:104C3000302103E0F24305E02154401CB042FBDB8D
:104C400030460022002121540B99C1F80880C1E9A7
:104C500000200FB0BDE8F08FBD1B6D1CDEE74A469B
:104C600000DA694206A800F05FFA06AB93E8070095
:104C700003AB83E8070050460A9900F015FB8DE866
:104C80000700A0F500501F3800900398002D0ADDA2
:104C900042F21F014A460844002303A903906846D4
:104CA00000F07EFD09E0A0F500504A461F380023C1
:104CB00003A90390684600F088FD8DE80700000412
:104CC000000C03D04FF0FF30410800E01046B8F16F
:104CD000000F03D00022009215461EE0751E05D479
:104CE000FFF722FF303262556D1EF9D5B34601221F
:104CF000084302D000227F1C04E02078302801D134
:104D000000227F1E002A099784D01DE0112D07DAAA
:104D1000FFF70AFF303262556D1C50EA0102F5D1EF
:104D2000084302D00098C8B10EE00021681E05E0DB
:104D3000235C625C63542254401E491C8142F7DBB1
:104D4000AB46A81B401E0990002004F80B000B98EE
:104D5000099AC0F80880C0E9002B7AE711264FF0C5
:104D6000000857E72DE9F04F88460446D21D22F08F
:104D7000070191B0D1E90001CDE90A0100F05CFE24
:104D800002460B98C00F01D02D2007E02068810754
:104D900001D52B2002E0202101EAC000032A09905E
:104DA00001D0072A05DB03464146204600F07CF986
:104DB0000BE12078800601D5E06900E00620B8F11B
:104DC000650F814606D0B8F1660F18D0B8F1670FAD
:104DD00070D131E00020B9F1110F009001DB1123F7
:104DE00001E009F101030AAA01A90CA8FFF7E2FEFC
:104DF000DDE90C70002609F10105834647E001203A
:104E00004B4600904FF000470AAA01A90CA8FFF7F3
:104E1000D1FEDDE90DB00C995D46002610B909F10F
:104E200001000D18B9EB050003D4C0F1FF3609F1FC
:104E30000105A5EB09002BE0B9F1010F01DA4FF0F4
:104E400001090020B9F1110F0090484601DD11233E
:104E500000E003460AAA01A90CA8FFF7ABFEDDE9B2
:104E60000C704D4600268346207800070AD4AB45D7
:104E700000DA5D4601A8012D04DD411911F8011C7D
:104E8000302907D04F4502DA17F1040F04DA012068
:104E900082460FE06D1EEEE7002F02DCED1B3E4464
:104EA00003E0781CA84200DD7D1CB81B00F1010A5C
:104EB0004FF000472078000703D4AA4501DB4FF0EC
:104EC000FF3A0021B7F1004F0DF143088DF8431070
:104ED00024D002202B23002F01DA7F422D230A2128
:104EE000021EA0F1010000DC5FB197FBF1FC97FB13
:104EF000F1F201FB1C7C17460CF1300C08F801CDD7
:104F0000EEE7A8F1010003702188090501D54521CC
:104F100000E06521A0F1010800F8011C09980FA923
:104F2000A1EB0807FF1D00B10120411901EBEA7058
:104F3000A1693844081A401EA0612078C00602D436
:104F40002046FFF79BFA099828B1D4E90121904740
:104F5000206A401C20622078C00622D52046FFF738
:104F60008DFA1EE0002E04DBB34502DD01A8805D52
:104F700000E03020D4E901219047206A401C2062E3
:104F8000761CAAF101005FEA000A0AD100F088F855
:104F9000C0680168405CD4E901219047206A401C48
:104FA0002062281EA5F10105DCDC07E0D4E901211F
:104FB00018F8010B9047206A401C2062381EA7F1A8
:104FC0000107F3DC2046FFF76FFA032011B041E63A
:104FD00010B5436913B1AFF3008001E0FFF7D0FCD7
:104FE000012010BD128800F1240182840022C284B5
:104FF0000122EDE711684FF0FF32E9E7007B00F096
:105000008000704770B516460C46054600F040F823
:10501000036893F80101012806D0FF2C0FD8185D12
:1050200068B101202C7070BDD3F8070132462146CB
:1050300003F2071303442846BDE8704018474FF0B9
:10504000FF3070BD754600F0EBF8AE4605006946CE
:10505000534620F00700854618B020B5FCF72CFC1D
:10506000BDE820404FF000064FF000074FF0000869
:105070004FF0000B21F00701AC46ACE8C009ACE8EA
:10508000C009ACE8C009ACE8C0098D467047000013
:1050900010B500F005F8001D10BD00BF010A0000AA
:1050A00000487047881200202DE9F0411F46044651
:1050B00003260168072A01F4006004DB08B116A585
:1050C00005E016A503E008B115A500E015A521F03F
:1050D00010002060A069C01EA0610FB1401EA06139
:1050E0002046FFF7CBF94FB1D4E90121384690476C
:1050F000206A401C2062C01C206206E0206AFAE799
:10510000D4E9012115F8010B9047761EF8D220460C
:10511000FFF7CAF9BDE8F0814E414E006E616E00A6
:10512000494E4600696E66002DE9F04781461646F5
:105130008AB0354878440DC88DE80D00324878446F
:10514000801C03AC0DC884E80D0041F69B30084478
:10515000372190FBF1F290FBF1F5A5F1800501FB01
:1051600012041B3C02D56442012000E00020DFF85D
:1051700098A080460027FA44AAF1BE0A0EE0E00794
:105180000AD03246684607EB470101230AEB81014A
:1051900000F01BFB8DE8070064107F1C002CEED193
:1051A000194F7F44AE3F19E0E80715D007EB041014
:1051B0000DF1180A90E80E008AE80E00C068F0426F
:1051C00001D1981908903246012306A903A800F0DE
:1051D000FCFA03AB83E807006D10641C002DE3D1DB
:1051E0004FF0010332466946B8F1000F03A802D020
:1051F00000F0D6FA01E000F0E8FAC9E90001C9F8C8
:1052000008200AB0BDE8F0878418000010B50446F5
:10521000AFF300802046BDE81040FBF74AB800001D
:1052200000487047681200204FF0013C50F8042BF2
:1052300051F8043B9A4221D1A2EB0C03934313EAA9
:10524000CC1317D150F8042B51F8043B9A4215D1D6
:10525000A2EB0C03934313EACC130BD150F8042BAD
:1052600051F8043B9A4209D1A2EB0C03934313EA91
:10527000CC13DBD04FF00000704700BFD01A01BA4A
:10528000B1FA81F101F0180122FA01F0CB40C1F12D
:105290002001DBB2C0B2C01A2CFA01F3D11A91433B
:1052A00011EAC311E6D170475FEA400C08BF91F0E4
:1052B000000F4FEA8C234FEAC12243EA51514FEAD3
:1052C0001C5018BF00F5F0404FEA300018BF41F005
:1052D00000415FEA6C5C00F02980BCF1FF3F08BF31
:1052E00040F080407047130C06BF12044FF0100CC2
:1052F0004FF0000C130E04BF12020CF1080C130F38
:1053000004BF12010CF1040C930F04BF92000CF1C6
:10531000020CD30F04BF52000CF1010C11464FF0E8
:105320000002A0F11F00A0EB0C00704711F0004F2D
:1053300008BF704731F000413FF4D5AF0B0C06BFFA
:1053400009044FF0100C4FF0000C0B0E04BF0902C3
:105350000CF1080C0B0F04BF09010CF1040C8B0FAE
:1053600004BF89000CF1020CCB0F04BF49000CF103
:10537000010CCCF12003A0EB0C0022FA03F302FA9B
:105380000CF241EA030100F10100704720F07F4C6C
:1053900080EA030023F07F47ACEB070303F57C535F
:1053A00000F0004003F1FF032DE980494FEA154B5F
:1053B00009B44FEA144325EA0B4E24EA03480FF2DE
:1053C000042606EB132749083E785FEA320203FB06
:1053D0000667C7F5000707FB06F64FEA54374FEAA2
:1053E000D64606F1020607FB066CCCF1005C4FEADC
:1053F0001C472CEA074C07FB06F40CFB06F504EBF4
:1054000015464FEA961634BF00204FF000404FEA91
:10541000D13706FB07FC4FEA1C4C0CFB0BF7D21BE9
:1054200003FB0CF761EB07010CFB0EF7B0EB074039
:1054300072EB17420CFB08F734BFA2EB0742B2EB4A
:10544000074261EB17414FEA0C444FEA910706FB14
:1054500007FC4FEA1C4C0CFB0BF7B0EBC74072EBA0
:10546000573203FB0CF734BFA2EBC742B2EBC74283
:1054700061EB57310CFB0EF7B0EBC70072EB5772C4
:105480000CFB08F734BFA2EBC702B2EBC70261EB1B
:105490005771039F4FEA816141EA921104EBCC04FA
:1054A0004FEAD1374FEA826206FB07FC42EA9012CC
:1054B0004FEA80604FEA1C4C0CFB0BF7D21B03FB3E
:1054C0000CF761EB07010CFB0EF7B0EB074072EB3A
:1054D00017420CFB08F734BFA2EB0742B2EB0742BE
:1054E00061EB17414FEA8C554FEA910704EB9C247E
:1054F00006FB07FC4FEA1C4C0CFB0BF7B0EBC7405C
:1055000072EB573203FB0CF734BFA2EBC742B2EB8E
:10551000C74261EB57310CFB0EF7B0EBC70072EBE3
:1055200057720CFB08F734BFA2EBC702B2EBC702FD
:1055300061EB577115EB4C254FEA816141EA9211FD
:105540004FEA82624FEAD13742EA901206FB07FC2B
:1055500044F100044FEA80604FEA1C4C0CFB0BF74F
:10556000D21B03FB0CF761EB07010CFB0EF7B0EB52
:10557000074072EB17420CFB08F734BFA2EB07425F
:10558000B2EB074261EB174115EB1C154FEA813175
:1055900041EA92414FEA823242EA90424FEA803039
:1055A0004FEA0C7644F1000448EA03434EEA0B4804
:1055B0004FF0000EB2EB080C71EB030724BF6246FC
:1055C00039464EEB0E0E4FF0000B00185241494188
:1055D0004BEB0B0BB2EB080C71EB03077BF1000BF1
:1055E00024BF624639464EEB0E0E4FF0000B0018FA
:1055F000524149414BEB0B0BB2EB080C71EB03072B
:105600007BF1000B24BF624639464EEB0E0E51EA89
:10561000020718BF46F0010616EB0E7655F10002A0
:1056200054F1000103D5BDE88901BDE80088BDE85B
:105630008901BDE80048B619524141EB0101A3F1CF
:105640000103704780807F7E7D7C7B7A79787776D6
:1056500076757473727171706F6E6E6D6C6C6B6A4F
:105660006A696868676666656464636362616160ED
:10567000605F5F5E5E5D5D5C5C5B5B5A5A5959586A
:1056800058575756565555555454535352525251D4
:10569000515050504F4F4F4E4E4D4D4D4C4C4C4B2A
:1056A0004B4B4A4A4A494949484848474747474671
:1056B00046464545454444444443434343424242AD
:1056C00042414141002B9C4630D477002BD01CB581
:1056D0004FEA370703B44FF010004FF01001BAF152
:1056E000000F06D0BCF1000FDCBF40F0080040F016
:1056F00008014FF000000FBCBDE810400BF1010B9A
:10570000BBF1010F08BF5FEA170722BF12F10102C8
:1057100011F101014FF0004143F1000300F000409E
:1057200043EA00007047F9D35708D0E746EA064637
:1057300013F1400F4FEA16461FDD13F1200FDFBFB4
:1057400016430A46002120335B42BED0C3F1200736
:1057500046EA064602FA07F74FEA164646EA070601
:10576000C3F1200722FA03F201FA07F721FA03F145
:105770004FF0000342EA0702A7E746EA020646EABC
:1057800006464FEA164646EA0106BCBF46EA06460A
:10579000360C4FF000034FF000024FF0000194E789
:1057A0002DE9804C9A46934670B491E8380007C8BA
:1057B00031EA400C48BF34EA430C03D5FFF7E6FD5D
:1057C000FFF780FFF0BCBDE8008C2DE9804C9A46C5
:1057D000934670B491E8380007C810F0804F08BFB6
:1057E00013F0804F03D100F005F8FFF76BFFF0BC1A
:1057F000BDE8008C20F07F4780EA030023F07F4C57
:1058000007EB0C03A3F57C5300F00040A3F1FE036B
:1058100092F0000F00F0B38095F0000F00F0778059
:105820002DE901494FEA11404FEA144621EA0048A8
:1058300000FB06FC24EA064708FB06F607FB08F80F
:1058400000FB07F718EB06484CEB164C4FEA124BDF
:1058500018EB07484FEA15464CEB174022EA0B4E6F
:105860000BFB06FC25EA06470EFB06F607FB0EFEC1
:105870000BFB07F71EEB064E4CEB164C4FF00006E9
:105880001EEB074E4CEB174B18EB0B0840F10000DA
:1058900018EB0E0B58EB000840F100008F1A4FF088
:1058A00000013CBFC943661B14BFB5EB040C0021CB
:1058B0003CBFC943F61B4FEA17444EEA8E0E27EA57
:1058C00004454FEA1C4704FB07622CEA074C05FB22
:1058D00007F70CFB05F604FB0CFC16EB074642EB46
:1058E000174216EB0C4642EB1C421BEB060658EB2C
:1058F0000202414146EA9E0601D5BDE80189B6197A
:10590000524141EB0101A3F10103BDE801894FEAD6
:1059100014454FEA114724EA054621EA074C05FBE6
:1059200007F406FB07F70CFB06F105FB0CFC11EB7B
:10593000074144EB17444FEA124711EB0C4144EB8B
:105940001C4422EA074C05FB07F206FB07F70CFB99
:1059500006F605FB0CFC16EB074642EB174216EB6E
:105960000C4642EB1C456A1854F1000148BF7047D1
:10597000B619524141EB0101A3F10103704795F0C3
:10598000000F37D04FEA11424FEA144721EA02468E
:1059900024EA074C02FB07F106FB07F70CFB06F4B1
:1059A00002FB0CFC14EB074441EB17414FEA15478F
:1059B00014EB0C4441EB1C4125EA074C02FB07F5B4
:1059C00006FB07F70CFB06F602FB0CFC16EB074682
:1059D00045EB174516EB0C4645EB1C42121951F1ED
:1059E000000148BF7047B619524141EB0101A3F1D4
:1059F000010370474FEA14454FEA114724EA054670
:105A000021EA074C05FB07F106FB07F70CFB06F242
:105A10004FF0000605FB0CFC12EB074241EB17416F
:105A200012EB0C4251EB1C4148BF7047921841EBFE
:105A30000101A3F101037047490050EAC12018BFDA
:105A400004204A0D18BF40F0010040F2FF72B2EB93
:105A5000515F08BF40F00200012808BF05207047D1
:105A600030380A2801D2012070470020704700001A
:105A700010B500290AD00878002807D005487844D6
:105A8000FFF7D2FB002801D0002010BD0248784467
:105A900010BD00000E1000000610000010B5002917
:105AA0000AD00878002807D005487844FFF7BCFBE7
:105AB000002801D0002010BD0248784410BD00002D
:105AC000FE0F0000F60F000090EA010F48BF81F0C2
:105AD000004100F19882421A3CBF801A89184FEAAF
